{
	"contracts/ZombieFactory.sol": {
		"ZombieFactory": {
			"abi": [
				{
					"anonymous": false,
					"inputs": [
						{
							"indexed": false,
							"internalType": "uint256",
							"name": "zombieId",
							"type": "uint256"
						},
						{
							"indexed": false,
							"internalType": "string",
							"name": "name",
							"type": "string"
						},
						{
							"indexed": false,
							"internalType": "uint256",
							"name": "dna",
							"type": "uint256"
						}
					],
					"name": "NewZombie",
					"type": "event"
				},
				{
					"inputs": [
						{
							"internalType": "string",
							"name": "_name",
							"type": "string"
						}
					],
					"name": "createRandomZombie",
					"outputs": [],
					"stateMutability": "nonpayable",
					"type": "function"
				},
				{
					"inputs": [
						{
							"internalType": "uint256",
							"name": "",
							"type": "uint256"
						}
					],
					"name": "zombies",
					"outputs": [
						{
							"internalType": "string",
							"name": "name",
							"type": "string"
						},
						{
							"internalType": "uint256",
							"name": "dna",
							"type": "uint256"
						}
					],
					"stateMutability": "view",
					"type": "function"
				}
			],
			"devdoc": {
				"kind": "dev",
				"methods": {},
				"version": 1
			},
			"evm": {
				"assembly": "    /* \"contracts/ZombieFactory.sol\":69:802  contract ZombieFactory {... */\n  mstore(0x40, 0x80)\n    /* \"contracts/ZombieFactory.sol\":116:118  16 */\n  0x10\n    /* \"contracts/ZombieFactory.sol\":99:118  uint dnaDigits = 16 */\n  0x00\n  sstore\n    /* \"contracts/ZombieFactory.sol\":149:158  dnaDigits */\n  sload(0x00)\n    /* \"contracts/ZombieFactory.sol\":143:145  10 */\n  0x0a\n    /* \"contracts/ZombieFactory.sol\":143:158  10 ** dnaDigits */\n  tag_1\n  swap2\n  swap1\n  tag_2\n  jump\t// in\ntag_1:\n    /* \"contracts/ZombieFactory.sol\":125:158  uint dnaModulus = 10 ** dnaDigits */\n  0x01\n  sstore\n    /* \"contracts/ZombieFactory.sol\":69:802  contract ZombieFactory {... */\n  callvalue\n  dup1\n  iszero\n  tag_3\n  jumpi\n  0x00\n  dup1\n  revert\ntag_3:\n  pop\n  jump(tag_4)\n    /* \"#utility.yul\":7:187   */\ntag_5:\n    /* \"#utility.yul\":55:132   */\n  0x4e487b7100000000000000000000000000000000000000000000000000000000\n    /* \"#utility.yul\":52:53   */\n  0x00\n    /* \"#utility.yul\":45:133   */\n  mstore\n    /* \"#utility.yul\":152:156   */\n  0x11\n    /* \"#utility.yul\":149:150   */\n  0x04\n    /* \"#utility.yul\":142:157   */\n  mstore\n    /* \"#utility.yul\":176:180   */\n  0x24\n    /* \"#utility.yul\":173:174   */\n  0x00\n    /* \"#utility.yul\":166:181   */\n  revert\n    /* \"#utility.yul\":193:295   */\ntag_6:\n    /* \"#utility.yul\":235:243   */\n  0x00\n    /* \"#utility.yul\":282:287   */\n  dup2\n    /* \"#utility.yul\":279:280   */\n  0x01\n    /* \"#utility.yul\":275:288   */\n  shr\n    /* \"#utility.yul\":254:288   */\n  swap1\n  pop\n    /* \"#utility.yul\":193:295   */\n  swap2\n  swap1\n  pop\n  jump\t// out\n    /* \"#utility.yul\":301:1149   */\ntag_7:\n    /* \"#utility.yul\":362:367   */\n  0x00\n    /* \"#utility.yul\":369:373   */\n  dup1\n    /* \"#utility.yul\":393:399   */\n  dup3\n    /* \"#utility.yul\":384:399   */\n  swap2\n  pop\n    /* \"#utility.yul\":417:422   */\n  dup4\n    /* \"#utility.yul\":408:422   */\n  swap1\n  pop\n    /* \"#utility.yul\":431:1143   */\ntag_14:\n    /* \"#utility.yul\":452:453   */\n  0x01\n    /* \"#utility.yul\":442:450   */\n  dup6\n    /* \"#utility.yul\":439:454   */\n  gt\n    /* \"#utility.yul\":431:1143   */\n  iszero\n  tag_16\n  jumpi\n    /* \"#utility.yul\":547:551   */\n  dup1\n    /* \"#utility.yul\":542:545   */\n  dup7\n    /* \"#utility.yul\":538:552   */\n  div\n    /* \"#utility.yul\":532:536   */\n  dup2\n    /* \"#utility.yul\":529:553   */\n  gt\n    /* \"#utility.yul\":526:576   */\n  iszero\n  tag_17\n  jumpi\n    /* \"#utility.yul\":556:574   */\n  tag_18\n  tag_5\n  jump\t// in\ntag_18:\n    /* \"#utility.yul\":526:576   */\ntag_17:\n    /* \"#utility.yul\":606:607   */\n  0x01\n    /* \"#utility.yul\":596:604   */\n  dup6\n    /* \"#utility.yul\":592:608   */\n  and\n    /* \"#utility.yul\":589:1040   */\n  iszero\n  tag_19\n  jumpi\n    /* \"#utility.yul\":1021:1025   */\n  dup1\n    /* \"#utility.yul\":1014:1019   */\n  dup3\n    /* \"#utility.yul\":1010:1026   */\n  mul\n    /* \"#utility.yul\":1001:1026   */\n  swap2\n  pop\n    /* \"#utility.yul\":589:1040   */\ntag_19:\n    /* \"#utility.yul\":1071:1075   */\n  dup1\n    /* \"#utility.yul\":1065:1069   */\n  dup2\n    /* \"#utility.yul\":1061:1076   */\n  mul\n    /* \"#utility.yul\":1053:1076   */\n  swap1\n  pop\n    /* \"#utility.yul\":1101:1133   */\n  tag_20\n    /* \"#utility.yul\":1124:1132   */\n  dup6\n    /* \"#utility.yul\":1101:1133   */\n  tag_6\n  jump\t// in\ntag_20:\n    /* \"#utility.yul\":1089:1133   */\n  swap5\n  pop\n    /* \"#utility.yul\":431:1143   */\n  jump(tag_14)\ntag_16:\n    /* \"#utility.yul\":301:1149   */\n  swap5\n  pop\n  swap5\n  swap3\n  pop\n  pop\n  pop\n  jump\t// out\n    /* \"#utility.yul\":1155:2228   */\ntag_8:\n    /* \"#utility.yul\":1209:1214   */\n  0x00\n    /* \"#utility.yul\":1400:1408   */\n  dup3\n    /* \"#utility.yul\":1390:1430   */\n  tag_22\n  jumpi\n    /* \"#utility.yul\":1421:1422   */\n  0x01\n    /* \"#utility.yul\":1412:1422   */\n  swap1\n  pop\n    /* \"#utility.yul\":1423:1428   */\n  jump(tag_21)\n    /* \"#utility.yul\":1390:1430   */\ntag_22:\n    /* \"#utility.yul\":1449:1453   */\n  dup2\n    /* \"#utility.yul\":1439:1475   */\n  tag_23\n  jumpi\n    /* \"#utility.yul\":1466:1467   */\n  0x00\n    /* \"#utility.yul\":1457:1467   */\n  swap1\n  pop\n    /* \"#utility.yul\":1468:1473   */\n  jump(tag_21)\n    /* \"#utility.yul\":1439:1475   */\ntag_23:\n    /* \"#utility.yul\":1535:1539   */\n  dup2\n    /* \"#utility.yul\":1583:1584   */\n  0x01\n    /* \"#utility.yul\":1578:1605   */\n  dup2\n  eq\n  tag_25\n  jumpi\n    /* \"#utility.yul\":1619:1620   */\n  0x02\n    /* \"#utility.yul\":1614:1805   */\n  dup2\n  eq\n  tag_26\n  jumpi\n    /* \"#utility.yul\":1528:1805   */\n  jump(tag_24)\n    /* \"#utility.yul\":1578:1605   */\ntag_25:\n    /* \"#utility.yul\":1596:1597   */\n  0x01\n    /* \"#utility.yul\":1587:1597   */\n  swap2\n  pop\n    /* \"#utility.yul\":1598:1603   */\n  pop\n  jump(tag_21)\n    /* \"#utility.yul\":1614:1805   */\ntag_26:\n    /* \"#utility.yul\":1659:1662   */\n  0xff\n    /* \"#utility.yul\":1649:1657   */\n  dup5\n    /* \"#utility.yul\":1646:1663   */\n  gt\n    /* \"#utility.yul\":1643:1686   */\n  iszero\n  tag_27\n  jumpi\n    /* \"#utility.yul\":1666:1684   */\n  tag_28\n  tag_5\n  jump\t// in\ntag_28:\n    /* \"#utility.yul\":1643:1686   */\ntag_27:\n    /* \"#utility.yul\":1715:1723   */\n  dup4\n    /* \"#utility.yul\":1712:1713   */\n  0x02\n    /* \"#utility.yul\":1708:1724   */\n  exp\n    /* \"#utility.yul\":1699:1724   */\n  swap2\n  pop\n    /* \"#utility.yul\":1750:1753   */\n  dup5\n    /* \"#utility.yul\":1743:1748   */\n  dup3\n    /* \"#utility.yul\":1740:1754   */\n  gt\n    /* \"#utility.yul\":1737:1777   */\n  iszero\n  tag_29\n  jumpi\n    /* \"#utility.yul\":1757:1775   */\n  tag_30\n  tag_5\n  jump\t// in\ntag_30:\n    /* \"#utility.yul\":1737:1777   */\ntag_29:\n    /* \"#utility.yul\":1790:1795   */\n  pop\n  jump(tag_21)\n    /* \"#utility.yul\":1528:1805   */\ntag_24:\n  pop\n    /* \"#utility.yul\":1914:1916   */\n  0x20\n    /* \"#utility.yul\":1904:1912   */\n  dup4\n    /* \"#utility.yul\":1901:1917   */\n  lt\n    /* \"#utility.yul\":1895:1898   */\n  0x0133\n    /* \"#utility.yul\":1889:1893   */\n  dup4\n    /* \"#utility.yul\":1886:1899   */\n  lt\n    /* \"#utility.yul\":1882:1918   */\n  and\n    /* \"#utility.yul\":1864:1866   */\n  0x4e\n    /* \"#utility.yul\":1854:1862   */\n  dup5\n    /* \"#utility.yul\":1851:1867   */\n  lt\n    /* \"#utility.yul\":1846:1848   */\n  0x0b\n    /* \"#utility.yul\":1840:1844   */\n  dup5\n    /* \"#utility.yul\":1837:1849   */\n  lt\n    /* \"#utility.yul\":1833:1868   */\n  and\n    /* \"#utility.yul\":1817:1928   */\n  or\n    /* \"#utility.yul\":1814:2060   */\n  iszero\n  tag_31\n  jumpi\n    /* \"#utility.yul\":1970:1978   */\n  dup3\n    /* \"#utility.yul\":1964:1968   */\n  dup3\n    /* \"#utility.yul\":1960:1979   */\n  exp\n    /* \"#utility.yul\":1951:1979   */\n  swap1\n  pop\n    /* \"#utility.yul\":2005:2008   */\n  dup4\n    /* \"#utility.yul\":1998:2003   */\n  dup2\n    /* \"#utility.yul\":1995:2009   */\n  gt\n    /* \"#utility.yul\":1992:2032   */\n  iszero\n  tag_32\n  jumpi\n    /* \"#utility.yul\":2012:2030   */\n  tag_33\n  tag_5\n  jump\t// in\ntag_33:\n    /* \"#utility.yul\":1992:2032   */\ntag_32:\n    /* \"#utility.yul\":2045:2050   */\n  jump(tag_21)\n    /* \"#utility.yul\":1814:2060   */\ntag_31:\n    /* \"#utility.yul\":2085:2127   */\n  tag_34\n    /* \"#utility.yul\":2123:2126   */\n  dup5\n    /* \"#utility.yul\":2113:2121   */\n  dup5\n    /* \"#utility.yul\":2107:2111   */\n  dup5\n    /* \"#utility.yul\":2104:2105   */\n  0x01\n    /* \"#utility.yul\":2085:2127   */\n  tag_7\n  jump\t// in\ntag_34:\n    /* \"#utility.yul\":2070:2127   */\n  swap3\n  pop\n  swap1\n  pop\n    /* \"#utility.yul\":2159:2163   */\n  dup2\n    /* \"#utility.yul\":2154:2157   */\n  dup5\n    /* \"#utility.yul\":2150:2164   */\n  div\n    /* \"#utility.yul\":2143:2148   */\n  dup2\n    /* \"#utility.yul\":2140:2165   */\n  gt\n    /* \"#utility.yul\":2137:2188   */\n  iszero\n  tag_35\n  jumpi\n    /* \"#utility.yul\":2168:2186   */\n  tag_36\n  tag_5\n  jump\t// in\ntag_36:\n    /* \"#utility.yul\":2137:2188   */\ntag_35:\n    /* \"#utility.yul\":2217:2221   */\n  dup2\n    /* \"#utility.yul\":2210:2215   */\n  dup2\n    /* \"#utility.yul\":2206:2222   */\n  mul\n    /* \"#utility.yul\":2197:2222   */\n  swap1\n  pop\n    /* \"#utility.yul\":1155:2228   */\ntag_21:\n  swap4\n  swap3\n  pop\n  pop\n  pop\n  jump\t// out\n    /* \"#utility.yul\":2234:2311   */\ntag_9:\n    /* \"#utility.yul\":2271:2278   */\n  0x00\n    /* \"#utility.yul\":2300:2305   */\n  dup2\n    /* \"#utility.yul\":2289:2305   */\n  swap1\n  pop\n    /* \"#utility.yul\":2234:2311   */\n  swap2\n  swap1\n  pop\n  jump\t// out\n    /* \"#utility.yul\":2317:2602   */\ntag_2:\n    /* \"#utility.yul\":2377:2382   */\n  0x00\n    /* \"#utility.yul\":2401:2424   */\n  tag_39\n    /* \"#utility.yul\":2419:2423   */\n  dup3\n    /* \"#utility.yul\":2401:2424   */\n  tag_9\n  jump\t// in\ntag_39:\n    /* \"#utility.yul\":2393:2424   */\n  swap2\n  pop\n    /* \"#utility.yul\":2445:2472   */\n  tag_40\n    /* \"#utility.yul\":2463:2471   */\n  dup4\n    /* \"#utility.yul\":2445:2472   */\n  tag_9\n  jump\t// in\ntag_40:\n    /* \"#utility.yul\":2433:2472   */\n  swap3\n  pop\n    /* \"#utility.yul\":2491:2595   */\n  tag_41\n    /* \"#utility.yul\":2528:2594   */\n  0xffffffffffffffffffffffffffffffffffffffffffffffffffffffffffffffff\n    /* \"#utility.yul\":2518:2526   */\n  dup5\n    /* \"#utility.yul\":2512:2516   */\n  dup5\n    /* \"#utility.yul\":2491:2595   */\n  tag_8\n  jump\t// in\ntag_41:\n    /* \"#utility.yul\":2482:2595   */\n  swap1\n  pop\n    /* \"#utility.yul\":2317:2602   */\n  swap3\n  swap2\n  pop\n  pop\n  jump\t// out\n    /* \"contracts/ZombieFactory.sol\":69:802  contract ZombieFactory {... */\ntag_4:\n  dataSize(sub_0)\n  dup1\n  dataOffset(sub_0)\n  0x00\n  codecopy\n  0x00\n  return\nstop\n\nsub_0: assembly {\n        /* \"contracts/ZombieFactory.sol\":69:802  contract ZombieFactory {... */\n      mstore(0x40, 0x80)\n      callvalue\n      dup1\n      iszero\n      tag_1\n      jumpi\n      0x00\n      dup1\n      revert\n    tag_1:\n      pop\n      jumpi(tag_2, lt(calldatasize, 0x04))\n      shr(0xe0, calldataload(0x00))\n      dup1\n      0x2052465e\n      eq\n      tag_3\n      jumpi\n      dup1\n      0x7bff0a01\n      eq\n      tag_4\n      jumpi\n    tag_2:\n      0x00\n      dup1\n      revert\n        /* \"contracts/ZombieFactory.sol\":237:260  Zombie[] public zombies */\n    tag_3:\n      tag_5\n      0x04\n      dup1\n      calldatasize\n      sub\n      dup2\n      add\n      swap1\n      tag_6\n      swap2\n      swap1\n      tag_7\n      jump\t// in\n    tag_6:\n      tag_8\n      jump\t// in\n    tag_5:\n      mload(0x40)\n      tag_9\n      swap3\n      swap2\n      swap1\n      tag_10\n      jump\t// in\n    tag_9:\n      mload(0x40)\n      dup1\n      swap2\n      sub\n      swap1\n      return\n        /* \"contracts/ZombieFactory.sol\":676:799  function createRandomZombie(string calldata _name) public {... */\n    tag_4:\n      tag_11\n      0x04\n      dup1\n      calldatasize\n      sub\n      dup2\n      add\n      swap1\n      tag_12\n      swap2\n      swap1\n      tag_13\n      jump\t// in\n    tag_12:\n      tag_14\n      jump\t// in\n    tag_11:\n      stop\n        /* \"contracts/ZombieFactory.sol\":237:260  Zombie[] public zombies */\n    tag_8:\n      0x02\n      dup2\n      dup2\n      sload\n      dup2\n      lt\n      tag_15\n      jumpi\n      0x00\n      dup1\n      revert\n    tag_15:\n      swap1\n      0x00\n      mstore\n      keccak256(0x00, 0x20)\n      swap1\n      0x02\n      mul\n      add\n      0x00\n      swap2\n      pop\n      swap1\n      pop\n      dup1\n      0x00\n      add\n      dup1\n      sload\n      tag_17\n      swap1\n      tag_18\n      jump\t// in\n    tag_17:\n      dup1\n      0x1f\n      add\n      0x20\n      dup1\n      swap2\n      div\n      mul\n      0x20\n      add\n      mload(0x40)\n      swap1\n      dup2\n      add\n      0x40\n      mstore\n      dup1\n      swap3\n      swap2\n      swap1\n      dup2\n      dup2\n      mstore\n      0x20\n      add\n      dup3\n      dup1\n      sload\n      tag_19\n      swap1\n      tag_18\n      jump\t// in\n    tag_19:\n      dup1\n      iszero\n      tag_20\n      jumpi\n      dup1\n      0x1f\n      lt\n      tag_21\n      jumpi\n      0x0100\n      dup1\n      dup4\n      sload\n      div\n      mul\n      dup4\n      mstore\n      swap2\n      0x20\n      add\n      swap2\n      jump(tag_20)\n    tag_21:\n      dup3\n      add\n      swap2\n      swap1\n      0x00\n      mstore\n      keccak256(0x00, 0x20)\n      swap1\n    tag_22:\n      dup2\n      sload\n      dup2\n      mstore\n      swap1\n      0x01\n      add\n      swap1\n      0x20\n      add\n      dup1\n      dup4\n      gt\n      tag_22\n      jumpi\n      dup3\n      swap1\n      sub\n      0x1f\n      and\n      dup3\n      add\n      swap2\n    tag_20:\n      pop\n      pop\n      pop\n      pop\n      pop\n      swap1\n      dup1\n      0x01\n      add\n      sload\n      swap1\n      pop\n      dup3\n      jump\t// out\n        /* \"contracts/ZombieFactory.sol\":676:799  function createRandomZombie(string calldata _name) public {... */\n    tag_14:\n        /* \"contracts/ZombieFactory.sol\":745:791  _createZombie(_name,_generateRandomDna(_name)) */\n      tag_24\n        /* \"contracts/ZombieFactory.sol\":759:764  _name */\n      dup3\n      dup3\n        /* \"contracts/ZombieFactory.sol\":765:790  _generateRandomDna(_name) */\n      tag_25\n        /* \"contracts/ZombieFactory.sol\":784:789  _name */\n      dup6\n      dup6\n        /* \"contracts/ZombieFactory.sol\":765:783  _generateRandomDna */\n      tag_26\n        /* \"contracts/ZombieFactory.sol\":765:790  _generateRandomDna(_name) */\n      jump\t// in\n    tag_25:\n        /* \"contracts/ZombieFactory.sol\":745:758  _createZombie */\n      tag_27\n        /* \"contracts/ZombieFactory.sol\":745:791  _createZombie(_name,_generateRandomDna(_name)) */\n      jump\t// in\n    tag_24:\n        /* \"contracts/ZombieFactory.sol\":676:799  function createRandomZombie(string calldata _name) public {... */\n      pop\n      pop\n      jump\t// out\n        /* \"contracts/ZombieFactory.sol\":511:668  function _generateRandomDna(string calldata _str) private view  returns (uint) {... */\n    tag_26:\n        /* \"contracts/ZombieFactory.sol\":584:588  uint */\n      0x00\n        /* \"contracts/ZombieFactory.sol\":650:660  dnaModulus */\n      sload(0x01)\n        /* \"contracts/ZombieFactory.sol\":640:644  _str */\n      dup4\n      dup4\n        /* \"contracts/ZombieFactory.sol\":623:645  abi.encodePacked(_str) */\n      add(0x20, mload(0x40))\n      tag_29\n      swap3\n      swap2\n      swap1\n      tag_30\n      jump\t// in\n    tag_29:\n      mload(0x40)\n      0x20\n      dup2\n      dup4\n      sub\n      sub\n      dup2\n      mstore\n      swap1\n      0x40\n      mstore\n        /* \"contracts/ZombieFactory.sol\":613:646  keccak256(abi.encodePacked(_str)) */\n      dup1\n      mload\n      swap1\n      0x20\n      add\n      keccak256\n        /* \"contracts/ZombieFactory.sol\":608:647  uint(keccak256(abi.encodePacked(_str))) */\n      0x00\n      shr\n        /* \"contracts/ZombieFactory.sol\":608:660  uint(keccak256(abi.encodePacked(_str))) % dnaModulus */\n      tag_31\n      swap2\n      swap1\n      tag_32\n      jump\t// in\n    tag_31:\n        /* \"contracts/ZombieFactory.sol\":601:660  return uint(keccak256(abi.encodePacked(_str))) % dnaModulus */\n      swap1\n      pop\n        /* \"contracts/ZombieFactory.sol\":511:668  function _generateRandomDna(string calldata _str) private view  returns (uint) {... */\n      swap3\n      swap2\n      pop\n      pop\n      jump\t// out\n        /* \"contracts/ZombieFactory.sol\":333:503  function _createZombie(string calldata _name,uint _dna) private {... */\n    tag_27:\n        /* \"contracts/ZombieFactory.sol\":408:415  zombies */\n      0x02\n        /* \"contracts/ZombieFactory.sol\":421:439  Zombie(_name,_dna) */\n      mload(0x40)\n      dup1\n      0x40\n      add\n      0x40\n      mstore\n      dup1\n        /* \"contracts/ZombieFactory.sol\":428:433  _name */\n      dup6\n      dup6\n        /* \"contracts/ZombieFactory.sol\":421:439  Zombie(_name,_dna) */\n      dup1\n      dup1\n      0x1f\n      add\n      0x20\n      dup1\n      swap2\n      div\n      mul\n      0x20\n      add\n      mload(0x40)\n      swap1\n      dup2\n      add\n      0x40\n      mstore\n      dup1\n      swap4\n      swap3\n      swap2\n      swap1\n      dup2\n      dup2\n      mstore\n      0x20\n      add\n      dup4\n      dup4\n      dup1\n      dup3\n      dup5\n      calldatacopy\n      0x00\n      dup2\n      dup5\n      add\n      mstore\n      not(0x1f)\n      0x1f\n      dup3\n      add\n      and\n      swap1\n      pop\n      dup1\n      dup4\n      add\n      swap3\n      pop\n      pop\n      pop\n      pop\n      pop\n      pop\n      pop\n      dup2\n      mstore\n      0x20\n      add\n        /* \"contracts/ZombieFactory.sol\":434:438  _dna */\n      dup4\n        /* \"contracts/ZombieFactory.sol\":421:439  Zombie(_name,_dna) */\n      dup2\n      mstore\n      pop\n        /* \"contracts/ZombieFactory.sol\":408:440  zombies.push(Zombie(_name,_dna)) */\n      swap1\n      dup1\n      0x01\n      dup2\n      sload\n      add\n      dup1\n      dup3\n      sstore\n      dup1\n      swap2\n      pop\n      pop\n      0x01\n      swap1\n      sub\n      swap1\n      0x00\n      mstore\n      keccak256(0x00, 0x20)\n      swap1\n      0x02\n      mul\n      add\n      0x00\n      swap1\n      swap2\n      swap1\n      swap2\n      swap1\n      swap2\n      pop\n      0x00\n      dup3\n      add\n      mload\n      dup2\n      0x00\n      add\n      swap1\n      dup2\n      tag_35\n      swap2\n      swap1\n      tag_36\n      jump\t// in\n    tag_35:\n      pop\n      0x20\n      dup3\n      add\n      mload\n      dup2\n      0x01\n      add\n      sstore\n      pop\n      pop\n        /* \"contracts/ZombieFactory.sol\":457:495  NewZombie(zombies.length-1,_name,_dna) */\n      0x88f026aacbbecc90c18411df4b1185fd8d9be2470f1962f192bf84a27d0704b7\n        /* \"contracts/ZombieFactory.sol\":482:483  1 */\n      0x01\n        /* \"contracts/ZombieFactory.sol\":467:474  zombies */\n      0x02\n        /* \"contracts/ZombieFactory.sol\":467:481  zombies.length */\n      dup1\n      sload\n      swap1\n      pop\n        /* \"contracts/ZombieFactory.sol\":467:483  zombies.length-1 */\n      tag_37\n      swap2\n      swap1\n      tag_38\n      jump\t// in\n    tag_37:\n        /* \"contracts/ZombieFactory.sol\":484:489  _name */\n      dup5\n      dup5\n        /* \"contracts/ZombieFactory.sol\":490:494  _dna */\n      dup5\n        /* \"contracts/ZombieFactory.sol\":457:495  NewZombie(zombies.length-1,_name,_dna) */\n      mload(0x40)\n      tag_39\n      swap5\n      swap4\n      swap3\n      swap2\n      swap1\n      tag_40\n      jump\t// in\n    tag_39:\n      mload(0x40)\n      dup1\n      swap2\n      sub\n      swap1\n      log1\n        /* \"contracts/ZombieFactory.sol\":333:503  function _createZombie(string calldata _name,uint _dna) private {... */\n      pop\n      pop\n      pop\n      jump\t// out\n        /* \"#utility.yul\":88:205   */\n    tag_42:\n        /* \"#utility.yul\":197:198   */\n      0x00\n        /* \"#utility.yul\":194:195   */\n      dup1\n        /* \"#utility.yul\":187:199   */\n      revert\n        /* \"#utility.yul\":211:328   */\n    tag_43:\n        /* \"#utility.yul\":320:321   */\n      0x00\n        /* \"#utility.yul\":317:318   */\n      dup1\n        /* \"#utility.yul\":310:322   */\n      revert\n        /* \"#utility.yul\":334:411   */\n    tag_44:\n        /* \"#utility.yul\":371:378   */\n      0x00\n        /* \"#utility.yul\":400:405   */\n      dup2\n        /* \"#utility.yul\":389:405   */\n      swap1\n      pop\n        /* \"#utility.yul\":334:411   */\n      swap2\n      swap1\n      pop\n      jump\t// out\n        /* \"#utility.yul\":417:539   */\n    tag_45:\n        /* \"#utility.yul\":490:514   */\n      tag_86\n        /* \"#utility.yul\":508:513   */\n      dup2\n        /* \"#utility.yul\":490:514   */\n      tag_44\n      jump\t// in\n    tag_86:\n        /* \"#utility.yul\":483:488   */\n      dup2\n        /* \"#utility.yul\":480:515   */\n      eq\n        /* \"#utility.yul\":470:533   */\n      tag_87\n      jumpi\n        /* \"#utility.yul\":529:530   */\n      0x00\n        /* \"#utility.yul\":526:527   */\n      dup1\n        /* \"#utility.yul\":519:531   */\n      revert\n        /* \"#utility.yul\":470:533   */\n    tag_87:\n        /* \"#utility.yul\":417:539   */\n      pop\n      jump\t// out\n        /* \"#utility.yul\":545:684   */\n    tag_46:\n        /* \"#utility.yul\":591:596   */\n      0x00\n        /* \"#utility.yul\":629:635   */\n      dup2\n        /* \"#utility.yul\":616:636   */\n      calldataload\n        /* \"#utility.yul\":607:636   */\n      swap1\n      pop\n        /* \"#utility.yul\":645:678   */\n      tag_89\n        /* \"#utility.yul\":672:677   */\n      dup2\n        /* \"#utility.yul\":645:678   */\n      tag_45\n      jump\t// in\n    tag_89:\n        /* \"#utility.yul\":545:684   */\n      swap3\n      swap2\n      pop\n      pop\n      jump\t// out\n        /* \"#utility.yul\":690:1019   */\n    tag_7:\n        /* \"#utility.yul\":749:755   */\n      0x00\n        /* \"#utility.yul\":798:800   */\n      0x20\n        /* \"#utility.yul\":786:795   */\n      dup3\n        /* \"#utility.yul\":777:784   */\n      dup5\n        /* \"#utility.yul\":773:796   */\n      sub\n        /* \"#utility.yul\":769:801   */\n      slt\n        /* \"#utility.yul\":766:885   */\n      iszero\n      tag_91\n      jumpi\n        /* \"#utility.yul\":804:883   */\n      tag_92\n      tag_42\n      jump\t// in\n    tag_92:\n        /* \"#utility.yul\":766:885   */\n    tag_91:\n        /* \"#utility.yul\":924:925   */\n      0x00\n        /* \"#utility.yul\":949:1002   */\n      tag_93\n        /* \"#utility.yul\":994:1001   */\n      dup5\n        /* \"#utility.yul\":985:991   */\n      dup3\n        /* \"#utility.yul\":974:983   */\n      dup6\n        /* \"#utility.yul\":970:992   */\n      add\n        /* \"#utility.yul\":949:1002   */\n      tag_46\n      jump\t// in\n    tag_93:\n        /* \"#utility.yul\":939:1002   */\n      swap2\n      pop\n        /* \"#utility.yul\":895:1012   */\n      pop\n        /* \"#utility.yul\":690:1019   */\n      swap3\n      swap2\n      pop\n      pop\n      jump\t// out\n        /* \"#utility.yul\":1025:1124   */\n    tag_47:\n        /* \"#utility.yul\":1077:1083   */\n      0x00\n        /* \"#utility.yul\":1111:1116   */\n      dup2\n        /* \"#utility.yul\":1105:1117   */\n      mload\n        /* \"#utility.yul\":1095:1117   */\n      swap1\n      pop\n        /* \"#utility.yul\":1025:1124   */\n      swap2\n      swap1\n      pop\n      jump\t// out\n        /* \"#utility.yul\":1130:1299   */\n    tag_48:\n        /* \"#utility.yul\":1214:1225   */\n      0x00\n        /* \"#utility.yul\":1248:1254   */\n      dup3\n        /* \"#utility.yul\":1243:1246   */\n      dup3\n        /* \"#utility.yul\":1236:1255   */\n      mstore\n        /* \"#utility.yul\":1288:1292   */\n      0x20\n        /* \"#utility.yul\":1283:1286   */\n      dup3\n        /* \"#utility.yul\":1279:1293   */\n      add\n        /* \"#utility.yul\":1264:1293   */\n      swap1\n      pop\n        /* \"#utility.yul\":1130:1299   */\n      swap3\n      swap2\n      pop\n      pop\n      jump\t// out\n        /* \"#utility.yul\":1305:1553   */\n    tag_49:\n        /* \"#utility.yul\":1387:1388   */\n      0x00\n        /* \"#utility.yul\":1397:1510   */\n    tag_97:\n        /* \"#utility.yul\":1411:1417   */\n      dup4\n        /* \"#utility.yul\":1408:1409   */\n      dup2\n        /* \"#utility.yul\":1405:1418   */\n      lt\n        /* \"#utility.yul\":1397:1510   */\n      iszero\n      tag_99\n      jumpi\n        /* \"#utility.yul\":1496:1497   */\n      dup1\n        /* \"#utility.yul\":1491:1494   */\n      dup3\n        /* \"#utility.yul\":1487:1498   */\n      add\n        /* \"#utility.yul\":1481:1499   */\n      mload\n        /* \"#utility.yul\":1477:1478   */\n      dup2\n        /* \"#utility.yul\":1472:1475   */\n      dup5\n        /* \"#utility.yul\":1468:1479   */\n      add\n        /* \"#utility.yul\":1461:1500   */\n      mstore\n        /* \"#utility.yul\":1433:1435   */\n      0x20\n        /* \"#utility.yul\":1430:1431   */\n      dup2\n        /* \"#utility.yul\":1426:1436   */\n      add\n        /* \"#utility.yul\":1421:1436   */\n      swap1\n      pop\n        /* \"#utility.yul\":1397:1510   */\n      jump(tag_97)\n    tag_99:\n        /* \"#utility.yul\":1544:1545   */\n      0x00\n        /* \"#utility.yul\":1535:1541   */\n      dup5\n        /* \"#utility.yul\":1530:1533   */\n      dup5\n        /* \"#utility.yul\":1526:1542   */\n      add\n        /* \"#utility.yul\":1519:1546   */\n      mstore\n        /* \"#utility.yul\":1367:1553   */\n      pop\n        /* \"#utility.yul\":1305:1553   */\n      pop\n      pop\n      pop\n      jump\t// out\n        /* \"#utility.yul\":1559:1661   */\n    tag_50:\n        /* \"#utility.yul\":1600:1606   */\n      0x00\n        /* \"#utility.yul\":1651:1653   */\n      0x1f\n        /* \"#utility.yul\":1647:1654   */\n      not\n        /* \"#utility.yul\":1642:1644   */\n      0x1f\n        /* \"#utility.yul\":1635:1640   */\n      dup4\n        /* \"#utility.yul\":1631:1645   */\n      add\n        /* \"#utility.yul\":1627:1655   */\n      and\n        /* \"#utility.yul\":1617:1655   */\n      swap1\n      pop\n        /* \"#utility.yul\":1559:1661   */\n      swap2\n      swap1\n      pop\n      jump\t// out\n        /* \"#utility.yul\":1667:2044   */\n    tag_51:\n        /* \"#utility.yul\":1755:1758   */\n      0x00\n        /* \"#utility.yul\":1783:1822   */\n      tag_102\n        /* \"#utility.yul\":1816:1821   */\n      dup3\n        /* \"#utility.yul\":1783:1822   */\n      tag_47\n      jump\t// in\n    tag_102:\n        /* \"#utility.yul\":1838:1909   */\n      tag_103\n        /* \"#utility.yul\":1902:1908   */\n      dup2\n        /* \"#utility.yul\":1897:1900   */\n      dup6\n        /* \"#utility.yul\":1838:1909   */\n      tag_48\n      jump\t// in\n    tag_103:\n        /* \"#utility.yul\":1831:1909   */\n      swap4\n      pop\n        /* \"#utility.yul\":1918:1983   */\n      tag_104\n        /* \"#utility.yul\":1976:1982   */\n      dup2\n        /* \"#utility.yul\":1971:1974   */\n      dup6\n        /* \"#utility.yul\":1964:1968   */\n      0x20\n        /* \"#utility.yul\":1957:1962   */\n      dup7\n        /* \"#utility.yul\":1953:1969   */\n      add\n        /* \"#utility.yul\":1918:1983   */\n      tag_49\n      jump\t// in\n    tag_104:\n        /* \"#utility.yul\":2008:2037   */\n      tag_105\n        /* \"#utility.yul\":2030:2036   */\n      dup2\n        /* \"#utility.yul\":2008:2037   */\n      tag_50\n      jump\t// in\n    tag_105:\n        /* \"#utility.yul\":2003:2006   */\n      dup5\n        /* \"#utility.yul\":1999:2038   */\n      add\n        /* \"#utility.yul\":1992:2038   */\n      swap2\n      pop\n        /* \"#utility.yul\":1759:2044   */\n      pop\n        /* \"#utility.yul\":1667:2044   */\n      swap3\n      swap2\n      pop\n      pop\n      jump\t// out\n        /* \"#utility.yul\":2050:2168   */\n    tag_52:\n        /* \"#utility.yul\":2137:2161   */\n      tag_107\n        /* \"#utility.yul\":2155:2160   */\n      dup2\n        /* \"#utility.yul\":2137:2161   */\n      tag_44\n      jump\t// in\n    tag_107:\n        /* \"#utility.yul\":2132:2135   */\n      dup3\n        /* \"#utility.yul\":2125:2162   */\n      mstore\n        /* \"#utility.yul\":2050:2168   */\n      pop\n      pop\n      jump\t// out\n        /* \"#utility.yul\":2174:2597   */\n    tag_10:\n        /* \"#utility.yul\":2315:2319   */\n      0x00\n        /* \"#utility.yul\":2353:2355   */\n      0x40\n        /* \"#utility.yul\":2342:2351   */\n      dup3\n        /* \"#utility.yul\":2338:2356   */\n      add\n        /* \"#utility.yul\":2330:2356   */\n      swap1\n      pop\n        /* \"#utility.yul\":2402:2411   */\n      dup2\n        /* \"#utility.yul\":2396:2400   */\n      dup2\n        /* \"#utility.yul\":2392:2412   */\n      sub\n        /* \"#utility.yul\":2388:2389   */\n      0x00\n        /* \"#utility.yul\":2377:2386   */\n      dup4\n        /* \"#utility.yul\":2373:2390   */\n      add\n        /* \"#utility.yul\":2366:2413   */\n      mstore\n        /* \"#utility.yul\":2430:2508   */\n      tag_109\n        /* \"#utility.yul\":2503:2507   */\n      dup2\n        /* \"#utility.yul\":2494:2500   */\n      dup6\n        /* \"#utility.yul\":2430:2508   */\n      tag_51\n      jump\t// in\n    tag_109:\n        /* \"#utility.yul\":2422:2508   */\n      swap1\n      pop\n        /* \"#utility.yul\":2518:2590   */\n      tag_110\n        /* \"#utility.yul\":2586:2588   */\n      0x20\n        /* \"#utility.yul\":2575:2584   */\n      dup4\n        /* \"#utility.yul\":2571:2589   */\n      add\n        /* \"#utility.yul\":2562:2568   */\n      dup5\n        /* \"#utility.yul\":2518:2590   */\n      tag_52\n      jump\t// in\n    tag_110:\n        /* \"#utility.yul\":2174:2597   */\n      swap4\n      swap3\n      pop\n      pop\n      pop\n      jump\t// out\n        /* \"#utility.yul\":2603:2720   */\n    tag_53:\n        /* \"#utility.yul\":2712:2713   */\n      0x00\n        /* \"#utility.yul\":2709:2710   */\n      dup1\n        /* \"#utility.yul\":2702:2714   */\n      revert\n        /* \"#utility.yul\":2726:2843   */\n    tag_54:\n        /* \"#utility.yul\":2835:2836   */\n      0x00\n        /* \"#utility.yul\":2832:2833   */\n      dup1\n        /* \"#utility.yul\":2825:2837   */\n      revert\n        /* \"#utility.yul\":2849:2966   */\n    tag_55:\n        /* \"#utility.yul\":2958:2959   */\n      0x00\n        /* \"#utility.yul\":2955:2956   */\n      dup1\n        /* \"#utility.yul\":2948:2960   */\n      revert\n        /* \"#utility.yul\":2986:3539   */\n    tag_56:\n        /* \"#utility.yul\":3044:3052   */\n      0x00\n        /* \"#utility.yul\":3054:3060   */\n      dup1\n        /* \"#utility.yul\":3104:3107   */\n      dup4\n        /* \"#utility.yul\":3097:3101   */\n      0x1f\n        /* \"#utility.yul\":3089:3095   */\n      dup5\n        /* \"#utility.yul\":3085:3102   */\n      add\n        /* \"#utility.yul\":3081:3108   */\n      slt\n        /* \"#utility.yul\":3071:3193   */\n      tag_115\n      jumpi\n        /* \"#utility.yul\":3112:3191   */\n      tag_116\n      tag_53\n      jump\t// in\n    tag_116:\n        /* \"#utility.yul\":3071:3193   */\n    tag_115:\n        /* \"#utility.yul\":3225:3231   */\n      dup3\n        /* \"#utility.yul\":3212:3232   */\n      calldataload\n        /* \"#utility.yul\":3202:3232   */\n      swap1\n      pop\n        /* \"#utility.yul\":3255:3273   */\n      0xffffffffffffffff\n        /* \"#utility.yul\":3247:3253   */\n      dup2\n        /* \"#utility.yul\":3244:3274   */\n      gt\n        /* \"#utility.yul\":3241:3358   */\n      iszero\n      tag_117\n      jumpi\n        /* \"#utility.yul\":3277:3356   */\n      tag_118\n      tag_54\n      jump\t// in\n    tag_118:\n        /* \"#utility.yul\":3241:3358   */\n    tag_117:\n        /* \"#utility.yul\":3391:3395   */\n      0x20\n        /* \"#utility.yul\":3383:3389   */\n      dup4\n        /* \"#utility.yul\":3379:3396   */\n      add\n        /* \"#utility.yul\":3367:3396   */\n      swap2\n      pop\n        /* \"#utility.yul\":3445:3448   */\n      dup4\n        /* \"#utility.yul\":3437:3441   */\n      0x01\n        /* \"#utility.yul\":3429:3435   */\n      dup3\n        /* \"#utility.yul\":3425:3442   */\n      mul\n        /* \"#utility.yul\":3415:3423   */\n      dup4\n        /* \"#utility.yul\":3411:3443   */\n      add\n        /* \"#utility.yul\":3408:3449   */\n      gt\n        /* \"#utility.yul\":3405:3533   */\n      iszero\n      tag_119\n      jumpi\n        /* \"#utility.yul\":3452:3531   */\n      tag_120\n      tag_55\n      jump\t// in\n    tag_120:\n        /* \"#utility.yul\":3405:3533   */\n    tag_119:\n        /* \"#utility.yul\":2986:3539   */\n      swap3\n      pop\n      swap3\n      swap1\n      pop\n      jump\t// out\n        /* \"#utility.yul\":3545:4074   */\n    tag_13:\n        /* \"#utility.yul\":3616:3622   */\n      0x00\n        /* \"#utility.yul\":3624:3630   */\n      dup1\n        /* \"#utility.yul\":3673:3675   */\n      0x20\n        /* \"#utility.yul\":3661:3670   */\n      dup4\n        /* \"#utility.yul\":3652:3659   */\n      dup6\n        /* \"#utility.yul\":3648:3671   */\n      sub\n        /* \"#utility.yul\":3644:3676   */\n      slt\n        /* \"#utility.yul\":3641:3760   */\n      iszero\n      tag_122\n      jumpi\n        /* \"#utility.yul\":3679:3758   */\n      tag_123\n      tag_42\n      jump\t// in\n    tag_123:\n        /* \"#utility.yul\":3641:3760   */\n    tag_122:\n        /* \"#utility.yul\":3827:3828   */\n      0x00\n        /* \"#utility.yul\":3816:3825   */\n      dup4\n        /* \"#utility.yul\":3812:3829   */\n      add\n        /* \"#utility.yul\":3799:3830   */\n      calldataload\n        /* \"#utility.yul\":3857:3875   */\n      0xffffffffffffffff\n        /* \"#utility.yul\":3849:3855   */\n      dup2\n        /* \"#utility.yul\":3846:3876   */\n      gt\n        /* \"#utility.yul\":3843:3960   */\n      iszero\n      tag_124\n      jumpi\n        /* \"#utility.yul\":3879:3958   */\n      tag_125\n      tag_43\n      jump\t// in\n    tag_125:\n        /* \"#utility.yul\":3843:3960   */\n    tag_124:\n        /* \"#utility.yul\":3992:4057   */\n      tag_126\n        /* \"#utility.yul\":4049:4056   */\n      dup6\n        /* \"#utility.yul\":4040:4046   */\n      dup3\n        /* \"#utility.yul\":4029:4038   */\n      dup7\n        /* \"#utility.yul\":4025:4047   */\n      add\n        /* \"#utility.yul\":3992:4057   */\n      tag_56\n      jump\t// in\n    tag_126:\n        /* \"#utility.yul\":3974:4057   */\n      swap3\n      pop\n      swap3\n      pop\n        /* \"#utility.yul\":3770:4067   */\n      pop\n        /* \"#utility.yul\":3545:4074   */\n      swap3\n      pop\n      swap3\n      swap1\n      pop\n      jump\t// out\n        /* \"#utility.yul\":4080:4260   */\n    tag_57:\n        /* \"#utility.yul\":4128:4205   */\n      0x4e487b7100000000000000000000000000000000000000000000000000000000\n        /* \"#utility.yul\":4125:4126   */\n      0x00\n        /* \"#utility.yul\":4118:4206   */\n      mstore\n        /* \"#utility.yul\":4225:4229   */\n      0x22\n        /* \"#utility.yul\":4222:4223   */\n      0x04\n        /* \"#utility.yul\":4215:4230   */\n      mstore\n        /* \"#utility.yul\":4249:4253   */\n      0x24\n        /* \"#utility.yul\":4246:4247   */\n      0x00\n        /* \"#utility.yul\":4239:4254   */\n      revert\n        /* \"#utility.yul\":4266:4586   */\n    tag_18:\n        /* \"#utility.yul\":4310:4316   */\n      0x00\n        /* \"#utility.yul\":4347:4348   */\n      0x02\n        /* \"#utility.yul\":4341:4345   */\n      dup3\n        /* \"#utility.yul\":4337:4349   */\n      div\n        /* \"#utility.yul\":4327:4349   */\n      swap1\n      pop\n        /* \"#utility.yul\":4394:4395   */\n      0x01\n        /* \"#utility.yul\":4388:4392   */\n      dup3\n        /* \"#utility.yul\":4384:4396   */\n      and\n        /* \"#utility.yul\":4415:4433   */\n      dup1\n        /* \"#utility.yul\":4405:4486   */\n      tag_129\n      jumpi\n        /* \"#utility.yul\":4471:4475   */\n      0x7f\n        /* \"#utility.yul\":4463:4469   */\n      dup3\n        /* \"#utility.yul\":4459:4476   */\n      and\n        /* \"#utility.yul\":4449:4476   */\n      swap2\n      pop\n        /* \"#utility.yul\":4405:4486   */\n    tag_129:\n        /* \"#utility.yul\":4533:4535   */\n      0x20\n        /* \"#utility.yul\":4525:4531   */\n      dup3\n        /* \"#utility.yul\":4522:4536   */\n      lt\n        /* \"#utility.yul\":4502:4520   */\n      dup2\n        /* \"#utility.yul\":4499:4537   */\n      sub\n        /* \"#utility.yul\":4496:4580   */\n      tag_130\n      jumpi\n        /* \"#utility.yul\":4552:4570   */\n      tag_131\n      tag_57\n      jump\t// in\n    tag_131:\n        /* \"#utility.yul\":4496:4580   */\n    tag_130:\n        /* \"#utility.yul\":4317:4586   */\n      pop\n        /* \"#utility.yul\":4266:4586   */\n      swap2\n      swap1\n      pop\n      jump\t// out\n        /* \"#utility.yul\":4592:4740   */\n    tag_58:\n        /* \"#utility.yul\":4694:4705   */\n      0x00\n        /* \"#utility.yul\":4731:4734   */\n      dup2\n        /* \"#utility.yul\":4716:4734   */\n      swap1\n      pop\n        /* \"#utility.yul\":4592:4740   */\n      swap3\n      swap2\n      pop\n      pop\n      jump\t// out\n        /* \"#utility.yul\":4746:4894   */\n    tag_59:\n        /* \"#utility.yul\":4844:4850   */\n      dup3\n        /* \"#utility.yul\":4839:4842   */\n      dup2\n        /* \"#utility.yul\":4834:4837   */\n      dup4\n        /* \"#utility.yul\":4821:4851   */\n      calldatacopy\n        /* \"#utility.yul\":4885:4886   */\n      0x00\n        /* \"#utility.yul\":4876:4882   */\n      dup4\n        /* \"#utility.yul\":4871:4874   */\n      dup4\n        /* \"#utility.yul\":4867:4883   */\n      add\n        /* \"#utility.yul\":4860:4887   */\n      mstore\n        /* \"#utility.yul\":4746:4894   */\n      pop\n      pop\n      pop\n      jump\t// out\n        /* \"#utility.yul\":4924:5254   */\n    tag_60:\n        /* \"#utility.yul\":5040:5043   */\n      0x00\n        /* \"#utility.yul\":5061:5150   */\n      tag_135\n        /* \"#utility.yul\":5143:5149   */\n      dup4\n        /* \"#utility.yul\":5138:5141   */\n      dup6\n        /* \"#utility.yul\":5061:5150   */\n      tag_58\n      jump\t// in\n    tag_135:\n        /* \"#utility.yul\":5054:5150   */\n      swap4\n      pop\n        /* \"#utility.yul\":5160:5216   */\n      tag_136\n        /* \"#utility.yul\":5209:5215   */\n      dup4\n        /* \"#utility.yul\":5204:5207   */\n      dup6\n        /* \"#utility.yul\":5197:5202   */\n      dup5\n        /* \"#utility.yul\":5160:5216   */\n      tag_59\n      jump\t// in\n    tag_136:\n        /* \"#utility.yul\":5241:5247   */\n      dup3\n        /* \"#utility.yul\":5236:5239   */\n      dup5\n        /* \"#utility.yul\":5232:5248   */\n      add\n        /* \"#utility.yul\":5225:5248   */\n      swap1\n      pop\n        /* \"#utility.yul\":4924:5254   */\n      swap4\n      swap3\n      pop\n      pop\n      pop\n      jump\t// out\n        /* \"#utility.yul\":5260:5555   */\n    tag_30:\n        /* \"#utility.yul\":5402:5405   */\n      0x00\n        /* \"#utility.yul\":5424:5529   */\n      tag_138\n        /* \"#utility.yul\":5525:5528   */\n      dup3\n        /* \"#utility.yul\":5516:5522   */\n      dup5\n        /* \"#utility.yul\":5508:5514   */\n      dup7\n        /* \"#utility.yul\":5424:5529   */\n      tag_60\n      jump\t// in\n    tag_138:\n        /* \"#utility.yul\":5417:5529   */\n      swap2\n      pop\n        /* \"#utility.yul\":5546:5549   */\n      dup2\n        /* \"#utility.yul\":5539:5549   */\n      swap1\n      pop\n        /* \"#utility.yul\":5260:5555   */\n      swap4\n      swap3\n      pop\n      pop\n      pop\n      jump\t// out\n        /* \"#utility.yul\":5561:5741   */\n    tag_61:\n        /* \"#utility.yul\":5609:5686   */\n      0x4e487b7100000000000000000000000000000000000000000000000000000000\n        /* \"#utility.yul\":5606:5607   */\n      0x00\n        /* \"#utility.yul\":5599:5687   */\n      mstore\n        /* \"#utility.yul\":5706:5710   */\n      0x12\n        /* \"#utility.yul\":5703:5704   */\n      0x04\n        /* \"#utility.yul\":5696:5711   */\n      mstore\n        /* \"#utility.yul\":5730:5734   */\n      0x24\n        /* \"#utility.yul\":5727:5728   */\n      0x00\n        /* \"#utility.yul\":5720:5735   */\n      revert\n        /* \"#utility.yul\":5747:5923   */\n    tag_32:\n        /* \"#utility.yul\":5779:5780   */\n      0x00\n        /* \"#utility.yul\":5796:5816   */\n      tag_141\n        /* \"#utility.yul\":5814:5815   */\n      dup3\n        /* \"#utility.yul\":5796:5816   */\n      tag_44\n      jump\t// in\n    tag_141:\n        /* \"#utility.yul\":5791:5816   */\n      swap2\n      pop\n        /* \"#utility.yul\":5830:5850   */\n      tag_142\n        /* \"#utility.yul\":5848:5849   */\n      dup4\n        /* \"#utility.yul\":5830:5850   */\n      tag_44\n      jump\t// in\n    tag_142:\n        /* \"#utility.yul\":5825:5850   */\n      swap3\n      pop\n        /* \"#utility.yul\":5869:5870   */\n      dup3\n        /* \"#utility.yul\":5859:5894   */\n      tag_143\n      jumpi\n        /* \"#utility.yul\":5874:5892   */\n      tag_144\n      tag_61\n      jump\t// in\n    tag_144:\n        /* \"#utility.yul\":5859:5894   */\n    tag_143:\n        /* \"#utility.yul\":5915:5916   */\n      dup3\n        /* \"#utility.yul\":5912:5913   */\n      dup3\n        /* \"#utility.yul\":5908:5917   */\n      mod\n        /* \"#utility.yul\":5903:5917   */\n      swap1\n      pop\n        /* \"#utility.yul\":5747:5923   */\n      swap3\n      swap2\n      pop\n      pop\n      jump\t// out\n        /* \"#utility.yul\":5929:6109   */\n    tag_62:\n        /* \"#utility.yul\":5977:6054   */\n      0x4e487b7100000000000000000000000000000000000000000000000000000000\n        /* \"#utility.yul\":5974:5975   */\n      0x00\n        /* \"#utility.yul\":5967:6055   */\n      mstore\n        /* \"#utility.yul\":6074:6078   */\n      0x41\n        /* \"#utility.yul\":6071:6072   */\n      0x04\n        /* \"#utility.yul\":6064:6079   */\n      mstore\n        /* \"#utility.yul\":6098:6102   */\n      0x24\n        /* \"#utility.yul\":6095:6096   */\n      0x00\n        /* \"#utility.yul\":6088:6103   */\n      revert\n        /* \"#utility.yul\":6115:6256   */\n    tag_63:\n        /* \"#utility.yul\":6164:6168   */\n      0x00\n        /* \"#utility.yul\":6187:6190   */\n      dup2\n        /* \"#utility.yul\":6179:6190   */\n      swap1\n      pop\n        /* \"#utility.yul\":6210:6213   */\n      dup2\n        /* \"#utility.yul\":6207:6208   */\n      0x00\n        /* \"#utility.yul\":6200:6214   */\n      mstore\n        /* \"#utility.yul\":6244:6248   */\n      0x20\n        /* \"#utility.yul\":6241:6242   */\n      0x00\n        /* \"#utility.yul\":6231:6249   */\n      keccak256\n        /* \"#utility.yul\":6223:6249   */\n      swap1\n      pop\n        /* \"#utility.yul\":6115:6256   */\n      swap2\n      swap1\n      pop\n      jump\t// out\n        /* \"#utility.yul\":6262:6355   */\n    tag_64:\n        /* \"#utility.yul\":6299:6305   */\n      0x00\n        /* \"#utility.yul\":6346:6348   */\n      0x20\n        /* \"#utility.yul\":6341:6343   */\n      0x1f\n        /* \"#utility.yul\":6334:6339   */\n      dup4\n        /* \"#utility.yul\":6330:6344   */\n      add\n        /* \"#utility.yul\":6326:6349   */\n      div\n        /* \"#utility.yul\":6316:6349   */\n      swap1\n      pop\n        /* \"#utility.yul\":6262:6355   */\n      swap2\n      swap1\n      pop\n      jump\t// out\n        /* \"#utility.yul\":6361:6468   */\n    tag_65:\n        /* \"#utility.yul\":6405:6413   */\n      0x00\n        /* \"#utility.yul\":6455:6460   */\n      dup3\n        /* \"#utility.yul\":6449:6453   */\n      dup3\n        /* \"#utility.yul\":6445:6461   */\n      shl\n        /* \"#utility.yul\":6424:6461   */\n      swap1\n      pop\n        /* \"#utility.yul\":6361:6468   */\n      swap3\n      swap2\n      pop\n      pop\n      jump\t// out\n        /* \"#utility.yul\":6474:6867   */\n    tag_66:\n        /* \"#utility.yul\":6543:6549   */\n      0x00\n        /* \"#utility.yul\":6593:6594   */\n      0x08\n        /* \"#utility.yul\":6581:6591   */\n      dup4\n        /* \"#utility.yul\":6577:6595   */\n      mul\n        /* \"#utility.yul\":6616:6713   */\n      tag_150\n        /* \"#utility.yul\":6646:6712   */\n      0xffffffffffffffffffffffffffffffffffffffffffffffffffffffffffffffff\n        /* \"#utility.yul\":6635:6644   */\n      dup3\n        /* \"#utility.yul\":6616:6713   */\n      tag_65\n      jump\t// in\n    tag_150:\n        /* \"#utility.yul\":6734:6773   */\n      tag_151\n        /* \"#utility.yul\":6764:6772   */\n      dup7\n        /* \"#utility.yul\":6753:6762   */\n      dup4\n        /* \"#utility.yul\":6734:6773   */\n      tag_65\n      jump\t// in\n    tag_151:\n        /* \"#utility.yul\":6722:6773   */\n      swap6\n      pop\n        /* \"#utility.yul\":6806:6810   */\n      dup1\n        /* \"#utility.yul\":6802:6811   */\n      not\n        /* \"#utility.yul\":6795:6800   */\n      dup5\n        /* \"#utility.yul\":6791:6812   */\n      and\n        /* \"#utility.yul\":6782:6812   */\n      swap4\n      pop\n        /* \"#utility.yul\":6855:6859   */\n      dup1\n        /* \"#utility.yul\":6845:6853   */\n      dup7\n        /* \"#utility.yul\":6841:6860   */\n      and\n        /* \"#utility.yul\":6834:6839   */\n      dup5\n        /* \"#utility.yul\":6831:6861   */\n      or\n        /* \"#utility.yul\":6821:6861   */\n      swap3\n      pop\n        /* \"#utility.yul\":6550:6867   */\n      pop\n      pop\n        /* \"#utility.yul\":6474:6867   */\n      swap4\n      swap3\n      pop\n      pop\n      pop\n      jump\t// out\n        /* \"#utility.yul\":6873:6933   */\n    tag_67:\n        /* \"#utility.yul\":6901:6904   */\n      0x00\n        /* \"#utility.yul\":6922:6927   */\n      dup2\n        /* \"#utility.yul\":6915:6927   */\n      swap1\n      pop\n        /* \"#utility.yul\":6873:6933   */\n      swap2\n      swap1\n      pop\n      jump\t// out\n        /* \"#utility.yul\":6939:7081   */\n    tag_68:\n        /* \"#utility.yul\":6989:6998   */\n      0x00\n        /* \"#utility.yul\":7022:7075   */\n      tag_154\n        /* \"#utility.yul\":7040:7074   */\n      tag_155\n        /* \"#utility.yul\":7049:7073   */\n      tag_156\n        /* \"#utility.yul\":7067:7072   */\n      dup5\n        /* \"#utility.yul\":7049:7073   */\n      tag_44\n      jump\t// in\n    tag_156:\n        /* \"#utility.yul\":7040:7074   */\n      tag_67\n      jump\t// in\n    tag_155:\n        /* \"#utility.yul\":7022:7075   */\n      tag_44\n      jump\t// in\n    tag_154:\n        /* \"#utility.yul\":7009:7075   */\n      swap1\n      pop\n        /* \"#utility.yul\":6939:7081   */\n      swap2\n      swap1\n      pop\n      jump\t// out\n        /* \"#utility.yul\":7087:7162   */\n    tag_69:\n        /* \"#utility.yul\":7130:7133   */\n      0x00\n        /* \"#utility.yul\":7151:7156   */\n      dup2\n        /* \"#utility.yul\":7144:7156   */\n      swap1\n      pop\n        /* \"#utility.yul\":7087:7162   */\n      swap2\n      swap1\n      pop\n      jump\t// out\n        /* \"#utility.yul\":7168:7437   */\n    tag_70:\n        /* \"#utility.yul\":7278:7317   */\n      tag_159\n        /* \"#utility.yul\":7309:7316   */\n      dup4\n        /* \"#utility.yul\":7278:7317   */\n      tag_68\n      jump\t// in\n    tag_159:\n        /* \"#utility.yul\":7339:7430   */\n      tag_160\n        /* \"#utility.yul\":7388:7429   */\n      tag_161\n        /* \"#utility.yul\":7412:7428   */\n      dup3\n        /* \"#utility.yul\":7388:7429   */\n      tag_69\n      jump\t// in\n    tag_161:\n        /* \"#utility.yul\":7380:7386   */\n      dup5\n        /* \"#utility.yul\":7373:7377   */\n      dup5\n        /* \"#utility.yul\":7367:7378   */\n      sload\n        /* \"#utility.yul\":7339:7430   */\n      tag_66\n      jump\t// in\n    tag_160:\n        /* \"#utility.yul\":7333:7337   */\n      dup3\n        /* \"#utility.yul\":7326:7431   */\n      sstore\n        /* \"#utility.yul\":7244:7437   */\n      pop\n        /* \"#utility.yul\":7168:7437   */\n      pop\n      pop\n      pop\n      jump\t// out\n        /* \"#utility.yul\":7443:7516   */\n    tag_71:\n        /* \"#utility.yul\":7488:7491   */\n      0x00\n        /* \"#utility.yul\":7443:7516   */\n      swap1\n      jump\t// out\n        /* \"#utility.yul\":7522:7711   */\n    tag_72:\n        /* \"#utility.yul\":7599:7631   */\n      tag_164\n      tag_71\n      jump\t// in\n    tag_164:\n        /* \"#utility.yul\":7640:7705   */\n      tag_165\n        /* \"#utility.yul\":7698:7704   */\n      dup2\n        /* \"#utility.yul\":7690:7696   */\n      dup5\n        /* \"#utility.yul\":7684:7688   */\n      dup5\n        /* \"#utility.yul\":7640:7705   */\n      tag_70\n      jump\t// in\n    tag_165:\n        /* \"#utility.yul\":7575:7711   */\n      pop\n        /* \"#utility.yul\":7522:7711   */\n      pop\n      pop\n      jump\t// out\n        /* \"#utility.yul\":7717:7903   */\n    tag_73:\n        /* \"#utility.yul\":7777:7897   */\n    tag_167:\n        /* \"#utility.yul\":7794:7797   */\n      dup2\n        /* \"#utility.yul\":7787:7792   */\n      dup2\n        /* \"#utility.yul\":7784:7798   */\n      lt\n        /* \"#utility.yul\":7777:7897   */\n      iszero\n      tag_169\n      jumpi\n        /* \"#utility.yul\":7848:7887   */\n      tag_170\n        /* \"#utility.yul\":7885:7886   */\n      0x00\n        /* \"#utility.yul\":7878:7883   */\n      dup3\n        /* \"#utility.yul\":7848:7887   */\n      tag_72\n      jump\t// in\n    tag_170:\n        /* \"#utility.yul\":7821:7822   */\n      0x01\n        /* \"#utility.yul\":7814:7819   */\n      dup2\n        /* \"#utility.yul\":7810:7823   */\n      add\n        /* \"#utility.yul\":7801:7823   */\n      swap1\n      pop\n        /* \"#utility.yul\":7777:7897   */\n      jump(tag_167)\n    tag_169:\n        /* \"#utility.yul\":7717:7903   */\n      pop\n      pop\n      jump\t// out\n        /* \"#utility.yul\":7909:8452   */\n    tag_74:\n        /* \"#utility.yul\":8010:8012   */\n      0x1f\n        /* \"#utility.yul\":8005:8008   */\n      dup3\n        /* \"#utility.yul\":8002:8013   */\n      gt\n        /* \"#utility.yul\":7999:8445   */\n      iszero\n      tag_172\n      jumpi\n        /* \"#utility.yul\":8044:8082   */\n      tag_173\n        /* \"#utility.yul\":8076:8081   */\n      dup2\n        /* \"#utility.yul\":8044:8082   */\n      tag_63\n      jump\t// in\n    tag_173:\n        /* \"#utility.yul\":8128:8157   */\n      tag_174\n        /* \"#utility.yul\":8146:8156   */\n      dup5\n        /* \"#utility.yul\":8128:8157   */\n      tag_64\n      jump\t// in\n    tag_174:\n        /* \"#utility.yul\":8118:8126   */\n      dup2\n        /* \"#utility.yul\":8114:8158   */\n      add\n        /* \"#utility.yul\":8311:8313   */\n      0x20\n        /* \"#utility.yul\":8299:8309   */\n      dup6\n        /* \"#utility.yul\":8296:8314   */\n      lt\n        /* \"#utility.yul\":8293:8342   */\n      iszero\n      tag_175\n      jumpi\n        /* \"#utility.yul\":8332:8340   */\n      dup2\n        /* \"#utility.yul\":8317:8340   */\n      swap1\n      pop\n        /* \"#utility.yul\":8293:8342   */\n    tag_175:\n        /* \"#utility.yul\":8355:8435   */\n      tag_176\n        /* \"#utility.yul\":8411:8433   */\n      tag_177\n        /* \"#utility.yul\":8429:8432   */\n      dup6\n        /* \"#utility.yul\":8411:8433   */\n      tag_64\n      jump\t// in\n    tag_177:\n        /* \"#utility.yul\":8401:8409   */\n      dup4\n        /* \"#utility.yul\":8397:8434   */\n      add\n        /* \"#utility.yul\":8384:8395   */\n      dup3\n        /* \"#utility.yul\":8355:8435   */\n      tag_73\n      jump\t// in\n    tag_176:\n        /* \"#utility.yul\":8014:8445   */\n      pop\n      pop\n        /* \"#utility.yul\":7999:8445   */\n    tag_172:\n        /* \"#utility.yul\":7909:8452   */\n      pop\n      pop\n      pop\n      jump\t// out\n        /* \"#utility.yul\":8458:8575   */\n    tag_75:\n        /* \"#utility.yul\":8512:8520   */\n      0x00\n        /* \"#utility.yul\":8562:8567   */\n      dup3\n        /* \"#utility.yul\":8556:8560   */\n      dup3\n        /* \"#utility.yul\":8552:8568   */\n      shr\n        /* \"#utility.yul\":8531:8568   */\n      swap1\n      pop\n        /* \"#utility.yul\":8458:8575   */\n      swap3\n      swap2\n      pop\n      pop\n      jump\t// out\n        /* \"#utility.yul\":8581:8750   */\n    tag_76:\n        /* \"#utility.yul\":8625:8631   */\n      0x00\n        /* \"#utility.yul\":8658:8709   */\n      tag_180\n        /* \"#utility.yul\":8706:8707   */\n      0x00\n        /* \"#utility.yul\":8702:8708   */\n      not\n        /* \"#utility.yul\":8694:8699   */\n      dup5\n        /* \"#utility.yul\":8691:8692   */\n      0x08\n        /* \"#utility.yul\":8687:8700   */\n      mul\n        /* \"#utility.yul\":8658:8709   */\n      tag_75\n      jump\t// in\n    tag_180:\n        /* \"#utility.yul\":8654:8710   */\n      not\n        /* \"#utility.yul\":8739:8743   */\n      dup1\n        /* \"#utility.yul\":8733:8737   */\n      dup4\n        /* \"#utility.yul\":8729:8744   */\n      and\n        /* \"#utility.yul\":8719:8744   */\n      swap2\n      pop\n        /* \"#utility.yul\":8632:8750   */\n      pop\n        /* \"#utility.yul\":8581:8750   */\n      swap3\n      swap2\n      pop\n      pop\n      jump\t// out\n        /* \"#utility.yul\":8755:9050   */\n    tag_77:\n        /* \"#utility.yul\":8831:8835   */\n      0x00\n        /* \"#utility.yul\":8977:9006   */\n      tag_182\n        /* \"#utility.yul\":9002:9005   */\n      dup4\n        /* \"#utility.yul\":8996:9000   */\n      dup4\n        /* \"#utility.yul\":8977:9006   */\n      tag_76\n      jump\t// in\n    tag_182:\n        /* \"#utility.yul\":8969:9006   */\n      swap2\n      pop\n        /* \"#utility.yul\":9039:9042   */\n      dup3\n        /* \"#utility.yul\":9036:9037   */\n      0x02\n        /* \"#utility.yul\":9032:9043   */\n      mul\n        /* \"#utility.yul\":9026:9030   */\n      dup3\n        /* \"#utility.yul\":9023:9044   */\n      or\n        /* \"#utility.yul\":9015:9044   */\n      swap1\n      pop\n        /* \"#utility.yul\":8755:9050   */\n      swap3\n      swap2\n      pop\n      pop\n      jump\t// out\n        /* \"#utility.yul\":9055:10450   */\n    tag_36:\n        /* \"#utility.yul\":9172:9209   */\n      tag_184\n        /* \"#utility.yul\":9205:9208   */\n      dup3\n        /* \"#utility.yul\":9172:9209   */\n      tag_47\n      jump\t// in\n    tag_184:\n        /* \"#utility.yul\":9274:9292   */\n      0xffffffffffffffff\n        /* \"#utility.yul\":9266:9272   */\n      dup2\n        /* \"#utility.yul\":9263:9293   */\n      gt\n        /* \"#utility.yul\":9260:9316   */\n      iszero\n      tag_185\n      jumpi\n        /* \"#utility.yul\":9296:9314   */\n      tag_186\n      tag_62\n      jump\t// in\n    tag_186:\n        /* \"#utility.yul\":9260:9316   */\n    tag_185:\n        /* \"#utility.yul\":9340:9378   */\n      tag_187\n        /* \"#utility.yul\":9372:9376   */\n      dup3\n        /* \"#utility.yul\":9366:9377   */\n      sload\n        /* \"#utility.yul\":9340:9378   */\n      tag_18\n      jump\t// in\n    tag_187:\n        /* \"#utility.yul\":9425:9492   */\n      tag_188\n        /* \"#utility.yul\":9485:9491   */\n      dup3\n        /* \"#utility.yul\":9477:9483   */\n      dup3\n        /* \"#utility.yul\":9471:9475   */\n      dup6\n        /* \"#utility.yul\":9425:9492   */\n      tag_74\n      jump\t// in\n    tag_188:\n        /* \"#utility.yul\":9519:9520   */\n      0x00\n        /* \"#utility.yul\":9543:9547   */\n      0x20\n        /* \"#utility.yul\":9530:9547   */\n      swap1\n      pop\n        /* \"#utility.yul\":9575:9577   */\n      0x1f\n        /* \"#utility.yul\":9567:9573   */\n      dup4\n        /* \"#utility.yul\":9564:9578   */\n      gt\n        /* \"#utility.yul\":9592:9593   */\n      0x01\n        /* \"#utility.yul\":9587:10205   */\n      dup2\n      eq\n      tag_190\n      jumpi\n        /* \"#utility.yul\":10249:10250   */\n      0x00\n        /* \"#utility.yul\":10266:10272   */\n      dup5\n        /* \"#utility.yul\":10263:10340   */\n      iszero\n      tag_191\n      jumpi\n        /* \"#utility.yul\":10315:10324   */\n      dup3\n        /* \"#utility.yul\":10310:10313   */\n      dup8\n        /* \"#utility.yul\":10306:10325   */\n      add\n        /* \"#utility.yul\":10300:10326   */\n      mload\n        /* \"#utility.yul\":10291:10326   */\n      swap1\n      pop\n        /* \"#utility.yul\":10263:10340   */\n    tag_191:\n        /* \"#utility.yul\":10366:10433   */\n      tag_192\n        /* \"#utility.yul\":10426:10432   */\n      dup6\n        /* \"#utility.yul\":10419:10424   */\n      dup3\n        /* \"#utility.yul\":10366:10433   */\n      tag_77\n      jump\t// in\n    tag_192:\n        /* \"#utility.yul\":10360:10364   */\n      dup7\n        /* \"#utility.yul\":10353:10434   */\n      sstore\n        /* \"#utility.yul\":10222:10444   */\n      pop\n        /* \"#utility.yul\":9557:10444   */\n      jump(tag_189)\n        /* \"#utility.yul\":9587:10205   */\n    tag_190:\n        /* \"#utility.yul\":9639:9643   */\n      0x1f\n        /* \"#utility.yul\":9635:9644   */\n      not\n        /* \"#utility.yul\":9627:9633   */\n      dup5\n        /* \"#utility.yul\":9623:9645   */\n      and\n        /* \"#utility.yul\":9673:9710   */\n      tag_193\n        /* \"#utility.yul\":9705:9709   */\n      dup7\n        /* \"#utility.yul\":9673:9710   */\n      tag_63\n      jump\t// in\n    tag_193:\n        /* \"#utility.yul\":9732:9733   */\n      0x00\n        /* \"#utility.yul\":9746:9954   */\n    tag_194:\n        /* \"#utility.yul\":9760:9767   */\n      dup3\n        /* \"#utility.yul\":9757:9758   */\n      dup2\n        /* \"#utility.yul\":9754:9768   */\n      lt\n        /* \"#utility.yul\":9746:9954   */\n      iszero\n      tag_196\n      jumpi\n        /* \"#utility.yul\":9839:9848   */\n      dup5\n        /* \"#utility.yul\":9834:9837   */\n      dup10\n        /* \"#utility.yul\":9830:9849   */\n      add\n        /* \"#utility.yul\":9824:9850   */\n      mload\n        /* \"#utility.yul\":9816:9822   */\n      dup3\n        /* \"#utility.yul\":9809:9851   */\n      sstore\n        /* \"#utility.yul\":9890:9891   */\n      0x01\n        /* \"#utility.yul\":9882:9888   */\n      dup3\n        /* \"#utility.yul\":9878:9892   */\n      add\n        /* \"#utility.yul\":9868:9892   */\n      swap2\n      pop\n        /* \"#utility.yul\":9937:9939   */\n      0x20\n        /* \"#utility.yul\":9926:9935   */\n      dup6\n        /* \"#utility.yul\":9922:9940   */\n      add\n        /* \"#utility.yul\":9909:9940   */\n      swap5\n      pop\n        /* \"#utility.yul\":9783:9787   */\n      0x20\n        /* \"#utility.yul\":9780:9781   */\n      dup2\n        /* \"#utility.yul\":9776:9788   */\n      add\n        /* \"#utility.yul\":9771:9788   */\n      swap1\n      pop\n        /* \"#utility.yul\":9746:9954   */\n      jump(tag_194)\n    tag_196:\n        /* \"#utility.yul\":9982:9988   */\n      dup7\n        /* \"#utility.yul\":9973:9980   */\n      dup4\n        /* \"#utility.yul\":9970:9989   */\n      lt\n        /* \"#utility.yul\":9967:10146   */\n      iszero\n      tag_197\n      jumpi\n        /* \"#utility.yul\":10040:10049   */\n      dup5\n        /* \"#utility.yul\":10035:10038   */\n      dup10\n        /* \"#utility.yul\":10031:10050   */\n      add\n        /* \"#utility.yul\":10025:10051   */\n      mload\n        /* \"#utility.yul\":10083:10131   */\n      tag_198\n        /* \"#utility.yul\":10125:10129   */\n      0x1f\n        /* \"#utility.yul\":10117:10123   */\n      dup10\n        /* \"#utility.yul\":10113:10130   */\n      and\n        /* \"#utility.yul\":10102:10111   */\n      dup3\n        /* \"#utility.yul\":10083:10131   */\n      tag_76\n      jump\t// in\n    tag_198:\n        /* \"#utility.yul\":10075:10081   */\n      dup4\n        /* \"#utility.yul\":10068:10132   */\n      sstore\n        /* \"#utility.yul\":9990:10146   */\n      pop\n        /* \"#utility.yul\":9967:10146   */\n    tag_197:\n        /* \"#utility.yul\":10192:10193   */\n      0x01\n        /* \"#utility.yul\":10188:10189   */\n      0x02\n        /* \"#utility.yul\":10180:10186   */\n      dup9\n        /* \"#utility.yul\":10176:10190   */\n      mul\n        /* \"#utility.yul\":10172:10194   */\n      add\n        /* \"#utility.yul\":10166:10170   */\n      dup9\n        /* \"#utility.yul\":10159:10195   */\n      sstore\n        /* \"#utility.yul\":9594:10205   */\n      pop\n      pop\n      pop\n        /* \"#utility.yul\":9557:10444   */\n    tag_189:\n      pop\n        /* \"#utility.yul\":9147:10450   */\n      pop\n      pop\n      pop\n        /* \"#utility.yul\":9055:10450   */\n      pop\n      pop\n      jump\t// out\n        /* \"#utility.yul\":10456:10636   */\n    tag_78:\n        /* \"#utility.yul\":10504:10581   */\n      0x4e487b7100000000000000000000000000000000000000000000000000000000\n        /* \"#utility.yul\":10501:10502   */\n      0x00\n        /* \"#utility.yul\":10494:10582   */\n      mstore\n        /* \"#utility.yul\":10601:10605   */\n      0x11\n        /* \"#utility.yul\":10598:10599   */\n      0x04\n        /* \"#utility.yul\":10591:10606   */\n      mstore\n        /* \"#utility.yul\":10625:10629   */\n      0x24\n        /* \"#utility.yul\":10622:10623   */\n      0x00\n        /* \"#utility.yul\":10615:10630   */\n      revert\n        /* \"#utility.yul\":10642:10836   */\n    tag_38:\n        /* \"#utility.yul\":10682:10686   */\n      0x00\n        /* \"#utility.yul\":10702:10722   */\n      tag_201\n        /* \"#utility.yul\":10720:10721   */\n      dup3\n        /* \"#utility.yul\":10702:10722   */\n      tag_44\n      jump\t// in\n    tag_201:\n        /* \"#utility.yul\":10697:10722   */\n      swap2\n      pop\n        /* \"#utility.yul\":10736:10756   */\n      tag_202\n        /* \"#utility.yul\":10754:10755   */\n      dup4\n        /* \"#utility.yul\":10736:10756   */\n      tag_44\n      jump\t// in\n    tag_202:\n        /* \"#utility.yul\":10731:10756   */\n      swap3\n      pop\n        /* \"#utility.yul\":10780:10781   */\n      dup3\n        /* \"#utility.yul\":10777:10778   */\n      dup3\n        /* \"#utility.yul\":10773:10782   */\n      sub\n        /* \"#utility.yul\":10765:10782   */\n      swap1\n      pop\n        /* \"#utility.yul\":10804:10805   */\n      dup2\n        /* \"#utility.yul\":10798:10802   */\n      dup2\n        /* \"#utility.yul\":10795:10806   */\n      gt\n        /* \"#utility.yul\":10792:10829   */\n      iszero\n      tag_203\n      jumpi\n        /* \"#utility.yul\":10809:10827   */\n      tag_204\n      tag_78\n      jump\t// in\n    tag_204:\n        /* \"#utility.yul\":10792:10829   */\n    tag_203:\n        /* \"#utility.yul\":10642:10836   */\n      swap3\n      swap2\n      pop\n      pop\n      jump\t// out\n        /* \"#utility.yul\":10866:11183   */\n    tag_79:\n        /* \"#utility.yul\":10964:10967   */\n      0x00\n        /* \"#utility.yul\":10985:11056   */\n      tag_206\n        /* \"#utility.yul\":11049:11055   */\n      dup4\n        /* \"#utility.yul\":11044:11047   */\n      dup6\n        /* \"#utility.yul\":10985:11056   */\n      tag_48\n      jump\t// in\n    tag_206:\n        /* \"#utility.yul\":10978:11056   */\n      swap4\n      pop\n        /* \"#utility.yul\":11066:11122   */\n      tag_207\n        /* \"#utility.yul\":11115:11121   */\n      dup4\n        /* \"#utility.yul\":11110:11113   */\n      dup6\n        /* \"#utility.yul\":11103:11108   */\n      dup5\n        /* \"#utility.yul\":11066:11122   */\n      tag_59\n      jump\t// in\n    tag_207:\n        /* \"#utility.yul\":11147:11176   */\n      tag_208\n        /* \"#utility.yul\":11169:11175   */\n      dup4\n        /* \"#utility.yul\":11147:11176   */\n      tag_50\n      jump\t// in\n    tag_208:\n        /* \"#utility.yul\":11142:11145   */\n      dup5\n        /* \"#utility.yul\":11138:11177   */\n      add\n        /* \"#utility.yul\":11131:11177   */\n      swap1\n      pop\n        /* \"#utility.yul\":10866:11183   */\n      swap4\n      swap3\n      pop\n      pop\n      pop\n      jump\t// out\n        /* \"#utility.yul\":11189:11742   */\n    tag_40:\n        /* \"#utility.yul\":11368:11372   */\n      0x00\n        /* \"#utility.yul\":11406:11408   */\n      0x60\n        /* \"#utility.yul\":11395:11404   */\n      dup3\n        /* \"#utility.yul\":11391:11409   */\n      add\n        /* \"#utility.yul\":11383:11409   */\n      swap1\n      pop\n        /* \"#utility.yul\":11419:11490   */\n      tag_210\n        /* \"#utility.yul\":11487:11488   */\n      0x00\n        /* \"#utility.yul\":11476:11485   */\n      dup4\n        /* \"#utility.yul\":11472:11489   */\n      add\n        /* \"#utility.yul\":11463:11469   */\n      dup8\n        /* \"#utility.yul\":11419:11490   */\n      tag_52\n      jump\t// in\n    tag_210:\n        /* \"#utility.yul\":11537:11546   */\n      dup2\n        /* \"#utility.yul\":11531:11535   */\n      dup2\n        /* \"#utility.yul\":11527:11547   */\n      sub\n        /* \"#utility.yul\":11522:11524   */\n      0x20\n        /* \"#utility.yul\":11511:11520   */\n      dup4\n        /* \"#utility.yul\":11507:11525   */\n      add\n        /* \"#utility.yul\":11500:11548   */\n      mstore\n        /* \"#utility.yul\":11565:11653   */\n      tag_211\n        /* \"#utility.yul\":11648:11652   */\n      dup2\n        /* \"#utility.yul\":11639:11645   */\n      dup6\n        /* \"#utility.yul\":11631:11637   */\n      dup8\n        /* \"#utility.yul\":11565:11653   */\n      tag_79\n      jump\t// in\n    tag_211:\n        /* \"#utility.yul\":11557:11653   */\n      swap1\n      pop\n        /* \"#utility.yul\":11663:11735   */\n      tag_212\n        /* \"#utility.yul\":11731:11733   */\n      0x40\n        /* \"#utility.yul\":11720:11729   */\n      dup4\n        /* \"#utility.yul\":11716:11734   */\n      add\n        /* \"#utility.yul\":11707:11713   */\n      dup5\n        /* \"#utility.yul\":11663:11735   */\n      tag_52\n      jump\t// in\n    tag_212:\n        /* \"#utility.yul\":11189:11742   */\n      swap6\n      swap5\n      pop\n      pop\n      pop\n      pop\n      pop\n      jump\t// out\n\n    auxdata: 0xa264697066735822122076fe61bed28255abfb687988a741f5a5de2edb1defa9bfa6ae5754bdd9f8ca8064736f6c63430008190033\n}\n",
				"bytecode": {
					"linkReferences": {},
					"object": "60806040526010600055600054600a6100189190610199565b60015534801561002757600080fd5b506101e4565b7f4e487b7100000000000000000000000000000000000000000000000000000000600052601160045260246000fd5b60008160011c9050919050565b6000808291508390505b60018511156100b35780860481111561008f5761008e61002d565b5b600185161561009e5780820291505b80810290506100ac8561005c565b9450610073565b94509492505050565b6000826100cc5760019050610188565b816100da5760009050610188565b81600181146100f057600281146100fa57610129565b6001915050610188565b60ff84111561010c5761010b61002d565b5b8360020a9150848211156101235761012261002d565b5b50610188565b5060208310610133831016604e8410600b841016171561015e5782820a9050838111156101595761015861002d565b5b610188565b61016b8484846001610069565b925090508184048111156101825761018161002d565b5b81810290505b9392505050565b6000819050919050565b60006101a48261018f565b91506101af8361018f565b92506101dc7fffffffffffffffffffffffffffffffffffffffffffffffffffffffffffffffff84846100bc565b905092915050565b610951806101f36000396000f3fe608060405234801561001057600080fd5b50600436106100365760003560e01c80632052465e1461003b5780637bff0a011461006c575b600080fd5b610055600480360381019061005091906102d8565b610088565b6040516100639291906103a4565b60405180910390f35b61008660048036038101906100819190610439565b610144565b005b6002818154811061009857600080fd5b90600052602060002090600202016000915090508060000180546100bb906104b5565b80601f01602080910402602001604051908101604052809291908181526020018280546100e7906104b5565b80156101345780601f1061010957610100808354040283529160200191610134565b820191906000526020600020905b81548152906001019060200180831161011757829003601f168201915b5050505050908060010154905082565b6101588282610153858561015c565b61019f565b5050565b60006001548383604051602001610174929190610525565b6040516020818303038152906040528051906020012060001c610197919061056d565b905092915050565b6002604051806040016040528085858080601f016020809104026020016040519081016040528093929190818152602001838380828437600081840152601f19601f82011690508083019250505050505050815260200183815250908060018154018082558091505060019003906000526020600020906002020160009091909190915060008201518160000190816102389190610779565b506020820151816001015550507f88f026aacbbecc90c18411df4b1185fd8d9be2470f1962f192bf84a27d0704b76001600280549050610278919061087a565b84848460405161028b94939291906108db565b60405180910390a1505050565b600080fd5b600080fd5b6000819050919050565b6102b5816102a2565b81146102c057600080fd5b50565b6000813590506102d2816102ac565b92915050565b6000602082840312156102ee576102ed610298565b5b60006102fc848285016102c3565b91505092915050565b600081519050919050565b600082825260208201905092915050565b60005b8381101561033f578082015181840152602081019050610324565b60008484015250505050565b6000601f19601f8301169050919050565b600061036782610305565b6103718185610310565b9350610381818560208601610321565b61038a8161034b565b840191505092915050565b61039e816102a2565b82525050565b600060408201905081810360008301526103be818561035c565b90506103cd6020830184610395565b9392505050565b600080fd5b600080fd5b600080fd5b60008083601f8401126103f9576103f86103d4565b5b8235905067ffffffffffffffff811115610416576104156103d9565b5b602083019150836001820283011115610432576104316103de565b5b9250929050565b600080602083850312156104505761044f610298565b5b600083013567ffffffffffffffff81111561046e5761046d61029d565b5b61047a858286016103e3565b92509250509250929050565b7f4e487b7100000000000000000000000000000000000000000000000000000000600052602260045260246000fd5b600060028204905060018216806104cd57607f821691505b6020821081036104e0576104df610486565b5b50919050565b600081905092915050565b82818337600083830152505050565b600061050c83856104e6565b93506105198385846104f1565b82840190509392505050565b6000610532828486610500565b91508190509392505050565b7f4e487b7100000000000000000000000000000000000000000000000000000000600052601260045260246000fd5b6000610578826102a2565b9150610583836102a2565b9250826105935761059261053e565b5b828206905092915050565b7f4e487b7100000000000000000000000000000000000000000000000000000000600052604160045260246000fd5b60008190508160005260206000209050919050565b60006020601f8301049050919050565b600082821b905092915050565b60006008830261062f7fffffffffffffffffffffffffffffffffffffffffffffffffffffffffffffffff826105f2565b61063986836105f2565b95508019841693508086168417925050509392505050565b6000819050919050565b600061067661067161066c846102a2565b610651565b6102a2565b9050919050565b6000819050919050565b6106908361065b565b6106a461069c8261067d565b8484546105ff565b825550505050565b600090565b6106b96106ac565b6106c4818484610687565b505050565b5b818110156106e8576106dd6000826106b1565b6001810190506106ca565b5050565b601f82111561072d576106fe816105cd565b610707846105e2565b81016020851015610716578190505b61072a610722856105e2565b8301826106c9565b50505b505050565b600082821c905092915050565b600061075060001984600802610732565b1980831691505092915050565b6000610769838361073f565b9150826002028217905092915050565b61078282610305565b67ffffffffffffffff81111561079b5761079a61059e565b5b6107a582546104b5565b6107b08282856106ec565b600060209050601f8311600181146107e357600084156107d1578287015190505b6107db858261075d565b865550610843565b601f1984166107f1866105cd565b60005b82811015610819578489015182556001820191506020850194506020810190506107f4565b868310156108365784890151610832601f89168261073f565b8355505b6001600288020188555050505b505050505050565b7f4e487b7100000000000000000000000000000000000000000000000000000000600052601160045260246000fd5b6000610885826102a2565b9150610890836102a2565b92508282039050818111156108a8576108a761084b565b5b92915050565b60006108ba8385610310565b93506108c78385846104f1565b6108d08361034b565b840190509392505050565b60006060820190506108f06000830187610395565b81810360208301526109038185876108ae565b90506109126040830184610395565b9594505050505056fea264697066735822122076fe61bed28255abfb687988a741f5a5de2edb1defa9bfa6ae5754bdd9f8ca8064736f6c63430008190033",
					"opcodes": "PUSH1 0x80 PUSH1 0x40 MSTORE PUSH1 0x10 PUSH1 0x0 SSTORE PUSH1 0x0 SLOAD PUSH1 0xA PUSH2 0x18 SWAP2 SWAP1 PUSH2 0x199 JUMP JUMPDEST PUSH1 0x1 SSTORE CALLVALUE DUP1 ISZERO PUSH2 0x27 JUMPI PUSH1 0x0 DUP1 REVERT JUMPDEST POP PUSH2 0x1E4 JUMP JUMPDEST PUSH32 0x4E487B7100000000000000000000000000000000000000000000000000000000 PUSH1 0x0 MSTORE PUSH1 0x11 PUSH1 0x4 MSTORE PUSH1 0x24 PUSH1 0x0 REVERT JUMPDEST PUSH1 0x0 DUP2 PUSH1 0x1 SHR SWAP1 POP SWAP2 SWAP1 POP JUMP JUMPDEST PUSH1 0x0 DUP1 DUP3 SWAP2 POP DUP4 SWAP1 POP JUMPDEST PUSH1 0x1 DUP6 GT ISZERO PUSH2 0xB3 JUMPI DUP1 DUP7 DIV DUP2 GT ISZERO PUSH2 0x8F JUMPI PUSH2 0x8E PUSH2 0x2D JUMP JUMPDEST JUMPDEST PUSH1 0x1 DUP6 AND ISZERO PUSH2 0x9E JUMPI DUP1 DUP3 MUL SWAP2 POP JUMPDEST DUP1 DUP2 MUL SWAP1 POP PUSH2 0xAC DUP6 PUSH2 0x5C JUMP JUMPDEST SWAP5 POP PUSH2 0x73 JUMP JUMPDEST SWAP5 POP SWAP5 SWAP3 POP POP POP JUMP JUMPDEST PUSH1 0x0 DUP3 PUSH2 0xCC JUMPI PUSH1 0x1 SWAP1 POP PUSH2 0x188 JUMP JUMPDEST DUP2 PUSH2 0xDA JUMPI PUSH1 0x0 SWAP1 POP PUSH2 0x188 JUMP JUMPDEST DUP2 PUSH1 0x1 DUP2 EQ PUSH2 0xF0 JUMPI PUSH1 0x2 DUP2 EQ PUSH2 0xFA JUMPI PUSH2 0x129 JUMP JUMPDEST PUSH1 0x1 SWAP2 POP POP PUSH2 0x188 JUMP JUMPDEST PUSH1 0xFF DUP5 GT ISZERO PUSH2 0x10C JUMPI PUSH2 0x10B PUSH2 0x2D JUMP JUMPDEST JUMPDEST DUP4 PUSH1 0x2 EXP SWAP2 POP DUP5 DUP3 GT ISZERO PUSH2 0x123 JUMPI PUSH2 0x122 PUSH2 0x2D JUMP JUMPDEST JUMPDEST POP PUSH2 0x188 JUMP JUMPDEST POP PUSH1 0x20 DUP4 LT PUSH2 0x133 DUP4 LT AND PUSH1 0x4E DUP5 LT PUSH1 0xB DUP5 LT AND OR ISZERO PUSH2 0x15E JUMPI DUP3 DUP3 EXP SWAP1 POP DUP4 DUP2 GT ISZERO PUSH2 0x159 JUMPI PUSH2 0x158 PUSH2 0x2D JUMP JUMPDEST JUMPDEST PUSH2 0x188 JUMP JUMPDEST PUSH2 0x16B DUP5 DUP5 DUP5 PUSH1 0x1 PUSH2 0x69 JUMP JUMPDEST SWAP3 POP SWAP1 POP DUP2 DUP5 DIV DUP2 GT ISZERO PUSH2 0x182 JUMPI PUSH2 0x181 PUSH2 0x2D JUMP JUMPDEST JUMPDEST DUP2 DUP2 MUL SWAP1 POP JUMPDEST SWAP4 SWAP3 POP POP POP JUMP JUMPDEST PUSH1 0x0 DUP2 SWAP1 POP SWAP2 SWAP1 POP JUMP JUMPDEST PUSH1 0x0 PUSH2 0x1A4 DUP3 PUSH2 0x18F JUMP JUMPDEST SWAP2 POP PUSH2 0x1AF DUP4 PUSH2 0x18F JUMP JUMPDEST SWAP3 POP PUSH2 0x1DC PUSH32 0xFFFFFFFFFFFFFFFFFFFFFFFFFFFFFFFFFFFFFFFFFFFFFFFFFFFFFFFFFFFFFFFF DUP5 DUP5 PUSH2 0xBC JUMP JUMPDEST SWAP1 POP SWAP3 SWAP2 POP POP JUMP JUMPDEST PUSH2 0x951 DUP1 PUSH2 0x1F3 PUSH1 0x0 CODECOPY PUSH1 0x0 RETURN INVALID PUSH1 0x80 PUSH1 0x40 MSTORE CALLVALUE DUP1 ISZERO PUSH2 0x10 JUMPI PUSH1 0x0 DUP1 REVERT JUMPDEST POP PUSH1 0x4 CALLDATASIZE LT PUSH2 0x36 JUMPI PUSH1 0x0 CALLDATALOAD PUSH1 0xE0 SHR DUP1 PUSH4 0x2052465E EQ PUSH2 0x3B JUMPI DUP1 PUSH4 0x7BFF0A01 EQ PUSH2 0x6C JUMPI JUMPDEST PUSH1 0x0 DUP1 REVERT JUMPDEST PUSH2 0x55 PUSH1 0x4 DUP1 CALLDATASIZE SUB DUP2 ADD SWAP1 PUSH2 0x50 SWAP2 SWAP1 PUSH2 0x2D8 JUMP JUMPDEST PUSH2 0x88 JUMP JUMPDEST PUSH1 0x40 MLOAD PUSH2 0x63 SWAP3 SWAP2 SWAP1 PUSH2 0x3A4 JUMP JUMPDEST PUSH1 0x40 MLOAD DUP1 SWAP2 SUB SWAP1 RETURN JUMPDEST PUSH2 0x86 PUSH1 0x4 DUP1 CALLDATASIZE SUB DUP2 ADD SWAP1 PUSH2 0x81 SWAP2 SWAP1 PUSH2 0x439 JUMP JUMPDEST PUSH2 0x144 JUMP JUMPDEST STOP JUMPDEST PUSH1 0x2 DUP2 DUP2 SLOAD DUP2 LT PUSH2 0x98 JUMPI PUSH1 0x0 DUP1 REVERT JUMPDEST SWAP1 PUSH1 0x0 MSTORE PUSH1 0x20 PUSH1 0x0 KECCAK256 SWAP1 PUSH1 0x2 MUL ADD PUSH1 0x0 SWAP2 POP SWAP1 POP DUP1 PUSH1 0x0 ADD DUP1 SLOAD PUSH2 0xBB SWAP1 PUSH2 0x4B5 JUMP JUMPDEST DUP1 PUSH1 0x1F ADD PUSH1 0x20 DUP1 SWAP2 DIV MUL PUSH1 0x20 ADD PUSH1 0x40 MLOAD SWAP1 DUP2 ADD PUSH1 0x40 MSTORE DUP1 SWAP3 SWAP2 SWAP1 DUP2 DUP2 MSTORE PUSH1 0x20 ADD DUP3 DUP1 SLOAD PUSH2 0xE7 SWAP1 PUSH2 0x4B5 JUMP JUMPDEST DUP1 ISZERO PUSH2 0x134 JUMPI DUP1 PUSH1 0x1F LT PUSH2 0x109 JUMPI PUSH2 0x100 DUP1 DUP4 SLOAD DIV MUL DUP4 MSTORE SWAP2 PUSH1 0x20 ADD SWAP2 PUSH2 0x134 JUMP JUMPDEST DUP3 ADD SWAP2 SWAP1 PUSH1 0x0 MSTORE PUSH1 0x20 PUSH1 0x0 KECCAK256 SWAP1 JUMPDEST DUP2 SLOAD DUP2 MSTORE SWAP1 PUSH1 0x1 ADD SWAP1 PUSH1 0x20 ADD DUP1 DUP4 GT PUSH2 0x117 JUMPI DUP3 SWAP1 SUB PUSH1 0x1F AND DUP3 ADD SWAP2 JUMPDEST POP POP POP POP POP SWAP1 DUP1 PUSH1 0x1 ADD SLOAD SWAP1 POP DUP3 JUMP JUMPDEST PUSH2 0x158 DUP3 DUP3 PUSH2 0x153 DUP6 DUP6 PUSH2 0x15C JUMP JUMPDEST PUSH2 0x19F JUMP JUMPDEST POP POP JUMP JUMPDEST PUSH1 0x0 PUSH1 0x1 SLOAD DUP4 DUP4 PUSH1 0x40 MLOAD PUSH1 0x20 ADD PUSH2 0x174 SWAP3 SWAP2 SWAP1 PUSH2 0x525 JUMP JUMPDEST PUSH1 0x40 MLOAD PUSH1 0x20 DUP2 DUP4 SUB SUB DUP2 MSTORE SWAP1 PUSH1 0x40 MSTORE DUP1 MLOAD SWAP1 PUSH1 0x20 ADD KECCAK256 PUSH1 0x0 SHR PUSH2 0x197 SWAP2 SWAP1 PUSH2 0x56D JUMP JUMPDEST SWAP1 POP SWAP3 SWAP2 POP POP JUMP JUMPDEST PUSH1 0x2 PUSH1 0x40 MLOAD DUP1 PUSH1 0x40 ADD PUSH1 0x40 MSTORE DUP1 DUP6 DUP6 DUP1 DUP1 PUSH1 0x1F ADD PUSH1 0x20 DUP1 SWAP2 DIV MUL PUSH1 0x20 ADD PUSH1 0x40 MLOAD SWAP1 DUP2 ADD PUSH1 0x40 MSTORE DUP1 SWAP4 SWAP3 SWAP2 SWAP1 DUP2 DUP2 MSTORE PUSH1 0x20 ADD DUP4 DUP4 DUP1 DUP3 DUP5 CALLDATACOPY PUSH1 0x0 DUP2 DUP5 ADD MSTORE PUSH1 0x1F NOT PUSH1 0x1F DUP3 ADD AND SWAP1 POP DUP1 DUP4 ADD SWAP3 POP POP POP POP POP POP POP DUP2 MSTORE PUSH1 0x20 ADD DUP4 DUP2 MSTORE POP SWAP1 DUP1 PUSH1 0x1 DUP2 SLOAD ADD DUP1 DUP3 SSTORE DUP1 SWAP2 POP POP PUSH1 0x1 SWAP1 SUB SWAP1 PUSH1 0x0 MSTORE PUSH1 0x20 PUSH1 0x0 KECCAK256 SWAP1 PUSH1 0x2 MUL ADD PUSH1 0x0 SWAP1 SWAP2 SWAP1 SWAP2 SWAP1 SWAP2 POP PUSH1 0x0 DUP3 ADD MLOAD DUP2 PUSH1 0x0 ADD SWAP1 DUP2 PUSH2 0x238 SWAP2 SWAP1 PUSH2 0x779 JUMP JUMPDEST POP PUSH1 0x20 DUP3 ADD MLOAD DUP2 PUSH1 0x1 ADD SSTORE POP POP PUSH32 0x88F026AACBBECC90C18411DF4B1185FD8D9BE2470F1962F192BF84A27D0704B7 PUSH1 0x1 PUSH1 0x2 DUP1 SLOAD SWAP1 POP PUSH2 0x278 SWAP2 SWAP1 PUSH2 0x87A JUMP JUMPDEST DUP5 DUP5 DUP5 PUSH1 0x40 MLOAD PUSH2 0x28B SWAP5 SWAP4 SWAP3 SWAP2 SWAP1 PUSH2 0x8DB JUMP JUMPDEST PUSH1 0x40 MLOAD DUP1 SWAP2 SUB SWAP1 LOG1 POP POP POP JUMP JUMPDEST PUSH1 0x0 DUP1 REVERT JUMPDEST PUSH1 0x0 DUP1 REVERT JUMPDEST PUSH1 0x0 DUP2 SWAP1 POP SWAP2 SWAP1 POP JUMP JUMPDEST PUSH2 0x2B5 DUP2 PUSH2 0x2A2 JUMP JUMPDEST DUP2 EQ PUSH2 0x2C0 JUMPI PUSH1 0x0 DUP1 REVERT JUMPDEST POP JUMP JUMPDEST PUSH1 0x0 DUP2 CALLDATALOAD SWAP1 POP PUSH2 0x2D2 DUP2 PUSH2 0x2AC JUMP JUMPDEST SWAP3 SWAP2 POP POP JUMP JUMPDEST PUSH1 0x0 PUSH1 0x20 DUP3 DUP5 SUB SLT ISZERO PUSH2 0x2EE JUMPI PUSH2 0x2ED PUSH2 0x298 JUMP JUMPDEST JUMPDEST PUSH1 0x0 PUSH2 0x2FC DUP5 DUP3 DUP6 ADD PUSH2 0x2C3 JUMP JUMPDEST SWAP2 POP POP SWAP3 SWAP2 POP POP JUMP JUMPDEST PUSH1 0x0 DUP2 MLOAD SWAP1 POP SWAP2 SWAP1 POP JUMP JUMPDEST PUSH1 0x0 DUP3 DUP3 MSTORE PUSH1 0x20 DUP3 ADD SWAP1 POP SWAP3 SWAP2 POP POP JUMP JUMPDEST PUSH1 0x0 JUMPDEST DUP4 DUP2 LT ISZERO PUSH2 0x33F JUMPI DUP1 DUP3 ADD MLOAD DUP2 DUP5 ADD MSTORE PUSH1 0x20 DUP2 ADD SWAP1 POP PUSH2 0x324 JUMP JUMPDEST PUSH1 0x0 DUP5 DUP5 ADD MSTORE POP POP POP POP JUMP JUMPDEST PUSH1 0x0 PUSH1 0x1F NOT PUSH1 0x1F DUP4 ADD AND SWAP1 POP SWAP2 SWAP1 POP JUMP JUMPDEST PUSH1 0x0 PUSH2 0x367 DUP3 PUSH2 0x305 JUMP JUMPDEST PUSH2 0x371 DUP2 DUP6 PUSH2 0x310 JUMP JUMPDEST SWAP4 POP PUSH2 0x381 DUP2 DUP6 PUSH1 0x20 DUP7 ADD PUSH2 0x321 JUMP JUMPDEST PUSH2 0x38A DUP2 PUSH2 0x34B JUMP JUMPDEST DUP5 ADD SWAP2 POP POP SWAP3 SWAP2 POP POP JUMP JUMPDEST PUSH2 0x39E DUP2 PUSH2 0x2A2 JUMP JUMPDEST DUP3 MSTORE POP POP JUMP JUMPDEST PUSH1 0x0 PUSH1 0x40 DUP3 ADD SWAP1 POP DUP2 DUP2 SUB PUSH1 0x0 DUP4 ADD MSTORE PUSH2 0x3BE DUP2 DUP6 PUSH2 0x35C JUMP JUMPDEST SWAP1 POP PUSH2 0x3CD PUSH1 0x20 DUP4 ADD DUP5 PUSH2 0x395 JUMP JUMPDEST SWAP4 SWAP3 POP POP POP JUMP JUMPDEST PUSH1 0x0 DUP1 REVERT JUMPDEST PUSH1 0x0 DUP1 REVERT JUMPDEST PUSH1 0x0 DUP1 REVERT JUMPDEST PUSH1 0x0 DUP1 DUP4 PUSH1 0x1F DUP5 ADD SLT PUSH2 0x3F9 JUMPI PUSH2 0x3F8 PUSH2 0x3D4 JUMP JUMPDEST JUMPDEST DUP3 CALLDATALOAD SWAP1 POP PUSH8 0xFFFFFFFFFFFFFFFF DUP2 GT ISZERO PUSH2 0x416 JUMPI PUSH2 0x415 PUSH2 0x3D9 JUMP JUMPDEST JUMPDEST PUSH1 0x20 DUP4 ADD SWAP2 POP DUP4 PUSH1 0x1 DUP3 MUL DUP4 ADD GT ISZERO PUSH2 0x432 JUMPI PUSH2 0x431 PUSH2 0x3DE JUMP JUMPDEST JUMPDEST SWAP3 POP SWAP3 SWAP1 POP JUMP JUMPDEST PUSH1 0x0 DUP1 PUSH1 0x20 DUP4 DUP6 SUB SLT ISZERO PUSH2 0x450 JUMPI PUSH2 0x44F PUSH2 0x298 JUMP JUMPDEST JUMPDEST PUSH1 0x0 DUP4 ADD CALLDATALOAD PUSH8 0xFFFFFFFFFFFFFFFF DUP2 GT ISZERO PUSH2 0x46E JUMPI PUSH2 0x46D PUSH2 0x29D JUMP JUMPDEST JUMPDEST PUSH2 0x47A DUP6 DUP3 DUP7 ADD PUSH2 0x3E3 JUMP JUMPDEST SWAP3 POP SWAP3 POP POP SWAP3 POP SWAP3 SWAP1 POP JUMP JUMPDEST PUSH32 0x4E487B7100000000000000000000000000000000000000000000000000000000 PUSH1 0x0 MSTORE PUSH1 0x22 PUSH1 0x4 MSTORE PUSH1 0x24 PUSH1 0x0 REVERT JUMPDEST PUSH1 0x0 PUSH1 0x2 DUP3 DIV SWAP1 POP PUSH1 0x1 DUP3 AND DUP1 PUSH2 0x4CD JUMPI PUSH1 0x7F DUP3 AND SWAP2 POP JUMPDEST PUSH1 0x20 DUP3 LT DUP2 SUB PUSH2 0x4E0 JUMPI PUSH2 0x4DF PUSH2 0x486 JUMP JUMPDEST JUMPDEST POP SWAP2 SWAP1 POP JUMP JUMPDEST PUSH1 0x0 DUP2 SWAP1 POP SWAP3 SWAP2 POP POP JUMP JUMPDEST DUP3 DUP2 DUP4 CALLDATACOPY PUSH1 0x0 DUP4 DUP4 ADD MSTORE POP POP POP JUMP JUMPDEST PUSH1 0x0 PUSH2 0x50C DUP4 DUP6 PUSH2 0x4E6 JUMP JUMPDEST SWAP4 POP PUSH2 0x519 DUP4 DUP6 DUP5 PUSH2 0x4F1 JUMP JUMPDEST DUP3 DUP5 ADD SWAP1 POP SWAP4 SWAP3 POP POP POP JUMP JUMPDEST PUSH1 0x0 PUSH2 0x532 DUP3 DUP5 DUP7 PUSH2 0x500 JUMP JUMPDEST SWAP2 POP DUP2 SWAP1 POP SWAP4 SWAP3 POP POP POP JUMP JUMPDEST PUSH32 0x4E487B7100000000000000000000000000000000000000000000000000000000 PUSH1 0x0 MSTORE PUSH1 0x12 PUSH1 0x4 MSTORE PUSH1 0x24 PUSH1 0x0 REVERT JUMPDEST PUSH1 0x0 PUSH2 0x578 DUP3 PUSH2 0x2A2 JUMP JUMPDEST SWAP2 POP PUSH2 0x583 DUP4 PUSH2 0x2A2 JUMP JUMPDEST SWAP3 POP DUP3 PUSH2 0x593 JUMPI PUSH2 0x592 PUSH2 0x53E JUMP JUMPDEST JUMPDEST DUP3 DUP3 MOD SWAP1 POP SWAP3 SWAP2 POP POP JUMP JUMPDEST PUSH32 0x4E487B7100000000000000000000000000000000000000000000000000000000 PUSH1 0x0 MSTORE PUSH1 0x41 PUSH1 0x4 MSTORE PUSH1 0x24 PUSH1 0x0 REVERT JUMPDEST PUSH1 0x0 DUP2 SWAP1 POP DUP2 PUSH1 0x0 MSTORE PUSH1 0x20 PUSH1 0x0 KECCAK256 SWAP1 POP SWAP2 SWAP1 POP JUMP JUMPDEST PUSH1 0x0 PUSH1 0x20 PUSH1 0x1F DUP4 ADD DIV SWAP1 POP SWAP2 SWAP1 POP JUMP JUMPDEST PUSH1 0x0 DUP3 DUP3 SHL SWAP1 POP SWAP3 SWAP2 POP POP JUMP JUMPDEST PUSH1 0x0 PUSH1 0x8 DUP4 MUL PUSH2 0x62F PUSH32 0xFFFFFFFFFFFFFFFFFFFFFFFFFFFFFFFFFFFFFFFFFFFFFFFFFFFFFFFFFFFFFFFF DUP3 PUSH2 0x5F2 JUMP JUMPDEST PUSH2 0x639 DUP7 DUP4 PUSH2 0x5F2 JUMP JUMPDEST SWAP6 POP DUP1 NOT DUP5 AND SWAP4 POP DUP1 DUP7 AND DUP5 OR SWAP3 POP POP POP SWAP4 SWAP3 POP POP POP JUMP JUMPDEST PUSH1 0x0 DUP2 SWAP1 POP SWAP2 SWAP1 POP JUMP JUMPDEST PUSH1 0x0 PUSH2 0x676 PUSH2 0x671 PUSH2 0x66C DUP5 PUSH2 0x2A2 JUMP JUMPDEST PUSH2 0x651 JUMP JUMPDEST PUSH2 0x2A2 JUMP JUMPDEST SWAP1 POP SWAP2 SWAP1 POP JUMP JUMPDEST PUSH1 0x0 DUP2 SWAP1 POP SWAP2 SWAP1 POP JUMP JUMPDEST PUSH2 0x690 DUP4 PUSH2 0x65B JUMP JUMPDEST PUSH2 0x6A4 PUSH2 0x69C DUP3 PUSH2 0x67D JUMP JUMPDEST DUP5 DUP5 SLOAD PUSH2 0x5FF JUMP JUMPDEST DUP3 SSTORE POP POP POP POP JUMP JUMPDEST PUSH1 0x0 SWAP1 JUMP JUMPDEST PUSH2 0x6B9 PUSH2 0x6AC JUMP JUMPDEST PUSH2 0x6C4 DUP2 DUP5 DUP5 PUSH2 0x687 JUMP JUMPDEST POP POP POP JUMP JUMPDEST JUMPDEST DUP2 DUP2 LT ISZERO PUSH2 0x6E8 JUMPI PUSH2 0x6DD PUSH1 0x0 DUP3 PUSH2 0x6B1 JUMP JUMPDEST PUSH1 0x1 DUP2 ADD SWAP1 POP PUSH2 0x6CA JUMP JUMPDEST POP POP JUMP JUMPDEST PUSH1 0x1F DUP3 GT ISZERO PUSH2 0x72D JUMPI PUSH2 0x6FE DUP2 PUSH2 0x5CD JUMP JUMPDEST PUSH2 0x707 DUP5 PUSH2 0x5E2 JUMP JUMPDEST DUP2 ADD PUSH1 0x20 DUP6 LT ISZERO PUSH2 0x716 JUMPI DUP2 SWAP1 POP JUMPDEST PUSH2 0x72A PUSH2 0x722 DUP6 PUSH2 0x5E2 JUMP JUMPDEST DUP4 ADD DUP3 PUSH2 0x6C9 JUMP JUMPDEST POP POP JUMPDEST POP POP POP JUMP JUMPDEST PUSH1 0x0 DUP3 DUP3 SHR SWAP1 POP SWAP3 SWAP2 POP POP JUMP JUMPDEST PUSH1 0x0 PUSH2 0x750 PUSH1 0x0 NOT DUP5 PUSH1 0x8 MUL PUSH2 0x732 JUMP JUMPDEST NOT DUP1 DUP4 AND SWAP2 POP POP SWAP3 SWAP2 POP POP JUMP JUMPDEST PUSH1 0x0 PUSH2 0x769 DUP4 DUP4 PUSH2 0x73F JUMP JUMPDEST SWAP2 POP DUP3 PUSH1 0x2 MUL DUP3 OR SWAP1 POP SWAP3 SWAP2 POP POP JUMP JUMPDEST PUSH2 0x782 DUP3 PUSH2 0x305 JUMP JUMPDEST PUSH8 0xFFFFFFFFFFFFFFFF DUP2 GT ISZERO PUSH2 0x79B JUMPI PUSH2 0x79A PUSH2 0x59E JUMP JUMPDEST JUMPDEST PUSH2 0x7A5 DUP3 SLOAD PUSH2 0x4B5 JUMP JUMPDEST PUSH2 0x7B0 DUP3 DUP3 DUP6 PUSH2 0x6EC JUMP JUMPDEST PUSH1 0x0 PUSH1 0x20 SWAP1 POP PUSH1 0x1F DUP4 GT PUSH1 0x1 DUP2 EQ PUSH2 0x7E3 JUMPI PUSH1 0x0 DUP5 ISZERO PUSH2 0x7D1 JUMPI DUP3 DUP8 ADD MLOAD SWAP1 POP JUMPDEST PUSH2 0x7DB DUP6 DUP3 PUSH2 0x75D JUMP JUMPDEST DUP7 SSTORE POP PUSH2 0x843 JUMP JUMPDEST PUSH1 0x1F NOT DUP5 AND PUSH2 0x7F1 DUP7 PUSH2 0x5CD JUMP JUMPDEST PUSH1 0x0 JUMPDEST DUP3 DUP2 LT ISZERO PUSH2 0x819 JUMPI DUP5 DUP10 ADD MLOAD DUP3 SSTORE PUSH1 0x1 DUP3 ADD SWAP2 POP PUSH1 0x20 DUP6 ADD SWAP5 POP PUSH1 0x20 DUP2 ADD SWAP1 POP PUSH2 0x7F4 JUMP JUMPDEST DUP7 DUP4 LT ISZERO PUSH2 0x836 JUMPI DUP5 DUP10 ADD MLOAD PUSH2 0x832 PUSH1 0x1F DUP10 AND DUP3 PUSH2 0x73F JUMP JUMPDEST DUP4 SSTORE POP JUMPDEST PUSH1 0x1 PUSH1 0x2 DUP9 MUL ADD DUP9 SSTORE POP POP POP JUMPDEST POP POP POP POP POP POP JUMP JUMPDEST PUSH32 0x4E487B7100000000000000000000000000000000000000000000000000000000 PUSH1 0x0 MSTORE PUSH1 0x11 PUSH1 0x4 MSTORE PUSH1 0x24 PUSH1 0x0 REVERT JUMPDEST PUSH1 0x0 PUSH2 0x885 DUP3 PUSH2 0x2A2 JUMP JUMPDEST SWAP2 POP PUSH2 0x890 DUP4 PUSH2 0x2A2 JUMP JUMPDEST SWAP3 POP DUP3 DUP3 SUB SWAP1 POP DUP2 DUP2 GT ISZERO PUSH2 0x8A8 JUMPI PUSH2 0x8A7 PUSH2 0x84B JUMP JUMPDEST JUMPDEST SWAP3 SWAP2 POP POP JUMP JUMPDEST PUSH1 0x0 PUSH2 0x8BA DUP4 DUP6 PUSH2 0x310 JUMP JUMPDEST SWAP4 POP PUSH2 0x8C7 DUP4 DUP6 DUP5 PUSH2 0x4F1 JUMP JUMPDEST PUSH2 0x8D0 DUP4 PUSH2 0x34B JUMP JUMPDEST DUP5 ADD SWAP1 POP SWAP4 SWAP3 POP POP POP JUMP JUMPDEST PUSH1 0x0 PUSH1 0x60 DUP3 ADD SWAP1 POP PUSH2 0x8F0 PUSH1 0x0 DUP4 ADD DUP8 PUSH2 0x395 JUMP JUMPDEST DUP2 DUP2 SUB PUSH1 0x20 DUP4 ADD MSTORE PUSH2 0x903 DUP2 DUP6 DUP8 PUSH2 0x8AE JUMP JUMPDEST SWAP1 POP PUSH2 0x912 PUSH1 0x40 DUP4 ADD DUP5 PUSH2 0x395 JUMP JUMPDEST SWAP6 SWAP5 POP POP POP POP POP JUMP INVALID LOG2 PUSH5 0x6970667358 0x22 SLT KECCAK256 PUSH23 0xFE61BED28255ABFB687988A741F5A5DE2EDB1DEFA9BFA6 0xAE JUMPI SLOAD 0xBD 0xD9 0xF8 0xCA DUP1 PUSH5 0x736F6C6343 STOP ADDMOD NOT STOP CALLER "
				},
				"gasEstimates": {
					"creation": {
						"codeDepositCost": "477000",
						"executionCost": "infinite",
						"totalCost": "infinite"
					},
					"external": {
						"createRandomZombie(string)": "infinite",
						"zombies(uint256)": "infinite"
					},
					"internal": {
						"_createZombie(string calldata,uint256)": "infinite",
						"_generateRandomDna(string calldata)": "infinite"
					}
				},
				"methodIdentifiers": {
					"createRandomZombie(string)": "7bff0a01",
					"zombies(uint256)": "2052465e"
				}
			},
			"storageLayout": {
				"storage": [
					{
						"astId": 4,
						"contract": "contracts/ZombieFactory.sol:ZombieFactory",
						"label": "dnaDigits",
						"offset": 0,
						"slot": "0",
						"type": "t_uint256"
					},
					{
						"astId": 9,
						"contract": "contracts/ZombieFactory.sol:ZombieFactory",
						"label": "dnaModulus",
						"offset": 0,
						"slot": "1",
						"type": "t_uint256"
					},
					{
						"astId": 18,
						"contract": "contracts/ZombieFactory.sol:ZombieFactory",
						"label": "zombies",
						"offset": 0,
						"slot": "2",
						"type": "t_array(t_struct(Zombie)14_storage)dyn_storage"
					}
				],
				"types": {
					"t_array(t_struct(Zombie)14_storage)dyn_storage": {
						"base": "t_struct(Zombie)14_storage",
						"encoding": "dynamic_array",
						"label": "struct ZombieFactory.Zombie[]",
						"numberOfBytes": "32"
					},
					"t_string_storage": {
						"encoding": "bytes",
						"label": "string",
						"numberOfBytes": "32"
					},
					"t_struct(Zombie)14_storage": {
						"encoding": "inplace",
						"label": "struct ZombieFactory.Zombie",
						"members": [
							{
								"astId": 11,
								"contract": "contracts/ZombieFactory.sol:ZombieFactory",
								"label": "name",
								"offset": 0,
								"slot": "0",
								"type": "t_string_storage"
							},
							{
								"astId": 13,
								"contract": "contracts/ZombieFactory.sol:ZombieFactory",
								"label": "dna",
								"offset": 0,
								"slot": "1",
								"type": "t_uint256"
							}
						],
						"numberOfBytes": "64"
					},
					"t_uint256": {
						"encoding": "inplace",
						"label": "uint256",
						"numberOfBytes": "32"
					}
				}
			},
			"userdoc": {
				"kind": "user",
				"methods": {},
				"version": 1
			}
		}
	}
}