{
	"contracts/ZombieFactory.sol": {
		"ZombieFactory": {
			"abi": [
				{
					"anonymous": false,
					"inputs": [
						{
							"indexed": false,
							"internalType": "uint256",
							"name": "zombieId",
							"type": "uint256"
						},
						{
							"indexed": false,
							"internalType": "string",
							"name": "name",
							"type": "string"
						},
						{
							"indexed": false,
							"internalType": "uint256",
							"name": "dna",
							"type": "uint256"
						}
					],
					"name": "NewZombie",
					"type": "event"
				},
				{
					"inputs": [
						{
							"internalType": "string",
							"name": "_name",
							"type": "string"
						}
					],
					"name": "createRandomZombie",
					"outputs": [],
					"stateMutability": "nonpayable",
					"type": "function"
				},
				{
					"inputs": [
						{
							"internalType": "uint256",
							"name": "",
							"type": "uint256"
						}
					],
					"name": "zombieToOwner",
					"outputs": [
						{
							"internalType": "address",
							"name": "",
							"type": "address"
						}
					],
					"stateMutability": "view",
					"type": "function"
				},
				{
					"inputs": [
						{
							"internalType": "uint256",
							"name": "",
							"type": "uint256"
						}
					],
					"name": "zombies",
					"outputs": [
						{
							"internalType": "string",
							"name": "name",
							"type": "string"
						},
						{
							"internalType": "uint256",
							"name": "dna",
							"type": "uint256"
						}
					],
					"stateMutability": "view",
					"type": "function"
				}
			],
			"devdoc": {
				"kind": "dev",
				"methods": {},
				"version": 1
			},
			"evm": {
				"assembly": "    /* \"contracts/ZombieFactory.sol\":69:1055  contract ZombieFactory {... */\n  mstore(0x40, 0x80)\n    /* \"contracts/ZombieFactory.sol\":116:118  16 */\n  0x10\n    /* \"contracts/ZombieFactory.sol\":99:118  uint dnaDigits = 16 */\n  0x00\n  sstore\n    /* \"contracts/ZombieFactory.sol\":149:158  dnaDigits */\n  sload(0x00)\n    /* \"contracts/ZombieFactory.sol\":143:145  10 */\n  0x0a\n    /* \"contracts/ZombieFactory.sol\":143:158  10 ** dnaDigits */\n  tag_1\n  swap2\n  swap1\n  tag_2\n  jump\t// in\ntag_1:\n    /* \"contracts/ZombieFactory.sol\":125:158  uint dnaModulus = 10 ** dnaDigits */\n  0x01\n  sstore\n    /* \"contracts/ZombieFactory.sol\":69:1055  contract ZombieFactory {... */\n  callvalue\n  dup1\n  iszero\n  tag_3\n  jumpi\n  0x00\n  dup1\n  revert\ntag_3:\n  pop\n  jump(tag_4)\n    /* \"#utility.yul\":7:187   */\ntag_5:\n    /* \"#utility.yul\":55:132   */\n  0x4e487b7100000000000000000000000000000000000000000000000000000000\n    /* \"#utility.yul\":52:53   */\n  0x00\n    /* \"#utility.yul\":45:133   */\n  mstore\n    /* \"#utility.yul\":152:156   */\n  0x11\n    /* \"#utility.yul\":149:150   */\n  0x04\n    /* \"#utility.yul\":142:157   */\n  mstore\n    /* \"#utility.yul\":176:180   */\n  0x24\n    /* \"#utility.yul\":173:174   */\n  0x00\n    /* \"#utility.yul\":166:181   */\n  revert\n    /* \"#utility.yul\":193:295   */\ntag_6:\n    /* \"#utility.yul\":235:243   */\n  0x00\n    /* \"#utility.yul\":282:287   */\n  dup2\n    /* \"#utility.yul\":279:280   */\n  0x01\n    /* \"#utility.yul\":275:288   */\n  shr\n    /* \"#utility.yul\":254:288   */\n  swap1\n  pop\n    /* \"#utility.yul\":193:295   */\n  swap2\n  swap1\n  pop\n  jump\t// out\n    /* \"#utility.yul\":301:1149   */\ntag_7:\n    /* \"#utility.yul\":362:367   */\n  0x00\n    /* \"#utility.yul\":369:373   */\n  dup1\n    /* \"#utility.yul\":393:399   */\n  dup3\n    /* \"#utility.yul\":384:399   */\n  swap2\n  pop\n    /* \"#utility.yul\":417:422   */\n  dup4\n    /* \"#utility.yul\":408:422   */\n  swap1\n  pop\n    /* \"#utility.yul\":431:1143   */\ntag_14:\n    /* \"#utility.yul\":452:453   */\n  0x01\n    /* \"#utility.yul\":442:450   */\n  dup6\n    /* \"#utility.yul\":439:454   */\n  gt\n    /* \"#utility.yul\":431:1143   */\n  iszero\n  tag_16\n  jumpi\n    /* \"#utility.yul\":547:551   */\n  dup1\n    /* \"#utility.yul\":542:545   */\n  dup7\n    /* \"#utility.yul\":538:552   */\n  div\n    /* \"#utility.yul\":532:536   */\n  dup2\n    /* \"#utility.yul\":529:553   */\n  gt\n    /* \"#utility.yul\":526:576   */\n  iszero\n  tag_17\n  jumpi\n    /* \"#utility.yul\":556:574   */\n  tag_18\n  tag_5\n  jump\t// in\ntag_18:\n    /* \"#utility.yul\":526:576   */\ntag_17:\n    /* \"#utility.yul\":606:607   */\n  0x01\n    /* \"#utility.yul\":596:604   */\n  dup6\n    /* \"#utility.yul\":592:608   */\n  and\n    /* \"#utility.yul\":589:1040   */\n  iszero\n  tag_19\n  jumpi\n    /* \"#utility.yul\":1021:1025   */\n  dup1\n    /* \"#utility.yul\":1014:1019   */\n  dup3\n    /* \"#utility.yul\":1010:1026   */\n  mul\n    /* \"#utility.yul\":1001:1026   */\n  swap2\n  pop\n    /* \"#utility.yul\":589:1040   */\ntag_19:\n    /* \"#utility.yul\":1071:1075   */\n  dup1\n    /* \"#utility.yul\":1065:1069   */\n  dup2\n    /* \"#utility.yul\":1061:1076   */\n  mul\n    /* \"#utility.yul\":1053:1076   */\n  swap1\n  pop\n    /* \"#utility.yul\":1101:1133   */\n  tag_20\n    /* \"#utility.yul\":1124:1132   */\n  dup6\n    /* \"#utility.yul\":1101:1133   */\n  tag_6\n  jump\t// in\ntag_20:\n    /* \"#utility.yul\":1089:1133   */\n  swap5\n  pop\n    /* \"#utility.yul\":431:1143   */\n  jump(tag_14)\ntag_16:\n    /* \"#utility.yul\":301:1149   */\n  swap5\n  pop\n  swap5\n  swap3\n  pop\n  pop\n  pop\n  jump\t// out\n    /* \"#utility.yul\":1155:2228   */\ntag_8:\n    /* \"#utility.yul\":1209:1214   */\n  0x00\n    /* \"#utility.yul\":1400:1408   */\n  dup3\n    /* \"#utility.yul\":1390:1430   */\n  tag_22\n  jumpi\n    /* \"#utility.yul\":1421:1422   */\n  0x01\n    /* \"#utility.yul\":1412:1422   */\n  swap1\n  pop\n    /* \"#utility.yul\":1423:1428   */\n  jump(tag_21)\n    /* \"#utility.yul\":1390:1430   */\ntag_22:\n    /* \"#utility.yul\":1449:1453   */\n  dup2\n    /* \"#utility.yul\":1439:1475   */\n  tag_23\n  jumpi\n    /* \"#utility.yul\":1466:1467   */\n  0x00\n    /* \"#utility.yul\":1457:1467   */\n  swap1\n  pop\n    /* \"#utility.yul\":1468:1473   */\n  jump(tag_21)\n    /* \"#utility.yul\":1439:1475   */\ntag_23:\n    /* \"#utility.yul\":1535:1539   */\n  dup2\n    /* \"#utility.yul\":1583:1584   */\n  0x01\n    /* \"#utility.yul\":1578:1605   */\n  dup2\n  eq\n  tag_25\n  jumpi\n    /* \"#utility.yul\":1619:1620   */\n  0x02\n    /* \"#utility.yul\":1614:1805   */\n  dup2\n  eq\n  tag_26\n  jumpi\n    /* \"#utility.yul\":1528:1805   */\n  jump(tag_24)\n    /* \"#utility.yul\":1578:1605   */\ntag_25:\n    /* \"#utility.yul\":1596:1597   */\n  0x01\n    /* \"#utility.yul\":1587:1597   */\n  swap2\n  pop\n    /* \"#utility.yul\":1598:1603   */\n  pop\n  jump(tag_21)\n    /* \"#utility.yul\":1614:1805   */\ntag_26:\n    /* \"#utility.yul\":1659:1662   */\n  0xff\n    /* \"#utility.yul\":1649:1657   */\n  dup5\n    /* \"#utility.yul\":1646:1663   */\n  gt\n    /* \"#utility.yul\":1643:1686   */\n  iszero\n  tag_27\n  jumpi\n    /* \"#utility.yul\":1666:1684   */\n  tag_28\n  tag_5\n  jump\t// in\ntag_28:\n    /* \"#utility.yul\":1643:1686   */\ntag_27:\n    /* \"#utility.yul\":1715:1723   */\n  dup4\n    /* \"#utility.yul\":1712:1713   */\n  0x02\n    /* \"#utility.yul\":1708:1724   */\n  exp\n    /* \"#utility.yul\":1699:1724   */\n  swap2\n  pop\n    /* \"#utility.yul\":1750:1753   */\n  dup5\n    /* \"#utility.yul\":1743:1748   */\n  dup3\n    /* \"#utility.yul\":1740:1754   */\n  gt\n    /* \"#utility.yul\":1737:1777   */\n  iszero\n  tag_29\n  jumpi\n    /* \"#utility.yul\":1757:1775   */\n  tag_30\n  tag_5\n  jump\t// in\ntag_30:\n    /* \"#utility.yul\":1737:1777   */\ntag_29:\n    /* \"#utility.yul\":1790:1795   */\n  pop\n  jump(tag_21)\n    /* \"#utility.yul\":1528:1805   */\ntag_24:\n  pop\n    /* \"#utility.yul\":1914:1916   */\n  0x20\n    /* \"#utility.yul\":1904:1912   */\n  dup4\n    /* \"#utility.yul\":1901:1917   */\n  lt\n    /* \"#utility.yul\":1895:1898   */\n  0x0133\n    /* \"#utility.yul\":1889:1893   */\n  dup4\n    /* \"#utility.yul\":1886:1899   */\n  lt\n    /* \"#utility.yul\":1882:1918   */\n  and\n    /* \"#utility.yul\":1864:1866   */\n  0x4e\n    /* \"#utility.yul\":1854:1862   */\n  dup5\n    /* \"#utility.yul\":1851:1867   */\n  lt\n    /* \"#utility.yul\":1846:1848   */\n  0x0b\n    /* \"#utility.yul\":1840:1844   */\n  dup5\n    /* \"#utility.yul\":1837:1849   */\n  lt\n    /* \"#utility.yul\":1833:1868   */\n  and\n    /* \"#utility.yul\":1817:1928   */\n  or\n    /* \"#utility.yul\":1814:2060   */\n  iszero\n  tag_31\n  jumpi\n    /* \"#utility.yul\":1970:1978   */\n  dup3\n    /* \"#utility.yul\":1964:1968   */\n  dup3\n    /* \"#utility.yul\":1960:1979   */\n  exp\n    /* \"#utility.yul\":1951:1979   */\n  swap1\n  pop\n    /* \"#utility.yul\":2005:2008   */\n  dup4\n    /* \"#utility.yul\":1998:2003   */\n  dup2\n    /* \"#utility.yul\":1995:2009   */\n  gt\n    /* \"#utility.yul\":1992:2032   */\n  iszero\n  tag_32\n  jumpi\n    /* \"#utility.yul\":2012:2030   */\n  tag_33\n  tag_5\n  jump\t// in\ntag_33:\n    /* \"#utility.yul\":1992:2032   */\ntag_32:\n    /* \"#utility.yul\":2045:2050   */\n  jump(tag_21)\n    /* \"#utility.yul\":1814:2060   */\ntag_31:\n    /* \"#utility.yul\":2085:2127   */\n  tag_34\n    /* \"#utility.yul\":2123:2126   */\n  dup5\n    /* \"#utility.yul\":2113:2121   */\n  dup5\n    /* \"#utility.yul\":2107:2111   */\n  dup5\n    /* \"#utility.yul\":2104:2105   */\n  0x01\n    /* \"#utility.yul\":2085:2127   */\n  tag_7\n  jump\t// in\ntag_34:\n    /* \"#utility.yul\":2070:2127   */\n  swap3\n  pop\n  swap1\n  pop\n    /* \"#utility.yul\":2159:2163   */\n  dup2\n    /* \"#utility.yul\":2154:2157   */\n  dup5\n    /* \"#utility.yul\":2150:2164   */\n  div\n    /* \"#utility.yul\":2143:2148   */\n  dup2\n    /* \"#utility.yul\":2140:2165   */\n  gt\n    /* \"#utility.yul\":2137:2188   */\n  iszero\n  tag_35\n  jumpi\n    /* \"#utility.yul\":2168:2186   */\n  tag_36\n  tag_5\n  jump\t// in\ntag_36:\n    /* \"#utility.yul\":2137:2188   */\ntag_35:\n    /* \"#utility.yul\":2217:2221   */\n  dup2\n    /* \"#utility.yul\":2210:2215   */\n  dup2\n    /* \"#utility.yul\":2206:2222   */\n  mul\n    /* \"#utility.yul\":2197:2222   */\n  swap1\n  pop\n    /* \"#utility.yul\":1155:2228   */\ntag_21:\n  swap4\n  swap3\n  pop\n  pop\n  pop\n  jump\t// out\n    /* \"#utility.yul\":2234:2311   */\ntag_9:\n    /* \"#utility.yul\":2271:2278   */\n  0x00\n    /* \"#utility.yul\":2300:2305   */\n  dup2\n    /* \"#utility.yul\":2289:2305   */\n  swap1\n  pop\n    /* \"#utility.yul\":2234:2311   */\n  swap2\n  swap1\n  pop\n  jump\t// out\n    /* \"#utility.yul\":2317:2602   */\ntag_2:\n    /* \"#utility.yul\":2377:2382   */\n  0x00\n    /* \"#utility.yul\":2401:2424   */\n  tag_39\n    /* \"#utility.yul\":2419:2423   */\n  dup3\n    /* \"#utility.yul\":2401:2424   */\n  tag_9\n  jump\t// in\ntag_39:\n    /* \"#utility.yul\":2393:2424   */\n  swap2\n  pop\n    /* \"#utility.yul\":2445:2472   */\n  tag_40\n    /* \"#utility.yul\":2463:2471   */\n  dup4\n    /* \"#utility.yul\":2445:2472   */\n  tag_9\n  jump\t// in\ntag_40:\n    /* \"#utility.yul\":2433:2472   */\n  swap3\n  pop\n    /* \"#utility.yul\":2491:2595   */\n  tag_41\n    /* \"#utility.yul\":2528:2594   */\n  0xffffffffffffffffffffffffffffffffffffffffffffffffffffffffffffffff\n    /* \"#utility.yul\":2518:2526   */\n  dup5\n    /* \"#utility.yul\":2512:2516   */\n  dup5\n    /* \"#utility.yul\":2491:2595   */\n  tag_8\n  jump\t// in\ntag_41:\n    /* \"#utility.yul\":2482:2595   */\n  swap1\n  pop\n    /* \"#utility.yul\":2317:2602   */\n  swap3\n  swap2\n  pop\n  pop\n  jump\t// out\n    /* \"contracts/ZombieFactory.sol\":69:1055  contract ZombieFactory {... */\ntag_4:\n  dataSize(sub_0)\n  dup1\n  dataOffset(sub_0)\n  0x00\n  codecopy\n  0x00\n  return\nstop\n\nsub_0: assembly {\n        /* \"contracts/ZombieFactory.sol\":69:1055  contract ZombieFactory {... */\n      mstore(0x40, 0x80)\n      callvalue\n      dup1\n      iszero\n      tag_1\n      jumpi\n      0x00\n      dup1\n      revert\n    tag_1:\n      pop\n      jumpi(tag_2, lt(calldatasize, 0x04))\n      shr(0xe0, calldataload(0x00))\n      dup1\n      0x2052465e\n      eq\n      tag_3\n      jumpi\n      dup1\n      0x528b7b8f\n      eq\n      tag_4\n      jumpi\n      dup1\n      0x7bff0a01\n      eq\n      tag_5\n      jumpi\n    tag_2:\n      0x00\n      dup1\n      revert\n        /* \"contracts/ZombieFactory.sol\":237:260  Zombie[] public zombies */\n    tag_3:\n      tag_6\n      0x04\n      dup1\n      calldatasize\n      sub\n      dup2\n      add\n      swap1\n      tag_7\n      swap2\n      swap1\n      tag_8\n      jump\t// in\n    tag_7:\n      tag_9\n      jump\t// in\n    tag_6:\n      mload(0x40)\n      tag_10\n      swap3\n      swap2\n      swap1\n      tag_11\n      jump\t// in\n    tag_10:\n      mload(0x40)\n      dup1\n      swap2\n      sub\n      swap1\n      return\n        /* \"contracts/ZombieFactory.sol\":329:372  mapping(uint=>address) public zombieToOwner */\n    tag_4:\n      tag_12\n      0x04\n      dup1\n      calldatasize\n      sub\n      dup2\n      add\n      swap1\n      tag_13\n      swap2\n      swap1\n      tag_8\n      jump\t// in\n    tag_13:\n      tag_14\n      jump\t// in\n    tag_12:\n      mload(0x40)\n      tag_15\n      swap2\n      swap1\n      tag_16\n      jump\t// in\n    tag_15:\n      mload(0x40)\n      dup1\n      swap2\n      sub\n      swap1\n      return\n        /* \"contracts/ZombieFactory.sol\":869:1050  function createRandomZombie(string calldata _name) public {... */\n    tag_5:\n      tag_17\n      0x04\n      dup1\n      calldatasize\n      sub\n      dup2\n      add\n      swap1\n      tag_18\n      swap2\n      swap1\n      tag_19\n      jump\t// in\n    tag_18:\n      tag_20\n      jump\t// in\n    tag_17:\n      stop\n        /* \"contracts/ZombieFactory.sol\":237:260  Zombie[] public zombies */\n    tag_9:\n      0x02\n      dup2\n      dup2\n      sload\n      dup2\n      lt\n      tag_21\n      jumpi\n      0x00\n      dup1\n      revert\n    tag_21:\n      swap1\n      0x00\n      mstore\n      keccak256(0x00, 0x20)\n      swap1\n      0x02\n      mul\n      add\n      0x00\n      swap2\n      pop\n      swap1\n      pop\n      dup1\n      0x00\n      add\n      dup1\n      sload\n      tag_23\n      swap1\n      tag_24\n      jump\t// in\n    tag_23:\n      dup1\n      0x1f\n      add\n      0x20\n      dup1\n      swap2\n      div\n      mul\n      0x20\n      add\n      mload(0x40)\n      swap1\n      dup2\n      add\n      0x40\n      mstore\n      dup1\n      swap3\n      swap2\n      swap1\n      dup2\n      dup2\n      mstore\n      0x20\n      add\n      dup3\n      dup1\n      sload\n      tag_25\n      swap1\n      tag_24\n      jump\t// in\n    tag_25:\n      dup1\n      iszero\n      tag_26\n      jumpi\n      dup1\n      0x1f\n      lt\n      tag_27\n      jumpi\n      0x0100\n      dup1\n      dup4\n      sload\n      div\n      mul\n      dup4\n      mstore\n      swap2\n      0x20\n      add\n      swap2\n      jump(tag_26)\n    tag_27:\n      dup3\n      add\n      swap2\n      swap1\n      0x00\n      mstore\n      keccak256(0x00, 0x20)\n      swap1\n    tag_28:\n      dup2\n      sload\n      dup2\n      mstore\n      swap1\n      0x01\n      add\n      swap1\n      0x20\n      add\n      dup1\n      dup4\n      gt\n      tag_28\n      jumpi\n      dup3\n      swap1\n      sub\n      0x1f\n      and\n      dup3\n      add\n      swap2\n    tag_26:\n      pop\n      pop\n      pop\n      pop\n      pop\n      swap1\n      dup1\n      0x01\n      add\n      sload\n      swap1\n      pop\n      dup3\n      jump\t// out\n        /* \"contracts/ZombieFactory.sol\":329:372  mapping(uint=>address) public zombieToOwner */\n    tag_14:\n      mstore(0x20, 0x03)\n      dup1\n      0x00\n      mstore\n      keccak256(0x00, 0x40)\n      0x00\n      swap2\n      pop\n      sload\n      swap1\n      0x0100\n      exp\n      swap1\n      div\n      0xffffffffffffffffffffffffffffffffffffffff\n      and\n      dup2\n      jump\t// out\n        /* \"contracts/ZombieFactory.sol\":869:1050  function createRandomZombie(string calldata _name) public {... */\n    tag_20:\n        /* \"contracts/ZombieFactory.sol\":975:976  0 */\n      0x00\n        /* \"contracts/ZombieFactory.sol\":946:962  ownerZombieCount */\n      0x04\n        /* \"contracts/ZombieFactory.sol\":946:974  ownerZombieCount[msg.sender] */\n      0x00\n        /* \"contracts/ZombieFactory.sol\":963:973  msg.sender */\n      caller\n        /* \"contracts/ZombieFactory.sol\":946:974  ownerZombieCount[msg.sender] */\n      0xffffffffffffffffffffffffffffffffffffffff\n      and\n      0xffffffffffffffffffffffffffffffffffffffff\n      and\n      dup2\n      mstore\n      0x20\n      add\n      swap1\n      dup2\n      mstore\n      0x20\n      add\n      0x00\n      keccak256\n      sload\n        /* \"contracts/ZombieFactory.sol\":946:976  ownerZombieCount[msg.sender]>0 */\n      gt\n        /* \"contracts/ZombieFactory.sol\":938:985  require(ownerZombieCount[msg.sender]>0,\"ERROR\") */\n      tag_30\n      jumpi\n      mload(0x40)\n      0x08c379a000000000000000000000000000000000000000000000000000000000\n      dup2\n      mstore\n      0x04\n      add\n      tag_31\n      swap1\n      tag_32\n      jump\t// in\n    tag_31:\n      mload(0x40)\n      dup1\n      swap2\n      sub\n      swap1\n      revert\n    tag_30:\n        /* \"contracts/ZombieFactory.sol\":996:1042  _createZombie(_name,_generateRandomDna(_name)) */\n      tag_33\n        /* \"contracts/ZombieFactory.sol\":1010:1015  _name */\n      dup3\n      dup3\n        /* \"contracts/ZombieFactory.sol\":996:1042  _createZombie(_name,_generateRandomDna(_name)) */\n      dup1\n      dup1\n      0x1f\n      add\n      0x20\n      dup1\n      swap2\n      div\n      mul\n      0x20\n      add\n      mload(0x40)\n      swap1\n      dup2\n      add\n      0x40\n      mstore\n      dup1\n      swap4\n      swap3\n      swap2\n      swap1\n      dup2\n      dup2\n      mstore\n      0x20\n      add\n      dup4\n      dup4\n      dup1\n      dup3\n      dup5\n      calldatacopy\n      0x00\n      dup2\n      dup5\n      add\n      mstore\n      not(0x1f)\n      0x1f\n      dup3\n      add\n      and\n      swap1\n      pop\n      dup1\n      dup4\n      add\n      swap3\n      pop\n      pop\n      pop\n      pop\n      pop\n      pop\n      pop\n        /* \"contracts/ZombieFactory.sol\":1016:1041  _generateRandomDna(_name) */\n      tag_34\n        /* \"contracts/ZombieFactory.sol\":1035:1040  _name */\n      dup5\n      dup5\n        /* \"contracts/ZombieFactory.sol\":1016:1034  _generateRandomDna */\n      tag_35\n        /* \"contracts/ZombieFactory.sol\":1016:1041  _generateRandomDna(_name) */\n      jump\t// in\n    tag_34:\n        /* \"contracts/ZombieFactory.sol\":996:1009  _createZombie */\n      tag_36\n        /* \"contracts/ZombieFactory.sol\":996:1042  _createZombie(_name,_generateRandomDna(_name)) */\n      jump\t// in\n    tag_33:\n        /* \"contracts/ZombieFactory.sol\":869:1050  function createRandomZombie(string calldata _name) public {... */\n      pop\n      pop\n      jump\t// out\n        /* \"contracts/ZombieFactory.sol\":704:861  function _generateRandomDna(string calldata _str) private view  returns (uint) {... */\n    tag_35:\n        /* \"contracts/ZombieFactory.sol\":777:781  uint */\n      0x00\n        /* \"contracts/ZombieFactory.sol\":843:853  dnaModulus */\n      sload(0x01)\n        /* \"contracts/ZombieFactory.sol\":833:837  _str */\n      dup4\n      dup4\n        /* \"contracts/ZombieFactory.sol\":816:838  abi.encodePacked(_str) */\n      add(0x20, mload(0x40))\n      tag_38\n      swap3\n      swap2\n      swap1\n      tag_39\n      jump\t// in\n    tag_38:\n      mload(0x40)\n      0x20\n      dup2\n      dup4\n      sub\n      sub\n      dup2\n      mstore\n      swap1\n      0x40\n      mstore\n        /* \"contracts/ZombieFactory.sol\":806:839  keccak256(abi.encodePacked(_str)) */\n      dup1\n      mload\n      swap1\n      0x20\n      add\n      keccak256\n        /* \"contracts/ZombieFactory.sol\":801:840  uint(keccak256(abi.encodePacked(_str))) */\n      0x00\n      shr\n        /* \"contracts/ZombieFactory.sol\":801:853  uint(keccak256(abi.encodePacked(_str))) % dnaModulus */\n      tag_40\n      swap2\n      swap1\n      tag_41\n      jump\t// in\n    tag_40:\n        /* \"contracts/ZombieFactory.sol\":794:853  return uint(keccak256(abi.encodePacked(_str))) % dnaModulus */\n      swap1\n      pop\n        /* \"contracts/ZombieFactory.sol\":704:861  function _generateRandomDna(string calldata _str) private view  returns (uint) {... */\n      swap3\n      swap2\n      pop\n      pop\n      jump\t// out\n        /* \"contracts/ZombieFactory.sol\":427:696  function _createZombie(string memory _name,uint _dna) internal  {... */\n    tag_36:\n        /* \"contracts/ZombieFactory.sol\":502:509  zombies */\n      0x02\n        /* \"contracts/ZombieFactory.sol\":515:533  Zombie(_name,_dna) */\n      mload(0x40)\n      dup1\n      0x40\n      add\n      0x40\n      mstore\n      dup1\n        /* \"contracts/ZombieFactory.sol\":522:527  _name */\n      dup5\n        /* \"contracts/ZombieFactory.sol\":515:533  Zombie(_name,_dna) */\n      dup2\n      mstore\n      0x20\n      add\n        /* \"contracts/ZombieFactory.sol\":528:532  _dna */\n      dup4\n        /* \"contracts/ZombieFactory.sol\":515:533  Zombie(_name,_dna) */\n      dup2\n      mstore\n      pop\n        /* \"contracts/ZombieFactory.sol\":502:534  zombies.push(Zombie(_name,_dna)) */\n      swap1\n      dup1\n      0x01\n      dup2\n      sload\n      add\n      dup1\n      dup3\n      sstore\n      dup1\n      swap2\n      pop\n      pop\n      0x01\n      swap1\n      sub\n      swap1\n      0x00\n      mstore\n      keccak256(0x00, 0x20)\n      swap1\n      0x02\n      mul\n      add\n      0x00\n      swap1\n      swap2\n      swap1\n      swap2\n      swap1\n      swap2\n      pop\n      0x00\n      dup3\n      add\n      mload\n      dup2\n      0x00\n      add\n      swap1\n      dup2\n      tag_44\n      swap2\n      swap1\n      tag_45\n      jump\t// in\n    tag_44:\n      pop\n      0x20\n      dup3\n      add\n      mload\n      dup2\n      0x01\n      add\n      sstore\n      pop\n      pop\n        /* \"contracts/ZombieFactory.sol\":580:590  msg.sender */\n      caller\n        /* \"contracts/ZombieFactory.sol\":546:559  zombieToOwner */\n      0x03\n        /* \"contracts/ZombieFactory.sol\":546:577  zombieToOwner[zombies.length-1] */\n      0x00\n        /* \"contracts/ZombieFactory.sol\":575:576  1 */\n      0x01\n        /* \"contracts/ZombieFactory.sol\":560:567  zombies */\n      0x02\n        /* \"contracts/ZombieFactory.sol\":560:574  zombies.length */\n      dup1\n      sload\n      swap1\n      pop\n        /* \"contracts/ZombieFactory.sol\":560:576  zombies.length-1 */\n      tag_46\n      swap2\n      swap1\n      tag_47\n      jump\t// in\n    tag_46:\n        /* \"contracts/ZombieFactory.sol\":546:577  zombieToOwner[zombies.length-1] */\n      dup2\n      mstore\n      0x20\n      add\n      swap1\n      dup2\n      mstore\n      0x20\n      add\n      0x00\n      keccak256\n      0x00\n        /* \"contracts/ZombieFactory.sol\":546:590  zombieToOwner[zombies.length-1] = msg.sender */\n      0x0100\n      exp\n      dup2\n      sload\n      dup2\n      0xffffffffffffffffffffffffffffffffffffffff\n      mul\n      not\n      and\n      swap1\n      dup4\n      0xffffffffffffffffffffffffffffffffffffffff\n      and\n      mul\n      or\n      swap1\n      sstore\n      pop\n        /* \"contracts/ZombieFactory.sol\":633:634  1 */\n      0x01\n        /* \"contracts/ZombieFactory.sol\":601:617  ownerZombieCount */\n      0x04\n        /* \"contracts/ZombieFactory.sol\":601:629  ownerZombieCount[msg.sender] */\n      0x00\n        /* \"contracts/ZombieFactory.sol\":618:628  msg.sender */\n      caller\n        /* \"contracts/ZombieFactory.sol\":601:629  ownerZombieCount[msg.sender] */\n      0xffffffffffffffffffffffffffffffffffffffff\n      and\n      0xffffffffffffffffffffffffffffffffffffffff\n      and\n      dup2\n      mstore\n      0x20\n      add\n      swap1\n      dup2\n      mstore\n      0x20\n      add\n      0x00\n      keccak256\n      0x00\n        /* \"contracts/ZombieFactory.sol\":601:634  ownerZombieCount[msg.sender] += 1 */\n      dup3\n      dup3\n      sload\n      tag_48\n      swap2\n      swap1\n      tag_49\n      jump\t// in\n    tag_48:\n      swap3\n      pop\n      pop\n      dup2\n      swap1\n      sstore\n      pop\n        /* \"contracts/ZombieFactory.sol\":650:688  NewZombie(zombies.length-1,_name,_dna) */\n      0x88f026aacbbecc90c18411df4b1185fd8d9be2470f1962f192bf84a27d0704b7\n        /* \"contracts/ZombieFactory.sol\":675:676  1 */\n      0x01\n        /* \"contracts/ZombieFactory.sol\":660:667  zombies */\n      0x02\n        /* \"contracts/ZombieFactory.sol\":660:674  zombies.length */\n      dup1\n      sload\n      swap1\n      pop\n        /* \"contracts/ZombieFactory.sol\":660:676  zombies.length-1 */\n      tag_50\n      swap2\n      swap1\n      tag_47\n      jump\t// in\n    tag_50:\n        /* \"contracts/ZombieFactory.sol\":677:682  _name */\n      dup4\n        /* \"contracts/ZombieFactory.sol\":683:687  _dna */\n      dup4\n        /* \"contracts/ZombieFactory.sol\":650:688  NewZombie(zombies.length-1,_name,_dna) */\n      mload(0x40)\n      tag_51\n      swap4\n      swap3\n      swap2\n      swap1\n      tag_52\n      jump\t// in\n    tag_51:\n      mload(0x40)\n      dup1\n      swap2\n      sub\n      swap1\n      log1\n        /* \"contracts/ZombieFactory.sol\":427:696  function _createZombie(string memory _name,uint _dna) internal  {... */\n      pop\n      pop\n      jump\t// out\n        /* \"#utility.yul\":88:205   */\n    tag_54:\n        /* \"#utility.yul\":197:198   */\n      0x00\n        /* \"#utility.yul\":194:195   */\n      dup1\n        /* \"#utility.yul\":187:199   */\n      revert\n        /* \"#utility.yul\":211:328   */\n    tag_55:\n        /* \"#utility.yul\":320:321   */\n      0x00\n        /* \"#utility.yul\":317:318   */\n      dup1\n        /* \"#utility.yul\":310:322   */\n      revert\n        /* \"#utility.yul\":334:411   */\n    tag_56:\n        /* \"#utility.yul\":371:378   */\n      0x00\n        /* \"#utility.yul\":400:405   */\n      dup2\n        /* \"#utility.yul\":389:405   */\n      swap1\n      pop\n        /* \"#utility.yul\":334:411   */\n      swap2\n      swap1\n      pop\n      jump\t// out\n        /* \"#utility.yul\":417:539   */\n    tag_57:\n        /* \"#utility.yul\":490:514   */\n      tag_102\n        /* \"#utility.yul\":508:513   */\n      dup2\n        /* \"#utility.yul\":490:514   */\n      tag_56\n      jump\t// in\n    tag_102:\n        /* \"#utility.yul\":483:488   */\n      dup2\n        /* \"#utility.yul\":480:515   */\n      eq\n        /* \"#utility.yul\":470:533   */\n      tag_103\n      jumpi\n        /* \"#utility.yul\":529:530   */\n      0x00\n        /* \"#utility.yul\":526:527   */\n      dup1\n        /* \"#utility.yul\":519:531   */\n      revert\n        /* \"#utility.yul\":470:533   */\n    tag_103:\n        /* \"#utility.yul\":417:539   */\n      pop\n      jump\t// out\n        /* \"#utility.yul\":545:684   */\n    tag_58:\n        /* \"#utility.yul\":591:596   */\n      0x00\n        /* \"#utility.yul\":629:635   */\n      dup2\n        /* \"#utility.yul\":616:636   */\n      calldataload\n        /* \"#utility.yul\":607:636   */\n      swap1\n      pop\n        /* \"#utility.yul\":645:678   */\n      tag_105\n        /* \"#utility.yul\":672:677   */\n      dup2\n        /* \"#utility.yul\":645:678   */\n      tag_57\n      jump\t// in\n    tag_105:\n        /* \"#utility.yul\":545:684   */\n      swap3\n      swap2\n      pop\n      pop\n      jump\t// out\n        /* \"#utility.yul\":690:1019   */\n    tag_8:\n        /* \"#utility.yul\":749:755   */\n      0x00\n        /* \"#utility.yul\":798:800   */\n      0x20\n        /* \"#utility.yul\":786:795   */\n      dup3\n        /* \"#utility.yul\":777:784   */\n      dup5\n        /* \"#utility.yul\":773:796   */\n      sub\n        /* \"#utility.yul\":769:801   */\n      slt\n        /* \"#utility.yul\":766:885   */\n      iszero\n      tag_107\n      jumpi\n        /* \"#utility.yul\":804:883   */\n      tag_108\n      tag_54\n      jump\t// in\n    tag_108:\n        /* \"#utility.yul\":766:885   */\n    tag_107:\n        /* \"#utility.yul\":924:925   */\n      0x00\n        /* \"#utility.yul\":949:1002   */\n      tag_109\n        /* \"#utility.yul\":994:1001   */\n      dup5\n        /* \"#utility.yul\":985:991   */\n      dup3\n        /* \"#utility.yul\":974:983   */\n      dup6\n        /* \"#utility.yul\":970:992   */\n      add\n        /* \"#utility.yul\":949:1002   */\n      tag_58\n      jump\t// in\n    tag_109:\n        /* \"#utility.yul\":939:1002   */\n      swap2\n      pop\n        /* \"#utility.yul\":895:1012   */\n      pop\n        /* \"#utility.yul\":690:1019   */\n      swap3\n      swap2\n      pop\n      pop\n      jump\t// out\n        /* \"#utility.yul\":1025:1124   */\n    tag_59:\n        /* \"#utility.yul\":1077:1083   */\n      0x00\n        /* \"#utility.yul\":1111:1116   */\n      dup2\n        /* \"#utility.yul\":1105:1117   */\n      mload\n        /* \"#utility.yul\":1095:1117   */\n      swap1\n      pop\n        /* \"#utility.yul\":1025:1124   */\n      swap2\n      swap1\n      pop\n      jump\t// out\n        /* \"#utility.yul\":1130:1299   */\n    tag_60:\n        /* \"#utility.yul\":1214:1225   */\n      0x00\n        /* \"#utility.yul\":1248:1254   */\n      dup3\n        /* \"#utility.yul\":1243:1246   */\n      dup3\n        /* \"#utility.yul\":1236:1255   */\n      mstore\n        /* \"#utility.yul\":1288:1292   */\n      0x20\n        /* \"#utility.yul\":1283:1286   */\n      dup3\n        /* \"#utility.yul\":1279:1293   */\n      add\n        /* \"#utility.yul\":1264:1293   */\n      swap1\n      pop\n        /* \"#utility.yul\":1130:1299   */\n      swap3\n      swap2\n      pop\n      pop\n      jump\t// out\n        /* \"#utility.yul\":1305:1553   */\n    tag_61:\n        /* \"#utility.yul\":1387:1388   */\n      0x00\n        /* \"#utility.yul\":1397:1510   */\n    tag_113:\n        /* \"#utility.yul\":1411:1417   */\n      dup4\n        /* \"#utility.yul\":1408:1409   */\n      dup2\n        /* \"#utility.yul\":1405:1418   */\n      lt\n        /* \"#utility.yul\":1397:1510   */\n      iszero\n      tag_115\n      jumpi\n        /* \"#utility.yul\":1496:1497   */\n      dup1\n        /* \"#utility.yul\":1491:1494   */\n      dup3\n        /* \"#utility.yul\":1487:1498   */\n      add\n        /* \"#utility.yul\":1481:1499   */\n      mload\n        /* \"#utility.yul\":1477:1478   */\n      dup2\n        /* \"#utility.yul\":1472:1475   */\n      dup5\n        /* \"#utility.yul\":1468:1479   */\n      add\n        /* \"#utility.yul\":1461:1500   */\n      mstore\n        /* \"#utility.yul\":1433:1435   */\n      0x20\n        /* \"#utility.yul\":1430:1431   */\n      dup2\n        /* \"#utility.yul\":1426:1436   */\n      add\n        /* \"#utility.yul\":1421:1436   */\n      swap1\n      pop\n        /* \"#utility.yul\":1397:1510   */\n      jump(tag_113)\n    tag_115:\n        /* \"#utility.yul\":1544:1545   */\n      0x00\n        /* \"#utility.yul\":1535:1541   */\n      dup5\n        /* \"#utility.yul\":1530:1533   */\n      dup5\n        /* \"#utility.yul\":1526:1542   */\n      add\n        /* \"#utility.yul\":1519:1546   */\n      mstore\n        /* \"#utility.yul\":1367:1553   */\n      pop\n        /* \"#utility.yul\":1305:1553   */\n      pop\n      pop\n      pop\n      jump\t// out\n        /* \"#utility.yul\":1559:1661   */\n    tag_62:\n        /* \"#utility.yul\":1600:1606   */\n      0x00\n        /* \"#utility.yul\":1651:1653   */\n      0x1f\n        /* \"#utility.yul\":1647:1654   */\n      not\n        /* \"#utility.yul\":1642:1644   */\n      0x1f\n        /* \"#utility.yul\":1635:1640   */\n      dup4\n        /* \"#utility.yul\":1631:1645   */\n      add\n        /* \"#utility.yul\":1627:1655   */\n      and\n        /* \"#utility.yul\":1617:1655   */\n      swap1\n      pop\n        /* \"#utility.yul\":1559:1661   */\n      swap2\n      swap1\n      pop\n      jump\t// out\n        /* \"#utility.yul\":1667:2044   */\n    tag_63:\n        /* \"#utility.yul\":1755:1758   */\n      0x00\n        /* \"#utility.yul\":1783:1822   */\n      tag_118\n        /* \"#utility.yul\":1816:1821   */\n      dup3\n        /* \"#utility.yul\":1783:1822   */\n      tag_59\n      jump\t// in\n    tag_118:\n        /* \"#utility.yul\":1838:1909   */\n      tag_119\n        /* \"#utility.yul\":1902:1908   */\n      dup2\n        /* \"#utility.yul\":1897:1900   */\n      dup6\n        /* \"#utility.yul\":1838:1909   */\n      tag_60\n      jump\t// in\n    tag_119:\n        /* \"#utility.yul\":1831:1909   */\n      swap4\n      pop\n        /* \"#utility.yul\":1918:1983   */\n      tag_120\n        /* \"#utility.yul\":1976:1982   */\n      dup2\n        /* \"#utility.yul\":1971:1974   */\n      dup6\n        /* \"#utility.yul\":1964:1968   */\n      0x20\n        /* \"#utility.yul\":1957:1962   */\n      dup7\n        /* \"#utility.yul\":1953:1969   */\n      add\n        /* \"#utility.yul\":1918:1983   */\n      tag_61\n      jump\t// in\n    tag_120:\n        /* \"#utility.yul\":2008:2037   */\n      tag_121\n        /* \"#utility.yul\":2030:2036   */\n      dup2\n        /* \"#utility.yul\":2008:2037   */\n      tag_62\n      jump\t// in\n    tag_121:\n        /* \"#utility.yul\":2003:2006   */\n      dup5\n        /* \"#utility.yul\":1999:2038   */\n      add\n        /* \"#utility.yul\":1992:2038   */\n      swap2\n      pop\n        /* \"#utility.yul\":1759:2044   */\n      pop\n        /* \"#utility.yul\":1667:2044   */\n      swap3\n      swap2\n      pop\n      pop\n      jump\t// out\n        /* \"#utility.yul\":2050:2168   */\n    tag_64:\n        /* \"#utility.yul\":2137:2161   */\n      tag_123\n        /* \"#utility.yul\":2155:2160   */\n      dup2\n        /* \"#utility.yul\":2137:2161   */\n      tag_56\n      jump\t// in\n    tag_123:\n        /* \"#utility.yul\":2132:2135   */\n      dup3\n        /* \"#utility.yul\":2125:2162   */\n      mstore\n        /* \"#utility.yul\":2050:2168   */\n      pop\n      pop\n      jump\t// out\n        /* \"#utility.yul\":2174:2597   */\n    tag_11:\n        /* \"#utility.yul\":2315:2319   */\n      0x00\n        /* \"#utility.yul\":2353:2355   */\n      0x40\n        /* \"#utility.yul\":2342:2351   */\n      dup3\n        /* \"#utility.yul\":2338:2356   */\n      add\n        /* \"#utility.yul\":2330:2356   */\n      swap1\n      pop\n        /* \"#utility.yul\":2402:2411   */\n      dup2\n        /* \"#utility.yul\":2396:2400   */\n      dup2\n        /* \"#utility.yul\":2392:2412   */\n      sub\n        /* \"#utility.yul\":2388:2389   */\n      0x00\n        /* \"#utility.yul\":2377:2386   */\n      dup4\n        /* \"#utility.yul\":2373:2390   */\n      add\n        /* \"#utility.yul\":2366:2413   */\n      mstore\n        /* \"#utility.yul\":2430:2508   */\n      tag_125\n        /* \"#utility.yul\":2503:2507   */\n      dup2\n        /* \"#utility.yul\":2494:2500   */\n      dup6\n        /* \"#utility.yul\":2430:2508   */\n      tag_63\n      jump\t// in\n    tag_125:\n        /* \"#utility.yul\":2422:2508   */\n      swap1\n      pop\n        /* \"#utility.yul\":2518:2590   */\n      tag_126\n        /* \"#utility.yul\":2586:2588   */\n      0x20\n        /* \"#utility.yul\":2575:2584   */\n      dup4\n        /* \"#utility.yul\":2571:2589   */\n      add\n        /* \"#utility.yul\":2562:2568   */\n      dup5\n        /* \"#utility.yul\":2518:2590   */\n      tag_64\n      jump\t// in\n    tag_126:\n        /* \"#utility.yul\":2174:2597   */\n      swap4\n      swap3\n      pop\n      pop\n      pop\n      jump\t// out\n        /* \"#utility.yul\":2603:2729   */\n    tag_65:\n        /* \"#utility.yul\":2640:2647   */\n      0x00\n        /* \"#utility.yul\":2680:2722   */\n      0xffffffffffffffffffffffffffffffffffffffff\n        /* \"#utility.yul\":2673:2678   */\n      dup3\n        /* \"#utility.yul\":2669:2723   */\n      and\n        /* \"#utility.yul\":2658:2723   */\n      swap1\n      pop\n        /* \"#utility.yul\":2603:2729   */\n      swap2\n      swap1\n      pop\n      jump\t// out\n        /* \"#utility.yul\":2735:2831   */\n    tag_66:\n        /* \"#utility.yul\":2772:2779   */\n      0x00\n        /* \"#utility.yul\":2801:2825   */\n      tag_129\n        /* \"#utility.yul\":2819:2824   */\n      dup3\n        /* \"#utility.yul\":2801:2825   */\n      tag_65\n      jump\t// in\n    tag_129:\n        /* \"#utility.yul\":2790:2825   */\n      swap1\n      pop\n        /* \"#utility.yul\":2735:2831   */\n      swap2\n      swap1\n      pop\n      jump\t// out\n        /* \"#utility.yul\":2837:2955   */\n    tag_67:\n        /* \"#utility.yul\":2924:2948   */\n      tag_131\n        /* \"#utility.yul\":2942:2947   */\n      dup2\n        /* \"#utility.yul\":2924:2948   */\n      tag_66\n      jump\t// in\n    tag_131:\n        /* \"#utility.yul\":2919:2922   */\n      dup3\n        /* \"#utility.yul\":2912:2949   */\n      mstore\n        /* \"#utility.yul\":2837:2955   */\n      pop\n      pop\n      jump\t// out\n        /* \"#utility.yul\":2961:3183   */\n    tag_16:\n        /* \"#utility.yul\":3054:3058   */\n      0x00\n        /* \"#utility.yul\":3092:3094   */\n      0x20\n        /* \"#utility.yul\":3081:3090   */\n      dup3\n        /* \"#utility.yul\":3077:3095   */\n      add\n        /* \"#utility.yul\":3069:3095   */\n      swap1\n      pop\n        /* \"#utility.yul\":3105:3176   */\n      tag_133\n        /* \"#utility.yul\":3173:3174   */\n      0x00\n        /* \"#utility.yul\":3162:3171   */\n      dup4\n        /* \"#utility.yul\":3158:3175   */\n      add\n        /* \"#utility.yul\":3149:3155   */\n      dup5\n        /* \"#utility.yul\":3105:3176   */\n      tag_67\n      jump\t// in\n    tag_133:\n        /* \"#utility.yul\":2961:3183   */\n      swap3\n      swap2\n      pop\n      pop\n      jump\t// out\n        /* \"#utility.yul\":3189:3306   */\n    tag_68:\n        /* \"#utility.yul\":3298:3299   */\n      0x00\n        /* \"#utility.yul\":3295:3296   */\n      dup1\n        /* \"#utility.yul\":3288:3300   */\n      revert\n        /* \"#utility.yul\":3312:3429   */\n    tag_69:\n        /* \"#utility.yul\":3421:3422   */\n      0x00\n        /* \"#utility.yul\":3418:3419   */\n      dup1\n        /* \"#utility.yul\":3411:3423   */\n      revert\n        /* \"#utility.yul\":3435:3552   */\n    tag_70:\n        /* \"#utility.yul\":3544:3545   */\n      0x00\n        /* \"#utility.yul\":3541:3542   */\n      dup1\n        /* \"#utility.yul\":3534:3546   */\n      revert\n        /* \"#utility.yul\":3572:4125   */\n    tag_71:\n        /* \"#utility.yul\":3630:3638   */\n      0x00\n        /* \"#utility.yul\":3640:3646   */\n      dup1\n        /* \"#utility.yul\":3690:3693   */\n      dup4\n        /* \"#utility.yul\":3683:3687   */\n      0x1f\n        /* \"#utility.yul\":3675:3681   */\n      dup5\n        /* \"#utility.yul\":3671:3688   */\n      add\n        /* \"#utility.yul\":3667:3694   */\n      slt\n        /* \"#utility.yul\":3657:3779   */\n      tag_138\n      jumpi\n        /* \"#utility.yul\":3698:3777   */\n      tag_139\n      tag_68\n      jump\t// in\n    tag_139:\n        /* \"#utility.yul\":3657:3779   */\n    tag_138:\n        /* \"#utility.yul\":3811:3817   */\n      dup3\n        /* \"#utility.yul\":3798:3818   */\n      calldataload\n        /* \"#utility.yul\":3788:3818   */\n      swap1\n      pop\n        /* \"#utility.yul\":3841:3859   */\n      0xffffffffffffffff\n        /* \"#utility.yul\":3833:3839   */\n      dup2\n        /* \"#utility.yul\":3830:3860   */\n      gt\n        /* \"#utility.yul\":3827:3944   */\n      iszero\n      tag_140\n      jumpi\n        /* \"#utility.yul\":3863:3942   */\n      tag_141\n      tag_69\n      jump\t// in\n    tag_141:\n        /* \"#utility.yul\":3827:3944   */\n    tag_140:\n        /* \"#utility.yul\":3977:3981   */\n      0x20\n        /* \"#utility.yul\":3969:3975   */\n      dup4\n        /* \"#utility.yul\":3965:3982   */\n      add\n        /* \"#utility.yul\":3953:3982   */\n      swap2\n      pop\n        /* \"#utility.yul\":4031:4034   */\n      dup4\n        /* \"#utility.yul\":4023:4027   */\n      0x01\n        /* \"#utility.yul\":4015:4021   */\n      dup3\n        /* \"#utility.yul\":4011:4028   */\n      mul\n        /* \"#utility.yul\":4001:4009   */\n      dup4\n        /* \"#utility.yul\":3997:4029   */\n      add\n        /* \"#utility.yul\":3994:4035   */\n      gt\n        /* \"#utility.yul\":3991:4119   */\n      iszero\n      tag_142\n      jumpi\n        /* \"#utility.yul\":4038:4117   */\n      tag_143\n      tag_70\n      jump\t// in\n    tag_143:\n        /* \"#utility.yul\":3991:4119   */\n    tag_142:\n        /* \"#utility.yul\":3572:4125   */\n      swap3\n      pop\n      swap3\n      swap1\n      pop\n      jump\t// out\n        /* \"#utility.yul\":4131:4660   */\n    tag_19:\n        /* \"#utility.yul\":4202:4208   */\n      0x00\n        /* \"#utility.yul\":4210:4216   */\n      dup1\n        /* \"#utility.yul\":4259:4261   */\n      0x20\n        /* \"#utility.yul\":4247:4256   */\n      dup4\n        /* \"#utility.yul\":4238:4245   */\n      dup6\n        /* \"#utility.yul\":4234:4257   */\n      sub\n        /* \"#utility.yul\":4230:4262   */\n      slt\n        /* \"#utility.yul\":4227:4346   */\n      iszero\n      tag_145\n      jumpi\n        /* \"#utility.yul\":4265:4344   */\n      tag_146\n      tag_54\n      jump\t// in\n    tag_146:\n        /* \"#utility.yul\":4227:4346   */\n    tag_145:\n        /* \"#utility.yul\":4413:4414   */\n      0x00\n        /* \"#utility.yul\":4402:4411   */\n      dup4\n        /* \"#utility.yul\":4398:4415   */\n      add\n        /* \"#utility.yul\":4385:4416   */\n      calldataload\n        /* \"#utility.yul\":4443:4461   */\n      0xffffffffffffffff\n        /* \"#utility.yul\":4435:4441   */\n      dup2\n        /* \"#utility.yul\":4432:4462   */\n      gt\n        /* \"#utility.yul\":4429:4546   */\n      iszero\n      tag_147\n      jumpi\n        /* \"#utility.yul\":4465:4544   */\n      tag_148\n      tag_55\n      jump\t// in\n    tag_148:\n        /* \"#utility.yul\":4429:4546   */\n    tag_147:\n        /* \"#utility.yul\":4578:4643   */\n      tag_149\n        /* \"#utility.yul\":4635:4642   */\n      dup6\n        /* \"#utility.yul\":4626:4632   */\n      dup3\n        /* \"#utility.yul\":4615:4624   */\n      dup7\n        /* \"#utility.yul\":4611:4633   */\n      add\n        /* \"#utility.yul\":4578:4643   */\n      tag_71\n      jump\t// in\n    tag_149:\n        /* \"#utility.yul\":4560:4643   */\n      swap3\n      pop\n      swap3\n      pop\n        /* \"#utility.yul\":4356:4653   */\n      pop\n        /* \"#utility.yul\":4131:4660   */\n      swap3\n      pop\n      swap3\n      swap1\n      pop\n      jump\t// out\n        /* \"#utility.yul\":4666:4846   */\n    tag_72:\n        /* \"#utility.yul\":4714:4791   */\n      0x4e487b7100000000000000000000000000000000000000000000000000000000\n        /* \"#utility.yul\":4711:4712   */\n      0x00\n        /* \"#utility.yul\":4704:4792   */\n      mstore\n        /* \"#utility.yul\":4811:4815   */\n      0x22\n        /* \"#utility.yul\":4808:4809   */\n      0x04\n        /* \"#utility.yul\":4801:4816   */\n      mstore\n        /* \"#utility.yul\":4835:4839   */\n      0x24\n        /* \"#utility.yul\":4832:4833   */\n      0x00\n        /* \"#utility.yul\":4825:4840   */\n      revert\n        /* \"#utility.yul\":4852:5172   */\n    tag_24:\n        /* \"#utility.yul\":4896:4902   */\n      0x00\n        /* \"#utility.yul\":4933:4934   */\n      0x02\n        /* \"#utility.yul\":4927:4931   */\n      dup3\n        /* \"#utility.yul\":4923:4935   */\n      div\n        /* \"#utility.yul\":4913:4935   */\n      swap1\n      pop\n        /* \"#utility.yul\":4980:4981   */\n      0x01\n        /* \"#utility.yul\":4974:4978   */\n      dup3\n        /* \"#utility.yul\":4970:4982   */\n      and\n        /* \"#utility.yul\":5001:5019   */\n      dup1\n        /* \"#utility.yul\":4991:5072   */\n      tag_152\n      jumpi\n        /* \"#utility.yul\":5057:5061   */\n      0x7f\n        /* \"#utility.yul\":5049:5055   */\n      dup3\n        /* \"#utility.yul\":5045:5062   */\n      and\n        /* \"#utility.yul\":5035:5062   */\n      swap2\n      pop\n        /* \"#utility.yul\":4991:5072   */\n    tag_152:\n        /* \"#utility.yul\":5119:5121   */\n      0x20\n        /* \"#utility.yul\":5111:5117   */\n      dup3\n        /* \"#utility.yul\":5108:5122   */\n      lt\n        /* \"#utility.yul\":5088:5106   */\n      dup2\n        /* \"#utility.yul\":5085:5123   */\n      sub\n        /* \"#utility.yul\":5082:5166   */\n      tag_153\n      jumpi\n        /* \"#utility.yul\":5138:5156   */\n      tag_154\n      tag_72\n      jump\t// in\n    tag_154:\n        /* \"#utility.yul\":5082:5166   */\n    tag_153:\n        /* \"#utility.yul\":4903:5172   */\n      pop\n        /* \"#utility.yul\":4852:5172   */\n      swap2\n      swap1\n      pop\n      jump\t// out\n        /* \"#utility.yul\":5178:5333   */\n    tag_73:\n        /* \"#utility.yul\":5318:5325   */\n      0x4552524f52000000000000000000000000000000000000000000000000000000\n        /* \"#utility.yul\":5314:5315   */\n      0x00\n        /* \"#utility.yul\":5306:5312   */\n      dup3\n        /* \"#utility.yul\":5302:5316   */\n      add\n        /* \"#utility.yul\":5295:5326   */\n      mstore\n        /* \"#utility.yul\":5178:5333   */\n      pop\n      jump\t// out\n        /* \"#utility.yul\":5339:5704   */\n    tag_74:\n        /* \"#utility.yul\":5481:5484   */\n      0x00\n        /* \"#utility.yul\":5502:5568   */\n      tag_157\n        /* \"#utility.yul\":5566:5567   */\n      0x05\n        /* \"#utility.yul\":5561:5564   */\n      dup4\n        /* \"#utility.yul\":5502:5568   */\n      tag_60\n      jump\t// in\n    tag_157:\n        /* \"#utility.yul\":5495:5568   */\n      swap2\n      pop\n        /* \"#utility.yul\":5577:5670   */\n      tag_158\n        /* \"#utility.yul\":5666:5669   */\n      dup3\n        /* \"#utility.yul\":5577:5670   */\n      tag_73\n      jump\t// in\n    tag_158:\n        /* \"#utility.yul\":5695:5697   */\n      0x20\n        /* \"#utility.yul\":5690:5693   */\n      dup3\n        /* \"#utility.yul\":5686:5698   */\n      add\n        /* \"#utility.yul\":5679:5698   */\n      swap1\n      pop\n        /* \"#utility.yul\":5339:5704   */\n      swap2\n      swap1\n      pop\n      jump\t// out\n        /* \"#utility.yul\":5710:6129   */\n    tag_32:\n        /* \"#utility.yul\":5876:5880   */\n      0x00\n        /* \"#utility.yul\":5914:5916   */\n      0x20\n        /* \"#utility.yul\":5903:5912   */\n      dup3\n        /* \"#utility.yul\":5899:5917   */\n      add\n        /* \"#utility.yul\":5891:5917   */\n      swap1\n      pop\n        /* \"#utility.yul\":5963:5972   */\n      dup2\n        /* \"#utility.yul\":5957:5961   */\n      dup2\n        /* \"#utility.yul\":5953:5973   */\n      sub\n        /* \"#utility.yul\":5949:5950   */\n      0x00\n        /* \"#utility.yul\":5938:5947   */\n      dup4\n        /* \"#utility.yul\":5934:5951   */\n      add\n        /* \"#utility.yul\":5927:5974   */\n      mstore\n        /* \"#utility.yul\":5991:6122   */\n      tag_160\n        /* \"#utility.yul\":6117:6121   */\n      dup2\n        /* \"#utility.yul\":5991:6122   */\n      tag_74\n      jump\t// in\n    tag_160:\n        /* \"#utility.yul\":5983:6122   */\n      swap1\n      pop\n        /* \"#utility.yul\":5710:6129   */\n      swap2\n      swap1\n      pop\n      jump\t// out\n        /* \"#utility.yul\":6135:6283   */\n    tag_75:\n        /* \"#utility.yul\":6237:6248   */\n      0x00\n        /* \"#utility.yul\":6274:6277   */\n      dup2\n        /* \"#utility.yul\":6259:6277   */\n      swap1\n      pop\n        /* \"#utility.yul\":6135:6283   */\n      swap3\n      swap2\n      pop\n      pop\n      jump\t// out\n        /* \"#utility.yul\":6289:6437   */\n    tag_76:\n        /* \"#utility.yul\":6387:6393   */\n      dup3\n        /* \"#utility.yul\":6382:6385   */\n      dup2\n        /* \"#utility.yul\":6377:6380   */\n      dup4\n        /* \"#utility.yul\":6364:6394   */\n      calldatacopy\n        /* \"#utility.yul\":6428:6429   */\n      0x00\n        /* \"#utility.yul\":6419:6425   */\n      dup4\n        /* \"#utility.yul\":6414:6417   */\n      dup4\n        /* \"#utility.yul\":6410:6426   */\n      add\n        /* \"#utility.yul\":6403:6430   */\n      mstore\n        /* \"#utility.yul\":6289:6437   */\n      pop\n      pop\n      pop\n      jump\t// out\n        /* \"#utility.yul\":6467:6797   */\n    tag_77:\n        /* \"#utility.yul\":6583:6586   */\n      0x00\n        /* \"#utility.yul\":6604:6693   */\n      tag_164\n        /* \"#utility.yul\":6686:6692   */\n      dup4\n        /* \"#utility.yul\":6681:6684   */\n      dup6\n        /* \"#utility.yul\":6604:6693   */\n      tag_75\n      jump\t// in\n    tag_164:\n        /* \"#utility.yul\":6597:6693   */\n      swap4\n      pop\n        /* \"#utility.yul\":6703:6759   */\n      tag_165\n        /* \"#utility.yul\":6752:6758   */\n      dup4\n        /* \"#utility.yul\":6747:6750   */\n      dup6\n        /* \"#utility.yul\":6740:6745   */\n      dup5\n        /* \"#utility.yul\":6703:6759   */\n      tag_76\n      jump\t// in\n    tag_165:\n        /* \"#utility.yul\":6784:6790   */\n      dup3\n        /* \"#utility.yul\":6779:6782   */\n      dup5\n        /* \"#utility.yul\":6775:6791   */\n      add\n        /* \"#utility.yul\":6768:6791   */\n      swap1\n      pop\n        /* \"#utility.yul\":6467:6797   */\n      swap4\n      swap3\n      pop\n      pop\n      pop\n      jump\t// out\n        /* \"#utility.yul\":6803:7098   */\n    tag_39:\n        /* \"#utility.yul\":6945:6948   */\n      0x00\n        /* \"#utility.yul\":6967:7072   */\n      tag_167\n        /* \"#utility.yul\":7068:7071   */\n      dup3\n        /* \"#utility.yul\":7059:7065   */\n      dup5\n        /* \"#utility.yul\":7051:7057   */\n      dup7\n        /* \"#utility.yul\":6967:7072   */\n      tag_77\n      jump\t// in\n    tag_167:\n        /* \"#utility.yul\":6960:7072   */\n      swap2\n      pop\n        /* \"#utility.yul\":7089:7092   */\n      dup2\n        /* \"#utility.yul\":7082:7092   */\n      swap1\n      pop\n        /* \"#utility.yul\":6803:7098   */\n      swap4\n      swap3\n      pop\n      pop\n      pop\n      jump\t// out\n        /* \"#utility.yul\":7104:7284   */\n    tag_78:\n        /* \"#utility.yul\":7152:7229   */\n      0x4e487b7100000000000000000000000000000000000000000000000000000000\n        /* \"#utility.yul\":7149:7150   */\n      0x00\n        /* \"#utility.yul\":7142:7230   */\n      mstore\n        /* \"#utility.yul\":7249:7253   */\n      0x12\n        /* \"#utility.yul\":7246:7247   */\n      0x04\n        /* \"#utility.yul\":7239:7254   */\n      mstore\n        /* \"#utility.yul\":7273:7277   */\n      0x24\n        /* \"#utility.yul\":7270:7271   */\n      0x00\n        /* \"#utility.yul\":7263:7278   */\n      revert\n        /* \"#utility.yul\":7290:7466   */\n    tag_41:\n        /* \"#utility.yul\":7322:7323   */\n      0x00\n        /* \"#utility.yul\":7339:7359   */\n      tag_170\n        /* \"#utility.yul\":7357:7358   */\n      dup3\n        /* \"#utility.yul\":7339:7359   */\n      tag_56\n      jump\t// in\n    tag_170:\n        /* \"#utility.yul\":7334:7359   */\n      swap2\n      pop\n        /* \"#utility.yul\":7373:7393   */\n      tag_171\n        /* \"#utility.yul\":7391:7392   */\n      dup4\n        /* \"#utility.yul\":7373:7393   */\n      tag_56\n      jump\t// in\n    tag_171:\n        /* \"#utility.yul\":7368:7393   */\n      swap3\n      pop\n        /* \"#utility.yul\":7412:7413   */\n      dup3\n        /* \"#utility.yul\":7402:7437   */\n      tag_172\n      jumpi\n        /* \"#utility.yul\":7417:7435   */\n      tag_173\n      tag_78\n      jump\t// in\n    tag_173:\n        /* \"#utility.yul\":7402:7437   */\n    tag_172:\n        /* \"#utility.yul\":7458:7459   */\n      dup3\n        /* \"#utility.yul\":7455:7456   */\n      dup3\n        /* \"#utility.yul\":7451:7460   */\n      mod\n        /* \"#utility.yul\":7446:7460   */\n      swap1\n      pop\n        /* \"#utility.yul\":7290:7466   */\n      swap3\n      swap2\n      pop\n      pop\n      jump\t// out\n        /* \"#utility.yul\":7472:7652   */\n    tag_79:\n        /* \"#utility.yul\":7520:7597   */\n      0x4e487b7100000000000000000000000000000000000000000000000000000000\n        /* \"#utility.yul\":7517:7518   */\n      0x00\n        /* \"#utility.yul\":7510:7598   */\n      mstore\n        /* \"#utility.yul\":7617:7621   */\n      0x41\n        /* \"#utility.yul\":7614:7615   */\n      0x04\n        /* \"#utility.yul\":7607:7622   */\n      mstore\n        /* \"#utility.yul\":7641:7645   */\n      0x24\n        /* \"#utility.yul\":7638:7639   */\n      0x00\n        /* \"#utility.yul\":7631:7646   */\n      revert\n        /* \"#utility.yul\":7658:7799   */\n    tag_80:\n        /* \"#utility.yul\":7707:7711   */\n      0x00\n        /* \"#utility.yul\":7730:7733   */\n      dup2\n        /* \"#utility.yul\":7722:7733   */\n      swap1\n      pop\n        /* \"#utility.yul\":7753:7756   */\n      dup2\n        /* \"#utility.yul\":7750:7751   */\n      0x00\n        /* \"#utility.yul\":7743:7757   */\n      mstore\n        /* \"#utility.yul\":7787:7791   */\n      0x20\n        /* \"#utility.yul\":7784:7785   */\n      0x00\n        /* \"#utility.yul\":7774:7792   */\n      keccak256\n        /* \"#utility.yul\":7766:7792   */\n      swap1\n      pop\n        /* \"#utility.yul\":7658:7799   */\n      swap2\n      swap1\n      pop\n      jump\t// out\n        /* \"#utility.yul\":7805:7898   */\n    tag_81:\n        /* \"#utility.yul\":7842:7848   */\n      0x00\n        /* \"#utility.yul\":7889:7891   */\n      0x20\n        /* \"#utility.yul\":7884:7886   */\n      0x1f\n        /* \"#utility.yul\":7877:7882   */\n      dup4\n        /* \"#utility.yul\":7873:7887   */\n      add\n        /* \"#utility.yul\":7869:7892   */\n      div\n        /* \"#utility.yul\":7859:7892   */\n      swap1\n      pop\n        /* \"#utility.yul\":7805:7898   */\n      swap2\n      swap1\n      pop\n      jump\t// out\n        /* \"#utility.yul\":7904:8011   */\n    tag_82:\n        /* \"#utility.yul\":7948:7956   */\n      0x00\n        /* \"#utility.yul\":7998:8003   */\n      dup3\n        /* \"#utility.yul\":7992:7996   */\n      dup3\n        /* \"#utility.yul\":7988:8004   */\n      shl\n        /* \"#utility.yul\":7967:8004   */\n      swap1\n      pop\n        /* \"#utility.yul\":7904:8011   */\n      swap3\n      swap2\n      pop\n      pop\n      jump\t// out\n        /* \"#utility.yul\":8017:8410   */\n    tag_83:\n        /* \"#utility.yul\":8086:8092   */\n      0x00\n        /* \"#utility.yul\":8136:8137   */\n      0x08\n        /* \"#utility.yul\":8124:8134   */\n      dup4\n        /* \"#utility.yul\":8120:8138   */\n      mul\n        /* \"#utility.yul\":8159:8256   */\n      tag_179\n        /* \"#utility.yul\":8189:8255   */\n      0xffffffffffffffffffffffffffffffffffffffffffffffffffffffffffffffff\n        /* \"#utility.yul\":8178:8187   */\n      dup3\n        /* \"#utility.yul\":8159:8256   */\n      tag_82\n      jump\t// in\n    tag_179:\n        /* \"#utility.yul\":8277:8316   */\n      tag_180\n        /* \"#utility.yul\":8307:8315   */\n      dup7\n        /* \"#utility.yul\":8296:8305   */\n      dup4\n        /* \"#utility.yul\":8277:8316   */\n      tag_82\n      jump\t// in\n    tag_180:\n        /* \"#utility.yul\":8265:8316   */\n      swap6\n      pop\n        /* \"#utility.yul\":8349:8353   */\n      dup1\n        /* \"#utility.yul\":8345:8354   */\n      not\n        /* \"#utility.yul\":8338:8343   */\n      dup5\n        /* \"#utility.yul\":8334:8355   */\n      and\n        /* \"#utility.yul\":8325:8355   */\n      swap4\n      pop\n        /* \"#utility.yul\":8398:8402   */\n      dup1\n        /* \"#utility.yul\":8388:8396   */\n      dup7\n        /* \"#utility.yul\":8384:8403   */\n      and\n        /* \"#utility.yul\":8377:8382   */\n      dup5\n        /* \"#utility.yul\":8374:8404   */\n      or\n        /* \"#utility.yul\":8364:8404   */\n      swap3\n      pop\n        /* \"#utility.yul\":8093:8410   */\n      pop\n      pop\n        /* \"#utility.yul\":8017:8410   */\n      swap4\n      swap3\n      pop\n      pop\n      pop\n      jump\t// out\n        /* \"#utility.yul\":8416:8476   */\n    tag_84:\n        /* \"#utility.yul\":8444:8447   */\n      0x00\n        /* \"#utility.yul\":8465:8470   */\n      dup2\n        /* \"#utility.yul\":8458:8470   */\n      swap1\n      pop\n        /* \"#utility.yul\":8416:8476   */\n      swap2\n      swap1\n      pop\n      jump\t// out\n        /* \"#utility.yul\":8482:8624   */\n    tag_85:\n        /* \"#utility.yul\":8532:8541   */\n      0x00\n        /* \"#utility.yul\":8565:8618   */\n      tag_183\n        /* \"#utility.yul\":8583:8617   */\n      tag_184\n        /* \"#utility.yul\":8592:8616   */\n      tag_185\n        /* \"#utility.yul\":8610:8615   */\n      dup5\n        /* \"#utility.yul\":8592:8616   */\n      tag_56\n      jump\t// in\n    tag_185:\n        /* \"#utility.yul\":8583:8617   */\n      tag_84\n      jump\t// in\n    tag_184:\n        /* \"#utility.yul\":8565:8618   */\n      tag_56\n      jump\t// in\n    tag_183:\n        /* \"#utility.yul\":8552:8618   */\n      swap1\n      pop\n        /* \"#utility.yul\":8482:8624   */\n      swap2\n      swap1\n      pop\n      jump\t// out\n        /* \"#utility.yul\":8630:8705   */\n    tag_86:\n        /* \"#utility.yul\":8673:8676   */\n      0x00\n        /* \"#utility.yul\":8694:8699   */\n      dup2\n        /* \"#utility.yul\":8687:8699   */\n      swap1\n      pop\n        /* \"#utility.yul\":8630:8705   */\n      swap2\n      swap1\n      pop\n      jump\t// out\n        /* \"#utility.yul\":8711:8980   */\n    tag_87:\n        /* \"#utility.yul\":8821:8860   */\n      tag_188\n        /* \"#utility.yul\":8852:8859   */\n      dup4\n        /* \"#utility.yul\":8821:8860   */\n      tag_85\n      jump\t// in\n    tag_188:\n        /* \"#utility.yul\":8882:8973   */\n      tag_189\n        /* \"#utility.yul\":8931:8972   */\n      tag_190\n        /* \"#utility.yul\":8955:8971   */\n      dup3\n        /* \"#utility.yul\":8931:8972   */\n      tag_86\n      jump\t// in\n    tag_190:\n        /* \"#utility.yul\":8923:8929   */\n      dup5\n        /* \"#utility.yul\":8916:8920   */\n      dup5\n        /* \"#utility.yul\":8910:8921   */\n      sload\n        /* \"#utility.yul\":8882:8973   */\n      tag_83\n      jump\t// in\n    tag_189:\n        /* \"#utility.yul\":8876:8880   */\n      dup3\n        /* \"#utility.yul\":8869:8974   */\n      sstore\n        /* \"#utility.yul\":8787:8980   */\n      pop\n        /* \"#utility.yul\":8711:8980   */\n      pop\n      pop\n      pop\n      jump\t// out\n        /* \"#utility.yul\":8986:9059   */\n    tag_88:\n        /* \"#utility.yul\":9031:9034   */\n      0x00\n        /* \"#utility.yul\":8986:9059   */\n      swap1\n      jump\t// out\n        /* \"#utility.yul\":9065:9254   */\n    tag_89:\n        /* \"#utility.yul\":9142:9174   */\n      tag_193\n      tag_88\n      jump\t// in\n    tag_193:\n        /* \"#utility.yul\":9183:9248   */\n      tag_194\n        /* \"#utility.yul\":9241:9247   */\n      dup2\n        /* \"#utility.yul\":9233:9239   */\n      dup5\n        /* \"#utility.yul\":9227:9231   */\n      dup5\n        /* \"#utility.yul\":9183:9248   */\n      tag_87\n      jump\t// in\n    tag_194:\n        /* \"#utility.yul\":9118:9254   */\n      pop\n        /* \"#utility.yul\":9065:9254   */\n      pop\n      pop\n      jump\t// out\n        /* \"#utility.yul\":9260:9446   */\n    tag_90:\n        /* \"#utility.yul\":9320:9440   */\n    tag_196:\n        /* \"#utility.yul\":9337:9340   */\n      dup2\n        /* \"#utility.yul\":9330:9335   */\n      dup2\n        /* \"#utility.yul\":9327:9341   */\n      lt\n        /* \"#utility.yul\":9320:9440   */\n      iszero\n      tag_198\n      jumpi\n        /* \"#utility.yul\":9391:9430   */\n      tag_199\n        /* \"#utility.yul\":9428:9429   */\n      0x00\n        /* \"#utility.yul\":9421:9426   */\n      dup3\n        /* \"#utility.yul\":9391:9430   */\n      tag_89\n      jump\t// in\n    tag_199:\n        /* \"#utility.yul\":9364:9365   */\n      0x01\n        /* \"#utility.yul\":9357:9362   */\n      dup2\n        /* \"#utility.yul\":9353:9366   */\n      add\n        /* \"#utility.yul\":9344:9366   */\n      swap1\n      pop\n        /* \"#utility.yul\":9320:9440   */\n      jump(tag_196)\n    tag_198:\n        /* \"#utility.yul\":9260:9446   */\n      pop\n      pop\n      jump\t// out\n        /* \"#utility.yul\":9452:9995   */\n    tag_91:\n        /* \"#utility.yul\":9553:9555   */\n      0x1f\n        /* \"#utility.yul\":9548:9551   */\n      dup3\n        /* \"#utility.yul\":9545:9556   */\n      gt\n        /* \"#utility.yul\":9542:9988   */\n      iszero\n      tag_201\n      jumpi\n        /* \"#utility.yul\":9587:9625   */\n      tag_202\n        /* \"#utility.yul\":9619:9624   */\n      dup2\n        /* \"#utility.yul\":9587:9625   */\n      tag_80\n      jump\t// in\n    tag_202:\n        /* \"#utility.yul\":9671:9700   */\n      tag_203\n        /* \"#utility.yul\":9689:9699   */\n      dup5\n        /* \"#utility.yul\":9671:9700   */\n      tag_81\n      jump\t// in\n    tag_203:\n        /* \"#utility.yul\":9661:9669   */\n      dup2\n        /* \"#utility.yul\":9657:9701   */\n      add\n        /* \"#utility.yul\":9854:9856   */\n      0x20\n        /* \"#utility.yul\":9842:9852   */\n      dup6\n        /* \"#utility.yul\":9839:9857   */\n      lt\n        /* \"#utility.yul\":9836:9885   */\n      iszero\n      tag_204\n      jumpi\n        /* \"#utility.yul\":9875:9883   */\n      dup2\n        /* \"#utility.yul\":9860:9883   */\n      swap1\n      pop\n        /* \"#utility.yul\":9836:9885   */\n    tag_204:\n        /* \"#utility.yul\":9898:9978   */\n      tag_205\n        /* \"#utility.yul\":9954:9976   */\n      tag_206\n        /* \"#utility.yul\":9972:9975   */\n      dup6\n        /* \"#utility.yul\":9954:9976   */\n      tag_81\n      jump\t// in\n    tag_206:\n        /* \"#utility.yul\":9944:9952   */\n      dup4\n        /* \"#utility.yul\":9940:9977   */\n      add\n        /* \"#utility.yul\":9927:9938   */\n      dup3\n        /* \"#utility.yul\":9898:9978   */\n      tag_90\n      jump\t// in\n    tag_205:\n        /* \"#utility.yul\":9557:9988   */\n      pop\n      pop\n        /* \"#utility.yul\":9542:9988   */\n    tag_201:\n        /* \"#utility.yul\":9452:9995   */\n      pop\n      pop\n      pop\n      jump\t// out\n        /* \"#utility.yul\":10001:10118   */\n    tag_92:\n        /* \"#utility.yul\":10055:10063   */\n      0x00\n        /* \"#utility.yul\":10105:10110   */\n      dup3\n        /* \"#utility.yul\":10099:10103   */\n      dup3\n        /* \"#utility.yul\":10095:10111   */\n      shr\n        /* \"#utility.yul\":10074:10111   */\n      swap1\n      pop\n        /* \"#utility.yul\":10001:10118   */\n      swap3\n      swap2\n      pop\n      pop\n      jump\t// out\n        /* \"#utility.yul\":10124:10293   */\n    tag_93:\n        /* \"#utility.yul\":10168:10174   */\n      0x00\n        /* \"#utility.yul\":10201:10252   */\n      tag_209\n        /* \"#utility.yul\":10249:10250   */\n      0x00\n        /* \"#utility.yul\":10245:10251   */\n      not\n        /* \"#utility.yul\":10237:10242   */\n      dup5\n        /* \"#utility.yul\":10234:10235   */\n      0x08\n        /* \"#utility.yul\":10230:10243   */\n      mul\n        /* \"#utility.yul\":10201:10252   */\n      tag_92\n      jump\t// in\n    tag_209:\n        /* \"#utility.yul\":10197:10253   */\n      not\n        /* \"#utility.yul\":10282:10286   */\n      dup1\n        /* \"#utility.yul\":10276:10280   */\n      dup4\n        /* \"#utility.yul\":10272:10287   */\n      and\n        /* \"#utility.yul\":10262:10287   */\n      swap2\n      pop\n        /* \"#utility.yul\":10175:10293   */\n      pop\n        /* \"#utility.yul\":10124:10293   */\n      swap3\n      swap2\n      pop\n      pop\n      jump\t// out\n        /* \"#utility.yul\":10298:10593   */\n    tag_94:\n        /* \"#utility.yul\":10374:10378   */\n      0x00\n        /* \"#utility.yul\":10520:10549   */\n      tag_211\n        /* \"#utility.yul\":10545:10548   */\n      dup4\n        /* \"#utility.yul\":10539:10543   */\n      dup4\n        /* \"#utility.yul\":10520:10549   */\n      tag_93\n      jump\t// in\n    tag_211:\n        /* \"#utility.yul\":10512:10549   */\n      swap2\n      pop\n        /* \"#utility.yul\":10582:10585   */\n      dup3\n        /* \"#utility.yul\":10579:10580   */\n      0x02\n        /* \"#utility.yul\":10575:10586   */\n      mul\n        /* \"#utility.yul\":10569:10573   */\n      dup3\n        /* \"#utility.yul\":10566:10587   */\n      or\n        /* \"#utility.yul\":10558:10587   */\n      swap1\n      pop\n        /* \"#utility.yul\":10298:10593   */\n      swap3\n      swap2\n      pop\n      pop\n      jump\t// out\n        /* \"#utility.yul\":10598:11993   */\n    tag_45:\n        /* \"#utility.yul\":10715:10752   */\n      tag_213\n        /* \"#utility.yul\":10748:10751   */\n      dup3\n        /* \"#utility.yul\":10715:10752   */\n      tag_59\n      jump\t// in\n    tag_213:\n        /* \"#utility.yul\":10817:10835   */\n      0xffffffffffffffff\n        /* \"#utility.yul\":10809:10815   */\n      dup2\n        /* \"#utility.yul\":10806:10836   */\n      gt\n        /* \"#utility.yul\":10803:10859   */\n      iszero\n      tag_214\n      jumpi\n        /* \"#utility.yul\":10839:10857   */\n      tag_215\n      tag_79\n      jump\t// in\n    tag_215:\n        /* \"#utility.yul\":10803:10859   */\n    tag_214:\n        /* \"#utility.yul\":10883:10921   */\n      tag_216\n        /* \"#utility.yul\":10915:10919   */\n      dup3\n        /* \"#utility.yul\":10909:10920   */\n      sload\n        /* \"#utility.yul\":10883:10921   */\n      tag_24\n      jump\t// in\n    tag_216:\n        /* \"#utility.yul\":10968:11035   */\n      tag_217\n        /* \"#utility.yul\":11028:11034   */\n      dup3\n        /* \"#utility.yul\":11020:11026   */\n      dup3\n        /* \"#utility.yul\":11014:11018   */\n      dup6\n        /* \"#utility.yul\":10968:11035   */\n      tag_91\n      jump\t// in\n    tag_217:\n        /* \"#utility.yul\":11062:11063   */\n      0x00\n        /* \"#utility.yul\":11086:11090   */\n      0x20\n        /* \"#utility.yul\":11073:11090   */\n      swap1\n      pop\n        /* \"#utility.yul\":11118:11120   */\n      0x1f\n        /* \"#utility.yul\":11110:11116   */\n      dup4\n        /* \"#utility.yul\":11107:11121   */\n      gt\n        /* \"#utility.yul\":11135:11136   */\n      0x01\n        /* \"#utility.yul\":11130:11748   */\n      dup2\n      eq\n      tag_219\n      jumpi\n        /* \"#utility.yul\":11792:11793   */\n      0x00\n        /* \"#utility.yul\":11809:11815   */\n      dup5\n        /* \"#utility.yul\":11806:11883   */\n      iszero\n      tag_220\n      jumpi\n        /* \"#utility.yul\":11858:11867   */\n      dup3\n        /* \"#utility.yul\":11853:11856   */\n      dup8\n        /* \"#utility.yul\":11849:11868   */\n      add\n        /* \"#utility.yul\":11843:11869   */\n      mload\n        /* \"#utility.yul\":11834:11869   */\n      swap1\n      pop\n        /* \"#utility.yul\":11806:11883   */\n    tag_220:\n        /* \"#utility.yul\":11909:11976   */\n      tag_221\n        /* \"#utility.yul\":11969:11975   */\n      dup6\n        /* \"#utility.yul\":11962:11967   */\n      dup3\n        /* \"#utility.yul\":11909:11976   */\n      tag_94\n      jump\t// in\n    tag_221:\n        /* \"#utility.yul\":11903:11907   */\n      dup7\n        /* \"#utility.yul\":11896:11977   */\n      sstore\n        /* \"#utility.yul\":11765:11987   */\n      pop\n        /* \"#utility.yul\":11100:11987   */\n      jump(tag_218)\n        /* \"#utility.yul\":11130:11748   */\n    tag_219:\n        /* \"#utility.yul\":11182:11186   */\n      0x1f\n        /* \"#utility.yul\":11178:11187   */\n      not\n        /* \"#utility.yul\":11170:11176   */\n      dup5\n        /* \"#utility.yul\":11166:11188   */\n      and\n        /* \"#utility.yul\":11216:11253   */\n      tag_222\n        /* \"#utility.yul\":11248:11252   */\n      dup7\n        /* \"#utility.yul\":11216:11253   */\n      tag_80\n      jump\t// in\n    tag_222:\n        /* \"#utility.yul\":11275:11276   */\n      0x00\n        /* \"#utility.yul\":11289:11497   */\n    tag_223:\n        /* \"#utility.yul\":11303:11310   */\n      dup3\n        /* \"#utility.yul\":11300:11301   */\n      dup2\n        /* \"#utility.yul\":11297:11311   */\n      lt\n        /* \"#utility.yul\":11289:11497   */\n      iszero\n      tag_225\n      jumpi\n        /* \"#utility.yul\":11382:11391   */\n      dup5\n        /* \"#utility.yul\":11377:11380   */\n      dup10\n        /* \"#utility.yul\":11373:11392   */\n      add\n        /* \"#utility.yul\":11367:11393   */\n      mload\n        /* \"#utility.yul\":11359:11365   */\n      dup3\n        /* \"#utility.yul\":11352:11394   */\n      sstore\n        /* \"#utility.yul\":11433:11434   */\n      0x01\n        /* \"#utility.yul\":11425:11431   */\n      dup3\n        /* \"#utility.yul\":11421:11435   */\n      add\n        /* \"#utility.yul\":11411:11435   */\n      swap2\n      pop\n        /* \"#utility.yul\":11480:11482   */\n      0x20\n        /* \"#utility.yul\":11469:11478   */\n      dup6\n        /* \"#utility.yul\":11465:11483   */\n      add\n        /* \"#utility.yul\":11452:11483   */\n      swap5\n      pop\n        /* \"#utility.yul\":11326:11330   */\n      0x20\n        /* \"#utility.yul\":11323:11324   */\n      dup2\n        /* \"#utility.yul\":11319:11331   */\n      add\n        /* \"#utility.yul\":11314:11331   */\n      swap1\n      pop\n        /* \"#utility.yul\":11289:11497   */\n      jump(tag_223)\n    tag_225:\n        /* \"#utility.yul\":11525:11531   */\n      dup7\n        /* \"#utility.yul\":11516:11523   */\n      dup4\n        /* \"#utility.yul\":11513:11532   */\n      lt\n        /* \"#utility.yul\":11510:11689   */\n      iszero\n      tag_226\n      jumpi\n        /* \"#utility.yul\":11583:11592   */\n      dup5\n        /* \"#utility.yul\":11578:11581   */\n      dup10\n        /* \"#utility.yul\":11574:11593   */\n      add\n        /* \"#utility.yul\":11568:11594   */\n      mload\n        /* \"#utility.yul\":11626:11674   */\n      tag_227\n        /* \"#utility.yul\":11668:11672   */\n      0x1f\n        /* \"#utility.yul\":11660:11666   */\n      dup10\n        /* \"#utility.yul\":11656:11673   */\n      and\n        /* \"#utility.yul\":11645:11654   */\n      dup3\n        /* \"#utility.yul\":11626:11674   */\n      tag_93\n      jump\t// in\n    tag_227:\n        /* \"#utility.yul\":11618:11624   */\n      dup4\n        /* \"#utility.yul\":11611:11675   */\n      sstore\n        /* \"#utility.yul\":11533:11689   */\n      pop\n        /* \"#utility.yul\":11510:11689   */\n    tag_226:\n        /* \"#utility.yul\":11735:11736   */\n      0x01\n        /* \"#utility.yul\":11731:11732   */\n      0x02\n        /* \"#utility.yul\":11723:11729   */\n      dup9\n        /* \"#utility.yul\":11719:11733   */\n      mul\n        /* \"#utility.yul\":11715:11737   */\n      add\n        /* \"#utility.yul\":11709:11713   */\n      dup9\n        /* \"#utility.yul\":11702:11738   */\n      sstore\n        /* \"#utility.yul\":11137:11748   */\n      pop\n      pop\n      pop\n        /* \"#utility.yul\":11100:11987   */\n    tag_218:\n      pop\n        /* \"#utility.yul\":10690:11993   */\n      pop\n      pop\n      pop\n        /* \"#utility.yul\":10598:11993   */\n      pop\n      pop\n      jump\t// out\n        /* \"#utility.yul\":11999:12179   */\n    tag_95:\n        /* \"#utility.yul\":12047:12124   */\n      0x4e487b7100000000000000000000000000000000000000000000000000000000\n        /* \"#utility.yul\":12044:12045   */\n      0x00\n        /* \"#utility.yul\":12037:12125   */\n      mstore\n        /* \"#utility.yul\":12144:12148   */\n      0x11\n        /* \"#utility.yul\":12141:12142   */\n      0x04\n        /* \"#utility.yul\":12134:12149   */\n      mstore\n        /* \"#utility.yul\":12168:12172   */\n      0x24\n        /* \"#utility.yul\":12165:12166   */\n      0x00\n        /* \"#utility.yul\":12158:12173   */\n      revert\n        /* \"#utility.yul\":12185:12379   */\n    tag_47:\n        /* \"#utility.yul\":12225:12229   */\n      0x00\n        /* \"#utility.yul\":12245:12265   */\n      tag_230\n        /* \"#utility.yul\":12263:12264   */\n      dup3\n        /* \"#utility.yul\":12245:12265   */\n      tag_56\n      jump\t// in\n    tag_230:\n        /* \"#utility.yul\":12240:12265   */\n      swap2\n      pop\n        /* \"#utility.yul\":12279:12299   */\n      tag_231\n        /* \"#utility.yul\":12297:12298   */\n      dup4\n        /* \"#utility.yul\":12279:12299   */\n      tag_56\n      jump\t// in\n    tag_231:\n        /* \"#utility.yul\":12274:12299   */\n      swap3\n      pop\n        /* \"#utility.yul\":12323:12324   */\n      dup3\n        /* \"#utility.yul\":12320:12321   */\n      dup3\n        /* \"#utility.yul\":12316:12325   */\n      sub\n        /* \"#utility.yul\":12308:12325   */\n      swap1\n      pop\n        /* \"#utility.yul\":12347:12348   */\n      dup2\n        /* \"#utility.yul\":12341:12345   */\n      dup2\n        /* \"#utility.yul\":12338:12349   */\n      gt\n        /* \"#utility.yul\":12335:12372   */\n      iszero\n      tag_232\n      jumpi\n        /* \"#utility.yul\":12352:12370   */\n      tag_233\n      tag_95\n      jump\t// in\n    tag_233:\n        /* \"#utility.yul\":12335:12372   */\n    tag_232:\n        /* \"#utility.yul\":12185:12379   */\n      swap3\n      swap2\n      pop\n      pop\n      jump\t// out\n        /* \"#utility.yul\":12385:12576   */\n    tag_49:\n        /* \"#utility.yul\":12425:12428   */\n      0x00\n        /* \"#utility.yul\":12444:12464   */\n      tag_235\n        /* \"#utility.yul\":12462:12463   */\n      dup3\n        /* \"#utility.yul\":12444:12464   */\n      tag_56\n      jump\t// in\n    tag_235:\n        /* \"#utility.yul\":12439:12464   */\n      swap2\n      pop\n        /* \"#utility.yul\":12478:12498   */\n      tag_236\n        /* \"#utility.yul\":12496:12497   */\n      dup4\n        /* \"#utility.yul\":12478:12498   */\n      tag_56\n      jump\t// in\n    tag_236:\n        /* \"#utility.yul\":12473:12498   */\n      swap3\n      pop\n        /* \"#utility.yul\":12521:12522   */\n      dup3\n        /* \"#utility.yul\":12518:12519   */\n      dup3\n        /* \"#utility.yul\":12514:12523   */\n      add\n        /* \"#utility.yul\":12507:12523   */\n      swap1\n      pop\n        /* \"#utility.yul\":12542:12545   */\n      dup1\n        /* \"#utility.yul\":12539:12540   */\n      dup3\n        /* \"#utility.yul\":12536:12546   */\n      gt\n        /* \"#utility.yul\":12533:12569   */\n      iszero\n      tag_237\n      jumpi\n        /* \"#utility.yul\":12549:12567   */\n      tag_238\n      tag_95\n      jump\t// in\n    tag_238:\n        /* \"#utility.yul\":12533:12569   */\n    tag_237:\n        /* \"#utility.yul\":12385:12576   */\n      swap3\n      swap2\n      pop\n      pop\n      jump\t// out\n        /* \"#utility.yul\":12582:13115   */\n    tag_52:\n        /* \"#utility.yul\":12751:12755   */\n      0x00\n        /* \"#utility.yul\":12789:12791   */\n      0x60\n        /* \"#utility.yul\":12778:12787   */\n      dup3\n        /* \"#utility.yul\":12774:12792   */\n      add\n        /* \"#utility.yul\":12766:12792   */\n      swap1\n      pop\n        /* \"#utility.yul\":12802:12873   */\n      tag_240\n        /* \"#utility.yul\":12870:12871   */\n      0x00\n        /* \"#utility.yul\":12859:12868   */\n      dup4\n        /* \"#utility.yul\":12855:12872   */\n      add\n        /* \"#utility.yul\":12846:12852   */\n      dup7\n        /* \"#utility.yul\":12802:12873   */\n      tag_64\n      jump\t// in\n    tag_240:\n        /* \"#utility.yul\":12920:12929   */\n      dup2\n        /* \"#utility.yul\":12914:12918   */\n      dup2\n        /* \"#utility.yul\":12910:12930   */\n      sub\n        /* \"#utility.yul\":12905:12907   */\n      0x20\n        /* \"#utility.yul\":12894:12903   */\n      dup4\n        /* \"#utility.yul\":12890:12908   */\n      add\n        /* \"#utility.yul\":12883:12931   */\n      mstore\n        /* \"#utility.yul\":12948:13026   */\n      tag_241\n        /* \"#utility.yul\":13021:13025   */\n      dup2\n        /* \"#utility.yul\":13012:13018   */\n      dup6\n        /* \"#utility.yul\":12948:13026   */\n      tag_63\n      jump\t// in\n    tag_241:\n        /* \"#utility.yul\":12940:13026   */\n      swap1\n      pop\n        /* \"#utility.yul\":13036:13108   */\n      tag_242\n        /* \"#utility.yul\":13104:13106   */\n      0x40\n        /* \"#utility.yul\":13093:13102   */\n      dup4\n        /* \"#utility.yul\":13089:13107   */\n      add\n        /* \"#utility.yul\":13080:13086   */\n      dup5\n        /* \"#utility.yul\":13036:13108   */\n      tag_64\n      jump\t// in\n    tag_242:\n        /* \"#utility.yul\":12582:13115   */\n      swap5\n      swap4\n      pop\n      pop\n      pop\n      pop\n      jump\t// out\n\n    auxdata: 0xa264697066735822122029c52c9c8e22affcd0ac939ed5b673be31eb35af9fae0babd04bf71a80b35c3d64736f6c63430008190033\n}\n",
				"bytecode": {
					"linkReferences": {},
					"object": "60806040526010600055600054600a6100189190610199565b60015534801561002757600080fd5b506101e4565b7f4e487b7100000000000000000000000000000000000000000000000000000000600052601160045260246000fd5b60008160011c9050919050565b6000808291508390505b60018511156100b35780860481111561008f5761008e61002d565b5b600185161561009e5780820291505b80810290506100ac8561005c565b9450610073565b94509492505050565b6000826100cc5760019050610188565b816100da5760009050610188565b81600181146100f057600281146100fa57610129565b6001915050610188565b60ff84111561010c5761010b61002d565b5b8360020a9150848211156101235761012261002d565b5b50610188565b5060208310610133831016604e8410600b841016171561015e5782820a9050838111156101595761015861002d565b5b610188565b61016b8484846001610069565b925090508184048111156101825761018161002d565b5b81810290505b9392505050565b6000819050919050565b60006101a48261018f565b91506101af8361018f565b92506101dc7fffffffffffffffffffffffffffffffffffffffffffffffffffffffffffffffff84846100bc565b905092915050565b610bc4806101f36000396000f3fe608060405234801561001057600080fd5b50600436106100415760003560e01c80632052465e14610046578063528b7b8f146100775780637bff0a01146100a7575b600080fd5b610060600480360381019061005b919061047e565b6100c3565b60405161006e92919061054a565b60405180910390f35b610091600480360381019061008c919061047e565b61017f565b60405161009e91906105bb565b60405180910390f35b6100c160048036038101906100bc919061063b565b6101b2565b005b600281815481106100d357600080fd5b90600052602060002090600202016000915090508060000180546100f6906106b7565b80601f0160208091040260200160405190810160405280929190818152602001828054610122906106b7565b801561016f5780601f106101445761010080835404028352916020019161016f565b820191906000526020600020905b81548152906001019060200180831161015257829003601f168201915b5050505050908060010154905082565b60036020528060005260406000206000915054906101000a900473ffffffffffffffffffffffffffffffffffffffff1681565b6000600460003373ffffffffffffffffffffffffffffffffffffffff1673ffffffffffffffffffffffffffffffffffffffff1681526020019081526020016000205411610234576040517f08c379a000000000000000000000000000000000000000000000000000000000815260040161022b90610734565b60405180910390fd5b61028b82828080601f016020809104026020016040519081016040528093929190818152602001838380828437600081840152601f19601f82011690508083019250505050505050610286848461028f565b6102d2565b5050565b600060015483836040516020016102a7929190610793565b6040516020818303038152906040528051906020012060001c6102ca91906107db565b905092915050565b60026040518060400160405280848152602001838152509080600181540180825580915050600190039060005260206000209060020201600090919091909150600082015181600001908161032791906109e7565b506020820151816001015550503360036000600160028054905061034b9190610ae8565b815260200190815260200160002060006101000a81548173ffffffffffffffffffffffffffffffffffffffff021916908373ffffffffffffffffffffffffffffffffffffffff1602179055506001600460003373ffffffffffffffffffffffffffffffffffffffff1673ffffffffffffffffffffffffffffffffffffffff16815260200190815260200160002060008282546103e79190610b1c565b925050819055507f88f026aacbbecc90c18411df4b1185fd8d9be2470f1962f192bf84a27d0704b760016002805490506104219190610ae8565b838360405161043293929190610b50565b60405180910390a15050565b600080fd5b600080fd5b6000819050919050565b61045b81610448565b811461046657600080fd5b50565b60008135905061047881610452565b92915050565b6000602082840312156104945761049361043e565b5b60006104a284828501610469565b91505092915050565b600081519050919050565b600082825260208201905092915050565b60005b838110156104e55780820151818401526020810190506104ca565b60008484015250505050565b6000601f19601f8301169050919050565b600061050d826104ab565b61051781856104b6565b93506105278185602086016104c7565b610530816104f1565b840191505092915050565b61054481610448565b82525050565b600060408201905081810360008301526105648185610502565b9050610573602083018461053b565b9392505050565b600073ffffffffffffffffffffffffffffffffffffffff82169050919050565b60006105a58261057a565b9050919050565b6105b58161059a565b82525050565b60006020820190506105d060008301846105ac565b92915050565b600080fd5b600080fd5b600080fd5b60008083601f8401126105fb576105fa6105d6565b5b8235905067ffffffffffffffff811115610618576106176105db565b5b602083019150836001820283011115610634576106336105e0565b5b9250929050565b600080602083850312156106525761065161043e565b5b600083013567ffffffffffffffff8111156106705761066f610443565b5b61067c858286016105e5565b92509250509250929050565b7f4e487b7100000000000000000000000000000000000000000000000000000000600052602260045260246000fd5b600060028204905060018216806106cf57607f821691505b6020821081036106e2576106e1610688565b5b50919050565b7f4552524f52000000000000000000000000000000000000000000000000000000600082015250565b600061071e6005836104b6565b9150610729826106e8565b602082019050919050565b6000602082019050818103600083015261074d81610711565b9050919050565b600081905092915050565b82818337600083830152505050565b600061077a8385610754565b935061078783858461075f565b82840190509392505050565b60006107a082848661076e565b91508190509392505050565b7f4e487b7100000000000000000000000000000000000000000000000000000000600052601260045260246000fd5b60006107e682610448565b91506107f183610448565b925082610801576108006107ac565b5b828206905092915050565b7f4e487b7100000000000000000000000000000000000000000000000000000000600052604160045260246000fd5b60008190508160005260206000209050919050565b60006020601f8301049050919050565b600082821b905092915050565b60006008830261089d7fffffffffffffffffffffffffffffffffffffffffffffffffffffffffffffffff82610860565b6108a78683610860565b95508019841693508086168417925050509392505050565b6000819050919050565b60006108e46108df6108da84610448565b6108bf565b610448565b9050919050565b6000819050919050565b6108fe836108c9565b61091261090a826108eb565b84845461086d565b825550505050565b600090565b61092761091a565b6109328184846108f5565b505050565b5b818110156109565761094b60008261091f565b600181019050610938565b5050565b601f82111561099b5761096c8161083b565b61097584610850565b81016020851015610984578190505b61099861099085610850565b830182610937565b50505b505050565b600082821c905092915050565b60006109be600019846008026109a0565b1980831691505092915050565b60006109d783836109ad565b9150826002028217905092915050565b6109f0826104ab565b67ffffffffffffffff811115610a0957610a0861080c565b5b610a1382546106b7565b610a1e82828561095a565b600060209050601f831160018114610a515760008415610a3f578287015190505b610a4985826109cb565b865550610ab1565b601f198416610a5f8661083b565b60005b82811015610a8757848901518255600182019150602085019450602081019050610a62565b86831015610aa45784890151610aa0601f8916826109ad565b8355505b6001600288020188555050505b505050505050565b7f4e487b7100000000000000000000000000000000000000000000000000000000600052601160045260246000fd5b6000610af382610448565b9150610afe83610448565b9250828203905081811115610b1657610b15610ab9565b5b92915050565b6000610b2782610448565b9150610b3283610448565b9250828201905080821115610b4a57610b49610ab9565b5b92915050565b6000606082019050610b65600083018661053b565b8181036020830152610b778185610502565b9050610b86604083018461053b565b94935050505056fea264697066735822122029c52c9c8e22affcd0ac939ed5b673be31eb35af9fae0babd04bf71a80b35c3d64736f6c63430008190033",
					"opcodes": "PUSH1 0x80 PUSH1 0x40 MSTORE PUSH1 0x10 PUSH1 0x0 SSTORE PUSH1 0x0 SLOAD PUSH1 0xA PUSH2 0x18 SWAP2 SWAP1 PUSH2 0x199 JUMP JUMPDEST PUSH1 0x1 SSTORE CALLVALUE DUP1 ISZERO PUSH2 0x27 JUMPI PUSH1 0x0 DUP1 REVERT JUMPDEST POP PUSH2 0x1E4 JUMP JUMPDEST PUSH32 0x4E487B7100000000000000000000000000000000000000000000000000000000 PUSH1 0x0 MSTORE PUSH1 0x11 PUSH1 0x4 MSTORE PUSH1 0x24 PUSH1 0x0 REVERT JUMPDEST PUSH1 0x0 DUP2 PUSH1 0x1 SHR SWAP1 POP SWAP2 SWAP1 POP JUMP JUMPDEST PUSH1 0x0 DUP1 DUP3 SWAP2 POP DUP4 SWAP1 POP JUMPDEST PUSH1 0x1 DUP6 GT ISZERO PUSH2 0xB3 JUMPI DUP1 DUP7 DIV DUP2 GT ISZERO PUSH2 0x8F JUMPI PUSH2 0x8E PUSH2 0x2D JUMP JUMPDEST JUMPDEST PUSH1 0x1 DUP6 AND ISZERO PUSH2 0x9E JUMPI DUP1 DUP3 MUL SWAP2 POP JUMPDEST DUP1 DUP2 MUL SWAP1 POP PUSH2 0xAC DUP6 PUSH2 0x5C JUMP JUMPDEST SWAP5 POP PUSH2 0x73 JUMP JUMPDEST SWAP5 POP SWAP5 SWAP3 POP POP POP JUMP JUMPDEST PUSH1 0x0 DUP3 PUSH2 0xCC JUMPI PUSH1 0x1 SWAP1 POP PUSH2 0x188 JUMP JUMPDEST DUP2 PUSH2 0xDA JUMPI PUSH1 0x0 SWAP1 POP PUSH2 0x188 JUMP JUMPDEST DUP2 PUSH1 0x1 DUP2 EQ PUSH2 0xF0 JUMPI PUSH1 0x2 DUP2 EQ PUSH2 0xFA JUMPI PUSH2 0x129 JUMP JUMPDEST PUSH1 0x1 SWAP2 POP POP PUSH2 0x188 JUMP JUMPDEST PUSH1 0xFF DUP5 GT ISZERO PUSH2 0x10C JUMPI PUSH2 0x10B PUSH2 0x2D JUMP JUMPDEST JUMPDEST DUP4 PUSH1 0x2 EXP SWAP2 POP DUP5 DUP3 GT ISZERO PUSH2 0x123 JUMPI PUSH2 0x122 PUSH2 0x2D JUMP JUMPDEST JUMPDEST POP PUSH2 0x188 JUMP JUMPDEST POP PUSH1 0x20 DUP4 LT PUSH2 0x133 DUP4 LT AND PUSH1 0x4E DUP5 LT PUSH1 0xB DUP5 LT AND OR ISZERO PUSH2 0x15E JUMPI DUP3 DUP3 EXP SWAP1 POP DUP4 DUP2 GT ISZERO PUSH2 0x159 JUMPI PUSH2 0x158 PUSH2 0x2D JUMP JUMPDEST JUMPDEST PUSH2 0x188 JUMP JUMPDEST PUSH2 0x16B DUP5 DUP5 DUP5 PUSH1 0x1 PUSH2 0x69 JUMP JUMPDEST SWAP3 POP SWAP1 POP DUP2 DUP5 DIV DUP2 GT ISZERO PUSH2 0x182 JUMPI PUSH2 0x181 PUSH2 0x2D JUMP JUMPDEST JUMPDEST DUP2 DUP2 MUL SWAP1 POP JUMPDEST SWAP4 SWAP3 POP POP POP JUMP JUMPDEST PUSH1 0x0 DUP2 SWAP1 POP SWAP2 SWAP1 POP JUMP JUMPDEST PUSH1 0x0 PUSH2 0x1A4 DUP3 PUSH2 0x18F JUMP JUMPDEST SWAP2 POP PUSH2 0x1AF DUP4 PUSH2 0x18F JUMP JUMPDEST SWAP3 POP PUSH2 0x1DC PUSH32 0xFFFFFFFFFFFFFFFFFFFFFFFFFFFFFFFFFFFFFFFFFFFFFFFFFFFFFFFFFFFFFFFF DUP5 DUP5 PUSH2 0xBC JUMP JUMPDEST SWAP1 POP SWAP3 SWAP2 POP POP JUMP JUMPDEST PUSH2 0xBC4 DUP1 PUSH2 0x1F3 PUSH1 0x0 CODECOPY PUSH1 0x0 RETURN INVALID PUSH1 0x80 PUSH1 0x40 MSTORE CALLVALUE DUP1 ISZERO PUSH2 0x10 JUMPI PUSH1 0x0 DUP1 REVERT JUMPDEST POP PUSH1 0x4 CALLDATASIZE LT PUSH2 0x41 JUMPI PUSH1 0x0 CALLDATALOAD PUSH1 0xE0 SHR DUP1 PUSH4 0x2052465E EQ PUSH2 0x46 JUMPI DUP1 PUSH4 0x528B7B8F EQ PUSH2 0x77 JUMPI DUP1 PUSH4 0x7BFF0A01 EQ PUSH2 0xA7 JUMPI JUMPDEST PUSH1 0x0 DUP1 REVERT JUMPDEST PUSH2 0x60 PUSH1 0x4 DUP1 CALLDATASIZE SUB DUP2 ADD SWAP1 PUSH2 0x5B SWAP2 SWAP1 PUSH2 0x47E JUMP JUMPDEST PUSH2 0xC3 JUMP JUMPDEST PUSH1 0x40 MLOAD PUSH2 0x6E SWAP3 SWAP2 SWAP1 PUSH2 0x54A JUMP JUMPDEST PUSH1 0x40 MLOAD DUP1 SWAP2 SUB SWAP1 RETURN JUMPDEST PUSH2 0x91 PUSH1 0x4 DUP1 CALLDATASIZE SUB DUP2 ADD SWAP1 PUSH2 0x8C SWAP2 SWAP1 PUSH2 0x47E JUMP JUMPDEST PUSH2 0x17F JUMP JUMPDEST PUSH1 0x40 MLOAD PUSH2 0x9E SWAP2 SWAP1 PUSH2 0x5BB JUMP JUMPDEST PUSH1 0x40 MLOAD DUP1 SWAP2 SUB SWAP1 RETURN JUMPDEST PUSH2 0xC1 PUSH1 0x4 DUP1 CALLDATASIZE SUB DUP2 ADD SWAP1 PUSH2 0xBC SWAP2 SWAP1 PUSH2 0x63B JUMP JUMPDEST PUSH2 0x1B2 JUMP JUMPDEST STOP JUMPDEST PUSH1 0x2 DUP2 DUP2 SLOAD DUP2 LT PUSH2 0xD3 JUMPI PUSH1 0x0 DUP1 REVERT JUMPDEST SWAP1 PUSH1 0x0 MSTORE PUSH1 0x20 PUSH1 0x0 KECCAK256 SWAP1 PUSH1 0x2 MUL ADD PUSH1 0x0 SWAP2 POP SWAP1 POP DUP1 PUSH1 0x0 ADD DUP1 SLOAD PUSH2 0xF6 SWAP1 PUSH2 0x6B7 JUMP JUMPDEST DUP1 PUSH1 0x1F ADD PUSH1 0x20 DUP1 SWAP2 DIV MUL PUSH1 0x20 ADD PUSH1 0x40 MLOAD SWAP1 DUP2 ADD PUSH1 0x40 MSTORE DUP1 SWAP3 SWAP2 SWAP1 DUP2 DUP2 MSTORE PUSH1 0x20 ADD DUP3 DUP1 SLOAD PUSH2 0x122 SWAP1 PUSH2 0x6B7 JUMP JUMPDEST DUP1 ISZERO PUSH2 0x16F JUMPI DUP1 PUSH1 0x1F LT PUSH2 0x144 JUMPI PUSH2 0x100 DUP1 DUP4 SLOAD DIV MUL DUP4 MSTORE SWAP2 PUSH1 0x20 ADD SWAP2 PUSH2 0x16F JUMP JUMPDEST DUP3 ADD SWAP2 SWAP1 PUSH1 0x0 MSTORE PUSH1 0x20 PUSH1 0x0 KECCAK256 SWAP1 JUMPDEST DUP2 SLOAD DUP2 MSTORE SWAP1 PUSH1 0x1 ADD SWAP1 PUSH1 0x20 ADD DUP1 DUP4 GT PUSH2 0x152 JUMPI DUP3 SWAP1 SUB PUSH1 0x1F AND DUP3 ADD SWAP2 JUMPDEST POP POP POP POP POP SWAP1 DUP1 PUSH1 0x1 ADD SLOAD SWAP1 POP DUP3 JUMP JUMPDEST PUSH1 0x3 PUSH1 0x20 MSTORE DUP1 PUSH1 0x0 MSTORE PUSH1 0x40 PUSH1 0x0 KECCAK256 PUSH1 0x0 SWAP2 POP SLOAD SWAP1 PUSH2 0x100 EXP SWAP1 DIV PUSH20 0xFFFFFFFFFFFFFFFFFFFFFFFFFFFFFFFFFFFFFFFF AND DUP2 JUMP JUMPDEST PUSH1 0x0 PUSH1 0x4 PUSH1 0x0 CALLER PUSH20 0xFFFFFFFFFFFFFFFFFFFFFFFFFFFFFFFFFFFFFFFF AND PUSH20 0xFFFFFFFFFFFFFFFFFFFFFFFFFFFFFFFFFFFFFFFF AND DUP2 MSTORE PUSH1 0x20 ADD SWAP1 DUP2 MSTORE PUSH1 0x20 ADD PUSH1 0x0 KECCAK256 SLOAD GT PUSH2 0x234 JUMPI PUSH1 0x40 MLOAD PUSH32 0x8C379A000000000000000000000000000000000000000000000000000000000 DUP2 MSTORE PUSH1 0x4 ADD PUSH2 0x22B SWAP1 PUSH2 0x734 JUMP JUMPDEST PUSH1 0x40 MLOAD DUP1 SWAP2 SUB SWAP1 REVERT JUMPDEST PUSH2 0x28B DUP3 DUP3 DUP1 DUP1 PUSH1 0x1F ADD PUSH1 0x20 DUP1 SWAP2 DIV MUL PUSH1 0x20 ADD PUSH1 0x40 MLOAD SWAP1 DUP2 ADD PUSH1 0x40 MSTORE DUP1 SWAP4 SWAP3 SWAP2 SWAP1 DUP2 DUP2 MSTORE PUSH1 0x20 ADD DUP4 DUP4 DUP1 DUP3 DUP5 CALLDATACOPY PUSH1 0x0 DUP2 DUP5 ADD MSTORE PUSH1 0x1F NOT PUSH1 0x1F DUP3 ADD AND SWAP1 POP DUP1 DUP4 ADD SWAP3 POP POP POP POP POP POP POP PUSH2 0x286 DUP5 DUP5 PUSH2 0x28F JUMP JUMPDEST PUSH2 0x2D2 JUMP JUMPDEST POP POP JUMP JUMPDEST PUSH1 0x0 PUSH1 0x1 SLOAD DUP4 DUP4 PUSH1 0x40 MLOAD PUSH1 0x20 ADD PUSH2 0x2A7 SWAP3 SWAP2 SWAP1 PUSH2 0x793 JUMP JUMPDEST PUSH1 0x40 MLOAD PUSH1 0x20 DUP2 DUP4 SUB SUB DUP2 MSTORE SWAP1 PUSH1 0x40 MSTORE DUP1 MLOAD SWAP1 PUSH1 0x20 ADD KECCAK256 PUSH1 0x0 SHR PUSH2 0x2CA SWAP2 SWAP1 PUSH2 0x7DB JUMP JUMPDEST SWAP1 POP SWAP3 SWAP2 POP POP JUMP JUMPDEST PUSH1 0x2 PUSH1 0x40 MLOAD DUP1 PUSH1 0x40 ADD PUSH1 0x40 MSTORE DUP1 DUP5 DUP2 MSTORE PUSH1 0x20 ADD DUP4 DUP2 MSTORE POP SWAP1 DUP1 PUSH1 0x1 DUP2 SLOAD ADD DUP1 DUP3 SSTORE DUP1 SWAP2 POP POP PUSH1 0x1 SWAP1 SUB SWAP1 PUSH1 0x0 MSTORE PUSH1 0x20 PUSH1 0x0 KECCAK256 SWAP1 PUSH1 0x2 MUL ADD PUSH1 0x0 SWAP1 SWAP2 SWAP1 SWAP2 SWAP1 SWAP2 POP PUSH1 0x0 DUP3 ADD MLOAD DUP2 PUSH1 0x0 ADD SWAP1 DUP2 PUSH2 0x327 SWAP2 SWAP1 PUSH2 0x9E7 JUMP JUMPDEST POP PUSH1 0x20 DUP3 ADD MLOAD DUP2 PUSH1 0x1 ADD SSTORE POP POP CALLER PUSH1 0x3 PUSH1 0x0 PUSH1 0x1 PUSH1 0x2 DUP1 SLOAD SWAP1 POP PUSH2 0x34B SWAP2 SWAP1 PUSH2 0xAE8 JUMP JUMPDEST DUP2 MSTORE PUSH1 0x20 ADD SWAP1 DUP2 MSTORE PUSH1 0x20 ADD PUSH1 0x0 KECCAK256 PUSH1 0x0 PUSH2 0x100 EXP DUP2 SLOAD DUP2 PUSH20 0xFFFFFFFFFFFFFFFFFFFFFFFFFFFFFFFFFFFFFFFF MUL NOT AND SWAP1 DUP4 PUSH20 0xFFFFFFFFFFFFFFFFFFFFFFFFFFFFFFFFFFFFFFFF AND MUL OR SWAP1 SSTORE POP PUSH1 0x1 PUSH1 0x4 PUSH1 0x0 CALLER PUSH20 0xFFFFFFFFFFFFFFFFFFFFFFFFFFFFFFFFFFFFFFFF AND PUSH20 0xFFFFFFFFFFFFFFFFFFFFFFFFFFFFFFFFFFFFFFFF AND DUP2 MSTORE PUSH1 0x20 ADD SWAP1 DUP2 MSTORE PUSH1 0x20 ADD PUSH1 0x0 KECCAK256 PUSH1 0x0 DUP3 DUP3 SLOAD PUSH2 0x3E7 SWAP2 SWAP1 PUSH2 0xB1C JUMP JUMPDEST SWAP3 POP POP DUP2 SWAP1 SSTORE POP PUSH32 0x88F026AACBBECC90C18411DF4B1185FD8D9BE2470F1962F192BF84A27D0704B7 PUSH1 0x1 PUSH1 0x2 DUP1 SLOAD SWAP1 POP PUSH2 0x421 SWAP2 SWAP1 PUSH2 0xAE8 JUMP JUMPDEST DUP4 DUP4 PUSH1 0x40 MLOAD PUSH2 0x432 SWAP4 SWAP3 SWAP2 SWAP1 PUSH2 0xB50 JUMP JUMPDEST PUSH1 0x40 MLOAD DUP1 SWAP2 SUB SWAP1 LOG1 POP POP JUMP JUMPDEST PUSH1 0x0 DUP1 REVERT JUMPDEST PUSH1 0x0 DUP1 REVERT JUMPDEST PUSH1 0x0 DUP2 SWAP1 POP SWAP2 SWAP1 POP JUMP JUMPDEST PUSH2 0x45B DUP2 PUSH2 0x448 JUMP JUMPDEST DUP2 EQ PUSH2 0x466 JUMPI PUSH1 0x0 DUP1 REVERT JUMPDEST POP JUMP JUMPDEST PUSH1 0x0 DUP2 CALLDATALOAD SWAP1 POP PUSH2 0x478 DUP2 PUSH2 0x452 JUMP JUMPDEST SWAP3 SWAP2 POP POP JUMP JUMPDEST PUSH1 0x0 PUSH1 0x20 DUP3 DUP5 SUB SLT ISZERO PUSH2 0x494 JUMPI PUSH2 0x493 PUSH2 0x43E JUMP JUMPDEST JUMPDEST PUSH1 0x0 PUSH2 0x4A2 DUP5 DUP3 DUP6 ADD PUSH2 0x469 JUMP JUMPDEST SWAP2 POP POP SWAP3 SWAP2 POP POP JUMP JUMPDEST PUSH1 0x0 DUP2 MLOAD SWAP1 POP SWAP2 SWAP1 POP JUMP JUMPDEST PUSH1 0x0 DUP3 DUP3 MSTORE PUSH1 0x20 DUP3 ADD SWAP1 POP SWAP3 SWAP2 POP POP JUMP JUMPDEST PUSH1 0x0 JUMPDEST DUP4 DUP2 LT ISZERO PUSH2 0x4E5 JUMPI DUP1 DUP3 ADD MLOAD DUP2 DUP5 ADD MSTORE PUSH1 0x20 DUP2 ADD SWAP1 POP PUSH2 0x4CA JUMP JUMPDEST PUSH1 0x0 DUP5 DUP5 ADD MSTORE POP POP POP POP JUMP JUMPDEST PUSH1 0x0 PUSH1 0x1F NOT PUSH1 0x1F DUP4 ADD AND SWAP1 POP SWAP2 SWAP1 POP JUMP JUMPDEST PUSH1 0x0 PUSH2 0x50D DUP3 PUSH2 0x4AB JUMP JUMPDEST PUSH2 0x517 DUP2 DUP6 PUSH2 0x4B6 JUMP JUMPDEST SWAP4 POP PUSH2 0x527 DUP2 DUP6 PUSH1 0x20 DUP7 ADD PUSH2 0x4C7 JUMP JUMPDEST PUSH2 0x530 DUP2 PUSH2 0x4F1 JUMP JUMPDEST DUP5 ADD SWAP2 POP POP SWAP3 SWAP2 POP POP JUMP JUMPDEST PUSH2 0x544 DUP2 PUSH2 0x448 JUMP JUMPDEST DUP3 MSTORE POP POP JUMP JUMPDEST PUSH1 0x0 PUSH1 0x40 DUP3 ADD SWAP1 POP DUP2 DUP2 SUB PUSH1 0x0 DUP4 ADD MSTORE PUSH2 0x564 DUP2 DUP6 PUSH2 0x502 JUMP JUMPDEST SWAP1 POP PUSH2 0x573 PUSH1 0x20 DUP4 ADD DUP5 PUSH2 0x53B JUMP JUMPDEST SWAP4 SWAP3 POP POP POP JUMP JUMPDEST PUSH1 0x0 PUSH20 0xFFFFFFFFFFFFFFFFFFFFFFFFFFFFFFFFFFFFFFFF DUP3 AND SWAP1 POP SWAP2 SWAP1 POP JUMP JUMPDEST PUSH1 0x0 PUSH2 0x5A5 DUP3 PUSH2 0x57A JUMP JUMPDEST SWAP1 POP SWAP2 SWAP1 POP JUMP JUMPDEST PUSH2 0x5B5 DUP2 PUSH2 0x59A JUMP JUMPDEST DUP3 MSTORE POP POP JUMP JUMPDEST PUSH1 0x0 PUSH1 0x20 DUP3 ADD SWAP1 POP PUSH2 0x5D0 PUSH1 0x0 DUP4 ADD DUP5 PUSH2 0x5AC JUMP JUMPDEST SWAP3 SWAP2 POP POP JUMP JUMPDEST PUSH1 0x0 DUP1 REVERT JUMPDEST PUSH1 0x0 DUP1 REVERT JUMPDEST PUSH1 0x0 DUP1 REVERT JUMPDEST PUSH1 0x0 DUP1 DUP4 PUSH1 0x1F DUP5 ADD SLT PUSH2 0x5FB JUMPI PUSH2 0x5FA PUSH2 0x5D6 JUMP JUMPDEST JUMPDEST DUP3 CALLDATALOAD SWAP1 POP PUSH8 0xFFFFFFFFFFFFFFFF DUP2 GT ISZERO PUSH2 0x618 JUMPI PUSH2 0x617 PUSH2 0x5DB JUMP JUMPDEST JUMPDEST PUSH1 0x20 DUP4 ADD SWAP2 POP DUP4 PUSH1 0x1 DUP3 MUL DUP4 ADD GT ISZERO PUSH2 0x634 JUMPI PUSH2 0x633 PUSH2 0x5E0 JUMP JUMPDEST JUMPDEST SWAP3 POP SWAP3 SWAP1 POP JUMP JUMPDEST PUSH1 0x0 DUP1 PUSH1 0x20 DUP4 DUP6 SUB SLT ISZERO PUSH2 0x652 JUMPI PUSH2 0x651 PUSH2 0x43E JUMP JUMPDEST JUMPDEST PUSH1 0x0 DUP4 ADD CALLDATALOAD PUSH8 0xFFFFFFFFFFFFFFFF DUP2 GT ISZERO PUSH2 0x670 JUMPI PUSH2 0x66F PUSH2 0x443 JUMP JUMPDEST JUMPDEST PUSH2 0x67C DUP6 DUP3 DUP7 ADD PUSH2 0x5E5 JUMP JUMPDEST SWAP3 POP SWAP3 POP POP SWAP3 POP SWAP3 SWAP1 POP JUMP JUMPDEST PUSH32 0x4E487B7100000000000000000000000000000000000000000000000000000000 PUSH1 0x0 MSTORE PUSH1 0x22 PUSH1 0x4 MSTORE PUSH1 0x24 PUSH1 0x0 REVERT JUMPDEST PUSH1 0x0 PUSH1 0x2 DUP3 DIV SWAP1 POP PUSH1 0x1 DUP3 AND DUP1 PUSH2 0x6CF JUMPI PUSH1 0x7F DUP3 AND SWAP2 POP JUMPDEST PUSH1 0x20 DUP3 LT DUP2 SUB PUSH2 0x6E2 JUMPI PUSH2 0x6E1 PUSH2 0x688 JUMP JUMPDEST JUMPDEST POP SWAP2 SWAP1 POP JUMP JUMPDEST PUSH32 0x4552524F52000000000000000000000000000000000000000000000000000000 PUSH1 0x0 DUP3 ADD MSTORE POP JUMP JUMPDEST PUSH1 0x0 PUSH2 0x71E PUSH1 0x5 DUP4 PUSH2 0x4B6 JUMP JUMPDEST SWAP2 POP PUSH2 0x729 DUP3 PUSH2 0x6E8 JUMP JUMPDEST PUSH1 0x20 DUP3 ADD SWAP1 POP SWAP2 SWAP1 POP JUMP JUMPDEST PUSH1 0x0 PUSH1 0x20 DUP3 ADD SWAP1 POP DUP2 DUP2 SUB PUSH1 0x0 DUP4 ADD MSTORE PUSH2 0x74D DUP2 PUSH2 0x711 JUMP JUMPDEST SWAP1 POP SWAP2 SWAP1 POP JUMP JUMPDEST PUSH1 0x0 DUP2 SWAP1 POP SWAP3 SWAP2 POP POP JUMP JUMPDEST DUP3 DUP2 DUP4 CALLDATACOPY PUSH1 0x0 DUP4 DUP4 ADD MSTORE POP POP POP JUMP JUMPDEST PUSH1 0x0 PUSH2 0x77A DUP4 DUP6 PUSH2 0x754 JUMP JUMPDEST SWAP4 POP PUSH2 0x787 DUP4 DUP6 DUP5 PUSH2 0x75F JUMP JUMPDEST DUP3 DUP5 ADD SWAP1 POP SWAP4 SWAP3 POP POP POP JUMP JUMPDEST PUSH1 0x0 PUSH2 0x7A0 DUP3 DUP5 DUP7 PUSH2 0x76E JUMP JUMPDEST SWAP2 POP DUP2 SWAP1 POP SWAP4 SWAP3 POP POP POP JUMP JUMPDEST PUSH32 0x4E487B7100000000000000000000000000000000000000000000000000000000 PUSH1 0x0 MSTORE PUSH1 0x12 PUSH1 0x4 MSTORE PUSH1 0x24 PUSH1 0x0 REVERT JUMPDEST PUSH1 0x0 PUSH2 0x7E6 DUP3 PUSH2 0x448 JUMP JUMPDEST SWAP2 POP PUSH2 0x7F1 DUP4 PUSH2 0x448 JUMP JUMPDEST SWAP3 POP DUP3 PUSH2 0x801 JUMPI PUSH2 0x800 PUSH2 0x7AC JUMP JUMPDEST JUMPDEST DUP3 DUP3 MOD SWAP1 POP SWAP3 SWAP2 POP POP JUMP JUMPDEST PUSH32 0x4E487B7100000000000000000000000000000000000000000000000000000000 PUSH1 0x0 MSTORE PUSH1 0x41 PUSH1 0x4 MSTORE PUSH1 0x24 PUSH1 0x0 REVERT JUMPDEST PUSH1 0x0 DUP2 SWAP1 POP DUP2 PUSH1 0x0 MSTORE PUSH1 0x20 PUSH1 0x0 KECCAK256 SWAP1 POP SWAP2 SWAP1 POP JUMP JUMPDEST PUSH1 0x0 PUSH1 0x20 PUSH1 0x1F DUP4 ADD DIV SWAP1 POP SWAP2 SWAP1 POP JUMP JUMPDEST PUSH1 0x0 DUP3 DUP3 SHL SWAP1 POP SWAP3 SWAP2 POP POP JUMP JUMPDEST PUSH1 0x0 PUSH1 0x8 DUP4 MUL PUSH2 0x89D PUSH32 0xFFFFFFFFFFFFFFFFFFFFFFFFFFFFFFFFFFFFFFFFFFFFFFFFFFFFFFFFFFFFFFFF DUP3 PUSH2 0x860 JUMP JUMPDEST PUSH2 0x8A7 DUP7 DUP4 PUSH2 0x860 JUMP JUMPDEST SWAP6 POP DUP1 NOT DUP5 AND SWAP4 POP DUP1 DUP7 AND DUP5 OR SWAP3 POP POP POP SWAP4 SWAP3 POP POP POP JUMP JUMPDEST PUSH1 0x0 DUP2 SWAP1 POP SWAP2 SWAP1 POP JUMP JUMPDEST PUSH1 0x0 PUSH2 0x8E4 PUSH2 0x8DF PUSH2 0x8DA DUP5 PUSH2 0x448 JUMP JUMPDEST PUSH2 0x8BF JUMP JUMPDEST PUSH2 0x448 JUMP JUMPDEST SWAP1 POP SWAP2 SWAP1 POP JUMP JUMPDEST PUSH1 0x0 DUP2 SWAP1 POP SWAP2 SWAP1 POP JUMP JUMPDEST PUSH2 0x8FE DUP4 PUSH2 0x8C9 JUMP JUMPDEST PUSH2 0x912 PUSH2 0x90A DUP3 PUSH2 0x8EB JUMP JUMPDEST DUP5 DUP5 SLOAD PUSH2 0x86D JUMP JUMPDEST DUP3 SSTORE POP POP POP POP JUMP JUMPDEST PUSH1 0x0 SWAP1 JUMP JUMPDEST PUSH2 0x927 PUSH2 0x91A JUMP JUMPDEST PUSH2 0x932 DUP2 DUP5 DUP5 PUSH2 0x8F5 JUMP JUMPDEST POP POP POP JUMP JUMPDEST JUMPDEST DUP2 DUP2 LT ISZERO PUSH2 0x956 JUMPI PUSH2 0x94B PUSH1 0x0 DUP3 PUSH2 0x91F JUMP JUMPDEST PUSH1 0x1 DUP2 ADD SWAP1 POP PUSH2 0x938 JUMP JUMPDEST POP POP JUMP JUMPDEST PUSH1 0x1F DUP3 GT ISZERO PUSH2 0x99B JUMPI PUSH2 0x96C DUP2 PUSH2 0x83B JUMP JUMPDEST PUSH2 0x975 DUP5 PUSH2 0x850 JUMP JUMPDEST DUP2 ADD PUSH1 0x20 DUP6 LT ISZERO PUSH2 0x984 JUMPI DUP2 SWAP1 POP JUMPDEST PUSH2 0x998 PUSH2 0x990 DUP6 PUSH2 0x850 JUMP JUMPDEST DUP4 ADD DUP3 PUSH2 0x937 JUMP JUMPDEST POP POP JUMPDEST POP POP POP JUMP JUMPDEST PUSH1 0x0 DUP3 DUP3 SHR SWAP1 POP SWAP3 SWAP2 POP POP JUMP JUMPDEST PUSH1 0x0 PUSH2 0x9BE PUSH1 0x0 NOT DUP5 PUSH1 0x8 MUL PUSH2 0x9A0 JUMP JUMPDEST NOT DUP1 DUP4 AND SWAP2 POP POP SWAP3 SWAP2 POP POP JUMP JUMPDEST PUSH1 0x0 PUSH2 0x9D7 DUP4 DUP4 PUSH2 0x9AD JUMP JUMPDEST SWAP2 POP DUP3 PUSH1 0x2 MUL DUP3 OR SWAP1 POP SWAP3 SWAP2 POP POP JUMP JUMPDEST PUSH2 0x9F0 DUP3 PUSH2 0x4AB JUMP JUMPDEST PUSH8 0xFFFFFFFFFFFFFFFF DUP2 GT ISZERO PUSH2 0xA09 JUMPI PUSH2 0xA08 PUSH2 0x80C JUMP JUMPDEST JUMPDEST PUSH2 0xA13 DUP3 SLOAD PUSH2 0x6B7 JUMP JUMPDEST PUSH2 0xA1E DUP3 DUP3 DUP6 PUSH2 0x95A JUMP JUMPDEST PUSH1 0x0 PUSH1 0x20 SWAP1 POP PUSH1 0x1F DUP4 GT PUSH1 0x1 DUP2 EQ PUSH2 0xA51 JUMPI PUSH1 0x0 DUP5 ISZERO PUSH2 0xA3F JUMPI DUP3 DUP8 ADD MLOAD SWAP1 POP JUMPDEST PUSH2 0xA49 DUP6 DUP3 PUSH2 0x9CB JUMP JUMPDEST DUP7 SSTORE POP PUSH2 0xAB1 JUMP JUMPDEST PUSH1 0x1F NOT DUP5 AND PUSH2 0xA5F DUP7 PUSH2 0x83B JUMP JUMPDEST PUSH1 0x0 JUMPDEST DUP3 DUP2 LT ISZERO PUSH2 0xA87 JUMPI DUP5 DUP10 ADD MLOAD DUP3 SSTORE PUSH1 0x1 DUP3 ADD SWAP2 POP PUSH1 0x20 DUP6 ADD SWAP5 POP PUSH1 0x20 DUP2 ADD SWAP1 POP PUSH2 0xA62 JUMP JUMPDEST DUP7 DUP4 LT ISZERO PUSH2 0xAA4 JUMPI DUP5 DUP10 ADD MLOAD PUSH2 0xAA0 PUSH1 0x1F DUP10 AND DUP3 PUSH2 0x9AD JUMP JUMPDEST DUP4 SSTORE POP JUMPDEST PUSH1 0x1 PUSH1 0x2 DUP9 MUL ADD DUP9 SSTORE POP POP POP JUMPDEST POP POP POP POP POP POP JUMP JUMPDEST PUSH32 0x4E487B7100000000000000000000000000000000000000000000000000000000 PUSH1 0x0 MSTORE PUSH1 0x11 PUSH1 0x4 MSTORE PUSH1 0x24 PUSH1 0x0 REVERT JUMPDEST PUSH1 0x0 PUSH2 0xAF3 DUP3 PUSH2 0x448 JUMP JUMPDEST SWAP2 POP PUSH2 0xAFE DUP4 PUSH2 0x448 JUMP JUMPDEST SWAP3 POP DUP3 DUP3 SUB SWAP1 POP DUP2 DUP2 GT ISZERO PUSH2 0xB16 JUMPI PUSH2 0xB15 PUSH2 0xAB9 JUMP JUMPDEST JUMPDEST SWAP3 SWAP2 POP POP JUMP JUMPDEST PUSH1 0x0 PUSH2 0xB27 DUP3 PUSH2 0x448 JUMP JUMPDEST SWAP2 POP PUSH2 0xB32 DUP4 PUSH2 0x448 JUMP JUMPDEST SWAP3 POP DUP3 DUP3 ADD SWAP1 POP DUP1 DUP3 GT ISZERO PUSH2 0xB4A JUMPI PUSH2 0xB49 PUSH2 0xAB9 JUMP JUMPDEST JUMPDEST SWAP3 SWAP2 POP POP JUMP JUMPDEST PUSH1 0x0 PUSH1 0x60 DUP3 ADD SWAP1 POP PUSH2 0xB65 PUSH1 0x0 DUP4 ADD DUP7 PUSH2 0x53B JUMP JUMPDEST DUP2 DUP2 SUB PUSH1 0x20 DUP4 ADD MSTORE PUSH2 0xB77 DUP2 DUP6 PUSH2 0x502 JUMP JUMPDEST SWAP1 POP PUSH2 0xB86 PUSH1 0x40 DUP4 ADD DUP5 PUSH2 0x53B JUMP JUMPDEST SWAP5 SWAP4 POP POP POP POP JUMP INVALID LOG2 PUSH5 0x6970667358 0x22 SLT KECCAK256 0x29 0xC5 0x2C SWAP13 DUP15 0x22 0xAF 0xFC 0xD0 0xAC SWAP4 SWAP15 0xD5 0xB6 PUSH20 0xBE31EB35AF9FAE0BABD04BF71A80B35C3D64736F PUSH13 0x63430008190033000000000000 "
				},
				"gasEstimates": {
					"creation": {
						"codeDepositCost": "602400",
						"executionCost": "infinite",
						"totalCost": "infinite"
					},
					"external": {
						"createRandomZombie(string)": "infinite",
						"zombieToOwner(uint256)": "2839",
						"zombies(uint256)": "infinite"
					},
					"internal": {
						"_createZombie(string memory,uint256)": "infinite",
						"_generateRandomDna(string calldata)": "infinite"
					}
				},
				"methodIdentifiers": {
					"createRandomZombie(string)": "7bff0a01",
					"zombieToOwner(uint256)": "528b7b8f",
					"zombies(uint256)": "2052465e"
				}
			},
			"storageLayout": {
				"storage": [
					{
						"astId": 4,
						"contract": "contracts/ZombieFactory.sol:ZombieFactory",
						"label": "dnaDigits",
						"offset": 0,
						"slot": "0",
						"type": "t_uint256"
					},
					{
						"astId": 9,
						"contract": "contracts/ZombieFactory.sol:ZombieFactory",
						"label": "dnaModulus",
						"offset": 0,
						"slot": "1",
						"type": "t_uint256"
					},
					{
						"astId": 18,
						"contract": "contracts/ZombieFactory.sol:ZombieFactory",
						"label": "zombies",
						"offset": 0,
						"slot": "2",
						"type": "t_array(t_struct(Zombie)14_storage)dyn_storage"
					},
					{
						"astId": 30,
						"contract": "contracts/ZombieFactory.sol:ZombieFactory",
						"label": "zombieToOwner",
						"offset": 0,
						"slot": "3",
						"type": "t_mapping(t_uint256,t_address)"
					},
					{
						"astId": 34,
						"contract": "contracts/ZombieFactory.sol:ZombieFactory",
						"label": "ownerZombieCount",
						"offset": 0,
						"slot": "4",
						"type": "t_mapping(t_address,t_uint256)"
					}
				],
				"types": {
					"t_address": {
						"encoding": "inplace",
						"label": "address",
						"numberOfBytes": "20"
					},
					"t_array(t_struct(Zombie)14_storage)dyn_storage": {
						"base": "t_struct(Zombie)14_storage",
						"encoding": "dynamic_array",
						"label": "struct ZombieFactory.Zombie[]",
						"numberOfBytes": "32"
					},
					"t_mapping(t_address,t_uint256)": {
						"encoding": "mapping",
						"key": "t_address",
						"label": "mapping(address => uint256)",
						"numberOfBytes": "32",
						"value": "t_uint256"
					},
					"t_mapping(t_uint256,t_address)": {
						"encoding": "mapping",
						"key": "t_uint256",
						"label": "mapping(uint256 => address)",
						"numberOfBytes": "32",
						"value": "t_address"
					},
					"t_string_storage": {
						"encoding": "bytes",
						"label": "string",
						"numberOfBytes": "32"
					},
					"t_struct(Zombie)14_storage": {
						"encoding": "inplace",
						"label": "struct ZombieFactory.Zombie",
						"members": [
							{
								"astId": 11,
								"contract": "contracts/ZombieFactory.sol:ZombieFactory",
								"label": "name",
								"offset": 0,
								"slot": "0",
								"type": "t_string_storage"
							},
							{
								"astId": 13,
								"contract": "contracts/ZombieFactory.sol:ZombieFactory",
								"label": "dna",
								"offset": 0,
								"slot": "1",
								"type": "t_uint256"
							}
						],
						"numberOfBytes": "64"
					},
					"t_uint256": {
						"encoding": "inplace",
						"label": "uint256",
						"numberOfBytes": "32"
					}
				}
			},
			"userdoc": {
				"kind": "user",
				"methods": {},
				"version": 1
			}
		}
	}
}