{
	"contracts/ZombieFeeding.sol": {
		"ZombieFeeding": {
			"abi": [
				{
					"anonymous": false,
					"inputs": [
						{
							"indexed": false,
							"internalType": "uint256",
							"name": "zombieId",
							"type": "uint256"
						},
						{
							"indexed": false,
							"internalType": "string",
							"name": "name",
							"type": "string"
						},
						{
							"indexed": false,
							"internalType": "uint256",
							"name": "dna",
							"type": "uint256"
						}
					],
					"name": "NewZombie",
					"type": "event"
				},
				{
					"inputs": [
						{
							"internalType": "string",
							"name": "_name",
							"type": "string"
						}
					],
					"name": "createRandomZombie",
					"outputs": [],
					"stateMutability": "nonpayable",
					"type": "function"
				},
				{
					"inputs": [
						{
							"internalType": "uint256",
							"name": "_zombieId",
							"type": "uint256"
						},
						{
							"internalType": "uint256",
							"name": "_targetDna",
							"type": "uint256"
						},
						{
							"internalType": "string",
							"name": "_species",
							"type": "string"
						}
					],
					"name": "feedAndMultiply",
					"outputs": [],
					"stateMutability": "nonpayable",
					"type": "function"
				},
				{
					"inputs": [
						{
							"internalType": "uint256",
							"name": "_zombieId",
							"type": "uint256"
						},
						{
							"internalType": "uint256",
							"name": "_kittyId",
							"type": "uint256"
						}
					],
					"name": "feedOnKitty",
					"outputs": [],
					"stateMutability": "nonpayable",
					"type": "function"
				},
				{
					"inputs": [
						{
							"internalType": "uint256",
							"name": "",
							"type": "uint256"
						}
					],
					"name": "zombieToOwner",
					"outputs": [
						{
							"internalType": "address",
							"name": "",
							"type": "address"
						}
					],
					"stateMutability": "view",
					"type": "function"
				},
				{
					"inputs": [
						{
							"internalType": "uint256",
							"name": "",
							"type": "uint256"
						}
					],
					"name": "zombies",
					"outputs": [
						{
							"internalType": "string",
							"name": "name",
							"type": "string"
						},
						{
							"internalType": "uint256",
							"name": "dna",
							"type": "uint256"
						}
					],
					"stateMutability": "view",
					"type": "function"
				}
			],
			"devdoc": {
				"kind": "dev",
				"methods": {},
				"version": 1
			},
			"evm": {
				"assembly": "    /* \"contracts/ZombieFeeding.sol\":451:1378  contract ZombieFeeding is ZombieFactory {... */\n  mstore(0x40, 0x80)\n    /* \"contracts/ZombieFactory.sol\":116:118  16 */\n  0x10\n    /* \"contracts/ZombieFactory.sol\":99:118  uint dnaDigits = 16 */\n  0x00\n  sstore\n    /* \"contracts/ZombieFactory.sol\":149:158  dnaDigits */\n  sload(0x00)\n    /* \"contracts/ZombieFactory.sol\":143:145  10 */\n  0x0a\n    /* \"contracts/ZombieFactory.sol\":143:158  10 ** dnaDigits */\n  tag_1\n  swap2\n  swap1\n  tag_2\n  jump\t// in\ntag_1:\n    /* \"contracts/ZombieFactory.sol\":125:158  uint dnaModulus = 10 ** dnaDigits */\n  0x01\n  sstore\n    /* \"contracts/ZombieFeeding.sol\":518:560  0x06012c8cf97BEaD5deAe237070F9587f8E7A266d */\n  0x06012c8cf97bead5deae237070f9587f8e7a266d\n    /* \"contracts/ZombieFeeding.sol\":498:560  address ckAddress = 0x06012c8cf97BEaD5deAe237070F9587f8E7A266d */\n  0x05\n  exp(0x0100, 0x00)\n  dup2\n  sload\n  dup2\n  0xffffffffffffffffffffffffffffffffffffffff\n  mul\n  not\n  and\n  swap1\n  dup4\n  0xffffffffffffffffffffffffffffffffffffffff\n  and\n  mul\n  or\n  swap1\n  sstore\n  pop\n    /* \"contracts/ZombieFeeding.sol\":613:622  ckAddress */\n  0x05\n  0x00\n  swap1\n  sload\n  swap1\n  0x0100\n  exp\n  swap1\n  div\n  0xffffffffffffffffffffffffffffffffffffffff\n  and\n    /* \"contracts/ZombieFeeding.sol\":567:623  KittyInterface kittyContract = KittyInterface(ckAddress) */\n  0x06\n  exp(0x0100, 0x00)\n  dup2\n  sload\n  dup2\n  0xffffffffffffffffffffffffffffffffffffffff\n  mul\n  not\n  and\n  swap1\n  dup4\n  0xffffffffffffffffffffffffffffffffffffffff\n  and\n  mul\n  or\n  swap1\n  sstore\n  pop\n    /* \"contracts/ZombieFeeding.sol\":451:1378  contract ZombieFeeding is ZombieFactory {... */\n  callvalue\n  dup1\n  iszero\n  tag_3\n  jumpi\n  0x00\n  dup1\n  revert\ntag_3:\n  pop\n  jump(tag_4)\n    /* \"#utility.yul\":7:187   */\ntag_5:\n    /* \"#utility.yul\":55:132   */\n  0x4e487b7100000000000000000000000000000000000000000000000000000000\n    /* \"#utility.yul\":52:53   */\n  0x00\n    /* \"#utility.yul\":45:133   */\n  mstore\n    /* \"#utility.yul\":152:156   */\n  0x11\n    /* \"#utility.yul\":149:150   */\n  0x04\n    /* \"#utility.yul\":142:157   */\n  mstore\n    /* \"#utility.yul\":176:180   */\n  0x24\n    /* \"#utility.yul\":173:174   */\n  0x00\n    /* \"#utility.yul\":166:181   */\n  revert\n    /* \"#utility.yul\":193:295   */\ntag_6:\n    /* \"#utility.yul\":235:243   */\n  0x00\n    /* \"#utility.yul\":282:287   */\n  dup2\n    /* \"#utility.yul\":279:280   */\n  0x01\n    /* \"#utility.yul\":275:288   */\n  shr\n    /* \"#utility.yul\":254:288   */\n  swap1\n  pop\n    /* \"#utility.yul\":193:295   */\n  swap2\n  swap1\n  pop\n  jump\t// out\n    /* \"#utility.yul\":301:1149   */\ntag_7:\n    /* \"#utility.yul\":362:367   */\n  0x00\n    /* \"#utility.yul\":369:373   */\n  dup1\n    /* \"#utility.yul\":393:399   */\n  dup3\n    /* \"#utility.yul\":384:399   */\n  swap2\n  pop\n    /* \"#utility.yul\":417:422   */\n  dup4\n    /* \"#utility.yul\":408:422   */\n  swap1\n  pop\n    /* \"#utility.yul\":431:1143   */\ntag_14:\n    /* \"#utility.yul\":452:453   */\n  0x01\n    /* \"#utility.yul\":442:450   */\n  dup6\n    /* \"#utility.yul\":439:454   */\n  gt\n    /* \"#utility.yul\":431:1143   */\n  iszero\n  tag_16\n  jumpi\n    /* \"#utility.yul\":547:551   */\n  dup1\n    /* \"#utility.yul\":542:545   */\n  dup7\n    /* \"#utility.yul\":538:552   */\n  div\n    /* \"#utility.yul\":532:536   */\n  dup2\n    /* \"#utility.yul\":529:553   */\n  gt\n    /* \"#utility.yul\":526:576   */\n  iszero\n  tag_17\n  jumpi\n    /* \"#utility.yul\":556:574   */\n  tag_18\n  tag_5\n  jump\t// in\ntag_18:\n    /* \"#utility.yul\":526:576   */\ntag_17:\n    /* \"#utility.yul\":606:607   */\n  0x01\n    /* \"#utility.yul\":596:604   */\n  dup6\n    /* \"#utility.yul\":592:608   */\n  and\n    /* \"#utility.yul\":589:1040   */\n  iszero\n  tag_19\n  jumpi\n    /* \"#utility.yul\":1021:1025   */\n  dup1\n    /* \"#utility.yul\":1014:1019   */\n  dup3\n    /* \"#utility.yul\":1010:1026   */\n  mul\n    /* \"#utility.yul\":1001:1026   */\n  swap2\n  pop\n    /* \"#utility.yul\":589:1040   */\ntag_19:\n    /* \"#utility.yul\":1071:1075   */\n  dup1\n    /* \"#utility.yul\":1065:1069   */\n  dup2\n    /* \"#utility.yul\":1061:1076   */\n  mul\n    /* \"#utility.yul\":1053:1076   */\n  swap1\n  pop\n    /* \"#utility.yul\":1101:1133   */\n  tag_20\n    /* \"#utility.yul\":1124:1132   */\n  dup6\n    /* \"#utility.yul\":1101:1133   */\n  tag_6\n  jump\t// in\ntag_20:\n    /* \"#utility.yul\":1089:1133   */\n  swap5\n  pop\n    /* \"#utility.yul\":431:1143   */\n  jump(tag_14)\ntag_16:\n    /* \"#utility.yul\":301:1149   */\n  swap5\n  pop\n  swap5\n  swap3\n  pop\n  pop\n  pop\n  jump\t// out\n    /* \"#utility.yul\":1155:2228   */\ntag_8:\n    /* \"#utility.yul\":1209:1214   */\n  0x00\n    /* \"#utility.yul\":1400:1408   */\n  dup3\n    /* \"#utility.yul\":1390:1430   */\n  tag_22\n  jumpi\n    /* \"#utility.yul\":1421:1422   */\n  0x01\n    /* \"#utility.yul\":1412:1422   */\n  swap1\n  pop\n    /* \"#utility.yul\":1423:1428   */\n  jump(tag_21)\n    /* \"#utility.yul\":1390:1430   */\ntag_22:\n    /* \"#utility.yul\":1449:1453   */\n  dup2\n    /* \"#utility.yul\":1439:1475   */\n  tag_23\n  jumpi\n    /* \"#utility.yul\":1466:1467   */\n  0x00\n    /* \"#utility.yul\":1457:1467   */\n  swap1\n  pop\n    /* \"#utility.yul\":1468:1473   */\n  jump(tag_21)\n    /* \"#utility.yul\":1439:1475   */\ntag_23:\n    /* \"#utility.yul\":1535:1539   */\n  dup2\n    /* \"#utility.yul\":1583:1584   */\n  0x01\n    /* \"#utility.yul\":1578:1605   */\n  dup2\n  eq\n  tag_25\n  jumpi\n    /* \"#utility.yul\":1619:1620   */\n  0x02\n    /* \"#utility.yul\":1614:1805   */\n  dup2\n  eq\n  tag_26\n  jumpi\n    /* \"#utility.yul\":1528:1805   */\n  jump(tag_24)\n    /* \"#utility.yul\":1578:1605   */\ntag_25:\n    /* \"#utility.yul\":1596:1597   */\n  0x01\n    /* \"#utility.yul\":1587:1597   */\n  swap2\n  pop\n    /* \"#utility.yul\":1598:1603   */\n  pop\n  jump(tag_21)\n    /* \"#utility.yul\":1614:1805   */\ntag_26:\n    /* \"#utility.yul\":1659:1662   */\n  0xff\n    /* \"#utility.yul\":1649:1657   */\n  dup5\n    /* \"#utility.yul\":1646:1663   */\n  gt\n    /* \"#utility.yul\":1643:1686   */\n  iszero\n  tag_27\n  jumpi\n    /* \"#utility.yul\":1666:1684   */\n  tag_28\n  tag_5\n  jump\t// in\ntag_28:\n    /* \"#utility.yul\":1643:1686   */\ntag_27:\n    /* \"#utility.yul\":1715:1723   */\n  dup4\n    /* \"#utility.yul\":1712:1713   */\n  0x02\n    /* \"#utility.yul\":1708:1724   */\n  exp\n    /* \"#utility.yul\":1699:1724   */\n  swap2\n  pop\n    /* \"#utility.yul\":1750:1753   */\n  dup5\n    /* \"#utility.yul\":1743:1748   */\n  dup3\n    /* \"#utility.yul\":1740:1754   */\n  gt\n    /* \"#utility.yul\":1737:1777   */\n  iszero\n  tag_29\n  jumpi\n    /* \"#utility.yul\":1757:1775   */\n  tag_30\n  tag_5\n  jump\t// in\ntag_30:\n    /* \"#utility.yul\":1737:1777   */\ntag_29:\n    /* \"#utility.yul\":1790:1795   */\n  pop\n  jump(tag_21)\n    /* \"#utility.yul\":1528:1805   */\ntag_24:\n  pop\n    /* \"#utility.yul\":1914:1916   */\n  0x20\n    /* \"#utility.yul\":1904:1912   */\n  dup4\n    /* \"#utility.yul\":1901:1917   */\n  lt\n    /* \"#utility.yul\":1895:1898   */\n  0x0133\n    /* \"#utility.yul\":1889:1893   */\n  dup4\n    /* \"#utility.yul\":1886:1899   */\n  lt\n    /* \"#utility.yul\":1882:1918   */\n  and\n    /* \"#utility.yul\":1864:1866   */\n  0x4e\n    /* \"#utility.yul\":1854:1862   */\n  dup5\n    /* \"#utility.yul\":1851:1867   */\n  lt\n    /* \"#utility.yul\":1846:1848   */\n  0x0b\n    /* \"#utility.yul\":1840:1844   */\n  dup5\n    /* \"#utility.yul\":1837:1849   */\n  lt\n    /* \"#utility.yul\":1833:1868   */\n  and\n    /* \"#utility.yul\":1817:1928   */\n  or\n    /* \"#utility.yul\":1814:2060   */\n  iszero\n  tag_31\n  jumpi\n    /* \"#utility.yul\":1970:1978   */\n  dup3\n    /* \"#utility.yul\":1964:1968   */\n  dup3\n    /* \"#utility.yul\":1960:1979   */\n  exp\n    /* \"#utility.yul\":1951:1979   */\n  swap1\n  pop\n    /* \"#utility.yul\":2005:2008   */\n  dup4\n    /* \"#utility.yul\":1998:2003   */\n  dup2\n    /* \"#utility.yul\":1995:2009   */\n  gt\n    /* \"#utility.yul\":1992:2032   */\n  iszero\n  tag_32\n  jumpi\n    /* \"#utility.yul\":2012:2030   */\n  tag_33\n  tag_5\n  jump\t// in\ntag_33:\n    /* \"#utility.yul\":1992:2032   */\ntag_32:\n    /* \"#utility.yul\":2045:2050   */\n  jump(tag_21)\n    /* \"#utility.yul\":1814:2060   */\ntag_31:\n    /* \"#utility.yul\":2085:2127   */\n  tag_34\n    /* \"#utility.yul\":2123:2126   */\n  dup5\n    /* \"#utility.yul\":2113:2121   */\n  dup5\n    /* \"#utility.yul\":2107:2111   */\n  dup5\n    /* \"#utility.yul\":2104:2105   */\n  0x01\n    /* \"#utility.yul\":2085:2127   */\n  tag_7\n  jump\t// in\ntag_34:\n    /* \"#utility.yul\":2070:2127   */\n  swap3\n  pop\n  swap1\n  pop\n    /* \"#utility.yul\":2159:2163   */\n  dup2\n    /* \"#utility.yul\":2154:2157   */\n  dup5\n    /* \"#utility.yul\":2150:2164   */\n  div\n    /* \"#utility.yul\":2143:2148   */\n  dup2\n    /* \"#utility.yul\":2140:2165   */\n  gt\n    /* \"#utility.yul\":2137:2188   */\n  iszero\n  tag_35\n  jumpi\n    /* \"#utility.yul\":2168:2186   */\n  tag_36\n  tag_5\n  jump\t// in\ntag_36:\n    /* \"#utility.yul\":2137:2188   */\ntag_35:\n    /* \"#utility.yul\":2217:2221   */\n  dup2\n    /* \"#utility.yul\":2210:2215   */\n  dup2\n    /* \"#utility.yul\":2206:2222   */\n  mul\n    /* \"#utility.yul\":2197:2222   */\n  swap1\n  pop\n    /* \"#utility.yul\":1155:2228   */\ntag_21:\n  swap4\n  swap3\n  pop\n  pop\n  pop\n  jump\t// out\n    /* \"#utility.yul\":2234:2311   */\ntag_9:\n    /* \"#utility.yul\":2271:2278   */\n  0x00\n    /* \"#utility.yul\":2300:2305   */\n  dup2\n    /* \"#utility.yul\":2289:2305   */\n  swap1\n  pop\n    /* \"#utility.yul\":2234:2311   */\n  swap2\n  swap1\n  pop\n  jump\t// out\n    /* \"#utility.yul\":2317:2602   */\ntag_2:\n    /* \"#utility.yul\":2377:2382   */\n  0x00\n    /* \"#utility.yul\":2401:2424   */\n  tag_39\n    /* \"#utility.yul\":2419:2423   */\n  dup3\n    /* \"#utility.yul\":2401:2424   */\n  tag_9\n  jump\t// in\ntag_39:\n    /* \"#utility.yul\":2393:2424   */\n  swap2\n  pop\n    /* \"#utility.yul\":2445:2472   */\n  tag_40\n    /* \"#utility.yul\":2463:2471   */\n  dup4\n    /* \"#utility.yul\":2445:2472   */\n  tag_9\n  jump\t// in\ntag_40:\n    /* \"#utility.yul\":2433:2472   */\n  swap3\n  pop\n    /* \"#utility.yul\":2491:2595   */\n  tag_41\n    /* \"#utility.yul\":2528:2594   */\n  0xffffffffffffffffffffffffffffffffffffffffffffffffffffffffffffffff\n    /* \"#utility.yul\":2518:2526   */\n  dup5\n    /* \"#utility.yul\":2512:2516   */\n  dup5\n    /* \"#utility.yul\":2491:2595   */\n  tag_8\n  jump\t// in\ntag_41:\n    /* \"#utility.yul\":2482:2595   */\n  swap1\n  pop\n    /* \"#utility.yul\":2317:2602   */\n  swap3\n  swap2\n  pop\n  pop\n  jump\t// out\n    /* \"contracts/ZombieFeeding.sol\":451:1378  contract ZombieFeeding is ZombieFactory {... */\ntag_4:\n  dataSize(sub_0)\n  dup1\n  dataOffset(sub_0)\n  0x00\n  codecopy\n  0x00\n  return\nstop\n\nsub_0: assembly {\n        /* \"contracts/ZombieFeeding.sol\":451:1378  contract ZombieFeeding is ZombieFactory {... */\n      mstore(0x40, 0x80)\n      callvalue\n      dup1\n      iszero\n      tag_1\n      jumpi\n      0x00\n      dup1\n      revert\n    tag_1:\n      pop\n      jumpi(tag_2, lt(calldatasize, 0x04))\n      shr(0xe0, calldataload(0x00))\n      dup1\n      0x17a7f4cc\n      eq\n      tag_3\n      jumpi\n      dup1\n      0x2052465e\n      eq\n      tag_4\n      jumpi\n      dup1\n      0x528b7b8f\n      eq\n      tag_5\n      jumpi\n      dup1\n      0x6b0bfc80\n      eq\n      tag_6\n      jumpi\n      dup1\n      0x7bff0a01\n      eq\n      tag_7\n      jumpi\n    tag_2:\n      0x00\n      dup1\n      revert\n        /* \"contracts/ZombieFeeding.sol\":1165:1375  function feedOnKitty(uint _zombieId,uint _kittyId) public {... */\n    tag_3:\n      tag_8\n      0x04\n      dup1\n      calldatasize\n      sub\n      dup2\n      add\n      swap1\n      tag_9\n      swap2\n      swap1\n      tag_10\n      jump\t// in\n    tag_9:\n      tag_11\n      jump\t// in\n    tag_8:\n      stop\n        /* \"contracts/ZombieFactory.sol\":237:260  Zombie[] public zombies */\n    tag_4:\n      tag_12\n      0x04\n      dup1\n      calldatasize\n      sub\n      dup2\n      add\n      swap1\n      tag_13\n      swap2\n      swap1\n      tag_14\n      jump\t// in\n    tag_13:\n      tag_15\n      jump\t// in\n    tag_12:\n      mload(0x40)\n      tag_16\n      swap3\n      swap2\n      swap1\n      tag_17\n      jump\t// in\n    tag_16:\n      mload(0x40)\n      dup1\n      swap2\n      sub\n      swap1\n      return\n        /* \"contracts/ZombieFactory.sol\":329:372  mapping(uint=>address) public zombieToOwner */\n    tag_5:\n      tag_18\n      0x04\n      dup1\n      calldatasize\n      sub\n      dup2\n      add\n      swap1\n      tag_19\n      swap2\n      swap1\n      tag_14\n      jump\t// in\n    tag_19:\n      tag_20\n      jump\t// in\n    tag_18:\n      mload(0x40)\n      tag_21\n      swap2\n      swap1\n      tag_22\n      jump\t// in\n    tag_21:\n      mload(0x40)\n      dup1\n      swap2\n      sub\n      swap1\n      return\n        /* \"contracts/ZombieFeeding.sol\":632:1157  function feedAndMultiply(uint _zombieId,uint _targetDna,string memory _species) public {... */\n    tag_6:\n      tag_23\n      0x04\n      dup1\n      calldatasize\n      sub\n      dup2\n      add\n      swap1\n      tag_24\n      swap2\n      swap1\n      tag_25\n      jump\t// in\n    tag_24:\n      tag_26\n      jump\t// in\n    tag_23:\n      stop\n        /* \"contracts/ZombieFactory.sol\":869:1050  function createRandomZombie(string calldata _name) public {... */\n    tag_7:\n      tag_27\n      0x04\n      dup1\n      calldatasize\n      sub\n      dup2\n      add\n      swap1\n      tag_28\n      swap2\n      swap1\n      tag_29\n      jump\t// in\n    tag_28:\n      tag_30\n      jump\t// in\n    tag_27:\n      stop\n        /* \"contracts/ZombieFeeding.sol\":1165:1375  function feedOnKitty(uint _zombieId,uint _kittyId) public {... */\n    tag_11:\n        /* \"contracts/ZombieFeeding.sol\":1234:1247  uint kittyDna */\n      0x00\n        /* \"contracts/ZombieFeeding.sol\":1280:1293  kittyContract */\n      0x06\n      0x00\n      swap1\n      sload\n      swap1\n      0x0100\n      exp\n      swap1\n      div\n      0xffffffffffffffffffffffffffffffffffffffff\n      and\n        /* \"contracts/ZombieFeeding.sol\":1280:1302  kittyContract.getKitty */\n      0xffffffffffffffffffffffffffffffffffffffff\n      and\n      0xe98b7f4d\n        /* \"contracts/ZombieFeeding.sol\":1303:1311  _kittyId */\n      dup4\n        /* \"contracts/ZombieFeeding.sol\":1280:1312  kittyContract.getKitty(_kittyId) */\n      mload(0x40)\n      dup3\n      0xffffffff\n      and\n      0xe0\n      shl\n      dup2\n      mstore\n      0x04\n      add\n      tag_32\n      swap2\n      swap1\n      tag_33\n      jump\t// in\n    tag_32:\n      0x0140\n      mload(0x40)\n      dup1\n      dup4\n      sub\n      dup2\n      dup7\n      gas\n      staticcall\n      iszero\n      dup1\n      iszero\n      tag_35\n      jumpi\n      returndatasize\n      0x00\n      dup1\n      returndatacopy\n      revert(0x00, returndatasize)\n    tag_35:\n      pop\n      pop\n      pop\n      pop\n      mload(0x40)\n      returndatasize\n      not(0x1f)\n      0x1f\n      dup3\n      add\n      and\n      dup3\n      add\n      dup1\n      0x40\n      mstore\n      pop\n      dup2\n      add\n      swap1\n      tag_36\n      swap2\n      swap1\n      tag_37\n      jump\t// in\n    tag_36:\n        /* \"contracts/ZombieFeeding.sol\":1258:1312  (,,,,,,,,,kittyDna) = kittyContract.getKitty(_kittyId) */\n      swap1\n      swap2\n      swap3\n      swap4\n      swap5\n      swap6\n      swap7\n      swap8\n      swap9\n      pop\n      swap1\n      swap2\n      swap3\n      swap4\n      swap5\n      swap6\n      swap7\n      swap8\n      pop\n      swap1\n      swap2\n      swap3\n      swap4\n      swap5\n      swap6\n      swap7\n      pop\n      swap1\n      swap2\n      swap3\n      swap4\n      swap5\n      swap6\n      pop\n      swap1\n      swap2\n      swap3\n      swap4\n      swap5\n      pop\n      swap1\n      swap2\n      swap3\n      swap4\n      pop\n      swap1\n      swap2\n      swap3\n      pop\n      swap1\n      swap2\n      pop\n      swap1\n      pop\n      dup1\n      swap2\n      pop\n      pop\n        /* \"contracts/ZombieFeeding.sol\":1323:1367  feedAndMultiply(_zombieId, kittyDna,\"kitty\") */\n      tag_38\n        /* \"contracts/ZombieFeeding.sol\":1339:1348  _zombieId */\n      dup4\n        /* \"contracts/ZombieFeeding.sol\":1350:1358  kittyDna */\n      dup3\n        /* \"contracts/ZombieFeeding.sol\":1323:1367  feedAndMultiply(_zombieId, kittyDna,\"kitty\") */\n      mload(0x40)\n      dup1\n      0x40\n      add\n      0x40\n      mstore\n      dup1\n      0x05\n      dup2\n      mstore\n      0x20\n      add\n      0x6b69747479000000000000000000000000000000000000000000000000000000\n      dup2\n      mstore\n      pop\n        /* \"contracts/ZombieFeeding.sol\":1323:1338  feedAndMultiply */\n      tag_26\n        /* \"contracts/ZombieFeeding.sol\":1323:1367  feedAndMultiply(_zombieId, kittyDna,\"kitty\") */\n      jump\t// in\n    tag_38:\n        /* \"contracts/ZombieFeeding.sol\":1223:1375  {... */\n      pop\n        /* \"contracts/ZombieFeeding.sol\":1165:1375  function feedOnKitty(uint _zombieId,uint _kittyId) public {... */\n      pop\n      pop\n      jump\t// out\n        /* \"contracts/ZombieFactory.sol\":237:260  Zombie[] public zombies */\n    tag_15:\n      0x02\n      dup2\n      dup2\n      sload\n      dup2\n      lt\n      tag_39\n      jumpi\n      0x00\n      dup1\n      revert\n    tag_39:\n      swap1\n      0x00\n      mstore\n      keccak256(0x00, 0x20)\n      swap1\n      0x02\n      mul\n      add\n      0x00\n      swap2\n      pop\n      swap1\n      pop\n      dup1\n      0x00\n      add\n      dup1\n      sload\n      tag_41\n      swap1\n      tag_42\n      jump\t// in\n    tag_41:\n      dup1\n      0x1f\n      add\n      0x20\n      dup1\n      swap2\n      div\n      mul\n      0x20\n      add\n      mload(0x40)\n      swap1\n      dup2\n      add\n      0x40\n      mstore\n      dup1\n      swap3\n      swap2\n      swap1\n      dup2\n      dup2\n      mstore\n      0x20\n      add\n      dup3\n      dup1\n      sload\n      tag_43\n      swap1\n      tag_42\n      jump\t// in\n    tag_43:\n      dup1\n      iszero\n      tag_44\n      jumpi\n      dup1\n      0x1f\n      lt\n      tag_45\n      jumpi\n      0x0100\n      dup1\n      dup4\n      sload\n      div\n      mul\n      dup4\n      mstore\n      swap2\n      0x20\n      add\n      swap2\n      jump(tag_44)\n    tag_45:\n      dup3\n      add\n      swap2\n      swap1\n      0x00\n      mstore\n      keccak256(0x00, 0x20)\n      swap1\n    tag_46:\n      dup2\n      sload\n      dup2\n      mstore\n      swap1\n      0x01\n      add\n      swap1\n      0x20\n      add\n      dup1\n      dup4\n      gt\n      tag_46\n      jumpi\n      dup3\n      swap1\n      sub\n      0x1f\n      and\n      dup3\n      add\n      swap2\n    tag_44:\n      pop\n      pop\n      pop\n      pop\n      pop\n      swap1\n      dup1\n      0x01\n      add\n      sload\n      swap1\n      pop\n      dup3\n      jump\t// out\n        /* \"contracts/ZombieFactory.sol\":329:372  mapping(uint=>address) public zombieToOwner */\n    tag_20:\n      mstore(0x20, 0x03)\n      dup1\n      0x00\n      mstore\n      keccak256(0x00, 0x40)\n      0x00\n      swap2\n      pop\n      sload\n      swap1\n      0x0100\n      exp\n      swap1\n      div\n      0xffffffffffffffffffffffffffffffffffffffff\n      and\n      dup2\n      jump\t// out\n        /* \"contracts/ZombieFeeding.sol\":632:1157  function feedAndMultiply(uint _zombieId,uint _targetDna,string memory _species) public {... */\n    tag_26:\n        /* \"contracts/ZombieFeeding.sol\":764:774  msg.sender */\n      caller\n        /* \"contracts/ZombieFeeding.sol\":738:774  zombieToOwner[_zombieId]!=msg.sender */\n      0xffffffffffffffffffffffffffffffffffffffff\n      and\n        /* \"contracts/ZombieFeeding.sol\":738:751  zombieToOwner */\n      0x03\n        /* \"contracts/ZombieFeeding.sol\":738:762  zombieToOwner[_zombieId] */\n      0x00\n        /* \"contracts/ZombieFeeding.sol\":752:761  _zombieId */\n      dup6\n        /* \"contracts/ZombieFeeding.sol\":738:762  zombieToOwner[_zombieId] */\n      dup2\n      mstore\n      0x20\n      add\n      swap1\n      dup2\n      mstore\n      0x20\n      add\n      0x00\n      keccak256\n      0x00\n      swap1\n      sload\n      swap1\n      0x0100\n      exp\n      swap1\n      div\n      0xffffffffffffffffffffffffffffffffffffffff\n      and\n        /* \"contracts/ZombieFeeding.sol\":738:774  zombieToOwner[_zombieId]!=msg.sender */\n      0xffffffffffffffffffffffffffffffffffffffff\n      and\n      sub\n        /* \"contracts/ZombieFeeding.sol\":730:775  require(zombieToOwner[_zombieId]!=msg.sender) */\n      tag_48\n      jumpi\n      0x00\n      dup1\n      revert\n    tag_48:\n        /* \"contracts/ZombieFeeding.sol\":786:809  Zombie storage myZombie */\n      0x00\n        /* \"contracts/ZombieFeeding.sol\":812:819  zombies */\n      0x02\n        /* \"contracts/ZombieFeeding.sol\":820:829  _zombieId */\n      dup5\n        /* \"contracts/ZombieFeeding.sol\":812:830  zombies[_zombieId] */\n      dup2\n      sload\n      dup2\n      lt\n      tag_49\n      jumpi\n      tag_50\n      tag_51\n      jump\t// in\n    tag_50:\n    tag_49:\n      swap1\n      0x00\n      mstore\n      keccak256(0x00, 0x20)\n      swap1\n      0x02\n      mul\n      add\n        /* \"contracts/ZombieFeeding.sol\":786:830  Zombie storage myZombie = zombies[_zombieId] */\n      swap1\n      pop\n        /* \"contracts/ZombieFeeding.sol\":855:865  dnaModulus */\n      sload(0x01)\n        /* \"contracts/ZombieFeeding.sol\":841:865  _targetDna %= dnaModulus */\n      dup4\n      tag_53\n      swap2\n      swap1\n      tag_54\n      jump\t// in\n    tag_53:\n      swap3\n      pop\n        /* \"contracts/ZombieFeeding.sol\":876:885  uint nDna */\n      0x00\n        /* \"contracts/ZombieFeeding.sol\":918:919  2 */\n      0x02\n        /* \"contracts/ZombieFeeding.sol\":902:910  myZombie */\n      dup3\n        /* \"contracts/ZombieFeeding.sol\":902:914  myZombie.dna */\n      0x01\n      add\n      sload\n        /* \"contracts/ZombieFeeding.sol\":889:899  _targetDna */\n      dup6\n        /* \"contracts/ZombieFeeding.sol\":889:914  _targetDna + myZombie.dna */\n      tag_55\n      swap2\n      swap1\n      tag_56\n      jump\t// in\n    tag_55:\n        /* \"contracts/ZombieFeeding.sol\":888:919  (_targetDna + myZombie.dna) / 2 */\n      tag_57\n      swap2\n      swap1\n      tag_58\n      jump\t// in\n    tag_57:\n        /* \"contracts/ZombieFeeding.sol\":876:919  uint nDna = (_targetDna + myZombie.dna) / 2 */\n      swap1\n      pop\n        /* \"contracts/ZombieFeeding.sol\":976:984  _species */\n      dup3\n        /* \"contracts/ZombieFeeding.sol\":960:986  keccak256(bytes(_species)) */\n      dup1\n      mload\n      swap1\n      0x20\n      add\n      keccak256\n        /* \"contracts/ZombieFeeding.sol\":943:957  bytes(\"kitty\") */\n      mload(0x40)\n      dup1\n      0x40\n      add\n      0x40\n      mstore\n      dup1\n      0x05\n      dup2\n      mstore\n      0x20\n      add\n      0x6b69747479000000000000000000000000000000000000000000000000000000\n      dup2\n      mstore\n      pop\n        /* \"contracts/ZombieFeeding.sol\":933:958  keccak256(bytes(\"kitty\")) */\n      dup1\n      mload\n      swap1\n      0x20\n      add\n      keccak256\n        /* \"contracts/ZombieFeeding.sol\":933:986  keccak256(bytes(\"kitty\"))==keccak256(bytes(_species)) */\n      sub\n        /* \"contracts/ZombieFeeding.sol\":930:1037  if(keccak256(bytes(\"kitty\"))==keccak256(bytes(_species))){... */\n      tag_59\n      jumpi\n        /* \"contracts/ZombieFeeding.sol\":1023:1025  99 */\n      0x63\n        /* \"contracts/ZombieFeeding.sol\":1017:1020  100 */\n      0x64\n        /* \"contracts/ZombieFeeding.sol\":1010:1014  nDna */\n      dup3\n        /* \"contracts/ZombieFeeding.sol\":1010:1020  nDna % 100 */\n      tag_60\n      swap2\n      swap1\n      tag_54\n      jump\t// in\n    tag_60:\n        /* \"contracts/ZombieFeeding.sol\":1010:1025  nDna % 100 + 99 */\n      tag_61\n      swap2\n      swap1\n      tag_56\n      jump\t// in\n    tag_61:\n        /* \"contracts/ZombieFeeding.sol\":1002:1025  nDna -= nDna % 100 + 99 */\n      dup2\n      tag_62\n      swap2\n      swap1\n      tag_63\n      jump\t// in\n    tag_62:\n      swap1\n      pop\n        /* \"contracts/ZombieFeeding.sol\":930:1037  if(keccak256(bytes(\"kitty\"))==keccak256(bytes(_species))){... */\n    tag_59:\n        /* \"contracts/ZombieFeeding.sol\":1047:1071  string memory zombieName */\n      0x00\n        /* \"contracts/ZombieFeeding.sol\":1081:1107  abi.encodePacked(\"Noname\") */\n      add(0x20, mload(0x40))\n      tag_64\n      swap1\n      tag_65\n      jump\t// in\n    tag_64:\n      mload(0x40)\n      0x20\n      dup2\n      dup4\n      sub\n      sub\n      dup2\n      mstore\n      swap1\n      0x40\n      mstore\n        /* \"contracts/ZombieFeeding.sol\":1047:1108  string memory zombieName = string(abi.encodePacked(\"Noname\")) */\n      swap1\n      pop\n        /* \"contracts/ZombieFeeding.sol\":1119:1149  _createZombie(zombieName,nDna) */\n      tag_66\n        /* \"contracts/ZombieFeeding.sol\":1133:1143  zombieName */\n      dup2\n        /* \"contracts/ZombieFeeding.sol\":1144:1148  nDna */\n      dup4\n        /* \"contracts/ZombieFeeding.sol\":1119:1132  _createZombie */\n      tag_67\n        /* \"contracts/ZombieFeeding.sol\":1119:1149  _createZombie(zombieName,nDna) */\n      jump\t// in\n    tag_66:\n        /* \"contracts/ZombieFeeding.sol\":719:1157  {... */\n      pop\n      pop\n      pop\n        /* \"contracts/ZombieFeeding.sol\":632:1157  function feedAndMultiply(uint _zombieId,uint _targetDna,string memory _species) public {... */\n      pop\n      pop\n      pop\n      jump\t// out\n        /* \"contracts/ZombieFactory.sol\":869:1050  function createRandomZombie(string calldata _name) public {... */\n    tag_30:\n        /* \"contracts/ZombieFactory.sol\":975:976  0 */\n      0x00\n        /* \"contracts/ZombieFactory.sol\":946:962  ownerZombieCount */\n      0x04\n        /* \"contracts/ZombieFactory.sol\":946:974  ownerZombieCount[msg.sender] */\n      0x00\n        /* \"contracts/ZombieFactory.sol\":963:973  msg.sender */\n      caller\n        /* \"contracts/ZombieFactory.sol\":946:974  ownerZombieCount[msg.sender] */\n      0xffffffffffffffffffffffffffffffffffffffff\n      and\n      0xffffffffffffffffffffffffffffffffffffffff\n      and\n      dup2\n      mstore\n      0x20\n      add\n      swap1\n      dup2\n      mstore\n      0x20\n      add\n      0x00\n      keccak256\n      sload\n        /* \"contracts/ZombieFactory.sol\":946:976  ownerZombieCount[msg.sender]>0 */\n      gt\n        /* \"contracts/ZombieFactory.sol\":938:985  require(ownerZombieCount[msg.sender]>0,\"ERROR\") */\n      tag_69\n      jumpi\n      mload(0x40)\n      0x08c379a000000000000000000000000000000000000000000000000000000000\n      dup2\n      mstore\n      0x04\n      add\n      tag_70\n      swap1\n      tag_71\n      jump\t// in\n    tag_70:\n      mload(0x40)\n      dup1\n      swap2\n      sub\n      swap1\n      revert\n    tag_69:\n        /* \"contracts/ZombieFactory.sol\":996:1042  _createZombie(_name,_generateRandomDna(_name)) */\n      tag_72\n        /* \"contracts/ZombieFactory.sol\":1010:1015  _name */\n      dup3\n      dup3\n        /* \"contracts/ZombieFactory.sol\":996:1042  _createZombie(_name,_generateRandomDna(_name)) */\n      dup1\n      dup1\n      0x1f\n      add\n      0x20\n      dup1\n      swap2\n      div\n      mul\n      0x20\n      add\n      mload(0x40)\n      swap1\n      dup2\n      add\n      0x40\n      mstore\n      dup1\n      swap4\n      swap3\n      swap2\n      swap1\n      dup2\n      dup2\n      mstore\n      0x20\n      add\n      dup4\n      dup4\n      dup1\n      dup3\n      dup5\n      calldatacopy\n      0x00\n      dup2\n      dup5\n      add\n      mstore\n      not(0x1f)\n      0x1f\n      dup3\n      add\n      and\n      swap1\n      pop\n      dup1\n      dup4\n      add\n      swap3\n      pop\n      pop\n      pop\n      pop\n      pop\n      pop\n      pop\n        /* \"contracts/ZombieFactory.sol\":1016:1041  _generateRandomDna(_name) */\n      tag_73\n        /* \"contracts/ZombieFactory.sol\":1035:1040  _name */\n      dup5\n      dup5\n        /* \"contracts/ZombieFactory.sol\":1016:1034  _generateRandomDna */\n      tag_74\n        /* \"contracts/ZombieFactory.sol\":1016:1041  _generateRandomDna(_name) */\n      jump\t// in\n    tag_73:\n        /* \"contracts/ZombieFactory.sol\":996:1009  _createZombie */\n      tag_67\n        /* \"contracts/ZombieFactory.sol\":996:1042  _createZombie(_name,_generateRandomDna(_name)) */\n      jump\t// in\n    tag_72:\n        /* \"contracts/ZombieFactory.sol\":869:1050  function createRandomZombie(string calldata _name) public {... */\n      pop\n      pop\n      jump\t// out\n        /* \"contracts/ZombieFactory.sol\":427:696  function _createZombie(string memory _name,uint _dna) internal  {... */\n    tag_67:\n        /* \"contracts/ZombieFactory.sol\":502:509  zombies */\n      0x02\n        /* \"contracts/ZombieFactory.sol\":515:533  Zombie(_name,_dna) */\n      mload(0x40)\n      dup1\n      0x40\n      add\n      0x40\n      mstore\n      dup1\n        /* \"contracts/ZombieFactory.sol\":522:527  _name */\n      dup5\n        /* \"contracts/ZombieFactory.sol\":515:533  Zombie(_name,_dna) */\n      dup2\n      mstore\n      0x20\n      add\n        /* \"contracts/ZombieFactory.sol\":528:532  _dna */\n      dup4\n        /* \"contracts/ZombieFactory.sol\":515:533  Zombie(_name,_dna) */\n      dup2\n      mstore\n      pop\n        /* \"contracts/ZombieFactory.sol\":502:534  zombies.push(Zombie(_name,_dna)) */\n      swap1\n      dup1\n      0x01\n      dup2\n      sload\n      add\n      dup1\n      dup3\n      sstore\n      dup1\n      swap2\n      pop\n      pop\n      0x01\n      swap1\n      sub\n      swap1\n      0x00\n      mstore\n      keccak256(0x00, 0x20)\n      swap1\n      0x02\n      mul\n      add\n      0x00\n      swap1\n      swap2\n      swap1\n      swap2\n      swap1\n      swap2\n      pop\n      0x00\n      dup3\n      add\n      mload\n      dup2\n      0x00\n      add\n      swap1\n      dup2\n      tag_77\n      swap2\n      swap1\n      tag_78\n      jump\t// in\n    tag_77:\n      pop\n      0x20\n      dup3\n      add\n      mload\n      dup2\n      0x01\n      add\n      sstore\n      pop\n      pop\n        /* \"contracts/ZombieFactory.sol\":580:590  msg.sender */\n      caller\n        /* \"contracts/ZombieFactory.sol\":546:559  zombieToOwner */\n      0x03\n        /* \"contracts/ZombieFactory.sol\":546:577  zombieToOwner[zombies.length-1] */\n      0x00\n        /* \"contracts/ZombieFactory.sol\":575:576  1 */\n      0x01\n        /* \"contracts/ZombieFactory.sol\":560:567  zombies */\n      0x02\n        /* \"contracts/ZombieFactory.sol\":560:574  zombies.length */\n      dup1\n      sload\n      swap1\n      pop\n        /* \"contracts/ZombieFactory.sol\":560:576  zombies.length-1 */\n      tag_79\n      swap2\n      swap1\n      tag_63\n      jump\t// in\n    tag_79:\n        /* \"contracts/ZombieFactory.sol\":546:577  zombieToOwner[zombies.length-1] */\n      dup2\n      mstore\n      0x20\n      add\n      swap1\n      dup2\n      mstore\n      0x20\n      add\n      0x00\n      keccak256\n      0x00\n        /* \"contracts/ZombieFactory.sol\":546:590  zombieToOwner[zombies.length-1] = msg.sender */\n      0x0100\n      exp\n      dup2\n      sload\n      dup2\n      0xffffffffffffffffffffffffffffffffffffffff\n      mul\n      not\n      and\n      swap1\n      dup4\n      0xffffffffffffffffffffffffffffffffffffffff\n      and\n      mul\n      or\n      swap1\n      sstore\n      pop\n        /* \"contracts/ZombieFactory.sol\":633:634  1 */\n      0x01\n        /* \"contracts/ZombieFactory.sol\":601:617  ownerZombieCount */\n      0x04\n        /* \"contracts/ZombieFactory.sol\":601:629  ownerZombieCount[msg.sender] */\n      0x00\n        /* \"contracts/ZombieFactory.sol\":618:628  msg.sender */\n      caller\n        /* \"contracts/ZombieFactory.sol\":601:629  ownerZombieCount[msg.sender] */\n      0xffffffffffffffffffffffffffffffffffffffff\n      and\n      0xffffffffffffffffffffffffffffffffffffffff\n      and\n      dup2\n      mstore\n      0x20\n      add\n      swap1\n      dup2\n      mstore\n      0x20\n      add\n      0x00\n      keccak256\n      0x00\n        /* \"contracts/ZombieFactory.sol\":601:634  ownerZombieCount[msg.sender] += 1 */\n      dup3\n      dup3\n      sload\n      tag_80\n      swap2\n      swap1\n      tag_56\n      jump\t// in\n    tag_80:\n      swap3\n      pop\n      pop\n      dup2\n      swap1\n      sstore\n      pop\n        /* \"contracts/ZombieFactory.sol\":650:688  NewZombie(zombies.length-1,_name,_dna) */\n      0x88f026aacbbecc90c18411df4b1185fd8d9be2470f1962f192bf84a27d0704b7\n        /* \"contracts/ZombieFactory.sol\":675:676  1 */\n      0x01\n        /* \"contracts/ZombieFactory.sol\":660:667  zombies */\n      0x02\n        /* \"contracts/ZombieFactory.sol\":660:674  zombies.length */\n      dup1\n      sload\n      swap1\n      pop\n        /* \"contracts/ZombieFactory.sol\":660:676  zombies.length-1 */\n      tag_81\n      swap2\n      swap1\n      tag_63\n      jump\t// in\n    tag_81:\n        /* \"contracts/ZombieFactory.sol\":677:682  _name */\n      dup4\n        /* \"contracts/ZombieFactory.sol\":683:687  _dna */\n      dup4\n        /* \"contracts/ZombieFactory.sol\":650:688  NewZombie(zombies.length-1,_name,_dna) */\n      mload(0x40)\n      tag_82\n      swap4\n      swap3\n      swap2\n      swap1\n      tag_83\n      jump\t// in\n    tag_82:\n      mload(0x40)\n      dup1\n      swap2\n      sub\n      swap1\n      log1\n        /* \"contracts/ZombieFactory.sol\":427:696  function _createZombie(string memory _name,uint _dna) internal  {... */\n      pop\n      pop\n      jump\t// out\n        /* \"contracts/ZombieFactory.sol\":704:861  function _generateRandomDna(string calldata _str) private view  returns (uint) {... */\n    tag_74:\n        /* \"contracts/ZombieFactory.sol\":777:781  uint */\n      0x00\n        /* \"contracts/ZombieFactory.sol\":843:853  dnaModulus */\n      sload(0x01)\n        /* \"contracts/ZombieFactory.sol\":833:837  _str */\n      dup4\n      dup4\n        /* \"contracts/ZombieFactory.sol\":816:838  abi.encodePacked(_str) */\n      add(0x20, mload(0x40))\n      tag_85\n      swap3\n      swap2\n      swap1\n      tag_86\n      jump\t// in\n    tag_85:\n      mload(0x40)\n      0x20\n      dup2\n      dup4\n      sub\n      sub\n      dup2\n      mstore\n      swap1\n      0x40\n      mstore\n        /* \"contracts/ZombieFactory.sol\":806:839  keccak256(abi.encodePacked(_str)) */\n      dup1\n      mload\n      swap1\n      0x20\n      add\n      keccak256\n        /* \"contracts/ZombieFactory.sol\":801:840  uint(keccak256(abi.encodePacked(_str))) */\n      0x00\n      shr\n        /* \"contracts/ZombieFactory.sol\":801:853  uint(keccak256(abi.encodePacked(_str))) % dnaModulus */\n      tag_87\n      swap2\n      swap1\n      tag_54\n      jump\t// in\n    tag_87:\n        /* \"contracts/ZombieFactory.sol\":794:853  return uint(keccak256(abi.encodePacked(_str))) % dnaModulus */\n      swap1\n      pop\n        /* \"contracts/ZombieFactory.sol\":704:861  function _generateRandomDna(string calldata _str) private view  returns (uint) {... */\n      swap3\n      swap2\n      pop\n      pop\n      jump\t// out\n        /* \"#utility.yul\":7:82   */\n    tag_88:\n        /* \"#utility.yul\":40:46   */\n      0x00\n        /* \"#utility.yul\":73:75   */\n      0x40\n        /* \"#utility.yul\":67:76   */\n      mload\n        /* \"#utility.yul\":57:76   */\n      swap1\n      pop\n        /* \"#utility.yul\":7:82   */\n      swap1\n      jump\t// out\n        /* \"#utility.yul\":88:205   */\n    tag_89:\n        /* \"#utility.yul\":197:198   */\n      0x00\n        /* \"#utility.yul\":194:195   */\n      dup1\n        /* \"#utility.yul\":187:199   */\n      revert\n        /* \"#utility.yul\":211:328   */\n    tag_90:\n        /* \"#utility.yul\":320:321   */\n      0x00\n        /* \"#utility.yul\":317:318   */\n      dup1\n        /* \"#utility.yul\":310:322   */\n      revert\n        /* \"#utility.yul\":334:411   */\n    tag_91:\n        /* \"#utility.yul\":371:378   */\n      0x00\n        /* \"#utility.yul\":400:405   */\n      dup2\n        /* \"#utility.yul\":389:405   */\n      swap1\n      pop\n        /* \"#utility.yul\":334:411   */\n      swap2\n      swap1\n      pop\n      jump\t// out\n        /* \"#utility.yul\":417:539   */\n    tag_92:\n        /* \"#utility.yul\":490:514   */\n      tag_149\n        /* \"#utility.yul\":508:513   */\n      dup2\n        /* \"#utility.yul\":490:514   */\n      tag_91\n      jump\t// in\n    tag_149:\n        /* \"#utility.yul\":483:488   */\n      dup2\n        /* \"#utility.yul\":480:515   */\n      eq\n        /* \"#utility.yul\":470:533   */\n      tag_150\n      jumpi\n        /* \"#utility.yul\":529:530   */\n      0x00\n        /* \"#utility.yul\":526:527   */\n      dup1\n        /* \"#utility.yul\":519:531   */\n      revert\n        /* \"#utility.yul\":470:533   */\n    tag_150:\n        /* \"#utility.yul\":417:539   */\n      pop\n      jump\t// out\n        /* \"#utility.yul\":545:684   */\n    tag_93:\n        /* \"#utility.yul\":591:596   */\n      0x00\n        /* \"#utility.yul\":629:635   */\n      dup2\n        /* \"#utility.yul\":616:636   */\n      calldataload\n        /* \"#utility.yul\":607:636   */\n      swap1\n      pop\n        /* \"#utility.yul\":645:678   */\n      tag_152\n        /* \"#utility.yul\":672:677   */\n      dup2\n        /* \"#utility.yul\":645:678   */\n      tag_92\n      jump\t// in\n    tag_152:\n        /* \"#utility.yul\":545:684   */\n      swap3\n      swap2\n      pop\n      pop\n      jump\t// out\n        /* \"#utility.yul\":690:1164   */\n    tag_10:\n        /* \"#utility.yul\":758:764   */\n      0x00\n        /* \"#utility.yul\":766:772   */\n      dup1\n        /* \"#utility.yul\":815:817   */\n      0x40\n        /* \"#utility.yul\":803:812   */\n      dup4\n        /* \"#utility.yul\":794:801   */\n      dup6\n        /* \"#utility.yul\":790:813   */\n      sub\n        /* \"#utility.yul\":786:818   */\n      slt\n        /* \"#utility.yul\":783:902   */\n      iszero\n      tag_154\n      jumpi\n        /* \"#utility.yul\":821:900   */\n      tag_155\n      tag_89\n      jump\t// in\n    tag_155:\n        /* \"#utility.yul\":783:902   */\n    tag_154:\n        /* \"#utility.yul\":941:942   */\n      0x00\n        /* \"#utility.yul\":966:1019   */\n      tag_156\n        /* \"#utility.yul\":1011:1018   */\n      dup6\n        /* \"#utility.yul\":1002:1008   */\n      dup3\n        /* \"#utility.yul\":991:1000   */\n      dup7\n        /* \"#utility.yul\":987:1009   */\n      add\n        /* \"#utility.yul\":966:1019   */\n      tag_93\n      jump\t// in\n    tag_156:\n        /* \"#utility.yul\":956:1019   */\n      swap3\n      pop\n        /* \"#utility.yul\":912:1029   */\n      pop\n        /* \"#utility.yul\":1068:1070   */\n      0x20\n        /* \"#utility.yul\":1094:1147   */\n      tag_157\n        /* \"#utility.yul\":1139:1146   */\n      dup6\n        /* \"#utility.yul\":1130:1136   */\n      dup3\n        /* \"#utility.yul\":1119:1128   */\n      dup7\n        /* \"#utility.yul\":1115:1137   */\n      add\n        /* \"#utility.yul\":1094:1147   */\n      tag_93\n      jump\t// in\n    tag_157:\n        /* \"#utility.yul\":1084:1147   */\n      swap2\n      pop\n        /* \"#utility.yul\":1039:1157   */\n      pop\n        /* \"#utility.yul\":690:1164   */\n      swap3\n      pop\n      swap3\n      swap1\n      pop\n      jump\t// out\n        /* \"#utility.yul\":1170:1499   */\n    tag_14:\n        /* \"#utility.yul\":1229:1235   */\n      0x00\n        /* \"#utility.yul\":1278:1280   */\n      0x20\n        /* \"#utility.yul\":1266:1275   */\n      dup3\n        /* \"#utility.yul\":1257:1264   */\n      dup5\n        /* \"#utility.yul\":1253:1276   */\n      sub\n        /* \"#utility.yul\":1249:1281   */\n      slt\n        /* \"#utility.yul\":1246:1365   */\n      iszero\n      tag_159\n      jumpi\n        /* \"#utility.yul\":1284:1363   */\n      tag_160\n      tag_89\n      jump\t// in\n    tag_160:\n        /* \"#utility.yul\":1246:1365   */\n    tag_159:\n        /* \"#utility.yul\":1404:1405   */\n      0x00\n        /* \"#utility.yul\":1429:1482   */\n      tag_161\n        /* \"#utility.yul\":1474:1481   */\n      dup5\n        /* \"#utility.yul\":1465:1471   */\n      dup3\n        /* \"#utility.yul\":1454:1463   */\n      dup6\n        /* \"#utility.yul\":1450:1472   */\n      add\n        /* \"#utility.yul\":1429:1482   */\n      tag_93\n      jump\t// in\n    tag_161:\n        /* \"#utility.yul\":1419:1482   */\n      swap2\n      pop\n        /* \"#utility.yul\":1375:1492   */\n      pop\n        /* \"#utility.yul\":1170:1499   */\n      swap3\n      swap2\n      pop\n      pop\n      jump\t// out\n        /* \"#utility.yul\":1505:1604   */\n    tag_94:\n        /* \"#utility.yul\":1557:1563   */\n      0x00\n        /* \"#utility.yul\":1591:1596   */\n      dup2\n        /* \"#utility.yul\":1585:1597   */\n      mload\n        /* \"#utility.yul\":1575:1597   */\n      swap1\n      pop\n        /* \"#utility.yul\":1505:1604   */\n      swap2\n      swap1\n      pop\n      jump\t// out\n        /* \"#utility.yul\":1610:1779   */\n    tag_95:\n        /* \"#utility.yul\":1694:1705   */\n      0x00\n        /* \"#utility.yul\":1728:1734   */\n      dup3\n        /* \"#utility.yul\":1723:1726   */\n      dup3\n        /* \"#utility.yul\":1716:1735   */\n      mstore\n        /* \"#utility.yul\":1768:1772   */\n      0x20\n        /* \"#utility.yul\":1763:1766   */\n      dup3\n        /* \"#utility.yul\":1759:1773   */\n      add\n        /* \"#utility.yul\":1744:1773   */\n      swap1\n      pop\n        /* \"#utility.yul\":1610:1779   */\n      swap3\n      swap2\n      pop\n      pop\n      jump\t// out\n        /* \"#utility.yul\":1785:2033   */\n    tag_96:\n        /* \"#utility.yul\":1867:1868   */\n      0x00\n        /* \"#utility.yul\":1877:1990   */\n    tag_165:\n        /* \"#utility.yul\":1891:1897   */\n      dup4\n        /* \"#utility.yul\":1888:1889   */\n      dup2\n        /* \"#utility.yul\":1885:1898   */\n      lt\n        /* \"#utility.yul\":1877:1990   */\n      iszero\n      tag_167\n      jumpi\n        /* \"#utility.yul\":1976:1977   */\n      dup1\n        /* \"#utility.yul\":1971:1974   */\n      dup3\n        /* \"#utility.yul\":1967:1978   */\n      add\n        /* \"#utility.yul\":1961:1979   */\n      mload\n        /* \"#utility.yul\":1957:1958   */\n      dup2\n        /* \"#utility.yul\":1952:1955   */\n      dup5\n        /* \"#utility.yul\":1948:1959   */\n      add\n        /* \"#utility.yul\":1941:1980   */\n      mstore\n        /* \"#utility.yul\":1913:1915   */\n      0x20\n        /* \"#utility.yul\":1910:1911   */\n      dup2\n        /* \"#utility.yul\":1906:1916   */\n      add\n        /* \"#utility.yul\":1901:1916   */\n      swap1\n      pop\n        /* \"#utility.yul\":1877:1990   */\n      jump(tag_165)\n    tag_167:\n        /* \"#utility.yul\":2024:2025   */\n      0x00\n        /* \"#utility.yul\":2015:2021   */\n      dup5\n        /* \"#utility.yul\":2010:2013   */\n      dup5\n        /* \"#utility.yul\":2006:2022   */\n      add\n        /* \"#utility.yul\":1999:2026   */\n      mstore\n        /* \"#utility.yul\":1847:2033   */\n      pop\n        /* \"#utility.yul\":1785:2033   */\n      pop\n      pop\n      pop\n      jump\t// out\n        /* \"#utility.yul\":2039:2141   */\n    tag_97:\n        /* \"#utility.yul\":2080:2086   */\n      0x00\n        /* \"#utility.yul\":2131:2133   */\n      0x1f\n        /* \"#utility.yul\":2127:2134   */\n      not\n        /* \"#utility.yul\":2122:2124   */\n      0x1f\n        /* \"#utility.yul\":2115:2120   */\n      dup4\n        /* \"#utility.yul\":2111:2125   */\n      add\n        /* \"#utility.yul\":2107:2135   */\n      and\n        /* \"#utility.yul\":2097:2135   */\n      swap1\n      pop\n        /* \"#utility.yul\":2039:2141   */\n      swap2\n      swap1\n      pop\n      jump\t// out\n        /* \"#utility.yul\":2147:2524   */\n    tag_98:\n        /* \"#utility.yul\":2235:2238   */\n      0x00\n        /* \"#utility.yul\":2263:2302   */\n      tag_170\n        /* \"#utility.yul\":2296:2301   */\n      dup3\n        /* \"#utility.yul\":2263:2302   */\n      tag_94\n      jump\t// in\n    tag_170:\n        /* \"#utility.yul\":2318:2389   */\n      tag_171\n        /* \"#utility.yul\":2382:2388   */\n      dup2\n        /* \"#utility.yul\":2377:2380   */\n      dup6\n        /* \"#utility.yul\":2318:2389   */\n      tag_95\n      jump\t// in\n    tag_171:\n        /* \"#utility.yul\":2311:2389   */\n      swap4\n      pop\n        /* \"#utility.yul\":2398:2463   */\n      tag_172\n        /* \"#utility.yul\":2456:2462   */\n      dup2\n        /* \"#utility.yul\":2451:2454   */\n      dup6\n        /* \"#utility.yul\":2444:2448   */\n      0x20\n        /* \"#utility.yul\":2437:2442   */\n      dup7\n        /* \"#utility.yul\":2433:2449   */\n      add\n        /* \"#utility.yul\":2398:2463   */\n      tag_96\n      jump\t// in\n    tag_172:\n        /* \"#utility.yul\":2488:2517   */\n      tag_173\n        /* \"#utility.yul\":2510:2516   */\n      dup2\n        /* \"#utility.yul\":2488:2517   */\n      tag_97\n      jump\t// in\n    tag_173:\n        /* \"#utility.yul\":2483:2486   */\n      dup5\n        /* \"#utility.yul\":2479:2518   */\n      add\n        /* \"#utility.yul\":2472:2518   */\n      swap2\n      pop\n        /* \"#utility.yul\":2239:2524   */\n      pop\n        /* \"#utility.yul\":2147:2524   */\n      swap3\n      swap2\n      pop\n      pop\n      jump\t// out\n        /* \"#utility.yul\":2530:2648   */\n    tag_99:\n        /* \"#utility.yul\":2617:2641   */\n      tag_175\n        /* \"#utility.yul\":2635:2640   */\n      dup2\n        /* \"#utility.yul\":2617:2641   */\n      tag_91\n      jump\t// in\n    tag_175:\n        /* \"#utility.yul\":2612:2615   */\n      dup3\n        /* \"#utility.yul\":2605:2642   */\n      mstore\n        /* \"#utility.yul\":2530:2648   */\n      pop\n      pop\n      jump\t// out\n        /* \"#utility.yul\":2654:3077   */\n    tag_17:\n        /* \"#utility.yul\":2795:2799   */\n      0x00\n        /* \"#utility.yul\":2833:2835   */\n      0x40\n        /* \"#utility.yul\":2822:2831   */\n      dup3\n        /* \"#utility.yul\":2818:2836   */\n      add\n        /* \"#utility.yul\":2810:2836   */\n      swap1\n      pop\n        /* \"#utility.yul\":2882:2891   */\n      dup2\n        /* \"#utility.yul\":2876:2880   */\n      dup2\n        /* \"#utility.yul\":2872:2892   */\n      sub\n        /* \"#utility.yul\":2868:2869   */\n      0x00\n        /* \"#utility.yul\":2857:2866   */\n      dup4\n        /* \"#utility.yul\":2853:2870   */\n      add\n        /* \"#utility.yul\":2846:2893   */\n      mstore\n        /* \"#utility.yul\":2910:2988   */\n      tag_177\n        /* \"#utility.yul\":2983:2987   */\n      dup2\n        /* \"#utility.yul\":2974:2980   */\n      dup6\n        /* \"#utility.yul\":2910:2988   */\n      tag_98\n      jump\t// in\n    tag_177:\n        /* \"#utility.yul\":2902:2988   */\n      swap1\n      pop\n        /* \"#utility.yul\":2998:3070   */\n      tag_178\n        /* \"#utility.yul\":3066:3068   */\n      0x20\n        /* \"#utility.yul\":3055:3064   */\n      dup4\n        /* \"#utility.yul\":3051:3069   */\n      add\n        /* \"#utility.yul\":3042:3048   */\n      dup5\n        /* \"#utility.yul\":2998:3070   */\n      tag_99\n      jump\t// in\n    tag_178:\n        /* \"#utility.yul\":2654:3077   */\n      swap4\n      swap3\n      pop\n      pop\n      pop\n      jump\t// out\n        /* \"#utility.yul\":3083:3209   */\n    tag_100:\n        /* \"#utility.yul\":3120:3127   */\n      0x00\n        /* \"#utility.yul\":3160:3202   */\n      0xffffffffffffffffffffffffffffffffffffffff\n        /* \"#utility.yul\":3153:3158   */\n      dup3\n        /* \"#utility.yul\":3149:3203   */\n      and\n        /* \"#utility.yul\":3138:3203   */\n      swap1\n      pop\n        /* \"#utility.yul\":3083:3209   */\n      swap2\n      swap1\n      pop\n      jump\t// out\n        /* \"#utility.yul\":3215:3311   */\n    tag_101:\n        /* \"#utility.yul\":3252:3259   */\n      0x00\n        /* \"#utility.yul\":3281:3305   */\n      tag_181\n        /* \"#utility.yul\":3299:3304   */\n      dup3\n        /* \"#utility.yul\":3281:3305   */\n      tag_100\n      jump\t// in\n    tag_181:\n        /* \"#utility.yul\":3270:3305   */\n      swap1\n      pop\n        /* \"#utility.yul\":3215:3311   */\n      swap2\n      swap1\n      pop\n      jump\t// out\n        /* \"#utility.yul\":3317:3435   */\n    tag_102:\n        /* \"#utility.yul\":3404:3428   */\n      tag_183\n        /* \"#utility.yul\":3422:3427   */\n      dup2\n        /* \"#utility.yul\":3404:3428   */\n      tag_101\n      jump\t// in\n    tag_183:\n        /* \"#utility.yul\":3399:3402   */\n      dup3\n        /* \"#utility.yul\":3392:3429   */\n      mstore\n        /* \"#utility.yul\":3317:3435   */\n      pop\n      pop\n      jump\t// out\n        /* \"#utility.yul\":3441:3663   */\n    tag_22:\n        /* \"#utility.yul\":3534:3538   */\n      0x00\n        /* \"#utility.yul\":3572:3574   */\n      0x20\n        /* \"#utility.yul\":3561:3570   */\n      dup3\n        /* \"#utility.yul\":3557:3575   */\n      add\n        /* \"#utility.yul\":3549:3575   */\n      swap1\n      pop\n        /* \"#utility.yul\":3585:3656   */\n      tag_185\n        /* \"#utility.yul\":3653:3654   */\n      0x00\n        /* \"#utility.yul\":3642:3651   */\n      dup4\n        /* \"#utility.yul\":3638:3655   */\n      add\n        /* \"#utility.yul\":3629:3635   */\n      dup5\n        /* \"#utility.yul\":3585:3656   */\n      tag_102\n      jump\t// in\n    tag_185:\n        /* \"#utility.yul\":3441:3663   */\n      swap3\n      swap2\n      pop\n      pop\n      jump\t// out\n        /* \"#utility.yul\":3669:3786   */\n    tag_103:\n        /* \"#utility.yul\":3778:3779   */\n      0x00\n        /* \"#utility.yul\":3775:3776   */\n      dup1\n        /* \"#utility.yul\":3768:3780   */\n      revert\n        /* \"#utility.yul\":3792:3909   */\n    tag_104:\n        /* \"#utility.yul\":3901:3902   */\n      0x00\n        /* \"#utility.yul\":3898:3899   */\n      dup1\n        /* \"#utility.yul\":3891:3903   */\n      revert\n        /* \"#utility.yul\":3915:4095   */\n    tag_105:\n        /* \"#utility.yul\":3963:4040   */\n      0x4e487b7100000000000000000000000000000000000000000000000000000000\n        /* \"#utility.yul\":3960:3961   */\n      0x00\n        /* \"#utility.yul\":3953:4041   */\n      mstore\n        /* \"#utility.yul\":4060:4064   */\n      0x41\n        /* \"#utility.yul\":4057:4058   */\n      0x04\n        /* \"#utility.yul\":4050:4065   */\n      mstore\n        /* \"#utility.yul\":4084:4088   */\n      0x24\n        /* \"#utility.yul\":4081:4082   */\n      0x00\n        /* \"#utility.yul\":4074:4089   */\n      revert\n        /* \"#utility.yul\":4101:4382   */\n    tag_106:\n        /* \"#utility.yul\":4184:4211   */\n      tag_190\n        /* \"#utility.yul\":4206:4210   */\n      dup3\n        /* \"#utility.yul\":4184:4211   */\n      tag_97\n      jump\t// in\n    tag_190:\n        /* \"#utility.yul\":4176:4182   */\n      dup2\n        /* \"#utility.yul\":4172:4212   */\n      add\n        /* \"#utility.yul\":4314:4320   */\n      dup2\n        /* \"#utility.yul\":4302:4312   */\n      dup2\n        /* \"#utility.yul\":4299:4321   */\n      lt\n        /* \"#utility.yul\":4278:4296   */\n      0xffffffffffffffff\n        /* \"#utility.yul\":4266:4276   */\n      dup3\n        /* \"#utility.yul\":4263:4297   */\n      gt\n        /* \"#utility.yul\":4260:4322   */\n      or\n        /* \"#utility.yul\":4257:4345   */\n      iszero\n      tag_191\n      jumpi\n        /* \"#utility.yul\":4325:4343   */\n      tag_192\n      tag_105\n      jump\t// in\n    tag_192:\n        /* \"#utility.yul\":4257:4345   */\n    tag_191:\n        /* \"#utility.yul\":4365:4375   */\n      dup1\n        /* \"#utility.yul\":4361:4363   */\n      0x40\n        /* \"#utility.yul\":4354:4376   */\n      mstore\n        /* \"#utility.yul\":4144:4382   */\n      pop\n        /* \"#utility.yul\":4101:4382   */\n      pop\n      pop\n      jump\t// out\n        /* \"#utility.yul\":4388:4517   */\n    tag_107:\n        /* \"#utility.yul\":4422:4428   */\n      0x00\n        /* \"#utility.yul\":4449:4469   */\n      tag_194\n      tag_88\n      jump\t// in\n    tag_194:\n        /* \"#utility.yul\":4439:4469   */\n      swap1\n      pop\n        /* \"#utility.yul\":4478:4511   */\n      tag_195\n        /* \"#utility.yul\":4506:4510   */\n      dup3\n        /* \"#utility.yul\":4498:4504   */\n      dup3\n        /* \"#utility.yul\":4478:4511   */\n      tag_106\n      jump\t// in\n    tag_195:\n        /* \"#utility.yul\":4388:4517   */\n      swap2\n      swap1\n      pop\n      jump\t// out\n        /* \"#utility.yul\":4523:4831   */\n    tag_108:\n        /* \"#utility.yul\":4585:4589   */\n      0x00\n        /* \"#utility.yul\":4675:4693   */\n      0xffffffffffffffff\n        /* \"#utility.yul\":4667:4673   */\n      dup3\n        /* \"#utility.yul\":4664:4694   */\n      gt\n        /* \"#utility.yul\":4661:4717   */\n      iszero\n      tag_197\n      jumpi\n        /* \"#utility.yul\":4697:4715   */\n      tag_198\n      tag_105\n      jump\t// in\n    tag_198:\n        /* \"#utility.yul\":4661:4717   */\n    tag_197:\n        /* \"#utility.yul\":4735:4764   */\n      tag_199\n        /* \"#utility.yul\":4757:4763   */\n      dup3\n        /* \"#utility.yul\":4735:4764   */\n      tag_97\n      jump\t// in\n    tag_199:\n        /* \"#utility.yul\":4727:4764   */\n      swap1\n      pop\n        /* \"#utility.yul\":4819:4823   */\n      0x20\n        /* \"#utility.yul\":4813:4817   */\n      dup2\n        /* \"#utility.yul\":4809:4824   */\n      add\n        /* \"#utility.yul\":4801:4824   */\n      swap1\n      pop\n        /* \"#utility.yul\":4523:4831   */\n      swap2\n      swap1\n      pop\n      jump\t// out\n        /* \"#utility.yul\":4837:4985   */\n    tag_109:\n        /* \"#utility.yul\":4935:4941   */\n      dup3\n        /* \"#utility.yul\":4930:4933   */\n      dup2\n        /* \"#utility.yul\":4925:4928   */\n      dup4\n        /* \"#utility.yul\":4912:4942   */\n      calldatacopy\n        /* \"#utility.yul\":4976:4977   */\n      0x00\n        /* \"#utility.yul\":4967:4973   */\n      dup4\n        /* \"#utility.yul\":4962:4965   */\n      dup4\n        /* \"#utility.yul\":4958:4974   */\n      add\n        /* \"#utility.yul\":4951:4978   */\n      mstore\n        /* \"#utility.yul\":4837:4985   */\n      pop\n      pop\n      pop\n      jump\t// out\n        /* \"#utility.yul\":4991:5416   */\n    tag_110:\n        /* \"#utility.yul\":5069:5074   */\n      0x00\n        /* \"#utility.yul\":5094:5160   */\n      tag_202\n        /* \"#utility.yul\":5110:5159   */\n      tag_203\n        /* \"#utility.yul\":5152:5158   */\n      dup5\n        /* \"#utility.yul\":5110:5159   */\n      tag_108\n      jump\t// in\n    tag_203:\n        /* \"#utility.yul\":5094:5160   */\n      tag_107\n      jump\t// in\n    tag_202:\n        /* \"#utility.yul\":5085:5160   */\n      swap1\n      pop\n        /* \"#utility.yul\":5183:5189   */\n      dup3\n        /* \"#utility.yul\":5176:5181   */\n      dup2\n        /* \"#utility.yul\":5169:5190   */\n      mstore\n        /* \"#utility.yul\":5221:5225   */\n      0x20\n        /* \"#utility.yul\":5214:5219   */\n      dup2\n        /* \"#utility.yul\":5210:5226   */\n      add\n        /* \"#utility.yul\":5259:5262   */\n      dup5\n        /* \"#utility.yul\":5250:5256   */\n      dup5\n        /* \"#utility.yul\":5245:5248   */\n      dup5\n        /* \"#utility.yul\":5241:5257   */\n      add\n        /* \"#utility.yul\":5238:5263   */\n      gt\n        /* \"#utility.yul\":5235:5347   */\n      iszero\n      tag_204\n      jumpi\n        /* \"#utility.yul\":5266:5345   */\n      tag_205\n      tag_104\n      jump\t// in\n    tag_205:\n        /* \"#utility.yul\":5235:5347   */\n    tag_204:\n        /* \"#utility.yul\":5356:5410   */\n      tag_206\n        /* \"#utility.yul\":5403:5409   */\n      dup5\n        /* \"#utility.yul\":5398:5401   */\n      dup3\n        /* \"#utility.yul\":5393:5396   */\n      dup6\n        /* \"#utility.yul\":5356:5410   */\n      tag_109\n      jump\t// in\n    tag_206:\n        /* \"#utility.yul\":5075:5416   */\n      pop\n        /* \"#utility.yul\":4991:5416   */\n      swap4\n      swap3\n      pop\n      pop\n      pop\n      jump\t// out\n        /* \"#utility.yul\":5436:5776   */\n    tag_111:\n        /* \"#utility.yul\":5492:5497   */\n      0x00\n        /* \"#utility.yul\":5541:5544   */\n      dup3\n        /* \"#utility.yul\":5534:5538   */\n      0x1f\n        /* \"#utility.yul\":5526:5532   */\n      dup4\n        /* \"#utility.yul\":5522:5539   */\n      add\n        /* \"#utility.yul\":5518:5545   */\n      slt\n        /* \"#utility.yul\":5508:5630   */\n      tag_208\n      jumpi\n        /* \"#utility.yul\":5549:5628   */\n      tag_209\n      tag_103\n      jump\t// in\n    tag_209:\n        /* \"#utility.yul\":5508:5630   */\n    tag_208:\n        /* \"#utility.yul\":5666:5672   */\n      dup2\n        /* \"#utility.yul\":5653:5673   */\n      calldataload\n        /* \"#utility.yul\":5691:5770   */\n      tag_210\n        /* \"#utility.yul\":5766:5769   */\n      dup5\n        /* \"#utility.yul\":5758:5764   */\n      dup3\n        /* \"#utility.yul\":5751:5755   */\n      0x20\n        /* \"#utility.yul\":5743:5749   */\n      dup7\n        /* \"#utility.yul\":5739:5756   */\n      add\n        /* \"#utility.yul\":5691:5770   */\n      tag_110\n      jump\t// in\n    tag_210:\n        /* \"#utility.yul\":5682:5770   */\n      swap2\n      pop\n        /* \"#utility.yul\":5498:5776   */\n      pop\n        /* \"#utility.yul\":5436:5776   */\n      swap3\n      swap2\n      pop\n      pop\n      jump\t// out\n        /* \"#utility.yul\":5782:6581   */\n    tag_25:\n        /* \"#utility.yul\":5869:5875   */\n      0x00\n        /* \"#utility.yul\":5877:5883   */\n      dup1\n        /* \"#utility.yul\":5885:5891   */\n      0x00\n        /* \"#utility.yul\":5934:5936   */\n      0x60\n        /* \"#utility.yul\":5922:5931   */\n      dup5\n        /* \"#utility.yul\":5913:5920   */\n      dup7\n        /* \"#utility.yul\":5909:5932   */\n      sub\n        /* \"#utility.yul\":5905:5937   */\n      slt\n        /* \"#utility.yul\":5902:6021   */\n      iszero\n      tag_212\n      jumpi\n        /* \"#utility.yul\":5940:6019   */\n      tag_213\n      tag_89\n      jump\t// in\n    tag_213:\n        /* \"#utility.yul\":5902:6021   */\n    tag_212:\n        /* \"#utility.yul\":6060:6061   */\n      0x00\n        /* \"#utility.yul\":6085:6138   */\n      tag_214\n        /* \"#utility.yul\":6130:6137   */\n      dup7\n        /* \"#utility.yul\":6121:6127   */\n      dup3\n        /* \"#utility.yul\":6110:6119   */\n      dup8\n        /* \"#utility.yul\":6106:6128   */\n      add\n        /* \"#utility.yul\":6085:6138   */\n      tag_93\n      jump\t// in\n    tag_214:\n        /* \"#utility.yul\":6075:6138   */\n      swap4\n      pop\n        /* \"#utility.yul\":6031:6148   */\n      pop\n        /* \"#utility.yul\":6187:6189   */\n      0x20\n        /* \"#utility.yul\":6213:6266   */\n      tag_215\n        /* \"#utility.yul\":6258:6265   */\n      dup7\n        /* \"#utility.yul\":6249:6255   */\n      dup3\n        /* \"#utility.yul\":6238:6247   */\n      dup8\n        /* \"#utility.yul\":6234:6256   */\n      add\n        /* \"#utility.yul\":6213:6266   */\n      tag_93\n      jump\t// in\n    tag_215:\n        /* \"#utility.yul\":6203:6266   */\n      swap3\n      pop\n        /* \"#utility.yul\":6158:6276   */\n      pop\n        /* \"#utility.yul\":6343:6345   */\n      0x40\n        /* \"#utility.yul\":6332:6341   */\n      dup5\n        /* \"#utility.yul\":6328:6346   */\n      add\n        /* \"#utility.yul\":6315:6347   */\n      calldataload\n        /* \"#utility.yul\":6374:6392   */\n      0xffffffffffffffff\n        /* \"#utility.yul\":6366:6372   */\n      dup2\n        /* \"#utility.yul\":6363:6393   */\n      gt\n        /* \"#utility.yul\":6360:6477   */\n      iszero\n      tag_216\n      jumpi\n        /* \"#utility.yul\":6396:6475   */\n      tag_217\n      tag_90\n      jump\t// in\n    tag_217:\n        /* \"#utility.yul\":6360:6477   */\n    tag_216:\n        /* \"#utility.yul\":6501:6564   */\n      tag_218\n        /* \"#utility.yul\":6556:6563   */\n      dup7\n        /* \"#utility.yul\":6547:6553   */\n      dup3\n        /* \"#utility.yul\":6536:6545   */\n      dup8\n        /* \"#utility.yul\":6532:6554   */\n      add\n        /* \"#utility.yul\":6501:6564   */\n      tag_111\n      jump\t// in\n    tag_218:\n        /* \"#utility.yul\":6491:6564   */\n      swap2\n      pop\n        /* \"#utility.yul\":6286:6574   */\n      pop\n        /* \"#utility.yul\":5782:6581   */\n      swap3\n      pop\n      swap3\n      pop\n      swap3\n      jump\t// out\n        /* \"#utility.yul\":6587:6704   */\n    tag_112:\n        /* \"#utility.yul\":6696:6697   */\n      0x00\n        /* \"#utility.yul\":6693:6694   */\n      dup1\n        /* \"#utility.yul\":6686:6698   */\n      revert\n        /* \"#utility.yul\":6710:6827   */\n    tag_113:\n        /* \"#utility.yul\":6819:6820   */\n      0x00\n        /* \"#utility.yul\":6816:6817   */\n      dup1\n        /* \"#utility.yul\":6809:6821   */\n      revert\n        /* \"#utility.yul\":6847:7400   */\n    tag_114:\n        /* \"#utility.yul\":6905:6913   */\n      0x00\n        /* \"#utility.yul\":6915:6921   */\n      dup1\n        /* \"#utility.yul\":6965:6968   */\n      dup4\n        /* \"#utility.yul\":6958:6962   */\n      0x1f\n        /* \"#utility.yul\":6950:6956   */\n      dup5\n        /* \"#utility.yul\":6946:6963   */\n      add\n        /* \"#utility.yul\":6942:6969   */\n      slt\n        /* \"#utility.yul\":6932:7054   */\n      tag_222\n      jumpi\n        /* \"#utility.yul\":6973:7052   */\n      tag_223\n      tag_103\n      jump\t// in\n    tag_223:\n        /* \"#utility.yul\":6932:7054   */\n    tag_222:\n        /* \"#utility.yul\":7086:7092   */\n      dup3\n        /* \"#utility.yul\":7073:7093   */\n      calldataload\n        /* \"#utility.yul\":7063:7093   */\n      swap1\n      pop\n        /* \"#utility.yul\":7116:7134   */\n      0xffffffffffffffff\n        /* \"#utility.yul\":7108:7114   */\n      dup2\n        /* \"#utility.yul\":7105:7135   */\n      gt\n        /* \"#utility.yul\":7102:7219   */\n      iszero\n      tag_224\n      jumpi\n        /* \"#utility.yul\":7138:7217   */\n      tag_225\n      tag_112\n      jump\t// in\n    tag_225:\n        /* \"#utility.yul\":7102:7219   */\n    tag_224:\n        /* \"#utility.yul\":7252:7256   */\n      0x20\n        /* \"#utility.yul\":7244:7250   */\n      dup4\n        /* \"#utility.yul\":7240:7257   */\n      add\n        /* \"#utility.yul\":7228:7257   */\n      swap2\n      pop\n        /* \"#utility.yul\":7306:7309   */\n      dup4\n        /* \"#utility.yul\":7298:7302   */\n      0x01\n        /* \"#utility.yul\":7290:7296   */\n      dup3\n        /* \"#utility.yul\":7286:7303   */\n      mul\n        /* \"#utility.yul\":7276:7284   */\n      dup4\n        /* \"#utility.yul\":7272:7304   */\n      add\n        /* \"#utility.yul\":7269:7310   */\n      gt\n        /* \"#utility.yul\":7266:7394   */\n      iszero\n      tag_226\n      jumpi\n        /* \"#utility.yul\":7313:7392   */\n      tag_227\n      tag_113\n      jump\t// in\n    tag_227:\n        /* \"#utility.yul\":7266:7394   */\n    tag_226:\n        /* \"#utility.yul\":6847:7400   */\n      swap3\n      pop\n      swap3\n      swap1\n      pop\n      jump\t// out\n        /* \"#utility.yul\":7406:7935   */\n    tag_29:\n        /* \"#utility.yul\":7477:7483   */\n      0x00\n        /* \"#utility.yul\":7485:7491   */\n      dup1\n        /* \"#utility.yul\":7534:7536   */\n      0x20\n        /* \"#utility.yul\":7522:7531   */\n      dup4\n        /* \"#utility.yul\":7513:7520   */\n      dup6\n        /* \"#utility.yul\":7509:7532   */\n      sub\n        /* \"#utility.yul\":7505:7537   */\n      slt\n        /* \"#utility.yul\":7502:7621   */\n      iszero\n      tag_229\n      jumpi\n        /* \"#utility.yul\":7540:7619   */\n      tag_230\n      tag_89\n      jump\t// in\n    tag_230:\n        /* \"#utility.yul\":7502:7621   */\n    tag_229:\n        /* \"#utility.yul\":7688:7689   */\n      0x00\n        /* \"#utility.yul\":7677:7686   */\n      dup4\n        /* \"#utility.yul\":7673:7690   */\n      add\n        /* \"#utility.yul\":7660:7691   */\n      calldataload\n        /* \"#utility.yul\":7718:7736   */\n      0xffffffffffffffff\n        /* \"#utility.yul\":7710:7716   */\n      dup2\n        /* \"#utility.yul\":7707:7737   */\n      gt\n        /* \"#utility.yul\":7704:7821   */\n      iszero\n      tag_231\n      jumpi\n        /* \"#utility.yul\":7740:7819   */\n      tag_232\n      tag_90\n      jump\t// in\n    tag_232:\n        /* \"#utility.yul\":7704:7821   */\n    tag_231:\n        /* \"#utility.yul\":7853:7918   */\n      tag_233\n        /* \"#utility.yul\":7910:7917   */\n      dup6\n        /* \"#utility.yul\":7901:7907   */\n      dup3\n        /* \"#utility.yul\":7890:7899   */\n      dup7\n        /* \"#utility.yul\":7886:7908   */\n      add\n        /* \"#utility.yul\":7853:7918   */\n      tag_114\n      jump\t// in\n    tag_233:\n        /* \"#utility.yul\":7835:7918   */\n      swap3\n      pop\n      swap3\n      pop\n        /* \"#utility.yul\":7631:7928   */\n      pop\n        /* \"#utility.yul\":7406:7935   */\n      swap3\n      pop\n      swap3\n      swap1\n      pop\n      jump\t// out\n        /* \"#utility.yul\":7941:8163   */\n    tag_33:\n        /* \"#utility.yul\":8034:8038   */\n      0x00\n        /* \"#utility.yul\":8072:8074   */\n      0x20\n        /* \"#utility.yul\":8061:8070   */\n      dup3\n        /* \"#utility.yul\":8057:8075   */\n      add\n        /* \"#utility.yul\":8049:8075   */\n      swap1\n      pop\n        /* \"#utility.yul\":8085:8156   */\n      tag_235\n        /* \"#utility.yul\":8153:8154   */\n      0x00\n        /* \"#utility.yul\":8142:8151   */\n      dup4\n        /* \"#utility.yul\":8138:8155   */\n      add\n        /* \"#utility.yul\":8129:8135   */\n      dup5\n        /* \"#utility.yul\":8085:8156   */\n      tag_99\n      jump\t// in\n    tag_235:\n        /* \"#utility.yul\":7941:8163   */\n      swap3\n      swap2\n      pop\n      pop\n      jump\t// out\n        /* \"#utility.yul\":8169:8259   */\n    tag_115:\n        /* \"#utility.yul\":8203:8210   */\n      0x00\n        /* \"#utility.yul\":8246:8251   */\n      dup2\n        /* \"#utility.yul\":8239:8252   */\n      iszero\n        /* \"#utility.yul\":8232:8253   */\n      iszero\n        /* \"#utility.yul\":8221:8253   */\n      swap1\n      pop\n        /* \"#utility.yul\":8169:8259   */\n      swap2\n      swap1\n      pop\n      jump\t// out\n        /* \"#utility.yul\":8265:8381   */\n    tag_116:\n        /* \"#utility.yul\":8335:8356   */\n      tag_238\n        /* \"#utility.yul\":8350:8355   */\n      dup2\n        /* \"#utility.yul\":8335:8356   */\n      tag_115\n      jump\t// in\n    tag_238:\n        /* \"#utility.yul\":8328:8333   */\n      dup2\n        /* \"#utility.yul\":8325:8357   */\n      eq\n        /* \"#utility.yul\":8315:8375   */\n      tag_239\n      jumpi\n        /* \"#utility.yul\":8371:8372   */\n      0x00\n        /* \"#utility.yul\":8368:8369   */\n      dup1\n        /* \"#utility.yul\":8361:8373   */\n      revert\n        /* \"#utility.yul\":8315:8375   */\n    tag_239:\n        /* \"#utility.yul\":8265:8381   */\n      pop\n      jump\t// out\n        /* \"#utility.yul\":8387:8524   */\n    tag_117:\n        /* \"#utility.yul\":8441:8446   */\n      0x00\n        /* \"#utility.yul\":8472:8478   */\n      dup2\n        /* \"#utility.yul\":8466:8479   */\n      mload\n        /* \"#utility.yul\":8457:8479   */\n      swap1\n      pop\n        /* \"#utility.yul\":8488:8518   */\n      tag_241\n        /* \"#utility.yul\":8512:8517   */\n      dup2\n        /* \"#utility.yul\":8488:8518   */\n      tag_116\n      jump\t// in\n    tag_241:\n        /* \"#utility.yul\":8387:8524   */\n      swap3\n      swap2\n      pop\n      pop\n      jump\t// out\n        /* \"#utility.yul\":8530:8673   */\n    tag_118:\n        /* \"#utility.yul\":8587:8592   */\n      0x00\n        /* \"#utility.yul\":8618:8624   */\n      dup2\n        /* \"#utility.yul\":8612:8625   */\n      mload\n        /* \"#utility.yul\":8603:8625   */\n      swap1\n      pop\n        /* \"#utility.yul\":8634:8667   */\n      tag_243\n        /* \"#utility.yul\":8661:8666   */\n      dup2\n        /* \"#utility.yul\":8634:8667   */\n      tag_92\n      jump\t// in\n    tag_243:\n        /* \"#utility.yul\":8530:8673   */\n      swap3\n      swap2\n      pop\n      pop\n      jump\t// out\n        /* \"#utility.yul\":8679:10429   */\n    tag_37:\n        /* \"#utility.yul\":8824:8830   */\n      0x00\n        /* \"#utility.yul\":8832:8838   */\n      dup1\n        /* \"#utility.yul\":8840:8846   */\n      0x00\n        /* \"#utility.yul\":8848:8854   */\n      dup1\n        /* \"#utility.yul\":8856:8862   */\n      0x00\n        /* \"#utility.yul\":8864:8870   */\n      dup1\n        /* \"#utility.yul\":8872:8878   */\n      0x00\n        /* \"#utility.yul\":8880:8886   */\n      dup1\n        /* \"#utility.yul\":8888:8894   */\n      0x00\n        /* \"#utility.yul\":8896:8902   */\n      dup1\n        /* \"#utility.yul\":8945:8948   */\n      0x0140\n        /* \"#utility.yul\":8933:8942   */\n      dup12\n        /* \"#utility.yul\":8924:8931   */\n      dup14\n        /* \"#utility.yul\":8920:8943   */\n      sub\n        /* \"#utility.yul\":8916:8949   */\n      slt\n        /* \"#utility.yul\":8913:9033   */\n      iszero\n      tag_245\n      jumpi\n        /* \"#utility.yul\":8952:9031   */\n      tag_246\n      tag_89\n      jump\t// in\n    tag_246:\n        /* \"#utility.yul\":8913:9033   */\n    tag_245:\n        /* \"#utility.yul\":9072:9073   */\n      0x00\n        /* \"#utility.yul\":9097:9158   */\n      tag_247\n        /* \"#utility.yul\":9150:9157   */\n      dup14\n        /* \"#utility.yul\":9141:9147   */\n      dup3\n        /* \"#utility.yul\":9130:9139   */\n      dup15\n        /* \"#utility.yul\":9126:9148   */\n      add\n        /* \"#utility.yul\":9097:9158   */\n      tag_117\n      jump\t// in\n    tag_247:\n        /* \"#utility.yul\":9087:9158   */\n      swap11\n      pop\n        /* \"#utility.yul\":9043:9168   */\n      pop\n        /* \"#utility.yul\":9207:9209   */\n      0x20\n        /* \"#utility.yul\":9233:9294   */\n      tag_248\n        /* \"#utility.yul\":9286:9293   */\n      dup14\n        /* \"#utility.yul\":9277:9283   */\n      dup3\n        /* \"#utility.yul\":9266:9275   */\n      dup15\n        /* \"#utility.yul\":9262:9284   */\n      add\n        /* \"#utility.yul\":9233:9294   */\n      tag_117\n      jump\t// in\n    tag_248:\n        /* \"#utility.yul\":9223:9294   */\n      swap10\n      pop\n        /* \"#utility.yul\":9178:9304   */\n      pop\n        /* \"#utility.yul\":9343:9345   */\n      0x40\n        /* \"#utility.yul\":9369:9433   */\n      tag_249\n        /* \"#utility.yul\":9425:9432   */\n      dup14\n        /* \"#utility.yul\":9416:9422   */\n      dup3\n        /* \"#utility.yul\":9405:9414   */\n      dup15\n        /* \"#utility.yul\":9401:9423   */\n      add\n        /* \"#utility.yul\":9369:9433   */\n      tag_118\n      jump\t// in\n    tag_249:\n        /* \"#utility.yul\":9359:9433   */\n      swap9\n      pop\n        /* \"#utility.yul\":9314:9443   */\n      pop\n        /* \"#utility.yul\":9482:9484   */\n      0x60\n        /* \"#utility.yul\":9508:9572   */\n      tag_250\n        /* \"#utility.yul\":9564:9571   */\n      dup14\n        /* \"#utility.yul\":9555:9561   */\n      dup3\n        /* \"#utility.yul\":9544:9553   */\n      dup15\n        /* \"#utility.yul\":9540:9562   */\n      add\n        /* \"#utility.yul\":9508:9572   */\n      tag_118\n      jump\t// in\n    tag_250:\n        /* \"#utility.yul\":9498:9572   */\n      swap8\n      pop\n        /* \"#utility.yul\":9453:9582   */\n      pop\n        /* \"#utility.yul\":9621:9624   */\n      0x80\n        /* \"#utility.yul\":9648:9712   */\n      tag_251\n        /* \"#utility.yul\":9704:9711   */\n      dup14\n        /* \"#utility.yul\":9695:9701   */\n      dup3\n        /* \"#utility.yul\":9684:9693   */\n      dup15\n        /* \"#utility.yul\":9680:9702   */\n      add\n        /* \"#utility.yul\":9648:9712   */\n      tag_118\n      jump\t// in\n    tag_251:\n        /* \"#utility.yul\":9638:9712   */\n      swap7\n      pop\n        /* \"#utility.yul\":9592:9722   */\n      pop\n        /* \"#utility.yul\":9761:9764   */\n      0xa0\n        /* \"#utility.yul\":9788:9852   */\n      tag_252\n        /* \"#utility.yul\":9844:9851   */\n      dup14\n        /* \"#utility.yul\":9835:9841   */\n      dup3\n        /* \"#utility.yul\":9824:9833   */\n      dup15\n        /* \"#utility.yul\":9820:9842   */\n      add\n        /* \"#utility.yul\":9788:9852   */\n      tag_118\n      jump\t// in\n    tag_252:\n        /* \"#utility.yul\":9778:9852   */\n      swap6\n      pop\n        /* \"#utility.yul\":9732:9862   */\n      pop\n        /* \"#utility.yul\":9901:9904   */\n      0xc0\n        /* \"#utility.yul\":9928:9992   */\n      tag_253\n        /* \"#utility.yul\":9984:9991   */\n      dup14\n        /* \"#utility.yul\":9975:9981   */\n      dup3\n        /* \"#utility.yul\":9964:9973   */\n      dup15\n        /* \"#utility.yul\":9960:9982   */\n      add\n        /* \"#utility.yul\":9928:9992   */\n      tag_118\n      jump\t// in\n    tag_253:\n        /* \"#utility.yul\":9918:9992   */\n      swap5\n      pop\n        /* \"#utility.yul\":9872:10002   */\n      pop\n        /* \"#utility.yul\":10041:10044   */\n      0xe0\n        /* \"#utility.yul\":10068:10132   */\n      tag_254\n        /* \"#utility.yul\":10124:10131   */\n      dup14\n        /* \"#utility.yul\":10115:10121   */\n      dup3\n        /* \"#utility.yul\":10104:10113   */\n      dup15\n        /* \"#utility.yul\":10100:10122   */\n      add\n        /* \"#utility.yul\":10068:10132   */\n      tag_118\n      jump\t// in\n    tag_254:\n        /* \"#utility.yul\":10058:10132   */\n      swap4\n      pop\n        /* \"#utility.yul\":10012:10142   */\n      pop\n        /* \"#utility.yul\":10181:10184   */\n      0x0100\n        /* \"#utility.yul\":10208:10272   */\n      tag_255\n        /* \"#utility.yul\":10264:10271   */\n      dup14\n        /* \"#utility.yul\":10255:10261   */\n      dup3\n        /* \"#utility.yul\":10244:10253   */\n      dup15\n        /* \"#utility.yul\":10240:10262   */\n      add\n        /* \"#utility.yul\":10208:10272   */\n      tag_118\n      jump\t// in\n    tag_255:\n        /* \"#utility.yul\":10198:10272   */\n      swap3\n      pop\n        /* \"#utility.yul\":10152:10282   */\n      pop\n        /* \"#utility.yul\":10321:10324   */\n      0x0120\n        /* \"#utility.yul\":10348:10412   */\n      tag_256\n        /* \"#utility.yul\":10404:10411   */\n      dup14\n        /* \"#utility.yul\":10395:10401   */\n      dup3\n        /* \"#utility.yul\":10384:10393   */\n      dup15\n        /* \"#utility.yul\":10380:10402   */\n      add\n        /* \"#utility.yul\":10348:10412   */\n      tag_118\n      jump\t// in\n    tag_256:\n        /* \"#utility.yul\":10338:10412   */\n      swap2\n      pop\n        /* \"#utility.yul\":10292:10422   */\n      pop\n        /* \"#utility.yul\":8679:10429   */\n      swap3\n      swap6\n      swap9\n      swap12\n      swap2\n      swap5\n      swap8\n      swap11\n      pop\n      swap3\n      swap6\n      swap9\n      pop\n      jump\t// out\n        /* \"#utility.yul\":10435:10615   */\n    tag_119:\n        /* \"#utility.yul\":10483:10560   */\n      0x4e487b7100000000000000000000000000000000000000000000000000000000\n        /* \"#utility.yul\":10480:10481   */\n      0x00\n        /* \"#utility.yul\":10473:10561   */\n      mstore\n        /* \"#utility.yul\":10580:10584   */\n      0x22\n        /* \"#utility.yul\":10577:10578   */\n      0x04\n        /* \"#utility.yul\":10570:10585   */\n      mstore\n        /* \"#utility.yul\":10604:10608   */\n      0x24\n        /* \"#utility.yul\":10601:10602   */\n      0x00\n        /* \"#utility.yul\":10594:10609   */\n      revert\n        /* \"#utility.yul\":10621:10941   */\n    tag_42:\n        /* \"#utility.yul\":10665:10671   */\n      0x00\n        /* \"#utility.yul\":10702:10703   */\n      0x02\n        /* \"#utility.yul\":10696:10700   */\n      dup3\n        /* \"#utility.yul\":10692:10704   */\n      div\n        /* \"#utility.yul\":10682:10704   */\n      swap1\n      pop\n        /* \"#utility.yul\":10749:10750   */\n      0x01\n        /* \"#utility.yul\":10743:10747   */\n      dup3\n        /* \"#utility.yul\":10739:10751   */\n      and\n        /* \"#utility.yul\":10770:10788   */\n      dup1\n        /* \"#utility.yul\":10760:10841   */\n      tag_259\n      jumpi\n        /* \"#utility.yul\":10826:10830   */\n      0x7f\n        /* \"#utility.yul\":10818:10824   */\n      dup3\n        /* \"#utility.yul\":10814:10831   */\n      and\n        /* \"#utility.yul\":10804:10831   */\n      swap2\n      pop\n        /* \"#utility.yul\":10760:10841   */\n    tag_259:\n        /* \"#utility.yul\":10888:10890   */\n      0x20\n        /* \"#utility.yul\":10880:10886   */\n      dup3\n        /* \"#utility.yul\":10877:10891   */\n      lt\n        /* \"#utility.yul\":10857:10875   */\n      dup2\n        /* \"#utility.yul\":10854:10892   */\n      sub\n        /* \"#utility.yul\":10851:10935   */\n      tag_260\n      jumpi\n        /* \"#utility.yul\":10907:10925   */\n      tag_261\n      tag_119\n      jump\t// in\n    tag_261:\n        /* \"#utility.yul\":10851:10935   */\n    tag_260:\n        /* \"#utility.yul\":10672:10941   */\n      pop\n        /* \"#utility.yul\":10621:10941   */\n      swap2\n      swap1\n      pop\n      jump\t// out\n        /* \"#utility.yul\":10947:11127   */\n    tag_51:\n        /* \"#utility.yul\":10995:11072   */\n      0x4e487b7100000000000000000000000000000000000000000000000000000000\n        /* \"#utility.yul\":10992:10993   */\n      0x00\n        /* \"#utility.yul\":10985:11073   */\n      mstore\n        /* \"#utility.yul\":11092:11096   */\n      0x32\n        /* \"#utility.yul\":11089:11090   */\n      0x04\n        /* \"#utility.yul\":11082:11097   */\n      mstore\n        /* \"#utility.yul\":11116:11120   */\n      0x24\n        /* \"#utility.yul\":11113:11114   */\n      0x00\n        /* \"#utility.yul\":11106:11121   */\n      revert\n        /* \"#utility.yul\":11133:11313   */\n    tag_120:\n        /* \"#utility.yul\":11181:11258   */\n      0x4e487b7100000000000000000000000000000000000000000000000000000000\n        /* \"#utility.yul\":11178:11179   */\n      0x00\n        /* \"#utility.yul\":11171:11259   */\n      mstore\n        /* \"#utility.yul\":11278:11282   */\n      0x12\n        /* \"#utility.yul\":11275:11276   */\n      0x04\n        /* \"#utility.yul\":11268:11283   */\n      mstore\n        /* \"#utility.yul\":11302:11306   */\n      0x24\n        /* \"#utility.yul\":11299:11300   */\n      0x00\n        /* \"#utility.yul\":11292:11307   */\n      revert\n        /* \"#utility.yul\":11319:11495   */\n    tag_54:\n        /* \"#utility.yul\":11351:11352   */\n      0x00\n        /* \"#utility.yul\":11368:11388   */\n      tag_265\n        /* \"#utility.yul\":11386:11387   */\n      dup3\n        /* \"#utility.yul\":11368:11388   */\n      tag_91\n      jump\t// in\n    tag_265:\n        /* \"#utility.yul\":11363:11388   */\n      swap2\n      pop\n        /* \"#utility.yul\":11402:11422   */\n      tag_266\n        /* \"#utility.yul\":11420:11421   */\n      dup4\n        /* \"#utility.yul\":11402:11422   */\n      tag_91\n      jump\t// in\n    tag_266:\n        /* \"#utility.yul\":11397:11422   */\n      swap3\n      pop\n        /* \"#utility.yul\":11441:11442   */\n      dup3\n        /* \"#utility.yul\":11431:11466   */\n      tag_267\n      jumpi\n        /* \"#utility.yul\":11446:11464   */\n      tag_268\n      tag_120\n      jump\t// in\n    tag_268:\n        /* \"#utility.yul\":11431:11466   */\n    tag_267:\n        /* \"#utility.yul\":11487:11488   */\n      dup3\n        /* \"#utility.yul\":11484:11485   */\n      dup3\n        /* \"#utility.yul\":11480:11489   */\n      mod\n        /* \"#utility.yul\":11475:11489   */\n      swap1\n      pop\n        /* \"#utility.yul\":11319:11495   */\n      swap3\n      swap2\n      pop\n      pop\n      jump\t// out\n        /* \"#utility.yul\":11501:11681   */\n    tag_121:\n        /* \"#utility.yul\":11549:11626   */\n      0x4e487b7100000000000000000000000000000000000000000000000000000000\n        /* \"#utility.yul\":11546:11547   */\n      0x00\n        /* \"#utility.yul\":11539:11627   */\n      mstore\n        /* \"#utility.yul\":11646:11650   */\n      0x11\n        /* \"#utility.yul\":11643:11644   */\n      0x04\n        /* \"#utility.yul\":11636:11651   */\n      mstore\n        /* \"#utility.yul\":11670:11674   */\n      0x24\n        /* \"#utility.yul\":11667:11668   */\n      0x00\n        /* \"#utility.yul\":11660:11675   */\n      revert\n        /* \"#utility.yul\":11687:11878   */\n    tag_56:\n        /* \"#utility.yul\":11727:11730   */\n      0x00\n        /* \"#utility.yul\":11746:11766   */\n      tag_271\n        /* \"#utility.yul\":11764:11765   */\n      dup3\n        /* \"#utility.yul\":11746:11766   */\n      tag_91\n      jump\t// in\n    tag_271:\n        /* \"#utility.yul\":11741:11766   */\n      swap2\n      pop\n        /* \"#utility.yul\":11780:11800   */\n      tag_272\n        /* \"#utility.yul\":11798:11799   */\n      dup4\n        /* \"#utility.yul\":11780:11800   */\n      tag_91\n      jump\t// in\n    tag_272:\n        /* \"#utility.yul\":11775:11800   */\n      swap3\n      pop\n        /* \"#utility.yul\":11823:11824   */\n      dup3\n        /* \"#utility.yul\":11820:11821   */\n      dup3\n        /* \"#utility.yul\":11816:11825   */\n      add\n        /* \"#utility.yul\":11809:11825   */\n      swap1\n      pop\n        /* \"#utility.yul\":11844:11847   */\n      dup1\n        /* \"#utility.yul\":11841:11842   */\n      dup3\n        /* \"#utility.yul\":11838:11848   */\n      gt\n        /* \"#utility.yul\":11835:11871   */\n      iszero\n      tag_273\n      jumpi\n        /* \"#utility.yul\":11851:11869   */\n      tag_274\n      tag_121\n      jump\t// in\n    tag_274:\n        /* \"#utility.yul\":11835:11871   */\n    tag_273:\n        /* \"#utility.yul\":11687:11878   */\n      swap3\n      swap2\n      pop\n      pop\n      jump\t// out\n        /* \"#utility.yul\":11884:12069   */\n    tag_58:\n        /* \"#utility.yul\":11924:11925   */\n      0x00\n        /* \"#utility.yul\":11941:11961   */\n      tag_276\n        /* \"#utility.yul\":11959:11960   */\n      dup3\n        /* \"#utility.yul\":11941:11961   */\n      tag_91\n      jump\t// in\n    tag_276:\n        /* \"#utility.yul\":11936:11961   */\n      swap2\n      pop\n        /* \"#utility.yul\":11975:11995   */\n      tag_277\n        /* \"#utility.yul\":11993:11994   */\n      dup4\n        /* \"#utility.yul\":11975:11995   */\n      tag_91\n      jump\t// in\n    tag_277:\n        /* \"#utility.yul\":11970:11995   */\n      swap3\n      pop\n        /* \"#utility.yul\":12014:12015   */\n      dup3\n        /* \"#utility.yul\":12004:12039   */\n      tag_278\n      jumpi\n        /* \"#utility.yul\":12019:12037   */\n      tag_279\n      tag_120\n      jump\t// in\n    tag_279:\n        /* \"#utility.yul\":12004:12039   */\n    tag_278:\n        /* \"#utility.yul\":12061:12062   */\n      dup3\n        /* \"#utility.yul\":12058:12059   */\n      dup3\n        /* \"#utility.yul\":12054:12063   */\n      div\n        /* \"#utility.yul\":12049:12063   */\n      swap1\n      pop\n        /* \"#utility.yul\":11884:12069   */\n      swap3\n      swap2\n      pop\n      pop\n      jump\t// out\n        /* \"#utility.yul\":12075:12269   */\n    tag_63:\n        /* \"#utility.yul\":12115:12119   */\n      0x00\n        /* \"#utility.yul\":12135:12155   */\n      tag_281\n        /* \"#utility.yul\":12153:12154   */\n      dup3\n        /* \"#utility.yul\":12135:12155   */\n      tag_91\n      jump\t// in\n    tag_281:\n        /* \"#utility.yul\":12130:12155   */\n      swap2\n      pop\n        /* \"#utility.yul\":12169:12189   */\n      tag_282\n        /* \"#utility.yul\":12187:12188   */\n      dup4\n        /* \"#utility.yul\":12169:12189   */\n      tag_91\n      jump\t// in\n    tag_282:\n        /* \"#utility.yul\":12164:12189   */\n      swap3\n      pop\n        /* \"#utility.yul\":12213:12214   */\n      dup3\n        /* \"#utility.yul\":12210:12211   */\n      dup3\n        /* \"#utility.yul\":12206:12215   */\n      sub\n        /* \"#utility.yul\":12198:12215   */\n      swap1\n      pop\n        /* \"#utility.yul\":12237:12238   */\n      dup2\n        /* \"#utility.yul\":12231:12235   */\n      dup2\n        /* \"#utility.yul\":12228:12239   */\n      gt\n        /* \"#utility.yul\":12225:12262   */\n      iszero\n      tag_283\n      jumpi\n        /* \"#utility.yul\":12242:12260   */\n      tag_284\n      tag_121\n      jump\t// in\n    tag_284:\n        /* \"#utility.yul\":12225:12262   */\n    tag_283:\n        /* \"#utility.yul\":12075:12269   */\n      swap3\n      swap2\n      pop\n      pop\n      jump\t// out\n        /* \"#utility.yul\":12275:12423   */\n    tag_122:\n        /* \"#utility.yul\":12377:12388   */\n      0x00\n        /* \"#utility.yul\":12414:12417   */\n      dup2\n        /* \"#utility.yul\":12399:12417   */\n      swap1\n      pop\n        /* \"#utility.yul\":12275:12423   */\n      swap3\n      swap2\n      pop\n      pop\n      jump\t// out\n        /* \"#utility.yul\":12429:12585   */\n    tag_123:\n        /* \"#utility.yul\":12569:12577   */\n      0x4e6f6e616d650000000000000000000000000000000000000000000000000000\n        /* \"#utility.yul\":12565:12566   */\n      0x00\n        /* \"#utility.yul\":12557:12563   */\n      dup3\n        /* \"#utility.yul\":12553:12567   */\n      add\n        /* \"#utility.yul\":12546:12578   */\n      mstore\n        /* \"#utility.yul\":12429:12585   */\n      pop\n      jump\t// out\n        /* \"#utility.yul\":12591:12991   */\n    tag_124:\n        /* \"#utility.yul\":12751:12754   */\n      0x00\n        /* \"#utility.yul\":12772:12856   */\n      tag_288\n        /* \"#utility.yul\":12854:12855   */\n      0x06\n        /* \"#utility.yul\":12849:12852   */\n      dup4\n        /* \"#utility.yul\":12772:12856   */\n      tag_122\n      jump\t// in\n    tag_288:\n        /* \"#utility.yul\":12765:12856   */\n      swap2\n      pop\n        /* \"#utility.yul\":12865:12958   */\n      tag_289\n        /* \"#utility.yul\":12954:12957   */\n      dup3\n        /* \"#utility.yul\":12865:12958   */\n      tag_123\n      jump\t// in\n    tag_289:\n        /* \"#utility.yul\":12983:12984   */\n      0x06\n        /* \"#utility.yul\":12978:12981   */\n      dup3\n        /* \"#utility.yul\":12974:12985   */\n      add\n        /* \"#utility.yul\":12967:12985   */\n      swap1\n      pop\n        /* \"#utility.yul\":12591:12991   */\n      swap2\n      swap1\n      pop\n      jump\t// out\n        /* \"#utility.yul\":12997:13378   */\n    tag_65:\n        /* \"#utility.yul\":13182:13185   */\n      0x00\n        /* \"#utility.yul\":13204:13352   */\n      tag_291\n        /* \"#utility.yul\":13348:13351   */\n      dup3\n        /* \"#utility.yul\":13204:13352   */\n      tag_124\n      jump\t// in\n    tag_291:\n        /* \"#utility.yul\":13197:13352   */\n      swap2\n      pop\n        /* \"#utility.yul\":13369:13372   */\n      dup2\n        /* \"#utility.yul\":13362:13372   */\n      swap1\n      pop\n        /* \"#utility.yul\":12997:13378   */\n      swap2\n      swap1\n      pop\n      jump\t// out\n        /* \"#utility.yul\":13384:13539   */\n    tag_125:\n        /* \"#utility.yul\":13524:13531   */\n      0x4552524f52000000000000000000000000000000000000000000000000000000\n        /* \"#utility.yul\":13520:13521   */\n      0x00\n        /* \"#utility.yul\":13512:13518   */\n      dup3\n        /* \"#utility.yul\":13508:13522   */\n      add\n        /* \"#utility.yul\":13501:13532   */\n      mstore\n        /* \"#utility.yul\":13384:13539   */\n      pop\n      jump\t// out\n        /* \"#utility.yul\":13545:13910   */\n    tag_126:\n        /* \"#utility.yul\":13687:13690   */\n      0x00\n        /* \"#utility.yul\":13708:13774   */\n      tag_294\n        /* \"#utility.yul\":13772:13773   */\n      0x05\n        /* \"#utility.yul\":13767:13770   */\n      dup4\n        /* \"#utility.yul\":13708:13774   */\n      tag_95\n      jump\t// in\n    tag_294:\n        /* \"#utility.yul\":13701:13774   */\n      swap2\n      pop\n        /* \"#utility.yul\":13783:13876   */\n      tag_295\n        /* \"#utility.yul\":13872:13875   */\n      dup3\n        /* \"#utility.yul\":13783:13876   */\n      tag_125\n      jump\t// in\n    tag_295:\n        /* \"#utility.yul\":13901:13903   */\n      0x20\n        /* \"#utility.yul\":13896:13899   */\n      dup3\n        /* \"#utility.yul\":13892:13904   */\n      add\n        /* \"#utility.yul\":13885:13904   */\n      swap1\n      pop\n        /* \"#utility.yul\":13545:13910   */\n      swap2\n      swap1\n      pop\n      jump\t// out\n        /* \"#utility.yul\":13916:14335   */\n    tag_71:\n        /* \"#utility.yul\":14082:14086   */\n      0x00\n        /* \"#utility.yul\":14120:14122   */\n      0x20\n        /* \"#utility.yul\":14109:14118   */\n      dup3\n        /* \"#utility.yul\":14105:14123   */\n      add\n        /* \"#utility.yul\":14097:14123   */\n      swap1\n      pop\n        /* \"#utility.yul\":14169:14178   */\n      dup2\n        /* \"#utility.yul\":14163:14167   */\n      dup2\n        /* \"#utility.yul\":14159:14179   */\n      sub\n        /* \"#utility.yul\":14155:14156   */\n      0x00\n        /* \"#utility.yul\":14144:14153   */\n      dup4\n        /* \"#utility.yul\":14140:14157   */\n      add\n        /* \"#utility.yul\":14133:14180   */\n      mstore\n        /* \"#utility.yul\":14197:14328   */\n      tag_297\n        /* \"#utility.yul\":14323:14327   */\n      dup2\n        /* \"#utility.yul\":14197:14328   */\n      tag_126\n      jump\t// in\n    tag_297:\n        /* \"#utility.yul\":14189:14328   */\n      swap1\n      pop\n        /* \"#utility.yul\":13916:14335   */\n      swap2\n      swap1\n      pop\n      jump\t// out\n        /* \"#utility.yul\":14341:14482   */\n    tag_127:\n        /* \"#utility.yul\":14390:14394   */\n      0x00\n        /* \"#utility.yul\":14413:14416   */\n      dup2\n        /* \"#utility.yul\":14405:14416   */\n      swap1\n      pop\n        /* \"#utility.yul\":14436:14439   */\n      dup2\n        /* \"#utility.yul\":14433:14434   */\n      0x00\n        /* \"#utility.yul\":14426:14440   */\n      mstore\n        /* \"#utility.yul\":14470:14474   */\n      0x20\n        /* \"#utility.yul\":14467:14468   */\n      0x00\n        /* \"#utility.yul\":14457:14475   */\n      keccak256\n        /* \"#utility.yul\":14449:14475   */\n      swap1\n      pop\n        /* \"#utility.yul\":14341:14482   */\n      swap2\n      swap1\n      pop\n      jump\t// out\n        /* \"#utility.yul\":14488:14581   */\n    tag_128:\n        /* \"#utility.yul\":14525:14531   */\n      0x00\n        /* \"#utility.yul\":14572:14574   */\n      0x20\n        /* \"#utility.yul\":14567:14569   */\n      0x1f\n        /* \"#utility.yul\":14560:14565   */\n      dup4\n        /* \"#utility.yul\":14556:14570   */\n      add\n        /* \"#utility.yul\":14552:14575   */\n      div\n        /* \"#utility.yul\":14542:14575   */\n      swap1\n      pop\n        /* \"#utility.yul\":14488:14581   */\n      swap2\n      swap1\n      pop\n      jump\t// out\n        /* \"#utility.yul\":14587:14694   */\n    tag_129:\n        /* \"#utility.yul\":14631:14639   */\n      0x00\n        /* \"#utility.yul\":14681:14686   */\n      dup3\n        /* \"#utility.yul\":14675:14679   */\n      dup3\n        /* \"#utility.yul\":14671:14687   */\n      shl\n        /* \"#utility.yul\":14650:14687   */\n      swap1\n      pop\n        /* \"#utility.yul\":14587:14694   */\n      swap3\n      swap2\n      pop\n      pop\n      jump\t// out\n        /* \"#utility.yul\":14700:15093   */\n    tag_130:\n        /* \"#utility.yul\":14769:14775   */\n      0x00\n        /* \"#utility.yul\":14819:14820   */\n      0x08\n        /* \"#utility.yul\":14807:14817   */\n      dup4\n        /* \"#utility.yul\":14803:14821   */\n      mul\n        /* \"#utility.yul\":14842:14939   */\n      tag_302\n        /* \"#utility.yul\":14872:14938   */\n      0xffffffffffffffffffffffffffffffffffffffffffffffffffffffffffffffff\n        /* \"#utility.yul\":14861:14870   */\n      dup3\n        /* \"#utility.yul\":14842:14939   */\n      tag_129\n      jump\t// in\n    tag_302:\n        /* \"#utility.yul\":14960:14999   */\n      tag_303\n        /* \"#utility.yul\":14990:14998   */\n      dup7\n        /* \"#utility.yul\":14979:14988   */\n      dup4\n        /* \"#utility.yul\":14960:14999   */\n      tag_129\n      jump\t// in\n    tag_303:\n        /* \"#utility.yul\":14948:14999   */\n      swap6\n      pop\n        /* \"#utility.yul\":15032:15036   */\n      dup1\n        /* \"#utility.yul\":15028:15037   */\n      not\n        /* \"#utility.yul\":15021:15026   */\n      dup5\n        /* \"#utility.yul\":15017:15038   */\n      and\n        /* \"#utility.yul\":15008:15038   */\n      swap4\n      pop\n        /* \"#utility.yul\":15081:15085   */\n      dup1\n        /* \"#utility.yul\":15071:15079   */\n      dup7\n        /* \"#utility.yul\":15067:15086   */\n      and\n        /* \"#utility.yul\":15060:15065   */\n      dup5\n        /* \"#utility.yul\":15057:15087   */\n      or\n        /* \"#utility.yul\":15047:15087   */\n      swap3\n      pop\n        /* \"#utility.yul\":14776:15093   */\n      pop\n      pop\n        /* \"#utility.yul\":14700:15093   */\n      swap4\n      swap3\n      pop\n      pop\n      pop\n      jump\t// out\n        /* \"#utility.yul\":15099:15159   */\n    tag_131:\n        /* \"#utility.yul\":15127:15130   */\n      0x00\n        /* \"#utility.yul\":15148:15153   */\n      dup2\n        /* \"#utility.yul\":15141:15153   */\n      swap1\n      pop\n        /* \"#utility.yul\":15099:15159   */\n      swap2\n      swap1\n      pop\n      jump\t// out\n        /* \"#utility.yul\":15165:15307   */\n    tag_132:\n        /* \"#utility.yul\":15215:15224   */\n      0x00\n        /* \"#utility.yul\":15248:15301   */\n      tag_306\n        /* \"#utility.yul\":15266:15300   */\n      tag_307\n        /* \"#utility.yul\":15275:15299   */\n      tag_308\n        /* \"#utility.yul\":15293:15298   */\n      dup5\n        /* \"#utility.yul\":15275:15299   */\n      tag_91\n      jump\t// in\n    tag_308:\n        /* \"#utility.yul\":15266:15300   */\n      tag_131\n      jump\t// in\n    tag_307:\n        /* \"#utility.yul\":15248:15301   */\n      tag_91\n      jump\t// in\n    tag_306:\n        /* \"#utility.yul\":15235:15301   */\n      swap1\n      pop\n        /* \"#utility.yul\":15165:15307   */\n      swap2\n      swap1\n      pop\n      jump\t// out\n        /* \"#utility.yul\":15313:15388   */\n    tag_133:\n        /* \"#utility.yul\":15356:15359   */\n      0x00\n        /* \"#utility.yul\":15377:15382   */\n      dup2\n        /* \"#utility.yul\":15370:15382   */\n      swap1\n      pop\n        /* \"#utility.yul\":15313:15388   */\n      swap2\n      swap1\n      pop\n      jump\t// out\n        /* \"#utility.yul\":15394:15663   */\n    tag_134:\n        /* \"#utility.yul\":15504:15543   */\n      tag_311\n        /* \"#utility.yul\":15535:15542   */\n      dup4\n        /* \"#utility.yul\":15504:15543   */\n      tag_132\n      jump\t// in\n    tag_311:\n        /* \"#utility.yul\":15565:15656   */\n      tag_312\n        /* \"#utility.yul\":15614:15655   */\n      tag_313\n        /* \"#utility.yul\":15638:15654   */\n      dup3\n        /* \"#utility.yul\":15614:15655   */\n      tag_133\n      jump\t// in\n    tag_313:\n        /* \"#utility.yul\":15606:15612   */\n      dup5\n        /* \"#utility.yul\":15599:15603   */\n      dup5\n        /* \"#utility.yul\":15593:15604   */\n      sload\n        /* \"#utility.yul\":15565:15656   */\n      tag_130\n      jump\t// in\n    tag_312:\n        /* \"#utility.yul\":15559:15563   */\n      dup3\n        /* \"#utility.yul\":15552:15657   */\n      sstore\n        /* \"#utility.yul\":15470:15663   */\n      pop\n        /* \"#utility.yul\":15394:15663   */\n      pop\n      pop\n      pop\n      jump\t// out\n        /* \"#utility.yul\":15669:15742   */\n    tag_135:\n        /* \"#utility.yul\":15714:15717   */\n      0x00\n        /* \"#utility.yul\":15669:15742   */\n      swap1\n      jump\t// out\n        /* \"#utility.yul\":15748:15937   */\n    tag_136:\n        /* \"#utility.yul\":15825:15857   */\n      tag_316\n      tag_135\n      jump\t// in\n    tag_316:\n        /* \"#utility.yul\":15866:15931   */\n      tag_317\n        /* \"#utility.yul\":15924:15930   */\n      dup2\n        /* \"#utility.yul\":15916:15922   */\n      dup5\n        /* \"#utility.yul\":15910:15914   */\n      dup5\n        /* \"#utility.yul\":15866:15931   */\n      tag_134\n      jump\t// in\n    tag_317:\n        /* \"#utility.yul\":15801:15937   */\n      pop\n        /* \"#utility.yul\":15748:15937   */\n      pop\n      pop\n      jump\t// out\n        /* \"#utility.yul\":15943:16129   */\n    tag_137:\n        /* \"#utility.yul\":16003:16123   */\n    tag_319:\n        /* \"#utility.yul\":16020:16023   */\n      dup2\n        /* \"#utility.yul\":16013:16018   */\n      dup2\n        /* \"#utility.yul\":16010:16024   */\n      lt\n        /* \"#utility.yul\":16003:16123   */\n      iszero\n      tag_321\n      jumpi\n        /* \"#utility.yul\":16074:16113   */\n      tag_322\n        /* \"#utility.yul\":16111:16112   */\n      0x00\n        /* \"#utility.yul\":16104:16109   */\n      dup3\n        /* \"#utility.yul\":16074:16113   */\n      tag_136\n      jump\t// in\n    tag_322:\n        /* \"#utility.yul\":16047:16048   */\n      0x01\n        /* \"#utility.yul\":16040:16045   */\n      dup2\n        /* \"#utility.yul\":16036:16049   */\n      add\n        /* \"#utility.yul\":16027:16049   */\n      swap1\n      pop\n        /* \"#utility.yul\":16003:16123   */\n      jump(tag_319)\n    tag_321:\n        /* \"#utility.yul\":15943:16129   */\n      pop\n      pop\n      jump\t// out\n        /* \"#utility.yul\":16135:16678   */\n    tag_138:\n        /* \"#utility.yul\":16236:16238   */\n      0x1f\n        /* \"#utility.yul\":16231:16234   */\n      dup3\n        /* \"#utility.yul\":16228:16239   */\n      gt\n        /* \"#utility.yul\":16225:16671   */\n      iszero\n      tag_324\n      jumpi\n        /* \"#utility.yul\":16270:16308   */\n      tag_325\n        /* \"#utility.yul\":16302:16307   */\n      dup2\n        /* \"#utility.yul\":16270:16308   */\n      tag_127\n      jump\t// in\n    tag_325:\n        /* \"#utility.yul\":16354:16383   */\n      tag_326\n        /* \"#utility.yul\":16372:16382   */\n      dup5\n        /* \"#utility.yul\":16354:16383   */\n      tag_128\n      jump\t// in\n    tag_326:\n        /* \"#utility.yul\":16344:16352   */\n      dup2\n        /* \"#utility.yul\":16340:16384   */\n      add\n        /* \"#utility.yul\":16537:16539   */\n      0x20\n        /* \"#utility.yul\":16525:16535   */\n      dup6\n        /* \"#utility.yul\":16522:16540   */\n      lt\n        /* \"#utility.yul\":16519:16568   */\n      iszero\n      tag_327\n      jumpi\n        /* \"#utility.yul\":16558:16566   */\n      dup2\n        /* \"#utility.yul\":16543:16566   */\n      swap1\n      pop\n        /* \"#utility.yul\":16519:16568   */\n    tag_327:\n        /* \"#utility.yul\":16581:16661   */\n      tag_328\n        /* \"#utility.yul\":16637:16659   */\n      tag_329\n        /* \"#utility.yul\":16655:16658   */\n      dup6\n        /* \"#utility.yul\":16637:16659   */\n      tag_128\n      jump\t// in\n    tag_329:\n        /* \"#utility.yul\":16627:16635   */\n      dup4\n        /* \"#utility.yul\":16623:16660   */\n      add\n        /* \"#utility.yul\":16610:16621   */\n      dup3\n        /* \"#utility.yul\":16581:16661   */\n      tag_137\n      jump\t// in\n    tag_328:\n        /* \"#utility.yul\":16240:16671   */\n      pop\n      pop\n        /* \"#utility.yul\":16225:16671   */\n    tag_324:\n        /* \"#utility.yul\":16135:16678   */\n      pop\n      pop\n      pop\n      jump\t// out\n        /* \"#utility.yul\":16684:16801   */\n    tag_139:\n        /* \"#utility.yul\":16738:16746   */\n      0x00\n        /* \"#utility.yul\":16788:16793   */\n      dup3\n        /* \"#utility.yul\":16782:16786   */\n      dup3\n        /* \"#utility.yul\":16778:16794   */\n      shr\n        /* \"#utility.yul\":16757:16794   */\n      swap1\n      pop\n        /* \"#utility.yul\":16684:16801   */\n      swap3\n      swap2\n      pop\n      pop\n      jump\t// out\n        /* \"#utility.yul\":16807:16976   */\n    tag_140:\n        /* \"#utility.yul\":16851:16857   */\n      0x00\n        /* \"#utility.yul\":16884:16935   */\n      tag_332\n        /* \"#utility.yul\":16932:16933   */\n      0x00\n        /* \"#utility.yul\":16928:16934   */\n      not\n        /* \"#utility.yul\":16920:16925   */\n      dup5\n        /* \"#utility.yul\":16917:16918   */\n      0x08\n        /* \"#utility.yul\":16913:16926   */\n      mul\n        /* \"#utility.yul\":16884:16935   */\n      tag_139\n      jump\t// in\n    tag_332:\n        /* \"#utility.yul\":16880:16936   */\n      not\n        /* \"#utility.yul\":16965:16969   */\n      dup1\n        /* \"#utility.yul\":16959:16963   */\n      dup4\n        /* \"#utility.yul\":16955:16970   */\n      and\n        /* \"#utility.yul\":16945:16970   */\n      swap2\n      pop\n        /* \"#utility.yul\":16858:16976   */\n      pop\n        /* \"#utility.yul\":16807:16976   */\n      swap3\n      swap2\n      pop\n      pop\n      jump\t// out\n        /* \"#utility.yul\":16981:17276   */\n    tag_141:\n        /* \"#utility.yul\":17057:17061   */\n      0x00\n        /* \"#utility.yul\":17203:17232   */\n      tag_334\n        /* \"#utility.yul\":17228:17231   */\n      dup4\n        /* \"#utility.yul\":17222:17226   */\n      dup4\n        /* \"#utility.yul\":17203:17232   */\n      tag_140\n      jump\t// in\n    tag_334:\n        /* \"#utility.yul\":17195:17232   */\n      swap2\n      pop\n        /* \"#utility.yul\":17265:17268   */\n      dup3\n        /* \"#utility.yul\":17262:17263   */\n      0x02\n        /* \"#utility.yul\":17258:17269   */\n      mul\n        /* \"#utility.yul\":17252:17256   */\n      dup3\n        /* \"#utility.yul\":17249:17270   */\n      or\n        /* \"#utility.yul\":17241:17270   */\n      swap1\n      pop\n        /* \"#utility.yul\":16981:17276   */\n      swap3\n      swap2\n      pop\n      pop\n      jump\t// out\n        /* \"#utility.yul\":17281:18676   */\n    tag_78:\n        /* \"#utility.yul\":17398:17435   */\n      tag_336\n        /* \"#utility.yul\":17431:17434   */\n      dup3\n        /* \"#utility.yul\":17398:17435   */\n      tag_94\n      jump\t// in\n    tag_336:\n        /* \"#utility.yul\":17500:17518   */\n      0xffffffffffffffff\n        /* \"#utility.yul\":17492:17498   */\n      dup2\n        /* \"#utility.yul\":17489:17519   */\n      gt\n        /* \"#utility.yul\":17486:17542   */\n      iszero\n      tag_337\n      jumpi\n        /* \"#utility.yul\":17522:17540   */\n      tag_338\n      tag_105\n      jump\t// in\n    tag_338:\n        /* \"#utility.yul\":17486:17542   */\n    tag_337:\n        /* \"#utility.yul\":17566:17604   */\n      tag_339\n        /* \"#utility.yul\":17598:17602   */\n      dup3\n        /* \"#utility.yul\":17592:17603   */\n      sload\n        /* \"#utility.yul\":17566:17604   */\n      tag_42\n      jump\t// in\n    tag_339:\n        /* \"#utility.yul\":17651:17718   */\n      tag_340\n        /* \"#utility.yul\":17711:17717   */\n      dup3\n        /* \"#utility.yul\":17703:17709   */\n      dup3\n        /* \"#utility.yul\":17697:17701   */\n      dup6\n        /* \"#utility.yul\":17651:17718   */\n      tag_138\n      jump\t// in\n    tag_340:\n        /* \"#utility.yul\":17745:17746   */\n      0x00\n        /* \"#utility.yul\":17769:17773   */\n      0x20\n        /* \"#utility.yul\":17756:17773   */\n      swap1\n      pop\n        /* \"#utility.yul\":17801:17803   */\n      0x1f\n        /* \"#utility.yul\":17793:17799   */\n      dup4\n        /* \"#utility.yul\":17790:17804   */\n      gt\n        /* \"#utility.yul\":17818:17819   */\n      0x01\n        /* \"#utility.yul\":17813:18431   */\n      dup2\n      eq\n      tag_342\n      jumpi\n        /* \"#utility.yul\":18475:18476   */\n      0x00\n        /* \"#utility.yul\":18492:18498   */\n      dup5\n        /* \"#utility.yul\":18489:18566   */\n      iszero\n      tag_343\n      jumpi\n        /* \"#utility.yul\":18541:18550   */\n      dup3\n        /* \"#utility.yul\":18536:18539   */\n      dup8\n        /* \"#utility.yul\":18532:18551   */\n      add\n        /* \"#utility.yul\":18526:18552   */\n      mload\n        /* \"#utility.yul\":18517:18552   */\n      swap1\n      pop\n        /* \"#utility.yul\":18489:18566   */\n    tag_343:\n        /* \"#utility.yul\":18592:18659   */\n      tag_344\n        /* \"#utility.yul\":18652:18658   */\n      dup6\n        /* \"#utility.yul\":18645:18650   */\n      dup3\n        /* \"#utility.yul\":18592:18659   */\n      tag_141\n      jump\t// in\n    tag_344:\n        /* \"#utility.yul\":18586:18590   */\n      dup7\n        /* \"#utility.yul\":18579:18660   */\n      sstore\n        /* \"#utility.yul\":18448:18670   */\n      pop\n        /* \"#utility.yul\":17783:18670   */\n      jump(tag_341)\n        /* \"#utility.yul\":17813:18431   */\n    tag_342:\n        /* \"#utility.yul\":17865:17869   */\n      0x1f\n        /* \"#utility.yul\":17861:17870   */\n      not\n        /* \"#utility.yul\":17853:17859   */\n      dup5\n        /* \"#utility.yul\":17849:17871   */\n      and\n        /* \"#utility.yul\":17899:17936   */\n      tag_345\n        /* \"#utility.yul\":17931:17935   */\n      dup7\n        /* \"#utility.yul\":17899:17936   */\n      tag_127\n      jump\t// in\n    tag_345:\n        /* \"#utility.yul\":17958:17959   */\n      0x00\n        /* \"#utility.yul\":17972:18180   */\n    tag_346:\n        /* \"#utility.yul\":17986:17993   */\n      dup3\n        /* \"#utility.yul\":17983:17984   */\n      dup2\n        /* \"#utility.yul\":17980:17994   */\n      lt\n        /* \"#utility.yul\":17972:18180   */\n      iszero\n      tag_348\n      jumpi\n        /* \"#utility.yul\":18065:18074   */\n      dup5\n        /* \"#utility.yul\":18060:18063   */\n      dup10\n        /* \"#utility.yul\":18056:18075   */\n      add\n        /* \"#utility.yul\":18050:18076   */\n      mload\n        /* \"#utility.yul\":18042:18048   */\n      dup3\n        /* \"#utility.yul\":18035:18077   */\n      sstore\n        /* \"#utility.yul\":18116:18117   */\n      0x01\n        /* \"#utility.yul\":18108:18114   */\n      dup3\n        /* \"#utility.yul\":18104:18118   */\n      add\n        /* \"#utility.yul\":18094:18118   */\n      swap2\n      pop\n        /* \"#utility.yul\":18163:18165   */\n      0x20\n        /* \"#utility.yul\":18152:18161   */\n      dup6\n        /* \"#utility.yul\":18148:18166   */\n      add\n        /* \"#utility.yul\":18135:18166   */\n      swap5\n      pop\n        /* \"#utility.yul\":18009:18013   */\n      0x20\n        /* \"#utility.yul\":18006:18007   */\n      dup2\n        /* \"#utility.yul\":18002:18014   */\n      add\n        /* \"#utility.yul\":17997:18014   */\n      swap1\n      pop\n        /* \"#utility.yul\":17972:18180   */\n      jump(tag_346)\n    tag_348:\n        /* \"#utility.yul\":18208:18214   */\n      dup7\n        /* \"#utility.yul\":18199:18206   */\n      dup4\n        /* \"#utility.yul\":18196:18215   */\n      lt\n        /* \"#utility.yul\":18193:18372   */\n      iszero\n      tag_349\n      jumpi\n        /* \"#utility.yul\":18266:18275   */\n      dup5\n        /* \"#utility.yul\":18261:18264   */\n      dup10\n        /* \"#utility.yul\":18257:18276   */\n      add\n        /* \"#utility.yul\":18251:18277   */\n      mload\n        /* \"#utility.yul\":18309:18357   */\n      tag_350\n        /* \"#utility.yul\":18351:18355   */\n      0x1f\n        /* \"#utility.yul\":18343:18349   */\n      dup10\n        /* \"#utility.yul\":18339:18356   */\n      and\n        /* \"#utility.yul\":18328:18337   */\n      dup3\n        /* \"#utility.yul\":18309:18357   */\n      tag_140\n      jump\t// in\n    tag_350:\n        /* \"#utility.yul\":18301:18307   */\n      dup4\n        /* \"#utility.yul\":18294:18358   */\n      sstore\n        /* \"#utility.yul\":18216:18372   */\n      pop\n        /* \"#utility.yul\":18193:18372   */\n    tag_349:\n        /* \"#utility.yul\":18418:18419   */\n      0x01\n        /* \"#utility.yul\":18414:18415   */\n      0x02\n        /* \"#utility.yul\":18406:18412   */\n      dup9\n        /* \"#utility.yul\":18402:18416   */\n      mul\n        /* \"#utility.yul\":18398:18420   */\n      add\n        /* \"#utility.yul\":18392:18396   */\n      dup9\n        /* \"#utility.yul\":18385:18421   */\n      sstore\n        /* \"#utility.yul\":17820:18431   */\n      pop\n      pop\n      pop\n        /* \"#utility.yul\":17783:18670   */\n    tag_341:\n      pop\n        /* \"#utility.yul\":17373:18676   */\n      pop\n      pop\n      pop\n        /* \"#utility.yul\":17281:18676   */\n      pop\n      pop\n      jump\t// out\n        /* \"#utility.yul\":18682:19215   */\n    tag_83:\n        /* \"#utility.yul\":18851:18855   */\n      0x00\n        /* \"#utility.yul\":18889:18891   */\n      0x60\n        /* \"#utility.yul\":18878:18887   */\n      dup3\n        /* \"#utility.yul\":18874:18892   */\n      add\n        /* \"#utility.yul\":18866:18892   */\n      swap1\n      pop\n        /* \"#utility.yul\":18902:18973   */\n      tag_352\n        /* \"#utility.yul\":18970:18971   */\n      0x00\n        /* \"#utility.yul\":18959:18968   */\n      dup4\n        /* \"#utility.yul\":18955:18972   */\n      add\n        /* \"#utility.yul\":18946:18952   */\n      dup7\n        /* \"#utility.yul\":18902:18973   */\n      tag_99\n      jump\t// in\n    tag_352:\n        /* \"#utility.yul\":19020:19029   */\n      dup2\n        /* \"#utility.yul\":19014:19018   */\n      dup2\n        /* \"#utility.yul\":19010:19030   */\n      sub\n        /* \"#utility.yul\":19005:19007   */\n      0x20\n        /* \"#utility.yul\":18994:19003   */\n      dup4\n        /* \"#utility.yul\":18990:19008   */\n      add\n        /* \"#utility.yul\":18983:19031   */\n      mstore\n        /* \"#utility.yul\":19048:19126   */\n      tag_353\n        /* \"#utility.yul\":19121:19125   */\n      dup2\n        /* \"#utility.yul\":19112:19118   */\n      dup6\n        /* \"#utility.yul\":19048:19126   */\n      tag_98\n      jump\t// in\n    tag_353:\n        /* \"#utility.yul\":19040:19126   */\n      swap1\n      pop\n        /* \"#utility.yul\":19136:19208   */\n      tag_354\n        /* \"#utility.yul\":19204:19206   */\n      0x40\n        /* \"#utility.yul\":19193:19202   */\n      dup4\n        /* \"#utility.yul\":19189:19207   */\n      add\n        /* \"#utility.yul\":19180:19186   */\n      dup5\n        /* \"#utility.yul\":19136:19208   */\n      tag_99\n      jump\t// in\n    tag_354:\n        /* \"#utility.yul\":18682:19215   */\n      swap5\n      swap4\n      pop\n      pop\n      pop\n      pop\n      jump\t// out\n        /* \"#utility.yul\":19245:19575   */\n    tag_142:\n        /* \"#utility.yul\":19361:19364   */\n      0x00\n        /* \"#utility.yul\":19382:19471   */\n      tag_356\n        /* \"#utility.yul\":19464:19470   */\n      dup4\n        /* \"#utility.yul\":19459:19462   */\n      dup6\n        /* \"#utility.yul\":19382:19471   */\n      tag_122\n      jump\t// in\n    tag_356:\n        /* \"#utility.yul\":19375:19471   */\n      swap4\n      pop\n        /* \"#utility.yul\":19481:19537   */\n      tag_357\n        /* \"#utility.yul\":19530:19536   */\n      dup4\n        /* \"#utility.yul\":19525:19528   */\n      dup6\n        /* \"#utility.yul\":19518:19523   */\n      dup5\n        /* \"#utility.yul\":19481:19537   */\n      tag_109\n      jump\t// in\n    tag_357:\n        /* \"#utility.yul\":19562:19568   */\n      dup3\n        /* \"#utility.yul\":19557:19560   */\n      dup5\n        /* \"#utility.yul\":19553:19569   */\n      add\n        /* \"#utility.yul\":19546:19569   */\n      swap1\n      pop\n        /* \"#utility.yul\":19245:19575   */\n      swap4\n      swap3\n      pop\n      pop\n      pop\n      jump\t// out\n        /* \"#utility.yul\":19581:19876   */\n    tag_86:\n        /* \"#utility.yul\":19723:19726   */\n      0x00\n        /* \"#utility.yul\":19745:19850   */\n      tag_359\n        /* \"#utility.yul\":19846:19849   */\n      dup3\n        /* \"#utility.yul\":19837:19843   */\n      dup5\n        /* \"#utility.yul\":19829:19835   */\n      dup7\n        /* \"#utility.yul\":19745:19850   */\n      tag_142\n      jump\t// in\n    tag_359:\n        /* \"#utility.yul\":19738:19850   */\n      swap2\n      pop\n        /* \"#utility.yul\":19867:19870   */\n      dup2\n        /* \"#utility.yul\":19860:19870   */\n      swap1\n      pop\n        /* \"#utility.yul\":19581:19876   */\n      swap4\n      swap3\n      pop\n      pop\n      pop\n      jump\t// out\n\n    auxdata: 0xa2646970667358221220aab2e05c2ed08868851193e5e42e17b57384f525a8965a98fd48fb900049c58764736f6c63430008190033\n}\n",
				"bytecode": {
					"linkReferences": {},
					"object": "60806040526010600055600054600a6100189190610251565b6001557306012c8cf97bead5deae237070f9587f8e7a266d600560006101000a81548173ffffffffffffffffffffffffffffffffffffffff021916908373ffffffffffffffffffffffffffffffffffffffff160217905550600560009054906101000a900473ffffffffffffffffffffffffffffffffffffffff16600660006101000a81548173ffffffffffffffffffffffffffffffffffffffff021916908373ffffffffffffffffffffffffffffffffffffffff1602179055503480156100df57600080fd5b5061029c565b7f4e487b7100000000000000000000000000000000000000000000000000000000600052601160045260246000fd5b60008160011c9050919050565b6000808291508390505b600185111561016b57808604811115610147576101466100e5565b5b60018516156101565780820291505b808102905061016485610114565b945061012b565b94509492505050565b6000826101845760019050610240565b816101925760009050610240565b81600181146101a857600281146101b2576101e1565b6001915050610240565b60ff8411156101c4576101c36100e5565b5b8360020a9150848211156101db576101da6100e5565b5b50610240565b5060208310610133831016604e8410600b84101617156102165782820a905083811115610211576102106100e5565b5b610240565b6102238484846001610121565b9250905081840481111561023a576102396100e5565b5b81810290505b9392505050565b6000819050919050565b600061025c82610247565b915061026783610247565b92506102947fffffffffffffffffffffffffffffffffffffffffffffffffffffffffffffffff8484610174565b905092915050565b611249806102ab6000396000f3fe608060405234801561001057600080fd5b50600436106100575760003560e01c806317a7f4cc1461005c5780632052465e14610078578063528b7b8f146100a95780636b0bfc80146100d95780637bff0a01146100f5575b600080fd5b6100766004803603810190610071919061075a565b610111565b005b610092600480360381019061008d919061079a565b61022f565b6040516100a0929190610866565b60405180910390f35b6100c360048036038101906100be919061079a565b6102eb565b6040516100d091906108d7565b60405180910390f35b6100f360048036038101906100ee9190610a27565b61031e565b005b61010f600480360381019061010a9190610af6565b610484565b005b6000600660009054906101000a900473ffffffffffffffffffffffffffffffffffffffff1673ffffffffffffffffffffffffffffffffffffffff1663e98b7f4d836040518263ffffffff1660e01b815260040161016e9190610b43565b61014060405180830381865afa15801561018c573d6000803e3d6000fd5b505050506040513d601f19601f820116820180604052508101906101b09190610bab565b9091929394959697985090919293949596975090919293949596509091929394955090919293945090919293509091925090915090508091505061022a83826040518060400160405280600581526020017f6b6974747900000000000000000000000000000000000000000000000000000081525061031e565b505050565b6002818154811061023f57600080fd5b906000526020600020906002020160009150905080600001805461026290610cb9565b80601f016020809104026020016040519081016040528092919081815260200182805461028e90610cb9565b80156102db5780601f106102b0576101008083540402835291602001916102db565b820191906000526020600020905b8154815290600101906020018083116102be57829003601f168201915b5050505050908060010154905082565b60036020528060005260406000206000915054906101000a900473ffffffffffffffffffffffffffffffffffffffff1681565b3373ffffffffffffffffffffffffffffffffffffffff166003600085815260200190815260200160002060009054906101000a900473ffffffffffffffffffffffffffffffffffffffff1673ffffffffffffffffffffffffffffffffffffffff160361038957600080fd5b60006002848154811061039f5761039e610cea565b5b90600052602060002090600202019050600154836103bd9190610d48565b9250600060028260010154856103d39190610da8565b6103dd9190610ddc565b905082805190602001206040518060400160405280600581526020017f6b6974747900000000000000000000000000000000000000000000000000000081525080519060200120036104505760636064826104389190610d48565b6104429190610da8565b8161044d9190610e0d565b90505b600060405160200161046190610e98565b604051602081830303815290604052905061047c8183610561565b505050505050565b6000600460003373ffffffffffffffffffffffffffffffffffffffff1673ffffffffffffffffffffffffffffffffffffffff1681526020019081526020016000205411610506576040517f08c379a00000000000000000000000000000000000000000000000000000000081526004016104fd90610ef9565b60405180910390fd5b61055d82828080601f016020809104026020016040519081016040528093929190818152602001838380828437600081840152601f19601f8201169050808301925050505050505061055884846106cd565b610561565b5050565b6002604051806040016040528084815260200183815250908060018154018082558091505060019003906000526020600020906002020160009091909190915060008201518160000190816105b691906110c5565b50602082015181600101555050336003600060016002805490506105da9190610e0d565b815260200190815260200160002060006101000a81548173ffffffffffffffffffffffffffffffffffffffff021916908373ffffffffffffffffffffffffffffffffffffffff1602179055506001600460003373ffffffffffffffffffffffffffffffffffffffff1673ffffffffffffffffffffffffffffffffffffffff16815260200190815260200160002060008282546106769190610da8565b925050819055507f88f026aacbbecc90c18411df4b1185fd8d9be2470f1962f192bf84a27d0704b760016002805490506106b09190610e0d565b83836040516106c193929190611197565b60405180910390a15050565b600060015483836040516020016106e59291906111fa565b6040516020818303038152906040528051906020012060001c6107089190610d48565b905092915050565b6000604051905090565b600080fd5b600080fd5b6000819050919050565b61073781610724565b811461074257600080fd5b50565b6000813590506107548161072e565b92915050565b600080604083850312156107715761077061071a565b5b600061077f85828601610745565b925050602061079085828601610745565b9150509250929050565b6000602082840312156107b0576107af61071a565b5b60006107be84828501610745565b91505092915050565b600081519050919050565b600082825260208201905092915050565b60005b838110156108015780820151818401526020810190506107e6565b60008484015250505050565b6000601f19601f8301169050919050565b6000610829826107c7565b61083381856107d2565b93506108438185602086016107e3565b61084c8161080d565b840191505092915050565b61086081610724565b82525050565b60006040820190508181036000830152610880818561081e565b905061088f6020830184610857565b9392505050565b600073ffffffffffffffffffffffffffffffffffffffff82169050919050565b60006108c182610896565b9050919050565b6108d1816108b6565b82525050565b60006020820190506108ec60008301846108c8565b92915050565b600080fd5b600080fd5b7f4e487b7100000000000000000000000000000000000000000000000000000000600052604160045260246000fd5b6109348261080d565b810181811067ffffffffffffffff82111715610953576109526108fc565b5b80604052505050565b6000610966610710565b9050610972828261092b565b919050565b600067ffffffffffffffff821115610992576109916108fc565b5b61099b8261080d565b9050602081019050919050565b82818337600083830152505050565b60006109ca6109c584610977565b61095c565b9050828152602081018484840111156109e6576109e56108f7565b5b6109f18482856109a8565b509392505050565b600082601f830112610a0e57610a0d6108f2565b5b8135610a1e8482602086016109b7565b91505092915050565b600080600060608486031215610a4057610a3f61071a565b5b6000610a4e86828701610745565b9350506020610a5f86828701610745565b925050604084013567ffffffffffffffff811115610a8057610a7f61071f565b5b610a8c868287016109f9565b9150509250925092565b600080fd5b600080fd5b60008083601f840112610ab657610ab56108f2565b5b8235905067ffffffffffffffff811115610ad357610ad2610a96565b5b602083019150836001820283011115610aef57610aee610a9b565b5b9250929050565b60008060208385031215610b0d57610b0c61071a565b5b600083013567ffffffffffffffff811115610b2b57610b2a61071f565b5b610b3785828601610aa0565b92509250509250929050565b6000602082019050610b586000830184610857565b92915050565b60008115159050919050565b610b7381610b5e565b8114610b7e57600080fd5b50565b600081519050610b9081610b6a565b92915050565b600081519050610ba58161072e565b92915050565b6000806000806000806000806000806101408b8d031215610bcf57610bce61071a565b5b6000610bdd8d828e01610b81565b9a50506020610bee8d828e01610b81565b9950506040610bff8d828e01610b96565b9850506060610c108d828e01610b96565b9750506080610c218d828e01610b96565b96505060a0610c328d828e01610b96565b95505060c0610c438d828e01610b96565b94505060e0610c548d828e01610b96565b935050610100610c668d828e01610b96565b925050610120610c788d828e01610b96565b9150509295989b9194979a5092959850565b7f4e487b7100000000000000000000000000000000000000000000000000000000600052602260045260246000fd5b60006002820490506001821680610cd157607f821691505b602082108103610ce457610ce3610c8a565b5b50919050565b7f4e487b7100000000000000000000000000000000000000000000000000000000600052603260045260246000fd5b7f4e487b7100000000000000000000000000000000000000000000000000000000600052601260045260246000fd5b6000610d5382610724565b9150610d5e83610724565b925082610d6e57610d6d610d19565b5b828206905092915050565b7f4e487b7100000000000000000000000000000000000000000000000000000000600052601160045260246000fd5b6000610db382610724565b9150610dbe83610724565b9250828201905080821115610dd657610dd5610d79565b5b92915050565b6000610de782610724565b9150610df283610724565b925082610e0257610e01610d19565b5b828204905092915050565b6000610e1882610724565b9150610e2383610724565b9250828203905081811115610e3b57610e3a610d79565b5b92915050565b600081905092915050565b7f4e6f6e616d650000000000000000000000000000000000000000000000000000600082015250565b6000610e82600683610e41565b9150610e8d82610e4c565b600682019050919050565b6000610ea382610e75565b9150819050919050565b7f4552524f52000000000000000000000000000000000000000000000000000000600082015250565b6000610ee36005836107d2565b9150610eee82610ead565b602082019050919050565b60006020820190508181036000830152610f1281610ed6565b9050919050565b60008190508160005260206000209050919050565b60006020601f8301049050919050565b600082821b905092915050565b600060088302610f7b7fffffffffffffffffffffffffffffffffffffffffffffffffffffffffffffffff82610f3e565b610f858683610f3e565b95508019841693508086168417925050509392505050565b6000819050919050565b6000610fc2610fbd610fb884610724565b610f9d565b610724565b9050919050565b6000819050919050565b610fdc83610fa7565b610ff0610fe882610fc9565b848454610f4b565b825550505050565b600090565b611005610ff8565b611010818484610fd3565b505050565b5b8181101561103457611029600082610ffd565b600181019050611016565b5050565b601f8211156110795761104a81610f19565b61105384610f2e565b81016020851015611062578190505b61107661106e85610f2e565b830182611015565b50505b505050565b600082821c905092915050565b600061109c6000198460080261107e565b1980831691505092915050565b60006110b5838361108b565b9150826002028217905092915050565b6110ce826107c7565b67ffffffffffffffff8111156110e7576110e66108fc565b5b6110f18254610cb9565b6110fc828285611038565b600060209050601f83116001811461112f576000841561111d578287015190505b61112785826110a9565b86555061118f565b601f19841661113d86610f19565b60005b8281101561116557848901518255600182019150602085019450602081019050611140565b86831015611182578489015161117e601f89168261108b565b8355505b6001600288020188555050505b505050505050565b60006060820190506111ac6000830186610857565b81810360208301526111be818561081e565b90506111cd6040830184610857565b949350505050565b60006111e18385610e41565b93506111ee8385846109a8565b82840190509392505050565b60006112078284866111d5565b9150819050939250505056fea2646970667358221220aab2e05c2ed08868851193e5e42e17b57384f525a8965a98fd48fb900049c58764736f6c63430008190033",
					"opcodes": "PUSH1 0x80 PUSH1 0x40 MSTORE PUSH1 0x10 PUSH1 0x0 SSTORE PUSH1 0x0 SLOAD PUSH1 0xA PUSH2 0x18 SWAP2 SWAP1 PUSH2 0x251 JUMP JUMPDEST PUSH1 0x1 SSTORE PUSH20 0x6012C8CF97BEAD5DEAE237070F9587F8E7A266D PUSH1 0x5 PUSH1 0x0 PUSH2 0x100 EXP DUP2 SLOAD DUP2 PUSH20 0xFFFFFFFFFFFFFFFFFFFFFFFFFFFFFFFFFFFFFFFF MUL NOT AND SWAP1 DUP4 PUSH20 0xFFFFFFFFFFFFFFFFFFFFFFFFFFFFFFFFFFFFFFFF AND MUL OR SWAP1 SSTORE POP PUSH1 0x5 PUSH1 0x0 SWAP1 SLOAD SWAP1 PUSH2 0x100 EXP SWAP1 DIV PUSH20 0xFFFFFFFFFFFFFFFFFFFFFFFFFFFFFFFFFFFFFFFF AND PUSH1 0x6 PUSH1 0x0 PUSH2 0x100 EXP DUP2 SLOAD DUP2 PUSH20 0xFFFFFFFFFFFFFFFFFFFFFFFFFFFFFFFFFFFFFFFF MUL NOT AND SWAP1 DUP4 PUSH20 0xFFFFFFFFFFFFFFFFFFFFFFFFFFFFFFFFFFFFFFFF AND MUL OR SWAP1 SSTORE POP CALLVALUE DUP1 ISZERO PUSH2 0xDF JUMPI PUSH1 0x0 DUP1 REVERT JUMPDEST POP PUSH2 0x29C JUMP JUMPDEST PUSH32 0x4E487B7100000000000000000000000000000000000000000000000000000000 PUSH1 0x0 MSTORE PUSH1 0x11 PUSH1 0x4 MSTORE PUSH1 0x24 PUSH1 0x0 REVERT JUMPDEST PUSH1 0x0 DUP2 PUSH1 0x1 SHR SWAP1 POP SWAP2 SWAP1 POP JUMP JUMPDEST PUSH1 0x0 DUP1 DUP3 SWAP2 POP DUP4 SWAP1 POP JUMPDEST PUSH1 0x1 DUP6 GT ISZERO PUSH2 0x16B JUMPI DUP1 DUP7 DIV DUP2 GT ISZERO PUSH2 0x147 JUMPI PUSH2 0x146 PUSH2 0xE5 JUMP JUMPDEST JUMPDEST PUSH1 0x1 DUP6 AND ISZERO PUSH2 0x156 JUMPI DUP1 DUP3 MUL SWAP2 POP JUMPDEST DUP1 DUP2 MUL SWAP1 POP PUSH2 0x164 DUP6 PUSH2 0x114 JUMP JUMPDEST SWAP5 POP PUSH2 0x12B JUMP JUMPDEST SWAP5 POP SWAP5 SWAP3 POP POP POP JUMP JUMPDEST PUSH1 0x0 DUP3 PUSH2 0x184 JUMPI PUSH1 0x1 SWAP1 POP PUSH2 0x240 JUMP JUMPDEST DUP2 PUSH2 0x192 JUMPI PUSH1 0x0 SWAP1 POP PUSH2 0x240 JUMP JUMPDEST DUP2 PUSH1 0x1 DUP2 EQ PUSH2 0x1A8 JUMPI PUSH1 0x2 DUP2 EQ PUSH2 0x1B2 JUMPI PUSH2 0x1E1 JUMP JUMPDEST PUSH1 0x1 SWAP2 POP POP PUSH2 0x240 JUMP JUMPDEST PUSH1 0xFF DUP5 GT ISZERO PUSH2 0x1C4 JUMPI PUSH2 0x1C3 PUSH2 0xE5 JUMP JUMPDEST JUMPDEST DUP4 PUSH1 0x2 EXP SWAP2 POP DUP5 DUP3 GT ISZERO PUSH2 0x1DB JUMPI PUSH2 0x1DA PUSH2 0xE5 JUMP JUMPDEST JUMPDEST POP PUSH2 0x240 JUMP JUMPDEST POP PUSH1 0x20 DUP4 LT PUSH2 0x133 DUP4 LT AND PUSH1 0x4E DUP5 LT PUSH1 0xB DUP5 LT AND OR ISZERO PUSH2 0x216 JUMPI DUP3 DUP3 EXP SWAP1 POP DUP4 DUP2 GT ISZERO PUSH2 0x211 JUMPI PUSH2 0x210 PUSH2 0xE5 JUMP JUMPDEST JUMPDEST PUSH2 0x240 JUMP JUMPDEST PUSH2 0x223 DUP5 DUP5 DUP5 PUSH1 0x1 PUSH2 0x121 JUMP JUMPDEST SWAP3 POP SWAP1 POP DUP2 DUP5 DIV DUP2 GT ISZERO PUSH2 0x23A JUMPI PUSH2 0x239 PUSH2 0xE5 JUMP JUMPDEST JUMPDEST DUP2 DUP2 MUL SWAP1 POP JUMPDEST SWAP4 SWAP3 POP POP POP JUMP JUMPDEST PUSH1 0x0 DUP2 SWAP1 POP SWAP2 SWAP1 POP JUMP JUMPDEST PUSH1 0x0 PUSH2 0x25C DUP3 PUSH2 0x247 JUMP JUMPDEST SWAP2 POP PUSH2 0x267 DUP4 PUSH2 0x247 JUMP JUMPDEST SWAP3 POP PUSH2 0x294 PUSH32 0xFFFFFFFFFFFFFFFFFFFFFFFFFFFFFFFFFFFFFFFFFFFFFFFFFFFFFFFFFFFFFFFF DUP5 DUP5 PUSH2 0x174 JUMP JUMPDEST SWAP1 POP SWAP3 SWAP2 POP POP JUMP JUMPDEST PUSH2 0x1249 DUP1 PUSH2 0x2AB PUSH1 0x0 CODECOPY PUSH1 0x0 RETURN INVALID PUSH1 0x80 PUSH1 0x40 MSTORE CALLVALUE DUP1 ISZERO PUSH2 0x10 JUMPI PUSH1 0x0 DUP1 REVERT JUMPDEST POP PUSH1 0x4 CALLDATASIZE LT PUSH2 0x57 JUMPI PUSH1 0x0 CALLDATALOAD PUSH1 0xE0 SHR DUP1 PUSH4 0x17A7F4CC EQ PUSH2 0x5C JUMPI DUP1 PUSH4 0x2052465E EQ PUSH2 0x78 JUMPI DUP1 PUSH4 0x528B7B8F EQ PUSH2 0xA9 JUMPI DUP1 PUSH4 0x6B0BFC80 EQ PUSH2 0xD9 JUMPI DUP1 PUSH4 0x7BFF0A01 EQ PUSH2 0xF5 JUMPI JUMPDEST PUSH1 0x0 DUP1 REVERT JUMPDEST PUSH2 0x76 PUSH1 0x4 DUP1 CALLDATASIZE SUB DUP2 ADD SWAP1 PUSH2 0x71 SWAP2 SWAP1 PUSH2 0x75A JUMP JUMPDEST PUSH2 0x111 JUMP JUMPDEST STOP JUMPDEST PUSH2 0x92 PUSH1 0x4 DUP1 CALLDATASIZE SUB DUP2 ADD SWAP1 PUSH2 0x8D SWAP2 SWAP1 PUSH2 0x79A JUMP JUMPDEST PUSH2 0x22F JUMP JUMPDEST PUSH1 0x40 MLOAD PUSH2 0xA0 SWAP3 SWAP2 SWAP1 PUSH2 0x866 JUMP JUMPDEST PUSH1 0x40 MLOAD DUP1 SWAP2 SUB SWAP1 RETURN JUMPDEST PUSH2 0xC3 PUSH1 0x4 DUP1 CALLDATASIZE SUB DUP2 ADD SWAP1 PUSH2 0xBE SWAP2 SWAP1 PUSH2 0x79A JUMP JUMPDEST PUSH2 0x2EB JUMP JUMPDEST PUSH1 0x40 MLOAD PUSH2 0xD0 SWAP2 SWAP1 PUSH2 0x8D7 JUMP JUMPDEST PUSH1 0x40 MLOAD DUP1 SWAP2 SUB SWAP1 RETURN JUMPDEST PUSH2 0xF3 PUSH1 0x4 DUP1 CALLDATASIZE SUB DUP2 ADD SWAP1 PUSH2 0xEE SWAP2 SWAP1 PUSH2 0xA27 JUMP JUMPDEST PUSH2 0x31E JUMP JUMPDEST STOP JUMPDEST PUSH2 0x10F PUSH1 0x4 DUP1 CALLDATASIZE SUB DUP2 ADD SWAP1 PUSH2 0x10A SWAP2 SWAP1 PUSH2 0xAF6 JUMP JUMPDEST PUSH2 0x484 JUMP JUMPDEST STOP JUMPDEST PUSH1 0x0 PUSH1 0x6 PUSH1 0x0 SWAP1 SLOAD SWAP1 PUSH2 0x100 EXP SWAP1 DIV PUSH20 0xFFFFFFFFFFFFFFFFFFFFFFFFFFFFFFFFFFFFFFFF AND PUSH20 0xFFFFFFFFFFFFFFFFFFFFFFFFFFFFFFFFFFFFFFFF AND PUSH4 0xE98B7F4D DUP4 PUSH1 0x40 MLOAD DUP3 PUSH4 0xFFFFFFFF AND PUSH1 0xE0 SHL DUP2 MSTORE PUSH1 0x4 ADD PUSH2 0x16E SWAP2 SWAP1 PUSH2 0xB43 JUMP JUMPDEST PUSH2 0x140 PUSH1 0x40 MLOAD DUP1 DUP4 SUB DUP2 DUP7 GAS STATICCALL ISZERO DUP1 ISZERO PUSH2 0x18C JUMPI RETURNDATASIZE PUSH1 0x0 DUP1 RETURNDATACOPY RETURNDATASIZE PUSH1 0x0 REVERT JUMPDEST POP POP POP POP PUSH1 0x40 MLOAD RETURNDATASIZE PUSH1 0x1F NOT PUSH1 0x1F DUP3 ADD AND DUP3 ADD DUP1 PUSH1 0x40 MSTORE POP DUP2 ADD SWAP1 PUSH2 0x1B0 SWAP2 SWAP1 PUSH2 0xBAB JUMP JUMPDEST SWAP1 SWAP2 SWAP3 SWAP4 SWAP5 SWAP6 SWAP7 SWAP8 SWAP9 POP SWAP1 SWAP2 SWAP3 SWAP4 SWAP5 SWAP6 SWAP7 SWAP8 POP SWAP1 SWAP2 SWAP3 SWAP4 SWAP5 SWAP6 SWAP7 POP SWAP1 SWAP2 SWAP3 SWAP4 SWAP5 SWAP6 POP SWAP1 SWAP2 SWAP3 SWAP4 SWAP5 POP SWAP1 SWAP2 SWAP3 SWAP4 POP SWAP1 SWAP2 SWAP3 POP SWAP1 SWAP2 POP SWAP1 POP DUP1 SWAP2 POP POP PUSH2 0x22A DUP4 DUP3 PUSH1 0x40 MLOAD DUP1 PUSH1 0x40 ADD PUSH1 0x40 MSTORE DUP1 PUSH1 0x5 DUP2 MSTORE PUSH1 0x20 ADD PUSH32 0x6B69747479000000000000000000000000000000000000000000000000000000 DUP2 MSTORE POP PUSH2 0x31E JUMP JUMPDEST POP POP POP JUMP JUMPDEST PUSH1 0x2 DUP2 DUP2 SLOAD DUP2 LT PUSH2 0x23F JUMPI PUSH1 0x0 DUP1 REVERT JUMPDEST SWAP1 PUSH1 0x0 MSTORE PUSH1 0x20 PUSH1 0x0 KECCAK256 SWAP1 PUSH1 0x2 MUL ADD PUSH1 0x0 SWAP2 POP SWAP1 POP DUP1 PUSH1 0x0 ADD DUP1 SLOAD PUSH2 0x262 SWAP1 PUSH2 0xCB9 JUMP JUMPDEST DUP1 PUSH1 0x1F ADD PUSH1 0x20 DUP1 SWAP2 DIV MUL PUSH1 0x20 ADD PUSH1 0x40 MLOAD SWAP1 DUP2 ADD PUSH1 0x40 MSTORE DUP1 SWAP3 SWAP2 SWAP1 DUP2 DUP2 MSTORE PUSH1 0x20 ADD DUP3 DUP1 SLOAD PUSH2 0x28E SWAP1 PUSH2 0xCB9 JUMP JUMPDEST DUP1 ISZERO PUSH2 0x2DB JUMPI DUP1 PUSH1 0x1F LT PUSH2 0x2B0 JUMPI PUSH2 0x100 DUP1 DUP4 SLOAD DIV MUL DUP4 MSTORE SWAP2 PUSH1 0x20 ADD SWAP2 PUSH2 0x2DB JUMP JUMPDEST DUP3 ADD SWAP2 SWAP1 PUSH1 0x0 MSTORE PUSH1 0x20 PUSH1 0x0 KECCAK256 SWAP1 JUMPDEST DUP2 SLOAD DUP2 MSTORE SWAP1 PUSH1 0x1 ADD SWAP1 PUSH1 0x20 ADD DUP1 DUP4 GT PUSH2 0x2BE JUMPI DUP3 SWAP1 SUB PUSH1 0x1F AND DUP3 ADD SWAP2 JUMPDEST POP POP POP POP POP SWAP1 DUP1 PUSH1 0x1 ADD SLOAD SWAP1 POP DUP3 JUMP JUMPDEST PUSH1 0x3 PUSH1 0x20 MSTORE DUP1 PUSH1 0x0 MSTORE PUSH1 0x40 PUSH1 0x0 KECCAK256 PUSH1 0x0 SWAP2 POP SLOAD SWAP1 PUSH2 0x100 EXP SWAP1 DIV PUSH20 0xFFFFFFFFFFFFFFFFFFFFFFFFFFFFFFFFFFFFFFFF AND DUP2 JUMP JUMPDEST CALLER PUSH20 0xFFFFFFFFFFFFFFFFFFFFFFFFFFFFFFFFFFFFFFFF AND PUSH1 0x3 PUSH1 0x0 DUP6 DUP2 MSTORE PUSH1 0x20 ADD SWAP1 DUP2 MSTORE PUSH1 0x20 ADD PUSH1 0x0 KECCAK256 PUSH1 0x0 SWAP1 SLOAD SWAP1 PUSH2 0x100 EXP SWAP1 DIV PUSH20 0xFFFFFFFFFFFFFFFFFFFFFFFFFFFFFFFFFFFFFFFF AND PUSH20 0xFFFFFFFFFFFFFFFFFFFFFFFFFFFFFFFFFFFFFFFF AND SUB PUSH2 0x389 JUMPI PUSH1 0x0 DUP1 REVERT JUMPDEST PUSH1 0x0 PUSH1 0x2 DUP5 DUP2 SLOAD DUP2 LT PUSH2 0x39F JUMPI PUSH2 0x39E PUSH2 0xCEA JUMP JUMPDEST JUMPDEST SWAP1 PUSH1 0x0 MSTORE PUSH1 0x20 PUSH1 0x0 KECCAK256 SWAP1 PUSH1 0x2 MUL ADD SWAP1 POP PUSH1 0x1 SLOAD DUP4 PUSH2 0x3BD SWAP2 SWAP1 PUSH2 0xD48 JUMP JUMPDEST SWAP3 POP PUSH1 0x0 PUSH1 0x2 DUP3 PUSH1 0x1 ADD SLOAD DUP6 PUSH2 0x3D3 SWAP2 SWAP1 PUSH2 0xDA8 JUMP JUMPDEST PUSH2 0x3DD SWAP2 SWAP1 PUSH2 0xDDC JUMP JUMPDEST SWAP1 POP DUP3 DUP1 MLOAD SWAP1 PUSH1 0x20 ADD KECCAK256 PUSH1 0x40 MLOAD DUP1 PUSH1 0x40 ADD PUSH1 0x40 MSTORE DUP1 PUSH1 0x5 DUP2 MSTORE PUSH1 0x20 ADD PUSH32 0x6B69747479000000000000000000000000000000000000000000000000000000 DUP2 MSTORE POP DUP1 MLOAD SWAP1 PUSH1 0x20 ADD KECCAK256 SUB PUSH2 0x450 JUMPI PUSH1 0x63 PUSH1 0x64 DUP3 PUSH2 0x438 SWAP2 SWAP1 PUSH2 0xD48 JUMP JUMPDEST PUSH2 0x442 SWAP2 SWAP1 PUSH2 0xDA8 JUMP JUMPDEST DUP2 PUSH2 0x44D SWAP2 SWAP1 PUSH2 0xE0D JUMP JUMPDEST SWAP1 POP JUMPDEST PUSH1 0x0 PUSH1 0x40 MLOAD PUSH1 0x20 ADD PUSH2 0x461 SWAP1 PUSH2 0xE98 JUMP JUMPDEST PUSH1 0x40 MLOAD PUSH1 0x20 DUP2 DUP4 SUB SUB DUP2 MSTORE SWAP1 PUSH1 0x40 MSTORE SWAP1 POP PUSH2 0x47C DUP2 DUP4 PUSH2 0x561 JUMP JUMPDEST POP POP POP POP POP POP JUMP JUMPDEST PUSH1 0x0 PUSH1 0x4 PUSH1 0x0 CALLER PUSH20 0xFFFFFFFFFFFFFFFFFFFFFFFFFFFFFFFFFFFFFFFF AND PUSH20 0xFFFFFFFFFFFFFFFFFFFFFFFFFFFFFFFFFFFFFFFF AND DUP2 MSTORE PUSH1 0x20 ADD SWAP1 DUP2 MSTORE PUSH1 0x20 ADD PUSH1 0x0 KECCAK256 SLOAD GT PUSH2 0x506 JUMPI PUSH1 0x40 MLOAD PUSH32 0x8C379A000000000000000000000000000000000000000000000000000000000 DUP2 MSTORE PUSH1 0x4 ADD PUSH2 0x4FD SWAP1 PUSH2 0xEF9 JUMP JUMPDEST PUSH1 0x40 MLOAD DUP1 SWAP2 SUB SWAP1 REVERT JUMPDEST PUSH2 0x55D DUP3 DUP3 DUP1 DUP1 PUSH1 0x1F ADD PUSH1 0x20 DUP1 SWAP2 DIV MUL PUSH1 0x20 ADD PUSH1 0x40 MLOAD SWAP1 DUP2 ADD PUSH1 0x40 MSTORE DUP1 SWAP4 SWAP3 SWAP2 SWAP1 DUP2 DUP2 MSTORE PUSH1 0x20 ADD DUP4 DUP4 DUP1 DUP3 DUP5 CALLDATACOPY PUSH1 0x0 DUP2 DUP5 ADD MSTORE PUSH1 0x1F NOT PUSH1 0x1F DUP3 ADD AND SWAP1 POP DUP1 DUP4 ADD SWAP3 POP POP POP POP POP POP POP PUSH2 0x558 DUP5 DUP5 PUSH2 0x6CD JUMP JUMPDEST PUSH2 0x561 JUMP JUMPDEST POP POP JUMP JUMPDEST PUSH1 0x2 PUSH1 0x40 MLOAD DUP1 PUSH1 0x40 ADD PUSH1 0x40 MSTORE DUP1 DUP5 DUP2 MSTORE PUSH1 0x20 ADD DUP4 DUP2 MSTORE POP SWAP1 DUP1 PUSH1 0x1 DUP2 SLOAD ADD DUP1 DUP3 SSTORE DUP1 SWAP2 POP POP PUSH1 0x1 SWAP1 SUB SWAP1 PUSH1 0x0 MSTORE PUSH1 0x20 PUSH1 0x0 KECCAK256 SWAP1 PUSH1 0x2 MUL ADD PUSH1 0x0 SWAP1 SWAP2 SWAP1 SWAP2 SWAP1 SWAP2 POP PUSH1 0x0 DUP3 ADD MLOAD DUP2 PUSH1 0x0 ADD SWAP1 DUP2 PUSH2 0x5B6 SWAP2 SWAP1 PUSH2 0x10C5 JUMP JUMPDEST POP PUSH1 0x20 DUP3 ADD MLOAD DUP2 PUSH1 0x1 ADD SSTORE POP POP CALLER PUSH1 0x3 PUSH1 0x0 PUSH1 0x1 PUSH1 0x2 DUP1 SLOAD SWAP1 POP PUSH2 0x5DA SWAP2 SWAP1 PUSH2 0xE0D JUMP JUMPDEST DUP2 MSTORE PUSH1 0x20 ADD SWAP1 DUP2 MSTORE PUSH1 0x20 ADD PUSH1 0x0 KECCAK256 PUSH1 0x0 PUSH2 0x100 EXP DUP2 SLOAD DUP2 PUSH20 0xFFFFFFFFFFFFFFFFFFFFFFFFFFFFFFFFFFFFFFFF MUL NOT AND SWAP1 DUP4 PUSH20 0xFFFFFFFFFFFFFFFFFFFFFFFFFFFFFFFFFFFFFFFF AND MUL OR SWAP1 SSTORE POP PUSH1 0x1 PUSH1 0x4 PUSH1 0x0 CALLER PUSH20 0xFFFFFFFFFFFFFFFFFFFFFFFFFFFFFFFFFFFFFFFF AND PUSH20 0xFFFFFFFFFFFFFFFFFFFFFFFFFFFFFFFFFFFFFFFF AND DUP2 MSTORE PUSH1 0x20 ADD SWAP1 DUP2 MSTORE PUSH1 0x20 ADD PUSH1 0x0 KECCAK256 PUSH1 0x0 DUP3 DUP3 SLOAD PUSH2 0x676 SWAP2 SWAP1 PUSH2 0xDA8 JUMP JUMPDEST SWAP3 POP POP DUP2 SWAP1 SSTORE POP PUSH32 0x88F026AACBBECC90C18411DF4B1185FD8D9BE2470F1962F192BF84A27D0704B7 PUSH1 0x1 PUSH1 0x2 DUP1 SLOAD SWAP1 POP PUSH2 0x6B0 SWAP2 SWAP1 PUSH2 0xE0D JUMP JUMPDEST DUP4 DUP4 PUSH1 0x40 MLOAD PUSH2 0x6C1 SWAP4 SWAP3 SWAP2 SWAP1 PUSH2 0x1197 JUMP JUMPDEST PUSH1 0x40 MLOAD DUP1 SWAP2 SUB SWAP1 LOG1 POP POP JUMP JUMPDEST PUSH1 0x0 PUSH1 0x1 SLOAD DUP4 DUP4 PUSH1 0x40 MLOAD PUSH1 0x20 ADD PUSH2 0x6E5 SWAP3 SWAP2 SWAP1 PUSH2 0x11FA JUMP JUMPDEST PUSH1 0x40 MLOAD PUSH1 0x20 DUP2 DUP4 SUB SUB DUP2 MSTORE SWAP1 PUSH1 0x40 MSTORE DUP1 MLOAD SWAP1 PUSH1 0x20 ADD KECCAK256 PUSH1 0x0 SHR PUSH2 0x708 SWAP2 SWAP1 PUSH2 0xD48 JUMP JUMPDEST SWAP1 POP SWAP3 SWAP2 POP POP JUMP JUMPDEST PUSH1 0x0 PUSH1 0x40 MLOAD SWAP1 POP SWAP1 JUMP JUMPDEST PUSH1 0x0 DUP1 REVERT JUMPDEST PUSH1 0x0 DUP1 REVERT JUMPDEST PUSH1 0x0 DUP2 SWAP1 POP SWAP2 SWAP1 POP JUMP JUMPDEST PUSH2 0x737 DUP2 PUSH2 0x724 JUMP JUMPDEST DUP2 EQ PUSH2 0x742 JUMPI PUSH1 0x0 DUP1 REVERT JUMPDEST POP JUMP JUMPDEST PUSH1 0x0 DUP2 CALLDATALOAD SWAP1 POP PUSH2 0x754 DUP2 PUSH2 0x72E JUMP JUMPDEST SWAP3 SWAP2 POP POP JUMP JUMPDEST PUSH1 0x0 DUP1 PUSH1 0x40 DUP4 DUP6 SUB SLT ISZERO PUSH2 0x771 JUMPI PUSH2 0x770 PUSH2 0x71A JUMP JUMPDEST JUMPDEST PUSH1 0x0 PUSH2 0x77F DUP6 DUP3 DUP7 ADD PUSH2 0x745 JUMP JUMPDEST SWAP3 POP POP PUSH1 0x20 PUSH2 0x790 DUP6 DUP3 DUP7 ADD PUSH2 0x745 JUMP JUMPDEST SWAP2 POP POP SWAP3 POP SWAP3 SWAP1 POP JUMP JUMPDEST PUSH1 0x0 PUSH1 0x20 DUP3 DUP5 SUB SLT ISZERO PUSH2 0x7B0 JUMPI PUSH2 0x7AF PUSH2 0x71A JUMP JUMPDEST JUMPDEST PUSH1 0x0 PUSH2 0x7BE DUP5 DUP3 DUP6 ADD PUSH2 0x745 JUMP JUMPDEST SWAP2 POP POP SWAP3 SWAP2 POP POP JUMP JUMPDEST PUSH1 0x0 DUP2 MLOAD SWAP1 POP SWAP2 SWAP1 POP JUMP JUMPDEST PUSH1 0x0 DUP3 DUP3 MSTORE PUSH1 0x20 DUP3 ADD SWAP1 POP SWAP3 SWAP2 POP POP JUMP JUMPDEST PUSH1 0x0 JUMPDEST DUP4 DUP2 LT ISZERO PUSH2 0x801 JUMPI DUP1 DUP3 ADD MLOAD DUP2 DUP5 ADD MSTORE PUSH1 0x20 DUP2 ADD SWAP1 POP PUSH2 0x7E6 JUMP JUMPDEST PUSH1 0x0 DUP5 DUP5 ADD MSTORE POP POP POP POP JUMP JUMPDEST PUSH1 0x0 PUSH1 0x1F NOT PUSH1 0x1F DUP4 ADD AND SWAP1 POP SWAP2 SWAP1 POP JUMP JUMPDEST PUSH1 0x0 PUSH2 0x829 DUP3 PUSH2 0x7C7 JUMP JUMPDEST PUSH2 0x833 DUP2 DUP6 PUSH2 0x7D2 JUMP JUMPDEST SWAP4 POP PUSH2 0x843 DUP2 DUP6 PUSH1 0x20 DUP7 ADD PUSH2 0x7E3 JUMP JUMPDEST PUSH2 0x84C DUP2 PUSH2 0x80D JUMP JUMPDEST DUP5 ADD SWAP2 POP POP SWAP3 SWAP2 POP POP JUMP JUMPDEST PUSH2 0x860 DUP2 PUSH2 0x724 JUMP JUMPDEST DUP3 MSTORE POP POP JUMP JUMPDEST PUSH1 0x0 PUSH1 0x40 DUP3 ADD SWAP1 POP DUP2 DUP2 SUB PUSH1 0x0 DUP4 ADD MSTORE PUSH2 0x880 DUP2 DUP6 PUSH2 0x81E JUMP JUMPDEST SWAP1 POP PUSH2 0x88F PUSH1 0x20 DUP4 ADD DUP5 PUSH2 0x857 JUMP JUMPDEST SWAP4 SWAP3 POP POP POP JUMP JUMPDEST PUSH1 0x0 PUSH20 0xFFFFFFFFFFFFFFFFFFFFFFFFFFFFFFFFFFFFFFFF DUP3 AND SWAP1 POP SWAP2 SWAP1 POP JUMP JUMPDEST PUSH1 0x0 PUSH2 0x8C1 DUP3 PUSH2 0x896 JUMP JUMPDEST SWAP1 POP SWAP2 SWAP1 POP JUMP JUMPDEST PUSH2 0x8D1 DUP2 PUSH2 0x8B6 JUMP JUMPDEST DUP3 MSTORE POP POP JUMP JUMPDEST PUSH1 0x0 PUSH1 0x20 DUP3 ADD SWAP1 POP PUSH2 0x8EC PUSH1 0x0 DUP4 ADD DUP5 PUSH2 0x8C8 JUMP JUMPDEST SWAP3 SWAP2 POP POP JUMP JUMPDEST PUSH1 0x0 DUP1 REVERT JUMPDEST PUSH1 0x0 DUP1 REVERT JUMPDEST PUSH32 0x4E487B7100000000000000000000000000000000000000000000000000000000 PUSH1 0x0 MSTORE PUSH1 0x41 PUSH1 0x4 MSTORE PUSH1 0x24 PUSH1 0x0 REVERT JUMPDEST PUSH2 0x934 DUP3 PUSH2 0x80D JUMP JUMPDEST DUP2 ADD DUP2 DUP2 LT PUSH8 0xFFFFFFFFFFFFFFFF DUP3 GT OR ISZERO PUSH2 0x953 JUMPI PUSH2 0x952 PUSH2 0x8FC JUMP JUMPDEST JUMPDEST DUP1 PUSH1 0x40 MSTORE POP POP POP JUMP JUMPDEST PUSH1 0x0 PUSH2 0x966 PUSH2 0x710 JUMP JUMPDEST SWAP1 POP PUSH2 0x972 DUP3 DUP3 PUSH2 0x92B JUMP JUMPDEST SWAP2 SWAP1 POP JUMP JUMPDEST PUSH1 0x0 PUSH8 0xFFFFFFFFFFFFFFFF DUP3 GT ISZERO PUSH2 0x992 JUMPI PUSH2 0x991 PUSH2 0x8FC JUMP JUMPDEST JUMPDEST PUSH2 0x99B DUP3 PUSH2 0x80D JUMP JUMPDEST SWAP1 POP PUSH1 0x20 DUP2 ADD SWAP1 POP SWAP2 SWAP1 POP JUMP JUMPDEST DUP3 DUP2 DUP4 CALLDATACOPY PUSH1 0x0 DUP4 DUP4 ADD MSTORE POP POP POP JUMP JUMPDEST PUSH1 0x0 PUSH2 0x9CA PUSH2 0x9C5 DUP5 PUSH2 0x977 JUMP JUMPDEST PUSH2 0x95C JUMP JUMPDEST SWAP1 POP DUP3 DUP2 MSTORE PUSH1 0x20 DUP2 ADD DUP5 DUP5 DUP5 ADD GT ISZERO PUSH2 0x9E6 JUMPI PUSH2 0x9E5 PUSH2 0x8F7 JUMP JUMPDEST JUMPDEST PUSH2 0x9F1 DUP5 DUP3 DUP6 PUSH2 0x9A8 JUMP JUMPDEST POP SWAP4 SWAP3 POP POP POP JUMP JUMPDEST PUSH1 0x0 DUP3 PUSH1 0x1F DUP4 ADD SLT PUSH2 0xA0E JUMPI PUSH2 0xA0D PUSH2 0x8F2 JUMP JUMPDEST JUMPDEST DUP2 CALLDATALOAD PUSH2 0xA1E DUP5 DUP3 PUSH1 0x20 DUP7 ADD PUSH2 0x9B7 JUMP JUMPDEST SWAP2 POP POP SWAP3 SWAP2 POP POP JUMP JUMPDEST PUSH1 0x0 DUP1 PUSH1 0x0 PUSH1 0x60 DUP5 DUP7 SUB SLT ISZERO PUSH2 0xA40 JUMPI PUSH2 0xA3F PUSH2 0x71A JUMP JUMPDEST JUMPDEST PUSH1 0x0 PUSH2 0xA4E DUP7 DUP3 DUP8 ADD PUSH2 0x745 JUMP JUMPDEST SWAP4 POP POP PUSH1 0x20 PUSH2 0xA5F DUP7 DUP3 DUP8 ADD PUSH2 0x745 JUMP JUMPDEST SWAP3 POP POP PUSH1 0x40 DUP5 ADD CALLDATALOAD PUSH8 0xFFFFFFFFFFFFFFFF DUP2 GT ISZERO PUSH2 0xA80 JUMPI PUSH2 0xA7F PUSH2 0x71F JUMP JUMPDEST JUMPDEST PUSH2 0xA8C DUP7 DUP3 DUP8 ADD PUSH2 0x9F9 JUMP JUMPDEST SWAP2 POP POP SWAP3 POP SWAP3 POP SWAP3 JUMP JUMPDEST PUSH1 0x0 DUP1 REVERT JUMPDEST PUSH1 0x0 DUP1 REVERT JUMPDEST PUSH1 0x0 DUP1 DUP4 PUSH1 0x1F DUP5 ADD SLT PUSH2 0xAB6 JUMPI PUSH2 0xAB5 PUSH2 0x8F2 JUMP JUMPDEST JUMPDEST DUP3 CALLDATALOAD SWAP1 POP PUSH8 0xFFFFFFFFFFFFFFFF DUP2 GT ISZERO PUSH2 0xAD3 JUMPI PUSH2 0xAD2 PUSH2 0xA96 JUMP JUMPDEST JUMPDEST PUSH1 0x20 DUP4 ADD SWAP2 POP DUP4 PUSH1 0x1 DUP3 MUL DUP4 ADD GT ISZERO PUSH2 0xAEF JUMPI PUSH2 0xAEE PUSH2 0xA9B JUMP JUMPDEST JUMPDEST SWAP3 POP SWAP3 SWAP1 POP JUMP JUMPDEST PUSH1 0x0 DUP1 PUSH1 0x20 DUP4 DUP6 SUB SLT ISZERO PUSH2 0xB0D JUMPI PUSH2 0xB0C PUSH2 0x71A JUMP JUMPDEST JUMPDEST PUSH1 0x0 DUP4 ADD CALLDATALOAD PUSH8 0xFFFFFFFFFFFFFFFF DUP2 GT ISZERO PUSH2 0xB2B JUMPI PUSH2 0xB2A PUSH2 0x71F JUMP JUMPDEST JUMPDEST PUSH2 0xB37 DUP6 DUP3 DUP7 ADD PUSH2 0xAA0 JUMP JUMPDEST SWAP3 POP SWAP3 POP POP SWAP3 POP SWAP3 SWAP1 POP JUMP JUMPDEST PUSH1 0x0 PUSH1 0x20 DUP3 ADD SWAP1 POP PUSH2 0xB58 PUSH1 0x0 DUP4 ADD DUP5 PUSH2 0x857 JUMP JUMPDEST SWAP3 SWAP2 POP POP JUMP JUMPDEST PUSH1 0x0 DUP2 ISZERO ISZERO SWAP1 POP SWAP2 SWAP1 POP JUMP JUMPDEST PUSH2 0xB73 DUP2 PUSH2 0xB5E JUMP JUMPDEST DUP2 EQ PUSH2 0xB7E JUMPI PUSH1 0x0 DUP1 REVERT JUMPDEST POP JUMP JUMPDEST PUSH1 0x0 DUP2 MLOAD SWAP1 POP PUSH2 0xB90 DUP2 PUSH2 0xB6A JUMP JUMPDEST SWAP3 SWAP2 POP POP JUMP JUMPDEST PUSH1 0x0 DUP2 MLOAD SWAP1 POP PUSH2 0xBA5 DUP2 PUSH2 0x72E JUMP JUMPDEST SWAP3 SWAP2 POP POP JUMP JUMPDEST PUSH1 0x0 DUP1 PUSH1 0x0 DUP1 PUSH1 0x0 DUP1 PUSH1 0x0 DUP1 PUSH1 0x0 DUP1 PUSH2 0x140 DUP12 DUP14 SUB SLT ISZERO PUSH2 0xBCF JUMPI PUSH2 0xBCE PUSH2 0x71A JUMP JUMPDEST JUMPDEST PUSH1 0x0 PUSH2 0xBDD DUP14 DUP3 DUP15 ADD PUSH2 0xB81 JUMP JUMPDEST SWAP11 POP POP PUSH1 0x20 PUSH2 0xBEE DUP14 DUP3 DUP15 ADD PUSH2 0xB81 JUMP JUMPDEST SWAP10 POP POP PUSH1 0x40 PUSH2 0xBFF DUP14 DUP3 DUP15 ADD PUSH2 0xB96 JUMP JUMPDEST SWAP9 POP POP PUSH1 0x60 PUSH2 0xC10 DUP14 DUP3 DUP15 ADD PUSH2 0xB96 JUMP JUMPDEST SWAP8 POP POP PUSH1 0x80 PUSH2 0xC21 DUP14 DUP3 DUP15 ADD PUSH2 0xB96 JUMP JUMPDEST SWAP7 POP POP PUSH1 0xA0 PUSH2 0xC32 DUP14 DUP3 DUP15 ADD PUSH2 0xB96 JUMP JUMPDEST SWAP6 POP POP PUSH1 0xC0 PUSH2 0xC43 DUP14 DUP3 DUP15 ADD PUSH2 0xB96 JUMP JUMPDEST SWAP5 POP POP PUSH1 0xE0 PUSH2 0xC54 DUP14 DUP3 DUP15 ADD PUSH2 0xB96 JUMP JUMPDEST SWAP4 POP POP PUSH2 0x100 PUSH2 0xC66 DUP14 DUP3 DUP15 ADD PUSH2 0xB96 JUMP JUMPDEST SWAP3 POP POP PUSH2 0x120 PUSH2 0xC78 DUP14 DUP3 DUP15 ADD PUSH2 0xB96 JUMP JUMPDEST SWAP2 POP POP SWAP3 SWAP6 SWAP9 SWAP12 SWAP2 SWAP5 SWAP8 SWAP11 POP SWAP3 SWAP6 SWAP9 POP JUMP JUMPDEST PUSH32 0x4E487B7100000000000000000000000000000000000000000000000000000000 PUSH1 0x0 MSTORE PUSH1 0x22 PUSH1 0x4 MSTORE PUSH1 0x24 PUSH1 0x0 REVERT JUMPDEST PUSH1 0x0 PUSH1 0x2 DUP3 DIV SWAP1 POP PUSH1 0x1 DUP3 AND DUP1 PUSH2 0xCD1 JUMPI PUSH1 0x7F DUP3 AND SWAP2 POP JUMPDEST PUSH1 0x20 DUP3 LT DUP2 SUB PUSH2 0xCE4 JUMPI PUSH2 0xCE3 PUSH2 0xC8A JUMP JUMPDEST JUMPDEST POP SWAP2 SWAP1 POP JUMP JUMPDEST PUSH32 0x4E487B7100000000000000000000000000000000000000000000000000000000 PUSH1 0x0 MSTORE PUSH1 0x32 PUSH1 0x4 MSTORE PUSH1 0x24 PUSH1 0x0 REVERT JUMPDEST PUSH32 0x4E487B7100000000000000000000000000000000000000000000000000000000 PUSH1 0x0 MSTORE PUSH1 0x12 PUSH1 0x4 MSTORE PUSH1 0x24 PUSH1 0x0 REVERT JUMPDEST PUSH1 0x0 PUSH2 0xD53 DUP3 PUSH2 0x724 JUMP JUMPDEST SWAP2 POP PUSH2 0xD5E DUP4 PUSH2 0x724 JUMP JUMPDEST SWAP3 POP DUP3 PUSH2 0xD6E JUMPI PUSH2 0xD6D PUSH2 0xD19 JUMP JUMPDEST JUMPDEST DUP3 DUP3 MOD SWAP1 POP SWAP3 SWAP2 POP POP JUMP JUMPDEST PUSH32 0x4E487B7100000000000000000000000000000000000000000000000000000000 PUSH1 0x0 MSTORE PUSH1 0x11 PUSH1 0x4 MSTORE PUSH1 0x24 PUSH1 0x0 REVERT JUMPDEST PUSH1 0x0 PUSH2 0xDB3 DUP3 PUSH2 0x724 JUMP JUMPDEST SWAP2 POP PUSH2 0xDBE DUP4 PUSH2 0x724 JUMP JUMPDEST SWAP3 POP DUP3 DUP3 ADD SWAP1 POP DUP1 DUP3 GT ISZERO PUSH2 0xDD6 JUMPI PUSH2 0xDD5 PUSH2 0xD79 JUMP JUMPDEST JUMPDEST SWAP3 SWAP2 POP POP JUMP JUMPDEST PUSH1 0x0 PUSH2 0xDE7 DUP3 PUSH2 0x724 JUMP JUMPDEST SWAP2 POP PUSH2 0xDF2 DUP4 PUSH2 0x724 JUMP JUMPDEST SWAP3 POP DUP3 PUSH2 0xE02 JUMPI PUSH2 0xE01 PUSH2 0xD19 JUMP JUMPDEST JUMPDEST DUP3 DUP3 DIV SWAP1 POP SWAP3 SWAP2 POP POP JUMP JUMPDEST PUSH1 0x0 PUSH2 0xE18 DUP3 PUSH2 0x724 JUMP JUMPDEST SWAP2 POP PUSH2 0xE23 DUP4 PUSH2 0x724 JUMP JUMPDEST SWAP3 POP DUP3 DUP3 SUB SWAP1 POP DUP2 DUP2 GT ISZERO PUSH2 0xE3B JUMPI PUSH2 0xE3A PUSH2 0xD79 JUMP JUMPDEST JUMPDEST SWAP3 SWAP2 POP POP JUMP JUMPDEST PUSH1 0x0 DUP2 SWAP1 POP SWAP3 SWAP2 POP POP JUMP JUMPDEST PUSH32 0x4E6F6E616D650000000000000000000000000000000000000000000000000000 PUSH1 0x0 DUP3 ADD MSTORE POP JUMP JUMPDEST PUSH1 0x0 PUSH2 0xE82 PUSH1 0x6 DUP4 PUSH2 0xE41 JUMP JUMPDEST SWAP2 POP PUSH2 0xE8D DUP3 PUSH2 0xE4C JUMP JUMPDEST PUSH1 0x6 DUP3 ADD SWAP1 POP SWAP2 SWAP1 POP JUMP JUMPDEST PUSH1 0x0 PUSH2 0xEA3 DUP3 PUSH2 0xE75 JUMP JUMPDEST SWAP2 POP DUP2 SWAP1 POP SWAP2 SWAP1 POP JUMP JUMPDEST PUSH32 0x4552524F52000000000000000000000000000000000000000000000000000000 PUSH1 0x0 DUP3 ADD MSTORE POP JUMP JUMPDEST PUSH1 0x0 PUSH2 0xEE3 PUSH1 0x5 DUP4 PUSH2 0x7D2 JUMP JUMPDEST SWAP2 POP PUSH2 0xEEE DUP3 PUSH2 0xEAD JUMP JUMPDEST PUSH1 0x20 DUP3 ADD SWAP1 POP SWAP2 SWAP1 POP JUMP JUMPDEST PUSH1 0x0 PUSH1 0x20 DUP3 ADD SWAP1 POP DUP2 DUP2 SUB PUSH1 0x0 DUP4 ADD MSTORE PUSH2 0xF12 DUP2 PUSH2 0xED6 JUMP JUMPDEST SWAP1 POP SWAP2 SWAP1 POP JUMP JUMPDEST PUSH1 0x0 DUP2 SWAP1 POP DUP2 PUSH1 0x0 MSTORE PUSH1 0x20 PUSH1 0x0 KECCAK256 SWAP1 POP SWAP2 SWAP1 POP JUMP JUMPDEST PUSH1 0x0 PUSH1 0x20 PUSH1 0x1F DUP4 ADD DIV SWAP1 POP SWAP2 SWAP1 POP JUMP JUMPDEST PUSH1 0x0 DUP3 DUP3 SHL SWAP1 POP SWAP3 SWAP2 POP POP JUMP JUMPDEST PUSH1 0x0 PUSH1 0x8 DUP4 MUL PUSH2 0xF7B PUSH32 0xFFFFFFFFFFFFFFFFFFFFFFFFFFFFFFFFFFFFFFFFFFFFFFFFFFFFFFFFFFFFFFFF DUP3 PUSH2 0xF3E JUMP JUMPDEST PUSH2 0xF85 DUP7 DUP4 PUSH2 0xF3E JUMP JUMPDEST SWAP6 POP DUP1 NOT DUP5 AND SWAP4 POP DUP1 DUP7 AND DUP5 OR SWAP3 POP POP POP SWAP4 SWAP3 POP POP POP JUMP JUMPDEST PUSH1 0x0 DUP2 SWAP1 POP SWAP2 SWAP1 POP JUMP JUMPDEST PUSH1 0x0 PUSH2 0xFC2 PUSH2 0xFBD PUSH2 0xFB8 DUP5 PUSH2 0x724 JUMP JUMPDEST PUSH2 0xF9D JUMP JUMPDEST PUSH2 0x724 JUMP JUMPDEST SWAP1 POP SWAP2 SWAP1 POP JUMP JUMPDEST PUSH1 0x0 DUP2 SWAP1 POP SWAP2 SWAP1 POP JUMP JUMPDEST PUSH2 0xFDC DUP4 PUSH2 0xFA7 JUMP JUMPDEST PUSH2 0xFF0 PUSH2 0xFE8 DUP3 PUSH2 0xFC9 JUMP JUMPDEST DUP5 DUP5 SLOAD PUSH2 0xF4B JUMP JUMPDEST DUP3 SSTORE POP POP POP POP JUMP JUMPDEST PUSH1 0x0 SWAP1 JUMP JUMPDEST PUSH2 0x1005 PUSH2 0xFF8 JUMP JUMPDEST PUSH2 0x1010 DUP2 DUP5 DUP5 PUSH2 0xFD3 JUMP JUMPDEST POP POP POP JUMP JUMPDEST JUMPDEST DUP2 DUP2 LT ISZERO PUSH2 0x1034 JUMPI PUSH2 0x1029 PUSH1 0x0 DUP3 PUSH2 0xFFD JUMP JUMPDEST PUSH1 0x1 DUP2 ADD SWAP1 POP PUSH2 0x1016 JUMP JUMPDEST POP POP JUMP JUMPDEST PUSH1 0x1F DUP3 GT ISZERO PUSH2 0x1079 JUMPI PUSH2 0x104A DUP2 PUSH2 0xF19 JUMP JUMPDEST PUSH2 0x1053 DUP5 PUSH2 0xF2E JUMP JUMPDEST DUP2 ADD PUSH1 0x20 DUP6 LT ISZERO PUSH2 0x1062 JUMPI DUP2 SWAP1 POP JUMPDEST PUSH2 0x1076 PUSH2 0x106E DUP6 PUSH2 0xF2E JUMP JUMPDEST DUP4 ADD DUP3 PUSH2 0x1015 JUMP JUMPDEST POP POP JUMPDEST POP POP POP JUMP JUMPDEST PUSH1 0x0 DUP3 DUP3 SHR SWAP1 POP SWAP3 SWAP2 POP POP JUMP JUMPDEST PUSH1 0x0 PUSH2 0x109C PUSH1 0x0 NOT DUP5 PUSH1 0x8 MUL PUSH2 0x107E JUMP JUMPDEST NOT DUP1 DUP4 AND SWAP2 POP POP SWAP3 SWAP2 POP POP JUMP JUMPDEST PUSH1 0x0 PUSH2 0x10B5 DUP4 DUP4 PUSH2 0x108B JUMP JUMPDEST SWAP2 POP DUP3 PUSH1 0x2 MUL DUP3 OR SWAP1 POP SWAP3 SWAP2 POP POP JUMP JUMPDEST PUSH2 0x10CE DUP3 PUSH2 0x7C7 JUMP JUMPDEST PUSH8 0xFFFFFFFFFFFFFFFF DUP2 GT ISZERO PUSH2 0x10E7 JUMPI PUSH2 0x10E6 PUSH2 0x8FC JUMP JUMPDEST JUMPDEST PUSH2 0x10F1 DUP3 SLOAD PUSH2 0xCB9 JUMP JUMPDEST PUSH2 0x10FC DUP3 DUP3 DUP6 PUSH2 0x1038 JUMP JUMPDEST PUSH1 0x0 PUSH1 0x20 SWAP1 POP PUSH1 0x1F DUP4 GT PUSH1 0x1 DUP2 EQ PUSH2 0x112F JUMPI PUSH1 0x0 DUP5 ISZERO PUSH2 0x111D JUMPI DUP3 DUP8 ADD MLOAD SWAP1 POP JUMPDEST PUSH2 0x1127 DUP6 DUP3 PUSH2 0x10A9 JUMP JUMPDEST DUP7 SSTORE POP PUSH2 0x118F JUMP JUMPDEST PUSH1 0x1F NOT DUP5 AND PUSH2 0x113D DUP7 PUSH2 0xF19 JUMP JUMPDEST PUSH1 0x0 JUMPDEST DUP3 DUP2 LT ISZERO PUSH2 0x1165 JUMPI DUP5 DUP10 ADD MLOAD DUP3 SSTORE PUSH1 0x1 DUP3 ADD SWAP2 POP PUSH1 0x20 DUP6 ADD SWAP5 POP PUSH1 0x20 DUP2 ADD SWAP1 POP PUSH2 0x1140 JUMP JUMPDEST DUP7 DUP4 LT ISZERO PUSH2 0x1182 JUMPI DUP5 DUP10 ADD MLOAD PUSH2 0x117E PUSH1 0x1F DUP10 AND DUP3 PUSH2 0x108B JUMP JUMPDEST DUP4 SSTORE POP JUMPDEST PUSH1 0x1 PUSH1 0x2 DUP9 MUL ADD DUP9 SSTORE POP POP POP JUMPDEST POP POP POP POP POP POP JUMP JUMPDEST PUSH1 0x0 PUSH1 0x60 DUP3 ADD SWAP1 POP PUSH2 0x11AC PUSH1 0x0 DUP4 ADD DUP7 PUSH2 0x857 JUMP JUMPDEST DUP2 DUP2 SUB PUSH1 0x20 DUP4 ADD MSTORE PUSH2 0x11BE DUP2 DUP6 PUSH2 0x81E JUMP JUMPDEST SWAP1 POP PUSH2 0x11CD PUSH1 0x40 DUP4 ADD DUP5 PUSH2 0x857 JUMP JUMPDEST SWAP5 SWAP4 POP POP POP POP JUMP JUMPDEST PUSH1 0x0 PUSH2 0x11E1 DUP4 DUP6 PUSH2 0xE41 JUMP JUMPDEST SWAP4 POP PUSH2 0x11EE DUP4 DUP6 DUP5 PUSH2 0x9A8 JUMP JUMPDEST DUP3 DUP5 ADD SWAP1 POP SWAP4 SWAP3 POP POP POP JUMP JUMPDEST PUSH1 0x0 PUSH2 0x1207 DUP3 DUP5 DUP7 PUSH2 0x11D5 JUMP JUMPDEST SWAP2 POP DUP2 SWAP1 POP SWAP4 SWAP3 POP POP POP JUMP INVALID LOG2 PUSH5 0x6970667358 0x22 SLT KECCAK256 0xAA 0xB2 0xE0 TLOAD 0x2E 0xD0 DUP9 PUSH9 0x851193E5E42E17B573 DUP5 CREATE2 0x25 0xA8 SWAP7 GAS SWAP9 REVERT BASEFEE 0xFB SWAP1 STOP BLOBHASH 0xC5 DUP8 PUSH5 0x736F6C6343 STOP ADDMOD NOT STOP CALLER "
				},
				"gasEstimates": {
					"creation": {
						"codeDepositCost": "936200",
						"executionCost": "infinite",
						"totalCost": "infinite"
					},
					"external": {
						"createRandomZombie(string)": "infinite",
						"feedAndMultiply(uint256,uint256,string)": "infinite",
						"feedOnKitty(uint256,uint256)": "infinite",
						"zombieToOwner(uint256)": "2861",
						"zombies(uint256)": "infinite"
					}
				},
				"methodIdentifiers": {
					"createRandomZombie(string)": "7bff0a01",
					"feedAndMultiply(uint256,uint256,string)": "6b0bfc80",
					"feedOnKitty(uint256,uint256)": "17a7f4cc",
					"zombieToOwner(uint256)": "528b7b8f",
					"zombies(uint256)": "2052465e"
				}
			},
			"storageLayout": {
				"storage": [
					{
						"astId": 4,
						"contract": "contracts/ZombieFeeding.sol:ZombieFeeding",
						"label": "dnaDigits",
						"offset": 0,
						"slot": "0",
						"type": "t_uint256"
					},
					{
						"astId": 9,
						"contract": "contracts/ZombieFeeding.sol:ZombieFeeding",
						"label": "dnaModulus",
						"offset": 0,
						"slot": "1",
						"type": "t_uint256"
					},
					{
						"astId": 18,
						"contract": "contracts/ZombieFeeding.sol:ZombieFeeding",
						"label": "zombies",
						"offset": 0,
						"slot": "2",
						"type": "t_array(t_struct(Zombie)14_storage)dyn_storage"
					},
					{
						"astId": 30,
						"contract": "contracts/ZombieFeeding.sol:ZombieFeeding",
						"label": "zombieToOwner",
						"offset": 0,
						"slot": "3",
						"type": "t_mapping(t_uint256,t_address)"
					},
					{
						"astId": 34,
						"contract": "contracts/ZombieFeeding.sol:ZombieFeeding",
						"label": "ownerZombieCount",
						"offset": 0,
						"slot": "4",
						"type": "t_mapping(t_address,t_uint256)"
					},
					{
						"astId": 155,
						"contract": "contracts/ZombieFeeding.sol:ZombieFeeding",
						"label": "ckAddress",
						"offset": 0,
						"slot": "5",
						"type": "t_address"
					},
					{
						"astId": 161,
						"contract": "contracts/ZombieFeeding.sol:ZombieFeeding",
						"label": "kittyContract",
						"offset": 0,
						"slot": "6",
						"type": "t_contract(KittyInterface)150"
					}
				],
				"types": {
					"t_address": {
						"encoding": "inplace",
						"label": "address",
						"numberOfBytes": "20"
					},
					"t_array(t_struct(Zombie)14_storage)dyn_storage": {
						"base": "t_struct(Zombie)14_storage",
						"encoding": "dynamic_array",
						"label": "struct ZombieFactory.Zombie[]",
						"numberOfBytes": "32"
					},
					"t_contract(KittyInterface)150": {
						"encoding": "inplace",
						"label": "contract KittyInterface",
						"numberOfBytes": "20"
					},
					"t_mapping(t_address,t_uint256)": {
						"encoding": "mapping",
						"key": "t_address",
						"label": "mapping(address => uint256)",
						"numberOfBytes": "32",
						"value": "t_uint256"
					},
					"t_mapping(t_uint256,t_address)": {
						"encoding": "mapping",
						"key": "t_uint256",
						"label": "mapping(uint256 => address)",
						"numberOfBytes": "32",
						"value": "t_address"
					},
					"t_string_storage": {
						"encoding": "bytes",
						"label": "string",
						"numberOfBytes": "32"
					},
					"t_struct(Zombie)14_storage": {
						"encoding": "inplace",
						"label": "struct ZombieFactory.Zombie",
						"members": [
							{
								"astId": 11,
								"contract": "contracts/ZombieFeeding.sol:ZombieFeeding",
								"label": "name",
								"offset": 0,
								"slot": "0",
								"type": "t_string_storage"
							},
							{
								"astId": 13,
								"contract": "contracts/ZombieFeeding.sol:ZombieFeeding",
								"label": "dna",
								"offset": 0,
								"slot": "1",
								"type": "t_uint256"
							}
						],
						"numberOfBytes": "64"
					},
					"t_uint256": {
						"encoding": "inplace",
						"label": "uint256",
						"numberOfBytes": "32"
					}
				}
			},
			"userdoc": {
				"kind": "user",
				"methods": {},
				"version": 1
			}
		}
	}
}